{"src/Scientify4.sol":{"Scientify4":{"abi":[{"inputs":[],"stateMutability":"nonpayable","type":"constructor"},{"inputs":[{"internalType":"address","name":"sender","type":"address"},{"internalType":"uint256","name":"balance","type":"uint256"},{"internalType":"uint256","name":"needed","type":"uint256"},{"internalType":"uint256","name":"tokenId","type":"uint256"}],"name":"ERC1155InsufficientBalance","type":"error"},{"inputs":[{"internalType":"address","name":"approver","type":"address"}],"name":"ERC1155InvalidApprover","type":"error"},{"inputs":[{"internalType":"uint256","name":"idsLength","type":"uint256"},{"internalType":"uint256","name":"valuesLength","type":"uint256"}],"name":"ERC1155InvalidArrayLength","type":"error"},{"inputs":[{"internalType":"address","name":"operator","type":"address"}],"name":"ERC1155InvalidOperator","type":"error"},{"inputs":[{"internalType":"address","name":"receiver","type":"address"}],"name":"ERC1155InvalidReceiver","type":"error"},{"inputs":[{"internalType":"address","name":"sender","type":"address"}],"name":"ERC1155InvalidSender","type":"error"},{"inputs":[{"internalType":"address","name":"operator","type":"address"},{"internalType":"address","name":"owner","type":"address"}],"name":"ERC1155MissingApprovalForAll","type":"error"},{"inputs":[],"name":"EnforcedPause","type":"error"},{"inputs":[],"name":"ExpectedPause","type":"error"},{"inputs":[],"name":"InvalidAttestation","type":"error"},{"inputs":[],"name":"NoTokenBalance","type":"error"},{"inputs":[],"name":"NotAuthenticated","type":"error"},{"inputs":[],"name":"NotEnoughValue","type":"error"},{"inputs":[],"name":"NotLiquidable","type":"error"},{"inputs":[{"internalType":"address","name":"owner","type":"address"}],"name":"OwnableInvalidOwner","type":"error"},{"inputs":[{"internalType":"address","name":"account","type":"address"}],"name":"OwnableUnauthorizedAccount","type":"error"},{"inputs":[],"name":"PaymentFailed","type":"error"},{"inputs":[],"name":"ResearchCap","type":"error"},{"anonymous":false,"inputs":[{"indexed":true,"internalType":"address","name":"account","type":"address"},{"indexed":true,"internalType":"address","name":"operator","type":"address"},{"indexed":false,"internalType":"bool","name":"approved","type":"bool"}],"name":"ApprovalForAll","type":"event"},{"anonymous":false,"inputs":[{"indexed":true,"internalType":"address","name":"previousOwner","type":"address"},{"indexed":true,"internalType":"address","name":"newOwner","type":"address"}],"name":"OwnershipTransferred","type":"event"},{"anonymous":false,"inputs":[{"indexed":false,"internalType":"address","name":"account","type":"address"}],"name":"Paused","type":"event"},{"anonymous":false,"inputs":[{"indexed":false,"internalType":"uint256","name":"researchId","type":"uint256"},{"indexed":false,"internalType":"address","name":"researcher","type":"address"}],"name":"ResearchCreated","type":"event"},{"anonymous":false,"inputs":[{"indexed":true,"internalType":"address","name":"researcher","type":"address"},{"indexed":false,"internalType":"uint64","name":"attestationId","type":"uint64"}],"name":"ResearcherVerificationAttested","type":"event"},{"anonymous":false,"inputs":[{"indexed":true,"internalType":"address","name":"operator","type":"address"},{"indexed":true,"internalType":"address","name":"from","type":"address"},{"indexed":true,"internalType":"address","name":"to","type":"address"},{"indexed":false,"internalType":"uint256[]","name":"ids","type":"uint256[]"},{"indexed":false,"internalType":"uint256[]","name":"values","type":"uint256[]"}],"name":"TransferBatch","type":"event"},{"anonymous":false,"inputs":[{"indexed":true,"internalType":"address","name":"operator","type":"address"},{"indexed":true,"internalType":"address","name":"from","type":"address"},{"indexed":true,"internalType":"address","name":"to","type":"address"},{"indexed":false,"internalType":"uint256","name":"id","type":"uint256"},{"indexed":false,"internalType":"uint256","name":"value","type":"uint256"}],"name":"TransferSingle","type":"event"},{"anonymous":false,"inputs":[{"indexed":false,"internalType":"string","name":"value","type":"string"},{"indexed":true,"internalType":"uint256","name":"id","type":"uint256"}],"name":"URI","type":"event"},{"anonymous":false,"inputs":[{"indexed":false,"internalType":"address","name":"account","type":"address"}],"name":"Unpaused","type":"event"},{"anonymous":false,"inputs":[{"indexed":true,"internalType":"address","name":"researcher","type":"address"},{"indexed":false,"internalType":"uint64","name":"attestationId","type":"uint64"}],"name":"VerificationAttested","type":"event"},{"inputs":[{"internalType":"uint256","name":"researchId","type":"uint256"},{"internalType":"string","name":"cid","type":"string"},{"internalType":"uint64","name":"linkedAttestationId","type":"uint64"}],"name":"attestResearchAuthor","outputs":[],"stateMutability":"nonpayable","type":"function"},{"inputs":[{"internalType":"address","name":"researcher","type":"address"}],"name":"attestResearcherVerification","outputs":[],"stateMutability":"nonpayable","type":"function"},{"inputs":[{"internalType":"address","name":"account","type":"address"},{"internalType":"uint256","name":"id","type":"uint256"}],"name":"balanceOf","outputs":[{"internalType":"uint256","name":"","type":"uint256"}],"stateMutability":"view","type":"function"},{"inputs":[{"internalType":"address[]","name":"accounts","type":"address[]"},{"internalType":"uint256[]","name":"ids","type":"uint256[]"}],"name":"balanceOfBatch","outputs":[{"internalType":"uint256[]","name":"","type":"uint256[]"}],"stateMutability":"view","type":"function"},{"inputs":[{"internalType":"address","name":"account","type":"address"},{"internalType":"uint256","name":"id","type":"uint256"},{"internalType":"uint256","name":"value","type":"uint256"}],"name":"burn","outputs":[],"stateMutability":"nonpayable","type":"function"},{"inputs":[{"internalType":"address","name":"account","type":"address"},{"internalType":"uint256[]","name":"ids","type":"uint256[]"},{"internalType":"uint256[]","name":"values","type":"uint256[]"}],"name":"burnBatch","outputs":[],"stateMutability":"nonpayable","type":"function"},{"inputs":[{"internalType":"string","name":"repo","type":"string"},{"internalType":"uint256","name":"invest","type":"uint256"},{"internalType":"uint256","name":"articlePrice","type":"uint256"},{"internalType":"uint256","name":"articlePriceIncreaseRate","type":"uint256"}],"name":"createResearch","outputs":[],"stateMutability":"nonpayable","type":"function"},{"inputs":[{"internalType":"address","name":"account","type":"address"},{"internalType":"address","name":"operator","type":"address"}],"name":"isApprovedForAll","outputs":[{"internalType":"bool","name":"","type":"bool"}],"stateMutability":"view","type":"function"},{"inputs":[],"name":"owner","outputs":[{"internalType":"address","name":"","type":"address"}],"stateMutability":"view","type":"function"},{"inputs":[],"name":"paused","outputs":[{"internalType":"bool","name":"","type":"bool"}],"stateMutability":"view","type":"function"},{"inputs":[],"name":"renounceOwnership","outputs":[],"stateMutability":"nonpayable","type":"function"},{"inputs":[{"internalType":"uint256","name":"","type":"uint256"}],"name":"researchById","outputs":[{"internalType":"uint256","name":"id","type":"uint256"},{"internalType":"enum Scientify4.ResearchState","name":"state","type":"uint8"},{"internalType":"uint256","name":"investment","type":"uint256"},{"internalType":"uint256","name":"articlePrice","type":"uint256"},{"internalType":"uint256","name":"sharePrice","type":"uint256"},{"internalType":"uint256","name":"articlePriceIncreaseRate","type":"uint256"},{"internalType":"uint256","name":"funding","type":"uint256"},{"internalType":"uint256","name":"profit","type":"uint256"},{"internalType":"address","name":"owner","type":"address"},{"internalType":"string","name":"documentCID","type":"string"}],"stateMutability":"view","type":"function"},{"inputs":[{"internalType":"address","name":"","type":"address"},{"internalType":"uint256","name":"","type":"uint256"}],"name":"researchRequest","outputs":[{"internalType":"uint256","name":"id","type":"uint256"},{"internalType":"enum Scientify4.ResearchState","name":"state","type":"uint8"},{"internalType":"uint256","name":"investment","type":"uint256"},{"internalType":"uint256","name":"articlePrice","type":"uint256"},{"internalType":"uint256","name":"sharePrice","type":"uint256"},{"internalType":"uint256","name":"articlePriceIncreaseRate","type":"uint256"},{"internalType":"uint256","name":"funding","type":"uint256"},{"internalType":"uint256","name":"profit","type":"uint256"},{"internalType":"address","name":"owner","type":"address"},{"internalType":"string","name":"documentCID","type":"string"}],"stateMutability":"view","type":"function"},{"inputs":[{"internalType":"address","name":"","type":"address"}],"name":"researcherVerificationAttestations","outputs":[{"internalType":"uint64","name":"","type":"uint64"}],"stateMutability":"view","type":"function"},{"inputs":[{"internalType":"address","name":"from","type":"address"},{"internalType":"address","name":"to","type":"address"},{"internalType":"uint256[]","name":"ids","type":"uint256[]"},{"internalType":"uint256[]","name":"values","type":"uint256[]"},{"internalType":"bytes","name":"data","type":"bytes"}],"name":"safeBatchTransferFrom","outputs":[],"stateMutability":"nonpayable","type":"function"},{"inputs":[{"internalType":"address","name":"from","type":"address"},{"internalType":"address","name":"to","type":"address"},{"internalType":"uint256","name":"id","type":"uint256"},{"internalType":"uint256","name":"value","type":"uint256"},{"internalType":"bytes","name":"data","type":"bytes"}],"name":"safeTransferFrom","outputs":[],"stateMutability":"nonpayable","type":"function"},{"inputs":[{"internalType":"address","name":"operator","type":"address"},{"internalType":"bool","name":"approved","type":"bool"}],"name":"setApprovalForAll","outputs":[],"stateMutability":"nonpayable","type":"function"},{"inputs":[],"name":"spInstance","outputs":[{"internalType":"contract ISP","name":"","type":"address"}],"stateMutability":"view","type":"function"},{"inputs":[{"internalType":"bytes4","name":"interfaceId","type":"bytes4"}],"name":"supportsInterface","outputs":[{"internalType":"bool","name":"","type":"bool"}],"stateMutability":"view","type":"function"},{"inputs":[{"internalType":"address","name":"newOwner","type":"address"}],"name":"transferOwnership","outputs":[],"stateMutability":"nonpayable","type":"function"},{"inputs":[{"internalType":"uint256","name":"","type":"uint256"}],"name":"uri","outputs":[{"internalType":"string","name":"","type":"string"}],"stateMutability":"view","type":"function"},{"inputs":[{"internalType":"address","name":"","type":"address"}],"name":"verifiedResearchers","outputs":[{"internalType":"bool","name":"","type":"bool"}],"stateMutability":"view","type":"function"},{"inputs":[{"internalType":"address","name":"researcher","type":"address"}],"name":"verifyResearcher","outputs":[],"stateMutability":"nonpayable","type":"function"}],"devdoc":{"errors":{"ERC1155InsufficientBalance(address,uint256,uint256,uint256)":[{"details":"Indicates an error related to the current `balance` of a `sender`. Used in transfers.","params":{"balance":"Current balance for the interacting account.","needed":"Minimum amount required to perform a transfer.","sender":"Address whose tokens are being transferred.","tokenId":"Identifier number of a token."}}],"ERC1155InvalidApprover(address)":[{"details":"Indicates a failure with the `approver` of a token to be approved. Used in approvals.","params":{"approver":"Address initiating an approval operation."}}],"ERC1155InvalidArrayLength(uint256,uint256)":[{"details":"Indicates an array length mismatch between ids and values in a safeBatchTransferFrom operation. Used in batch transfers.","params":{"idsLength":"Length of the array of token identifiers","valuesLength":"Length of the array of token amounts"}}],"ERC1155InvalidOperator(address)":[{"details":"Indicates a failure with the `operator` to be approved. Used in approvals.","params":{"operator":"Address that may be allowed to operate on tokens without being their owner."}}],"ERC1155InvalidReceiver(address)":[{"details":"Indicates a failure with the token `receiver`. Used in transfers.","params":{"receiver":"Address to which tokens are being transferred."}}],"ERC1155InvalidSender(address)":[{"details":"Indicates a failure with the token `sender`. Used in transfers.","params":{"sender":"Address whose tokens are being transferred."}}],"ERC1155MissingApprovalForAll(address,address)":[{"details":"Indicates a failure with the `operator`’s approval. Used in transfers.","params":{"operator":"Address that may be allowed to operate on tokens without being their owner.","owner":"Address of the current owner of a token."}}],"EnforcedPause()":[{"details":"The operation failed because the contract is paused."}],"ExpectedPause()":[{"details":"The operation failed because the contract is not paused."}],"OwnableInvalidOwner(address)":[{"details":"The owner is not a valid owner account. (eg. `address(0)`)"}],"OwnableUnauthorizedAccount(address)":[{"details":"The caller account is not authorized to perform an operation."}]},"events":{"ApprovalForAll(address,address,bool)":{"details":"Emitted when `account` grants or revokes permission to `operator` to transfer their tokens, according to `approved`."},"Paused(address)":{"details":"Emitted when the pause is triggered by `account`."},"TransferBatch(address,address,address,uint256[],uint256[])":{"details":"Equivalent to multiple {TransferSingle} events, where `operator`, `from` and `to` are the same for all transfers."},"TransferSingle(address,address,address,uint256,uint256)":{"details":"Emitted when `value` amount of tokens of type `id` are transferred from `from` to `to` by `operator`."},"URI(string,uint256)":{"details":"Emitted when the URI for token type `id` changes to `value`, if it is a non-programmatic URI. If an {URI} event was emitted for `id`, the standard https://eips.ethereum.org/EIPS/eip-1155#metadata-extensions[guarantees] that `value` will equal the value returned by {IERC1155MetadataURI-uri}."},"Unpaused(address)":{"details":"Emitted when the pause is lifted by `account`."}},"kind":"dev","methods":{"balanceOf(address,uint256)":{"details":"See {IERC1155-balanceOf}."},"balanceOfBatch(address[],uint256[])":{"details":"See {IERC1155-balanceOfBatch}. Requirements: - `accounts` and `ids` must have the same length."},"isApprovedForAll(address,address)":{"details":"See {IERC1155-isApprovedForAll}."},"owner()":{"details":"Returns the address of the current owner."},"paused()":{"details":"Returns true if the contract is paused, and false otherwise."},"renounceOwnership()":{"details":"Leaves the contract without owner. It will not be possible to call `onlyOwner` functions. Can only be called by the current owner. NOTE: Renouncing ownership will leave the contract without an owner, thereby disabling any functionality that is only available to the owner."},"safeBatchTransferFrom(address,address,uint256[],uint256[],bytes)":{"details":"See {IERC1155-safeBatchTransferFrom}."},"safeTransferFrom(address,address,uint256,uint256,bytes)":{"details":"See {IERC1155-safeTransferFrom}."},"setApprovalForAll(address,bool)":{"details":"See {IERC1155-setApprovalForAll}."},"supportsInterface(bytes4)":{"details":"See {IERC165-supportsInterface}."},"transferOwnership(address)":{"details":"Transfers ownership of the contract to a new account (`newOwner`). Can only be called by the current owner."},"uri(uint256)":{"details":"See {IERC1155MetadataURI-uri}. This implementation returns the same URI for *all* token types. It relies on the token type ID substitution mechanism https://eips.ethereum.org/EIPS/eip-1155#metadata[defined in the EIP]. Clients calling this function must replace the `\\{id\\}` substring with the actual token type ID."}},"version":1},"evm":{"bytecode":{"linkReferences":{},"object":"60806040526001600455600a80546001600160a01b03191673878c92fd89d8e0b93dc0a3c907a2adc7577e39c517905534801561003b57600080fd5b506040805180820190915260048152634555524b60e01b60208201523390610062816100ad565b506001600160a01b03811661009157604051631e4fbdf760e01b81526000600482015260240160405180910390fd5b61009a816100bd565b506003805460ff60a01b1916905561026f565b60026100b982826101b0565b5050565b600380546001600160a01b038381166001600160a01b0319831681179093556040519116919082907f8be0079c531659141344cd1fd0a4f28419497f9722a3daafe3b4186f6b6457e090600090a35050565b634e487b7160e01b600052604160045260246000fd5b600181811c9082168061013957607f821691505b60208210810361015957634e487b7160e01b600052602260045260246000fd5b50919050565b601f8211156101ab576000816000526020600020601f850160051c810160208610156101885750805b601f850160051c820191505b818110156101a757828155600101610194565b5050505b505050565b81516001600160401b038111156101c9576101c961010f565b6101dd816101d78454610125565b8461015f565b602080601f83116001811461021257600084156101fa5750858301515b600019600386901b1c1916600185901b1785556101a7565b600085815260208120601f198616915b8281101561024157888601518255948401946001909101908401610222565b508582101561025f5787850151600019600388901b60f8161c191681555b5050505050600190811b01905550565b61242d8061027e6000396000f3fe608060405234801561001057600080fd5b506004361061014c5760003560e01c8063715018a6116100c3578063a8c5dc331161007c578063a8c5dc331461032d578063c2a756ca14610340578063e985e9c514610353578063f242432a14610366578063f2fde38b14610379578063f5298aca1461038c57600080fd5b8063715018a61461028657806373fd653d1461028e57806385235d3d146102a15780638da5cb5b146102b45780638f192180146102d9578063a22cb4651461031a57600080fd5b806336f58e5f1161011557806336f58e5f146101f85780634dd2febe1461021b5780634e1273f41461022e5780635c975abb1461024e57806368e2cea8146102605780636b20c4541461027357600080fd5b8062fdd58e1461015157806301ffc9a71461017757806308f3e3711461019a5780630e89341c146101c35780632eb2c2d6146101e3575b600080fd5b61016461015f3660046118db565b61039f565b6040519081526020015b60405180910390f35b61018a61018536600461191b565b6103c7565b604051901515815260200161016e565b6101ad6101a83660046118db565b610417565b60405161016e9a9998979695949392919061199b565b6101d66101d1366004611a10565b610523565b60405161016e9190611a29565b6101f66101f1366004611b83565b6105b7565b005b61018a610206366004611c2c565b60056020526000908152604090205460ff1681565b6101f6610229366004611c5c565b610623565b61024161023c366004611cb6565b6108fe565b60405161016e9190611db1565b600354600160a01b900460ff1661018a565b6101f661026e366004611dc4565b6109ca565b6101f6610281366004611e17565b610d30565b6101f6610d94565b6101f661029c366004611c2c565b610da8565b6101f66102af366004611c2c565b610ddf565b6003546001600160a01b03165b6040516001600160a01b03909116815260200161016e565b6103026102e7366004611c2c565b6009602052600090815260409020546001600160401b031681565b6040516001600160401b03909116815260200161016e565b6101f6610328366004611e8a565b610fd2565b600a546102c1906001600160a01b031681565b6101ad61034e366004611a10565b610fe1565b61018a610361366004611ec6565b611048565b6101f6610374366004611ef9565b611076565b6101f6610387366004611c2c565b6110d5565b6101f661039a366004611f5d565b611110565b6000818152602081815260408083206001600160a01b03861684529091529020545b92915050565b60006001600160e01b03198216636cdb3d1360e11b14806103f857506001600160e01b031982166303a24d0760e21b145b806103c157506301ffc9a760e01b6001600160e01b03198316146103c1565b6006602052816000526040600020818154811061043357600080fd5b60009182526020909120600a9091020180546001820154600283015460038401546004850154600586015460068701546007880154600889015460098a018054999c5060ff9098169a509598949793969295919490936001600160a01b039092169290916104a090611f90565b80601f01602080910402602001604051908101604052809291908181526020018280546104cc90611f90565b80156105195780601f106104ee57610100808354040283529160200191610519565b820191906000526020600020905b8154815290600101906020018083116104fc57829003601f168201915b505050505090508a565b60606002805461053290611f90565b80601f016020809104026020016040519081016040528092919081815260200182805461055e90611f90565b80156105ab5780601f10610580576101008083540402835291602001916105ab565b820191906000526020600020905b81548152906001019060200180831161058e57829003601f168201915b50505050509050919050565b336001600160a01b03861681148015906105d857506105d68682611048565b155b1561060e5760405163711bec9160e11b81526001600160a01b038083166004830152871660248201526044015b60405180910390fd5b61061b8686868686611146565b505050505050565b6003546001600160a01b031633148061064b57503360009081526005602052604090205460ff165b6106ab5760405162461bcd60e51b815260206004820152602b60248201527f43616c6c6572206d757374206265206f776e6572206f7220766572696669656460448201526a103932b9b2b0b931b432b960a91b6064820152608401610605565b6000838152600760205260408120805490910361070a5760405162461bcd60e51b815260206004820152601760248201527f526573656172636820646f6573206e6f742065786973740000000000000000006044820152606401610605565b604051603790600090610721908690602001611a29565b60408051808303601f190181526001808452838301909252925060009190816020015b6060815260200190600190039081610744579050506008850154604080516001600160a01b039092166020830152919250016040516020818303038152906040528160008151811061079857610798611fca565b60200260200101819052506000604051806101400160405280856001600160401b03168152602001876001600160401b0316815260200160006001600160401b0316815260200160006001600160401b03168152602001336001600160a01b0316815260200160006001600160401b03168152602001600260038111156108215761082161193f565b815260006020820181905260408083018690526060909201869052600a54915163b82916cb60e01b8152929350916001600160a01b039091169063b82916cb9061086f90859060040161204e565b6020604051808303816000875af115801561088e573d6000803e3d6000fd5b505050506040513d601f19601f820116820180604052508101906108b29190612181565b6040516001600160401b038216815290915033907f9c671a1530af5d07ef953afa0bde839d600abe110ed1178bbbecf03ad8dc611a9060200160405180910390a2505050505050505050565b6060815183511461092f5781518351604051635b05999160e01b815260048101929092526024820152604401610605565b600083516001600160401b0381111561094a5761094a611a3c565b604051908082528060200260200182016040528015610973578160200160208202803683370190505b50905060005b84518110156109c25760208082028601015161099d9060208084028701015161039f565b8282815181106109af576109af611fca565b6020908102919091010152600101610979565b509392505050565b3360009081526005602052604090205460ff16610a1d5760405162461bcd60e51b8152602060048201526011602482015270139bdd08185d5d1a195b9d1a58d85d1959607a1b6044820152606401610605565b33600090815260066020526040902054600511610a6a5760405162461bcd60e51b815260206004820152600b60248201526a052657365617263684361760ac1b6044820152606401610605565b6305f5e100831015610ab55760405162461bcd60e51b8152602060048201526014602482015273125b9d995cdd1b595b9d081d1bdbc81cdb585b1b60621b6044820152606401610605565b6000610ac56305f5e100856121b4565b90506000604051806101400160405280600454815260200160006002811115610af057610af061193f565b8152602080820188905260408083018890526060830186905260808301879052600060a0840181905260c084018190523360e085018190526101009094018b9052928352600682528220805460018181018355918452928290208451600a9094020192835590830151828201805494955085949192909160ff191690836002811115610b7e57610b7e61193f565b021790555060408201516002820155606082015160038201556080820151600482015560a0820151600582015560c0820151600682015560e082015160078201556101008201516008820180546001600160a01b0319166001600160a01b039092169190911790556101208201516009820190610bfb908261221e565b50506004546000908152600760209081526040909120835181559083015160018083018054869550909160ff1990911690836002811115610c3e57610c3e61193f565b021790555060408201516002820155606082015160038201556080820151600482015560a0820151600582015560c0820151600682015560e082015160078201556101008201516008820180546001600160a01b0319166001600160a01b039092169190911790556101208201516009820190610cbb908261221e565b50506004805491506000610cce836122dd565b909155505080516000908152600860205260409020610ced878261221e565b508051604080519182523360208301527fa0f5ee5b57f0c2f7ac409633c1c78b5d7473845e4fa9f659b98b4392ffbcdeba910160405180910390a1505050505050565b6001600160a01b0383163314801590610d505750610d4e8333611048565b155b15610d8457335b60405163711bec9160e11b81526001600160a01b0391821660048201529084166024820152604401610605565b610d8f8383836111ad565b505050565b610d9c6111f3565b610da66000611220565b565b610db06111f3565b6001600160a01b0381166000908152600560205260409020805460ff19166001179055610ddc81610ddf565b50565b610de76111f3565b60408051600180825281830190925260349160009190816020015b6060815260200190600190039081610e0257905050604080516001600160a01b03861660208201529192500160405160208183030381529060405281600081518110610e5057610e50611fca565b60200260200101819052506000836001604051602001610e879291906001600160a01b039290921682521515602082015260400190565b60408051808303601f19018152610140830182526001600160401b03861683526000602084018190528383018190526060840181905230608085015260a0840181905260c0840181905260e0840181905261010084018690526101208401829052600a54925163b82916cb60e01b8152919450916001600160a01b03169063b82916cb90610f1990859060040161204e565b6020604051808303816000875af1158015610f38573d6000803e3d6000fd5b505050506040513d601f19601f82011682018060405250810190610f5c9190612181565b6001600160a01b038716600081815260096020908152604091829020805467ffffffffffffffff19166001600160401b038616908117909155915191825292935090917f22c9aa052d4e34c225d60366b28389ee92cc16a9675cf0c73566587db4aabcb8910160405180910390a2505050505050565b610fdd338383611272565b5050565b60076020819052600091825260409091208054600182015460028301546003840154600485015460058601546006870154978701546008880154600989018054989a60ff90981699969895979496939592936001600160a01b03909216926104a090611f90565b6001600160a01b03918216600090815260016020908152604080832093909416825291909152205460ff1690565b336001600160a01b038616811480159061109757506110958682611048565b155b156110c85760405163711bec9160e11b81526001600160a01b03808316600483015287166024820152604401610605565b61061b8686868686611308565b6110dd6111f3565b6001600160a01b03811661110757604051631e4fbdf760e01b815260006004820152602401610605565b610ddc81611220565b6001600160a01b0383163314801590611130575061112e8333611048565b155b1561113b5733610d57565b610d8f838383611396565b6001600160a01b03841661117057604051632bfa23e760e11b815260006004820152602401610605565b6001600160a01b03851661119957604051626a0d4560e21b815260006004820152602401610605565b6111a685858585856113fa565b5050505050565b6001600160a01b0383166111d657604051626a0d4560e21b815260006004820152602401610605565b610d8f8360008484604051806020016040528060008152506113fa565b6003546001600160a01b03163314610da65760405163118cdaa760e01b8152336004820152602401610605565b600380546001600160a01b038381166001600160a01b0319831681179093556040519116919082907f8be0079c531659141344cd1fd0a4f28419497f9722a3daafe3b4186f6b6457e090600090a35050565b6001600160a01b03821661129b5760405162ced3e160e81b815260006004820152602401610605565b6001600160a01b03838116600081815260016020908152604080832094871680845294825291829020805460ff191686151590811790915591519182527f17307eab39ab6107e8899845ad3d59bd9653f200f220920489ca2b5937696c31910160405180910390a3505050565b6001600160a01b03841661133257604051632bfa23e760e11b815260006004820152602401610605565b6001600160a01b03851661135b57604051626a0d4560e21b815260006004820152602401610605565b6040805160018082526020820186905281830190815260608201859052608082019092529061138d87878484876113fa565b50505050505050565b6001600160a01b0383166113bf57604051626a0d4560e21b815260006004820152602401610605565b604080516001808252602082018590528183019081526060820184905260a082019092526000608082018181529192916111a6918791859085905b6114068585858561144d565b6001600160a01b038416156111a6578251339060010361143f576020848101519084015161143883898985858961145f565b505061061b565b61061b818787878787611583565b6114598484848461166c565b50505050565b6001600160a01b0384163b1561061b5760405163f23a6e6160e01b81526001600160a01b0385169063f23a6e61906114a390899089908890889088906004016122f6565b6020604051808303816000875af19250505080156114de575060408051601f3d908101601f191682019092526114db9181019061233b565b60015b611547573d80801561150c576040519150601f19603f3d011682016040523d82523d6000602084013e611511565b606091505b50805160000361153f57604051632bfa23e760e11b81526001600160a01b0386166004820152602401610605565b805181602001fd5b6001600160e01b0319811663f23a6e6160e01b1461138d57604051632bfa23e760e11b81526001600160a01b0386166004820152602401610605565b6001600160a01b0384163b1561061b5760405163bc197c8160e01b81526001600160a01b0385169063bc197c81906115c79089908990889088908890600401612358565b6020604051808303816000875af1925050508015611602575060408051601f3d908101601f191682019092526115ff9181019061233b565b60015b611630573d80801561150c576040519150601f19603f3d011682016040523d82523d6000602084013e611511565b6001600160e01b0319811663bc197c8160e01b1461138d57604051632bfa23e760e11b81526001600160a01b0386166004820152602401610605565b611674611680565b611459848484846116ab565b600354600160a01b900460ff1615610da65760405163d93c066560e01b815260040160405180910390fd5b80518251146116da5781518151604051635b05999160e01b815260048101929092526024820152604401610605565b3360005b83518110156117e0576020818102858101820151908501909101516001600160a01b03881615611791576000828152602081815260408083206001600160a01b038c1684529091529020548181101561176a576040516303dee4c560e01b81526001600160a01b038a166004820152602481018290526044810183905260648101849052608401610605565b6000838152602081815260408083206001600160a01b038d16845290915290209082900390555b6001600160a01b038716156117d6576000828152602081815260408083206001600160a01b038b168452909152812080548392906117d09084906123b6565b90915550505b50506001016116de565b5082516001036118615760208301516000906020840151909150856001600160a01b0316876001600160a01b0316846001600160a01b03167fc3d58168c5ae7397731d063d5bbf3d657854427343f4c083240f7aacaa2d0f628585604051611852929190918252602082015260400190565b60405180910390a450506111a6565b836001600160a01b0316856001600160a01b0316826001600160a01b03167f4a39dc06d4c0dbc64b70af90fd698a233a518aa5d07e595d983b8c0526c8f7fb86866040516118b09291906123c9565b60405180910390a45050505050565b80356001600160a01b03811681146118d657600080fd5b919050565b600080604083850312156118ee57600080fd5b6118f7836118bf565b946020939093013593505050565b6001600160e01b031981168114610ddc57600080fd5b60006020828403121561192d57600080fd5b813561193881611905565b9392505050565b634e487b7160e01b600052602160045260246000fd5b6000815180845260005b8181101561197b5760208185018101518683018201520161195f565b506000602082860101526020601f19601f83011685010191505092915050565b60006101408c835260038c106119b3576119b361193f565b8b60208401528a60408401528960608401528860808401528760a08401528660c08401528560e084015260018060a01b038516610100840152806101208401526119ff81840185611955565b9d9c50505050505050505050505050565b600060208284031215611a2257600080fd5b5035919050565b6020815260006119386020830184611955565b634e487b7160e01b600052604160045260246000fd5b604051601f8201601f191681016001600160401b0381118282101715611a7a57611a7a611a3c565b604052919050565b60006001600160401b03821115611a9b57611a9b611a3c565b5060051b60200190565b600082601f830112611ab657600080fd5b81356020611acb611ac683611a82565b611a52565b8083825260208201915060208460051b870101935086841115611aed57600080fd5b602086015b84811015611b095780358352918301918301611af2565b509695505050505050565b600082601f830112611b2557600080fd5b81356001600160401b03811115611b3e57611b3e611a3c565b611b51601f8201601f1916602001611a52565b818152846020838601011115611b6657600080fd5b816020850160208301376000918101602001919091529392505050565b600080600080600060a08688031215611b9b57600080fd5b611ba4866118bf565b9450611bb2602087016118bf565b935060408601356001600160401b0380821115611bce57600080fd5b611bda89838a01611aa5565b94506060880135915080821115611bf057600080fd5b611bfc89838a01611aa5565b93506080880135915080821115611c1257600080fd5b50611c1f88828901611b14565b9150509295509295909350565b600060208284031215611c3e57600080fd5b611938826118bf565b6001600160401b0381168114610ddc57600080fd5b600080600060608486031215611c7157600080fd5b8335925060208401356001600160401b03811115611c8e57600080fd5b611c9a86828701611b14565b9250506040840135611cab81611c47565b809150509250925092565b60008060408385031215611cc957600080fd5b82356001600160401b0380821115611ce057600080fd5b818501915085601f830112611cf457600080fd5b81356020611d04611ac683611a82565b82815260059290921b84018101918181019089841115611d2357600080fd5b948201945b83861015611d4857611d39866118bf565b82529482019490820190611d28565b96505086013592505080821115611d5e57600080fd5b50611d6b85828601611aa5565b9150509250929050565b60008151808452602080850194506020840160005b83811015611da657815187529582019590820190600101611d8a565b509495945050505050565b6020815260006119386020830184611d75565b60008060008060808587031215611dda57600080fd5b84356001600160401b03811115611df057600080fd5b611dfc87828801611b14565b97602087013597506040870135966060013595509350505050565b600080600060608486031215611e2c57600080fd5b611e35846118bf565b925060208401356001600160401b0380821115611e5157600080fd5b611e5d87838801611aa5565b93506040860135915080821115611e7357600080fd5b50611e8086828701611aa5565b9150509250925092565b60008060408385031215611e9d57600080fd5b611ea6836118bf565b915060208301358015158114611ebb57600080fd5b809150509250929050565b60008060408385031215611ed957600080fd5b611ee2836118bf565b9150611ef0602084016118bf565b90509250929050565b600080600080600060a08688031215611f1157600080fd5b611f1a866118bf565b9450611f28602087016118bf565b9350604086013592506060860135915060808601356001600160401b03811115611f5157600080fd5b611c1f88828901611b14565b600080600060608486031215611f7257600080fd5b611f7b846118bf565b95602085013595506040909401359392505050565b600181811c90821680611fa457607f821691505b602082108103611fc457634e487b7160e01b600052602260045260246000fd5b50919050565b634e487b7160e01b600052603260045260246000fd5b60048110611ff057611ff061193f565b9052565b60008282518085526020808601955060208260051b8401016020860160005b8481101561204157601f1986840301895261202f838351611955565b98840198925090830190600101612013565b5090979650505050505050565b608081526120686080820183516001600160401b03169052565b6000602083015161208460a08401826001600160401b03169052565b5060408301516001600160401b0390811660c084015260608401511660e083015260808301516001600160a01b0381166101008085019190915260a085015191506101206120dc818601846001600160401b03169052565b60c086015192506101406120f281870185611fe0565b60e0870151151561016087015282870151610180870191909152925061211c6101c0860184611ff4565b90860151858203607f19016101a0870152909250905061213c8282611955565b9150508281036020840152612155816000815260200190565b838103604085015260008152905060208101838103606085015260008152905060208101949350505050565b60006020828403121561219357600080fd5b815161193881611c47565b634e487b7160e01b600052601160045260246000fd5b6000826121d157634e487b7160e01b600052601260045260246000fd5b500490565b601f821115610d8f576000816000526020600020601f850160051c810160208610156121ff5750805b601f850160051c820191505b8181101561061b5782815560010161220b565b81516001600160401b0381111561223757612237611a3c565b61224b816122458454611f90565b846121d6565b602080601f83116001811461228057600084156122685750858301515b600019600386901b1c1916600185901b17855561061b565b600085815260208120601f198616915b828110156122af57888601518255948401946001909101908401612290565b50858210156122cd5787850151600019600388901b60f8161c191681555b5050505050600190811b01905550565b6000600182016122ef576122ef61219e565b5060010190565b6001600160a01b03868116825285166020820152604081018490526060810183905260a06080820181905260009061233090830184611955565b979650505050505050565b60006020828403121561234d57600080fd5b815161193881611905565b6001600160a01b0386811682528516602082015260a06040820181905260009061238490830186611d75565b82810360608401526123968186611d75565b905082810360808401526123aa8185611955565b98975050505050505050565b808201808211156103c1576103c161219e565b6040815260006123dc6040830185611d75565b82810360208401526123ee8185611d75565b9594505050505056fea26469706673582212206004aa24f8324d276ea0a88b3eb6f6cde0b6c230e0d21af6670930e0486558ac64736f6c63430008190033","opcodes":"PUSH1 0x80 PUSH1 0x40 MSTORE PUSH1 0x1 PUSH1 0x4 SSTORE PUSH1 0xA DUP1 SLOAD PUSH1 0x1 PUSH1 0x1 PUSH1 0xA0 SHL SUB NOT AND PUSH20 0x878C92FD89D8E0B93DC0A3C907A2ADC7577E39C5 OR SWAP1 SSTORE CALLVALUE DUP1 ISZERO PUSH2 0x3B JUMPI PUSH1 0x0 DUP1 REVERT JUMPDEST POP PUSH1 0x40 DUP1 MLOAD DUP1 DUP3 ADD SWAP1 SWAP2 MSTORE PUSH1 0x4 DUP2 MSTORE PUSH4 0x4555524B PUSH1 0xE0 SHL PUSH1 0x20 DUP3 ADD MSTORE CALLER SWAP1 PUSH2 0x62 DUP2 PUSH2 0xAD JUMP JUMPDEST POP PUSH1 0x1 PUSH1 0x1 PUSH1 0xA0 SHL SUB DUP2 AND PUSH2 0x91 JUMPI PUSH1 0x40 MLOAD PUSH4 0x1E4FBDF7 PUSH1 0xE0 SHL DUP2 MSTORE PUSH1 0x0 PUSH1 0x4 DUP3 ADD MSTORE PUSH1 0x24 ADD PUSH1 0x40 MLOAD DUP1 SWAP2 SUB SWAP1 REVERT JUMPDEST PUSH2 0x9A DUP2 PUSH2 0xBD JUMP JUMPDEST POP PUSH1 0x3 DUP1 SLOAD PUSH1 0xFF PUSH1 0xA0 SHL NOT AND SWAP1 SSTORE PUSH2 0x26F JUMP JUMPDEST PUSH1 0x2 PUSH2 0xB9 DUP3 DUP3 PUSH2 0x1B0 JUMP JUMPDEST POP POP JUMP JUMPDEST PUSH1 0x3 DUP1 SLOAD PUSH1 0x1 PUSH1 0x1 PUSH1 0xA0 SHL SUB DUP4 DUP2 AND PUSH1 0x1 PUSH1 0x1 PUSH1 0xA0 SHL SUB NOT DUP4 AND DUP2 OR SWAP1 SWAP4 SSTORE PUSH1 0x40 MLOAD SWAP2 AND SWAP2 SWAP1 DUP3 SWAP1 PUSH32 0x8BE0079C531659141344CD1FD0A4F28419497F9722A3DAAFE3B4186F6B6457E0 SWAP1 PUSH1 0x0 SWAP1 LOG3 POP POP JUMP JUMPDEST PUSH4 0x4E487B71 PUSH1 0xE0 SHL PUSH1 0x0 MSTORE PUSH1 0x41 PUSH1 0x4 MSTORE PUSH1 0x24 PUSH1 0x0 REVERT JUMPDEST PUSH1 0x1 DUP2 DUP2 SHR SWAP1 DUP3 AND DUP1 PUSH2 0x139 JUMPI PUSH1 0x7F DUP3 AND SWAP2 POP JUMPDEST PUSH1 0x20 DUP3 LT DUP2 SUB PUSH2 0x159 JUMPI PUSH4 0x4E487B71 PUSH1 0xE0 SHL PUSH1 0x0 MSTORE PUSH1 0x22 PUSH1 0x4 MSTORE PUSH1 0x24 PUSH1 0x0 REVERT JUMPDEST POP SWAP2 SWAP1 POP JUMP JUMPDEST PUSH1 0x1F DUP3 GT ISZERO PUSH2 0x1AB JUMPI PUSH1 0x0 DUP2 PUSH1 0x0 MSTORE PUSH1 0x20 PUSH1 0x0 KECCAK256 PUSH1 0x1F DUP6 ADD PUSH1 0x5 SHR DUP2 ADD PUSH1 0x20 DUP7 LT ISZERO PUSH2 0x188 JUMPI POP DUP1 JUMPDEST PUSH1 0x1F DUP6 ADD PUSH1 0x5 SHR DUP3 ADD SWAP2 POP JUMPDEST DUP2 DUP2 LT ISZERO PUSH2 0x1A7 JUMPI DUP3 DUP2 SSTORE PUSH1 0x1 ADD PUSH2 0x194 JUMP JUMPDEST POP POP POP JUMPDEST POP POP POP JUMP JUMPDEST DUP2 MLOAD PUSH1 0x1 PUSH1 0x1 PUSH1 0x40 SHL SUB DUP2 GT ISZERO PUSH2 0x1C9 JUMPI PUSH2 0x1C9 PUSH2 0x10F JUMP JUMPDEST PUSH2 0x1DD DUP2 PUSH2 0x1D7 DUP5 SLOAD PUSH2 0x125 JUMP JUMPDEST DUP5 PUSH2 0x15F JUMP JUMPDEST PUSH1 0x20 DUP1 PUSH1 0x1F DUP4 GT PUSH1 0x1 DUP2 EQ PUSH2 0x212 JUMPI PUSH1 0x0 DUP5 ISZERO PUSH2 0x1FA JUMPI POP DUP6 DUP4 ADD MLOAD JUMPDEST PUSH1 0x0 NOT PUSH1 0x3 DUP7 SWAP1 SHL SHR NOT AND PUSH1 0x1 DUP6 SWAP1 SHL OR DUP6 SSTORE PUSH2 0x1A7 JUMP JUMPDEST PUSH1 0x0 DUP6 DUP2 MSTORE PUSH1 0x20 DUP2 KECCAK256 PUSH1 0x1F NOT DUP7 AND SWAP2 JUMPDEST DUP3 DUP2 LT ISZERO PUSH2 0x241 JUMPI DUP9 DUP7 ADD MLOAD DUP3 SSTORE SWAP5 DUP5 ADD SWAP5 PUSH1 0x1 SWAP1 SWAP2 ADD SWAP1 DUP5 ADD PUSH2 0x222 JUMP JUMPDEST POP DUP6 DUP3 LT ISZERO PUSH2 0x25F JUMPI DUP8 DUP6 ADD MLOAD PUSH1 0x0 NOT PUSH1 0x3 DUP9 SWAP1 SHL PUSH1 0xF8 AND SHR NOT AND DUP2 SSTORE JUMPDEST POP POP POP POP POP PUSH1 0x1 SWAP1 DUP2 SHL ADD SWAP1 SSTORE POP JUMP JUMPDEST PUSH2 0x242D DUP1 PUSH2 0x27E PUSH1 0x0 CODECOPY PUSH1 0x0 RETURN INVALID PUSH1 0x80 PUSH1 0x40 MSTORE CALLVALUE DUP1 ISZERO PUSH2 0x10 JUMPI PUSH1 0x0 DUP1 REVERT JUMPDEST POP PUSH1 0x4 CALLDATASIZE LT PUSH2 0x14C JUMPI PUSH1 0x0 CALLDATALOAD PUSH1 0xE0 SHR DUP1 PUSH4 0x715018A6 GT PUSH2 0xC3 JUMPI DUP1 PUSH4 0xA8C5DC33 GT PUSH2 0x7C JUMPI DUP1 PUSH4 0xA8C5DC33 EQ PUSH2 0x32D JUMPI DUP1 PUSH4 0xC2A756CA EQ PUSH2 0x340 JUMPI DUP1 PUSH4 0xE985E9C5 EQ PUSH2 0x353 JUMPI DUP1 PUSH4 0xF242432A EQ PUSH2 0x366 JUMPI DUP1 PUSH4 0xF2FDE38B EQ PUSH2 0x379 JUMPI DUP1 PUSH4 0xF5298ACA EQ PUSH2 0x38C JUMPI PUSH1 0x0 DUP1 REVERT JUMPDEST DUP1 PUSH4 0x715018A6 EQ PUSH2 0x286 JUMPI DUP1 PUSH4 0x73FD653D EQ PUSH2 0x28E JUMPI DUP1 PUSH4 0x85235D3D EQ PUSH2 0x2A1 JUMPI DUP1 PUSH4 0x8DA5CB5B EQ PUSH2 0x2B4 JUMPI DUP1 PUSH4 0x8F192180 EQ PUSH2 0x2D9 JUMPI DUP1 PUSH4 0xA22CB465 EQ PUSH2 0x31A JUMPI PUSH1 0x0 DUP1 REVERT JUMPDEST DUP1 PUSH4 0x36F58E5F GT PUSH2 0x115 JUMPI DUP1 PUSH4 0x36F58E5F EQ PUSH2 0x1F8 JUMPI DUP1 PUSH4 0x4DD2FEBE EQ PUSH2 0x21B JUMPI DUP1 PUSH4 0x4E1273F4 EQ PUSH2 0x22E JUMPI DUP1 PUSH4 0x5C975ABB EQ PUSH2 0x24E JUMPI DUP1 PUSH4 0x68E2CEA8 EQ PUSH2 0x260 JUMPI DUP1 PUSH4 0x6B20C454 EQ PUSH2 0x273 JUMPI PUSH1 0x0 DUP1 REVERT JUMPDEST DUP1 PUSH3 0xFDD58E EQ PUSH2 0x151 JUMPI DUP1 PUSH4 0x1FFC9A7 EQ PUSH2 0x177 JUMPI DUP1 PUSH4 0x8F3E371 EQ PUSH2 0x19A JUMPI DUP1 PUSH4 0xE89341C EQ PUSH2 0x1C3 JUMPI DUP1 PUSH4 0x2EB2C2D6 EQ PUSH2 0x1E3 JUMPI JUMPDEST PUSH1 0x0 DUP1 REVERT JUMPDEST PUSH2 0x164 PUSH2 0x15F CALLDATASIZE PUSH1 0x4 PUSH2 0x18DB JUMP JUMPDEST PUSH2 0x39F JUMP JUMPDEST PUSH1 0x40 MLOAD SWAP1 DUP2 MSTORE PUSH1 0x20 ADD JUMPDEST PUSH1 0x40 MLOAD DUP1 SWAP2 SUB SWAP1 RETURN JUMPDEST PUSH2 0x18A PUSH2 0x185 CALLDATASIZE PUSH1 0x4 PUSH2 0x191B JUMP JUMPDEST PUSH2 0x3C7 JUMP JUMPDEST PUSH1 0x40 MLOAD SWAP1 ISZERO ISZERO DUP2 MSTORE PUSH1 0x20 ADD PUSH2 0x16E JUMP JUMPDEST PUSH2 0x1AD PUSH2 0x1A8 CALLDATASIZE PUSH1 0x4 PUSH2 0x18DB JUMP JUMPDEST PUSH2 0x417 JUMP JUMPDEST PUSH1 0x40 MLOAD PUSH2 0x16E SWAP11 SWAP10 SWAP9 SWAP8 SWAP7 SWAP6 SWAP5 SWAP4 SWAP3 SWAP2 SWAP1 PUSH2 0x199B JUMP JUMPDEST PUSH2 0x1D6 PUSH2 0x1D1 CALLDATASIZE PUSH1 0x4 PUSH2 0x1A10 JUMP JUMPDEST PUSH2 0x523 JUMP JUMPDEST PUSH1 0x40 MLOAD PUSH2 0x16E SWAP2 SWAP1 PUSH2 0x1A29 JUMP JUMPDEST PUSH2 0x1F6 PUSH2 0x1F1 CALLDATASIZE PUSH1 0x4 PUSH2 0x1B83 JUMP JUMPDEST PUSH2 0x5B7 JUMP JUMPDEST STOP JUMPDEST PUSH2 0x18A PUSH2 0x206 CALLDATASIZE PUSH1 0x4 PUSH2 0x1C2C JUMP JUMPDEST PUSH1 0x5 PUSH1 0x20 MSTORE PUSH1 0x0 SWAP1 DUP2 MSTORE PUSH1 0x40 SWAP1 KECCAK256 SLOAD PUSH1 0xFF AND DUP2 JUMP JUMPDEST PUSH2 0x1F6 PUSH2 0x229 CALLDATASIZE PUSH1 0x4 PUSH2 0x1C5C JUMP JUMPDEST PUSH2 0x623 JUMP JUMPDEST PUSH2 0x241 PUSH2 0x23C CALLDATASIZE PUSH1 0x4 PUSH2 0x1CB6 JUMP JUMPDEST PUSH2 0x8FE JUMP JUMPDEST PUSH1 0x40 MLOAD PUSH2 0x16E SWAP2 SWAP1 PUSH2 0x1DB1 JUMP JUMPDEST PUSH1 0x3 SLOAD PUSH1 0x1 PUSH1 0xA0 SHL SWAP1 DIV PUSH1 0xFF AND PUSH2 0x18A JUMP JUMPDEST PUSH2 0x1F6 PUSH2 0x26E CALLDATASIZE PUSH1 0x4 PUSH2 0x1DC4 JUMP JUMPDEST PUSH2 0x9CA JUMP JUMPDEST PUSH2 0x1F6 PUSH2 0x281 CALLDATASIZE PUSH1 0x4 PUSH2 0x1E17 JUMP JUMPDEST PUSH2 0xD30 JUMP JUMPDEST PUSH2 0x1F6 PUSH2 0xD94 JUMP JUMPDEST PUSH2 0x1F6 PUSH2 0x29C CALLDATASIZE PUSH1 0x4 PUSH2 0x1C2C JUMP JUMPDEST PUSH2 0xDA8 JUMP JUMPDEST PUSH2 0x1F6 PUSH2 0x2AF CALLDATASIZE PUSH1 0x4 PUSH2 0x1C2C JUMP JUMPDEST PUSH2 0xDDF JUMP JUMPDEST PUSH1 0x3 SLOAD PUSH1 0x1 PUSH1 0x1 PUSH1 0xA0 SHL SUB AND JUMPDEST PUSH1 0x40 MLOAD PUSH1 0x1 PUSH1 0x1 PUSH1 0xA0 SHL SUB SWAP1 SWAP2 AND DUP2 MSTORE PUSH1 0x20 ADD PUSH2 0x16E JUMP JUMPDEST PUSH2 0x302 PUSH2 0x2E7 CALLDATASIZE PUSH1 0x4 PUSH2 0x1C2C JUMP JUMPDEST PUSH1 0x9 PUSH1 0x20 MSTORE PUSH1 0x0 SWAP1 DUP2 MSTORE PUSH1 0x40 SWAP1 KECCAK256 SLOAD PUSH1 0x1 PUSH1 0x1 PUSH1 0x40 SHL SUB AND DUP2 JUMP JUMPDEST PUSH1 0x40 MLOAD PUSH1 0x1 PUSH1 0x1 PUSH1 0x40 SHL SUB SWAP1 SWAP2 AND DUP2 MSTORE PUSH1 0x20 ADD PUSH2 0x16E JUMP JUMPDEST PUSH2 0x1F6 PUSH2 0x328 CALLDATASIZE PUSH1 0x4 PUSH2 0x1E8A JUMP JUMPDEST PUSH2 0xFD2 JUMP JUMPDEST PUSH1 0xA SLOAD PUSH2 0x2C1 SWAP1 PUSH1 0x1 PUSH1 0x1 PUSH1 0xA0 SHL SUB AND DUP2 JUMP JUMPDEST PUSH2 0x1AD PUSH2 0x34E CALLDATASIZE PUSH1 0x4 PUSH2 0x1A10 JUMP JUMPDEST PUSH2 0xFE1 JUMP JUMPDEST PUSH2 0x18A PUSH2 0x361 CALLDATASIZE PUSH1 0x4 PUSH2 0x1EC6 JUMP JUMPDEST PUSH2 0x1048 JUMP JUMPDEST PUSH2 0x1F6 PUSH2 0x374 CALLDATASIZE PUSH1 0x4 PUSH2 0x1EF9 JUMP JUMPDEST PUSH2 0x1076 JUMP JUMPDEST PUSH2 0x1F6 PUSH2 0x387 CALLDATASIZE PUSH1 0x4 PUSH2 0x1C2C JUMP JUMPDEST PUSH2 0x10D5 JUMP JUMPDEST PUSH2 0x1F6 PUSH2 0x39A CALLDATASIZE PUSH1 0x4 PUSH2 0x1F5D JUMP JUMPDEST PUSH2 0x1110 JUMP JUMPDEST PUSH1 0x0 DUP2 DUP2 MSTORE PUSH1 0x20 DUP2 DUP2 MSTORE PUSH1 0x40 DUP1 DUP4 KECCAK256 PUSH1 0x1 PUSH1 0x1 PUSH1 0xA0 SHL SUB DUP7 AND DUP5 MSTORE SWAP1 SWAP2 MSTORE SWAP1 KECCAK256 SLOAD JUMPDEST SWAP3 SWAP2 POP POP JUMP JUMPDEST PUSH1 0x0 PUSH1 0x1 PUSH1 0x1 PUSH1 0xE0 SHL SUB NOT DUP3 AND PUSH4 0x6CDB3D13 PUSH1 0xE1 SHL EQ DUP1 PUSH2 0x3F8 JUMPI POP PUSH1 0x1 PUSH1 0x1 PUSH1 0xE0 SHL SUB NOT DUP3 AND PUSH4 0x3A24D07 PUSH1 0xE2 SHL EQ JUMPDEST DUP1 PUSH2 0x3C1 JUMPI POP PUSH4 0x1FFC9A7 PUSH1 0xE0 SHL PUSH1 0x1 PUSH1 0x1 PUSH1 0xE0 SHL SUB NOT DUP4 AND EQ PUSH2 0x3C1 JUMP JUMPDEST PUSH1 0x6 PUSH1 0x20 MSTORE DUP2 PUSH1 0x0 MSTORE PUSH1 0x40 PUSH1 0x0 KECCAK256 DUP2 DUP2 SLOAD DUP2 LT PUSH2 0x433 JUMPI PUSH1 0x0 DUP1 REVERT JUMPDEST PUSH1 0x0 SWAP2 DUP3 MSTORE PUSH1 0x20 SWAP1 SWAP2 KECCAK256 PUSH1 0xA SWAP1 SWAP2 MUL ADD DUP1 SLOAD PUSH1 0x1 DUP3 ADD SLOAD PUSH1 0x2 DUP4 ADD SLOAD PUSH1 0x3 DUP5 ADD SLOAD PUSH1 0x4 DUP6 ADD SLOAD PUSH1 0x5 DUP7 ADD SLOAD PUSH1 0x6 DUP8 ADD SLOAD PUSH1 0x7 DUP9 ADD SLOAD PUSH1 0x8 DUP10 ADD SLOAD PUSH1 0x9 DUP11 ADD DUP1 SLOAD SWAP10 SWAP13 POP PUSH1 0xFF SWAP1 SWAP9 AND SWAP11 POP SWAP6 SWAP9 SWAP5 SWAP8 SWAP4 SWAP7 SWAP3 SWAP6 SWAP2 SWAP5 SWAP1 SWAP4 PUSH1 0x1 PUSH1 0x1 PUSH1 0xA0 SHL SUB SWAP1 SWAP3 AND SWAP3 SWAP1 SWAP2 PUSH2 0x4A0 SWAP1 PUSH2 0x1F90 JUMP JUMPDEST DUP1 PUSH1 0x1F ADD PUSH1 0x20 DUP1 SWAP2 DIV MUL PUSH1 0x20 ADD PUSH1 0x40 MLOAD SWAP1 DUP2 ADD PUSH1 0x40 MSTORE DUP1 SWAP3 SWAP2 SWAP1 DUP2 DUP2 MSTORE PUSH1 0x20 ADD DUP3 DUP1 SLOAD PUSH2 0x4CC SWAP1 PUSH2 0x1F90 JUMP JUMPDEST DUP1 ISZERO PUSH2 0x519 JUMPI DUP1 PUSH1 0x1F LT PUSH2 0x4EE JUMPI PUSH2 0x100 DUP1 DUP4 SLOAD DIV MUL DUP4 MSTORE SWAP2 PUSH1 0x20 ADD SWAP2 PUSH2 0x519 JUMP JUMPDEST DUP3 ADD SWAP2 SWAP1 PUSH1 0x0 MSTORE PUSH1 0x20 PUSH1 0x0 KECCAK256 SWAP1 JUMPDEST DUP2 SLOAD DUP2 MSTORE SWAP1 PUSH1 0x1 ADD SWAP1 PUSH1 0x20 ADD DUP1 DUP4 GT PUSH2 0x4FC JUMPI DUP3 SWAP1 SUB PUSH1 0x1F AND DUP3 ADD SWAP2 JUMPDEST POP POP POP POP POP SWAP1 POP DUP11 JUMP JUMPDEST PUSH1 0x60 PUSH1 0x2 DUP1 SLOAD PUSH2 0x532 SWAP1 PUSH2 0x1F90 JUMP JUMPDEST DUP1 PUSH1 0x1F ADD PUSH1 0x20 DUP1 SWAP2 DIV MUL PUSH1 0x20 ADD PUSH1 0x40 MLOAD SWAP1 DUP2 ADD PUSH1 0x40 MSTORE DUP1 SWAP3 SWAP2 SWAP1 DUP2 DUP2 MSTORE PUSH1 0x20 ADD DUP3 DUP1 SLOAD PUSH2 0x55E SWAP1 PUSH2 0x1F90 JUMP JUMPDEST DUP1 ISZERO PUSH2 0x5AB JUMPI DUP1 PUSH1 0x1F LT PUSH2 0x580 JUMPI PUSH2 0x100 DUP1 DUP4 SLOAD DIV MUL DUP4 MSTORE SWAP2 PUSH1 0x20 ADD SWAP2 PUSH2 0x5AB JUMP JUMPDEST DUP3 ADD SWAP2 SWAP1 PUSH1 0x0 MSTORE PUSH1 0x20 PUSH1 0x0 KECCAK256 SWAP1 JUMPDEST DUP2 SLOAD DUP2 MSTORE SWAP1 PUSH1 0x1 ADD SWAP1 PUSH1 0x20 ADD DUP1 DUP4 GT PUSH2 0x58E JUMPI DUP3 SWAP1 SUB PUSH1 0x1F AND DUP3 ADD SWAP2 JUMPDEST POP POP POP POP POP SWAP1 POP SWAP2 SWAP1 POP JUMP JUMPDEST CALLER PUSH1 0x1 PUSH1 0x1 PUSH1 0xA0 SHL SUB DUP7 AND DUP2 EQ DUP1 ISZERO SWAP1 PUSH2 0x5D8 JUMPI POP PUSH2 0x5D6 DUP7 DUP3 PUSH2 0x1048 JUMP JUMPDEST ISZERO JUMPDEST ISZERO PUSH2 0x60E JUMPI PUSH1 0x40 MLOAD PUSH4 0x711BEC91 PUSH1 0xE1 SHL DUP2 MSTORE PUSH1 0x1 PUSH1 0x1 PUSH1 0xA0 SHL SUB DUP1 DUP4 AND PUSH1 0x4 DUP4 ADD MSTORE DUP8 AND PUSH1 0x24 DUP3 ADD MSTORE PUSH1 0x44 ADD JUMPDEST PUSH1 0x40 MLOAD DUP1 SWAP2 SUB SWAP1 REVERT JUMPDEST PUSH2 0x61B DUP7 DUP7 DUP7 DUP7 DUP7 PUSH2 0x1146 JUMP JUMPDEST POP POP POP POP POP POP JUMP JUMPDEST PUSH1 0x3 SLOAD PUSH1 0x1 PUSH1 0x1 PUSH1 0xA0 SHL SUB AND CALLER EQ DUP1 PUSH2 0x64B JUMPI POP CALLER PUSH1 0x0 SWAP1 DUP2 MSTORE PUSH1 0x5 PUSH1 0x20 MSTORE PUSH1 0x40 SWAP1 KECCAK256 SLOAD PUSH1 0xFF AND JUMPDEST PUSH2 0x6AB JUMPI PUSH1 0x40 MLOAD PUSH3 0x461BCD PUSH1 0xE5 SHL DUP2 MSTORE PUSH1 0x20 PUSH1 0x4 DUP3 ADD MSTORE PUSH1 0x2B PUSH1 0x24 DUP3 ADD MSTORE PUSH32 0x43616C6C6572206D757374206265206F776E6572206F72207665726966696564 PUSH1 0x44 DUP3 ADD MSTORE PUSH11 0x103932B9B2B0B931B432B9 PUSH1 0xA9 SHL PUSH1 0x64 DUP3 ADD MSTORE PUSH1 0x84 ADD PUSH2 0x605 JUMP JUMPDEST PUSH1 0x0 DUP4 DUP2 MSTORE PUSH1 0x7 PUSH1 0x20 MSTORE PUSH1 0x40 DUP2 KECCAK256 DUP1 SLOAD SWAP1 SWAP2 SUB PUSH2 0x70A JUMPI PUSH1 0x40 MLOAD PUSH3 0x461BCD PUSH1 0xE5 SHL DUP2 MSTORE PUSH1 0x20 PUSH1 0x4 DUP3 ADD MSTORE PUSH1 0x17 PUSH1 0x24 DUP3 ADD MSTORE PUSH32 0x526573656172636820646F6573206E6F74206578697374000000000000000000 PUSH1 0x44 DUP3 ADD MSTORE PUSH1 0x64 ADD PUSH2 0x605 JUMP JUMPDEST PUSH1 0x40 MLOAD PUSH1 0x37 SWAP1 PUSH1 0x0 SWAP1 PUSH2 0x721 SWAP1 DUP7 SWAP1 PUSH1 0x20 ADD PUSH2 0x1A29 JUMP JUMPDEST PUSH1 0x40 DUP1 MLOAD DUP1 DUP4 SUB PUSH1 0x1F NOT ADD DUP2 MSTORE PUSH1 0x1 DUP1 DUP5 MSTORE DUP4 DUP4 ADD SWAP1 SWAP3 MSTORE SWAP3 POP PUSH1 0x0 SWAP2 SWAP1 DUP2 PUSH1 0x20 ADD JUMPDEST PUSH1 0x60 DUP2 MSTORE PUSH1 0x20 ADD SWAP1 PUSH1 0x1 SWAP1 SUB SWAP1 DUP2 PUSH2 0x744 JUMPI SWAP1 POP POP PUSH1 0x8 DUP6 ADD SLOAD PUSH1 0x40 DUP1 MLOAD PUSH1 0x1 PUSH1 0x1 PUSH1 0xA0 SHL SUB SWAP1 SWAP3 AND PUSH1 0x20 DUP4 ADD MSTORE SWAP2 SWAP3 POP ADD PUSH1 0x40 MLOAD PUSH1 0x20 DUP2 DUP4 SUB SUB DUP2 MSTORE SWAP1 PUSH1 0x40 MSTORE DUP2 PUSH1 0x0 DUP2 MLOAD DUP2 LT PUSH2 0x798 JUMPI PUSH2 0x798 PUSH2 0x1FCA JUMP JUMPDEST PUSH1 0x20 MUL PUSH1 0x20 ADD ADD DUP2 SWAP1 MSTORE POP PUSH1 0x0 PUSH1 0x40 MLOAD DUP1 PUSH2 0x140 ADD PUSH1 0x40 MSTORE DUP1 DUP6 PUSH1 0x1 PUSH1 0x1 PUSH1 0x40 SHL SUB AND DUP2 MSTORE PUSH1 0x20 ADD DUP8 PUSH1 0x1 PUSH1 0x1 PUSH1 0x40 SHL SUB AND DUP2 MSTORE PUSH1 0x20 ADD PUSH1 0x0 PUSH1 0x1 PUSH1 0x1 PUSH1 0x40 SHL SUB AND DUP2 MSTORE PUSH1 0x20 ADD PUSH1 0x0 PUSH1 0x1 PUSH1 0x1 PUSH1 0x40 SHL SUB AND DUP2 MSTORE PUSH1 0x20 ADD CALLER PUSH1 0x1 PUSH1 0x1 PUSH1 0xA0 SHL SUB AND DUP2 MSTORE PUSH1 0x20 ADD PUSH1 0x0 PUSH1 0x1 PUSH1 0x1 PUSH1 0x40 SHL SUB AND DUP2 MSTORE PUSH1 0x20 ADD PUSH1 0x2 PUSH1 0x3 DUP2 GT ISZERO PUSH2 0x821 JUMPI PUSH2 0x821 PUSH2 0x193F JUMP JUMPDEST DUP2 MSTORE PUSH1 0x0 PUSH1 0x20 DUP3 ADD DUP2 SWAP1 MSTORE PUSH1 0x40 DUP1 DUP4 ADD DUP7 SWAP1 MSTORE PUSH1 0x60 SWAP1 SWAP3 ADD DUP7 SWAP1 MSTORE PUSH1 0xA SLOAD SWAP2 MLOAD PUSH4 0xB82916CB PUSH1 0xE0 SHL DUP2 MSTORE SWAP3 SWAP4 POP SWAP2 PUSH1 0x1 PUSH1 0x1 PUSH1 0xA0 SHL SUB SWAP1 SWAP2 AND SWAP1 PUSH4 0xB82916CB SWAP1 PUSH2 0x86F SWAP1 DUP6 SWAP1 PUSH1 0x4 ADD PUSH2 0x204E JUMP JUMPDEST PUSH1 0x20 PUSH1 0x40 MLOAD DUP1 DUP4 SUB DUP2 PUSH1 0x0 DUP8 GAS CALL ISZERO DUP1 ISZERO PUSH2 0x88E JUMPI RETURNDATASIZE PUSH1 0x0 DUP1 RETURNDATACOPY RETURNDATASIZE PUSH1 0x0 REVERT JUMPDEST POP POP POP POP PUSH1 0x40 MLOAD RETURNDATASIZE PUSH1 0x1F NOT PUSH1 0x1F DUP3 ADD AND DUP3 ADD DUP1 PUSH1 0x40 MSTORE POP DUP2 ADD SWAP1 PUSH2 0x8B2 SWAP2 SWAP1 PUSH2 0x2181 JUMP JUMPDEST PUSH1 0x40 MLOAD PUSH1 0x1 PUSH1 0x1 PUSH1 0x40 SHL SUB DUP3 AND DUP2 MSTORE SWAP1 SWAP2 POP CALLER SWAP1 PUSH32 0x9C671A1530AF5D07EF953AFA0BDE839D600ABE110ED1178BBBECF03AD8DC611A SWAP1 PUSH1 0x20 ADD PUSH1 0x40 MLOAD DUP1 SWAP2 SUB SWAP1 LOG2 POP POP POP POP POP POP POP POP POP JUMP JUMPDEST PUSH1 0x60 DUP2 MLOAD DUP4 MLOAD EQ PUSH2 0x92F JUMPI DUP2 MLOAD DUP4 MLOAD PUSH1 0x40 MLOAD PUSH4 0x5B059991 PUSH1 0xE0 SHL DUP2 MSTORE PUSH1 0x4 DUP2 ADD SWAP3 SWAP1 SWAP3 MSTORE PUSH1 0x24 DUP3 ADD MSTORE PUSH1 0x44 ADD PUSH2 0x605 JUMP JUMPDEST PUSH1 0x0 DUP4 MLOAD PUSH1 0x1 PUSH1 0x1 PUSH1 0x40 SHL SUB DUP2 GT ISZERO PUSH2 0x94A JUMPI PUSH2 0x94A PUSH2 0x1A3C JUMP JUMPDEST PUSH1 0x40 MLOAD SWAP1 DUP1 DUP3 MSTORE DUP1 PUSH1 0x20 MUL PUSH1 0x20 ADD DUP3 ADD PUSH1 0x40 MSTORE DUP1 ISZERO PUSH2 0x973 JUMPI DUP2 PUSH1 0x20 ADD PUSH1 0x20 DUP3 MUL DUP1 CALLDATASIZE DUP4 CALLDATACOPY ADD SWAP1 POP JUMPDEST POP SWAP1 POP PUSH1 0x0 JUMPDEST DUP5 MLOAD DUP2 LT ISZERO PUSH2 0x9C2 JUMPI PUSH1 0x20 DUP1 DUP3 MUL DUP7 ADD ADD MLOAD PUSH2 0x99D SWAP1 PUSH1 0x20 DUP1 DUP5 MUL DUP8 ADD ADD MLOAD PUSH2 0x39F JUMP JUMPDEST DUP3 DUP3 DUP2 MLOAD DUP2 LT PUSH2 0x9AF JUMPI PUSH2 0x9AF PUSH2 0x1FCA JUMP JUMPDEST PUSH1 0x20 SWAP1 DUP2 MUL SWAP2 SWAP1 SWAP2 ADD ADD MSTORE PUSH1 0x1 ADD PUSH2 0x979 JUMP JUMPDEST POP SWAP4 SWAP3 POP POP POP JUMP JUMPDEST CALLER PUSH1 0x0 SWAP1 DUP2 MSTORE PUSH1 0x5 PUSH1 0x20 MSTORE PUSH1 0x40 SWAP1 KECCAK256 SLOAD PUSH1 0xFF AND PUSH2 0xA1D JUMPI PUSH1 0x40 MLOAD PUSH3 0x461BCD PUSH1 0xE5 SHL DUP2 MSTORE PUSH1 0x20 PUSH1 0x4 DUP3 ADD MSTORE PUSH1 0x11 PUSH1 0x24 DUP3 ADD MSTORE PUSH17 0x139BDD08185D5D1A195B9D1A58D85D1959 PUSH1 0x7A SHL PUSH1 0x44 DUP3 ADD MSTORE PUSH1 0x64 ADD PUSH2 0x605 JUMP JUMPDEST CALLER PUSH1 0x0 SWAP1 DUP2 MSTORE PUSH1 0x6 PUSH1 0x20 MSTORE PUSH1 0x40 SWAP1 KECCAK256 SLOAD PUSH1 0x5 GT PUSH2 0xA6A JUMPI PUSH1 0x40 MLOAD PUSH3 0x461BCD PUSH1 0xE5 SHL DUP2 MSTORE PUSH1 0x20 PUSH1 0x4 DUP3 ADD MSTORE PUSH1 0xB PUSH1 0x24 DUP3 ADD MSTORE PUSH11 0x526573656172636843617 PUSH1 0xAC SHL PUSH1 0x44 DUP3 ADD MSTORE PUSH1 0x64 ADD PUSH2 0x605 JUMP JUMPDEST PUSH4 0x5F5E100 DUP4 LT ISZERO PUSH2 0xAB5 JUMPI PUSH1 0x40 MLOAD PUSH3 0x461BCD PUSH1 0xE5 SHL DUP2 MSTORE PUSH1 0x20 PUSH1 0x4 DUP3 ADD MSTORE PUSH1 0x14 PUSH1 0x24 DUP3 ADD MSTORE PUSH20 0x125B9D995CDD1B595B9D081D1BDBC81CDB585B1B PUSH1 0x62 SHL PUSH1 0x44 DUP3 ADD MSTORE PUSH1 0x64 ADD PUSH2 0x605 JUMP JUMPDEST PUSH1 0x0 PUSH2 0xAC5 PUSH4 0x5F5E100 DUP6 PUSH2 0x21B4 JUMP JUMPDEST SWAP1 POP PUSH1 0x0 PUSH1 0x40 MLOAD DUP1 PUSH2 0x140 ADD PUSH1 0x40 MSTORE DUP1 PUSH1 0x4 SLOAD DUP2 MSTORE PUSH1 0x20 ADD PUSH1 0x0 PUSH1 0x2 DUP2 GT ISZERO PUSH2 0xAF0 JUMPI PUSH2 0xAF0 PUSH2 0x193F JUMP JUMPDEST DUP2 MSTORE PUSH1 0x20 DUP1 DUP3 ADD DUP9 SWAP1 MSTORE PUSH1 0x40 DUP1 DUP4 ADD DUP9 SWAP1 MSTORE PUSH1 0x60 DUP4 ADD DUP7 SWAP1 MSTORE PUSH1 0x80 DUP4 ADD DUP8 SWAP1 MSTORE PUSH1 0x0 PUSH1 0xA0 DUP5 ADD DUP2 SWAP1 MSTORE PUSH1 0xC0 DUP5 ADD DUP2 SWAP1 MSTORE CALLER PUSH1 0xE0 DUP6 ADD DUP2 SWAP1 MSTORE PUSH2 0x100 SWAP1 SWAP5 ADD DUP12 SWAP1 MSTORE SWAP3 DUP4 MSTORE PUSH1 0x6 DUP3 MSTORE DUP3 KECCAK256 DUP1 SLOAD PUSH1 0x1 DUP2 DUP2 ADD DUP4 SSTORE SWAP2 DUP5 MSTORE SWAP3 DUP3 SWAP1 KECCAK256 DUP5 MLOAD PUSH1 0xA SWAP1 SWAP5 MUL ADD SWAP3 DUP4 SSTORE SWAP1 DUP4 ADD MLOAD DUP3 DUP3 ADD DUP1 SLOAD SWAP5 SWAP6 POP DUP6 SWAP5 SWAP2 SWAP3 SWAP1 SWAP2 PUSH1 0xFF NOT AND SWAP1 DUP4 PUSH1 0x2 DUP2 GT ISZERO PUSH2 0xB7E JUMPI PUSH2 0xB7E PUSH2 0x193F JUMP JUMPDEST MUL OR SWAP1 SSTORE POP PUSH1 0x40 DUP3 ADD MLOAD PUSH1 0x2 DUP3 ADD SSTORE PUSH1 0x60 DUP3 ADD MLOAD PUSH1 0x3 DUP3 ADD SSTORE PUSH1 0x80 DUP3 ADD MLOAD PUSH1 0x4 DUP3 ADD SSTORE PUSH1 0xA0 DUP3 ADD MLOAD PUSH1 0x5 DUP3 ADD SSTORE PUSH1 0xC0 DUP3 ADD MLOAD PUSH1 0x6 DUP3 ADD SSTORE PUSH1 0xE0 DUP3 ADD MLOAD PUSH1 0x7 DUP3 ADD SSTORE PUSH2 0x100 DUP3 ADD MLOAD PUSH1 0x8 DUP3 ADD DUP1 SLOAD PUSH1 0x1 PUSH1 0x1 PUSH1 0xA0 SHL SUB NOT AND PUSH1 0x1 PUSH1 0x1 PUSH1 0xA0 SHL SUB SWAP1 SWAP3 AND SWAP2 SWAP1 SWAP2 OR SWAP1 SSTORE PUSH2 0x120 DUP3 ADD MLOAD PUSH1 0x9 DUP3 ADD SWAP1 PUSH2 0xBFB SWAP1 DUP3 PUSH2 0x221E JUMP JUMPDEST POP POP PUSH1 0x4 SLOAD PUSH1 0x0 SWAP1 DUP2 MSTORE PUSH1 0x7 PUSH1 0x20 SWAP1 DUP2 MSTORE PUSH1 0x40 SWAP1 SWAP2 KECCAK256 DUP4 MLOAD DUP2 SSTORE SWAP1 DUP4 ADD MLOAD PUSH1 0x1 DUP1 DUP4 ADD DUP1 SLOAD DUP7 SWAP6 POP SWAP1 SWAP2 PUSH1 0xFF NOT SWAP1 SWAP2 AND SWAP1 DUP4 PUSH1 0x2 DUP2 GT ISZERO PUSH2 0xC3E JUMPI PUSH2 0xC3E PUSH2 0x193F JUMP JUMPDEST MUL OR SWAP1 SSTORE POP PUSH1 0x40 DUP3 ADD MLOAD PUSH1 0x2 DUP3 ADD SSTORE PUSH1 0x60 DUP3 ADD MLOAD PUSH1 0x3 DUP3 ADD SSTORE PUSH1 0x80 DUP3 ADD MLOAD PUSH1 0x4 DUP3 ADD SSTORE PUSH1 0xA0 DUP3 ADD MLOAD PUSH1 0x5 DUP3 ADD SSTORE PUSH1 0xC0 DUP3 ADD MLOAD PUSH1 0x6 DUP3 ADD SSTORE PUSH1 0xE0 DUP3 ADD MLOAD PUSH1 0x7 DUP3 ADD SSTORE PUSH2 0x100 DUP3 ADD MLOAD PUSH1 0x8 DUP3 ADD DUP1 SLOAD PUSH1 0x1 PUSH1 0x1 PUSH1 0xA0 SHL SUB NOT AND PUSH1 0x1 PUSH1 0x1 PUSH1 0xA0 SHL SUB SWAP1 SWAP3 AND SWAP2 SWAP1 SWAP2 OR SWAP1 SSTORE PUSH2 0x120 DUP3 ADD MLOAD PUSH1 0x9 DUP3 ADD SWAP1 PUSH2 0xCBB SWAP1 DUP3 PUSH2 0x221E JUMP JUMPDEST POP POP PUSH1 0x4 DUP1 SLOAD SWAP2 POP PUSH1 0x0 PUSH2 0xCCE DUP4 PUSH2 0x22DD JUMP JUMPDEST SWAP1 SWAP2 SSTORE POP POP DUP1 MLOAD PUSH1 0x0 SWAP1 DUP2 MSTORE PUSH1 0x8 PUSH1 0x20 MSTORE PUSH1 0x40 SWAP1 KECCAK256 PUSH2 0xCED DUP8 DUP3 PUSH2 0x221E JUMP JUMPDEST POP DUP1 MLOAD PUSH1 0x40 DUP1 MLOAD SWAP2 DUP3 MSTORE CALLER PUSH1 0x20 DUP4 ADD MSTORE PUSH32 0xA0F5EE5B57F0C2F7AC409633C1C78B5D7473845E4FA9F659B98B4392FFBCDEBA SWAP2 ADD PUSH1 0x40 MLOAD DUP1 SWAP2 SUB SWAP1 LOG1 POP POP POP POP POP POP JUMP JUMPDEST PUSH1 0x1 PUSH1 0x1 PUSH1 0xA0 SHL SUB DUP4 AND CALLER EQ DUP1 ISZERO SWAP1 PUSH2 0xD50 JUMPI POP PUSH2 0xD4E DUP4 CALLER PUSH2 0x1048 JUMP JUMPDEST ISZERO JUMPDEST ISZERO PUSH2 0xD84 JUMPI CALLER JUMPDEST PUSH1 0x40 MLOAD PUSH4 0x711BEC91 PUSH1 0xE1 SHL DUP2 MSTORE PUSH1 0x1 PUSH1 0x1 PUSH1 0xA0 SHL SUB SWAP2 DUP3 AND PUSH1 0x4 DUP3 ADD MSTORE SWAP1 DUP5 AND PUSH1 0x24 DUP3 ADD MSTORE PUSH1 0x44 ADD PUSH2 0x605 JUMP JUMPDEST PUSH2 0xD8F DUP4 DUP4 DUP4 PUSH2 0x11AD JUMP JUMPDEST POP POP POP JUMP JUMPDEST PUSH2 0xD9C PUSH2 0x11F3 JUMP JUMPDEST PUSH2 0xDA6 PUSH1 0x0 PUSH2 0x1220 JUMP JUMPDEST JUMP JUMPDEST PUSH2 0xDB0 PUSH2 0x11F3 JUMP JUMPDEST PUSH1 0x1 PUSH1 0x1 PUSH1 0xA0 SHL SUB DUP2 AND PUSH1 0x0 SWAP1 DUP2 MSTORE PUSH1 0x5 PUSH1 0x20 MSTORE PUSH1 0x40 SWAP1 KECCAK256 DUP1 SLOAD PUSH1 0xFF NOT AND PUSH1 0x1 OR SWAP1 SSTORE PUSH2 0xDDC DUP2 PUSH2 0xDDF JUMP JUMPDEST POP JUMP JUMPDEST PUSH2 0xDE7 PUSH2 0x11F3 JUMP JUMPDEST PUSH1 0x40 DUP1 MLOAD PUSH1 0x1 DUP1 DUP3 MSTORE DUP2 DUP4 ADD SWAP1 SWAP3 MSTORE PUSH1 0x34 SWAP2 PUSH1 0x0 SWAP2 SWAP1 DUP2 PUSH1 0x20 ADD JUMPDEST PUSH1 0x60 DUP2 MSTORE PUSH1 0x20 ADD SWAP1 PUSH1 0x1 SWAP1 SUB SWAP1 DUP2 PUSH2 0xE02 JUMPI SWAP1 POP POP PUSH1 0x40 DUP1 MLOAD PUSH1 0x1 PUSH1 0x1 PUSH1 0xA0 SHL SUB DUP7 AND PUSH1 0x20 DUP3 ADD MSTORE SWAP2 SWAP3 POP ADD PUSH1 0x40 MLOAD PUSH1 0x20 DUP2 DUP4 SUB SUB DUP2 MSTORE SWAP1 PUSH1 0x40 MSTORE DUP2 PUSH1 0x0 DUP2 MLOAD DUP2 LT PUSH2 0xE50 JUMPI PUSH2 0xE50 PUSH2 0x1FCA JUMP JUMPDEST PUSH1 0x20 MUL PUSH1 0x20 ADD ADD DUP2 SWAP1 MSTORE POP PUSH1 0x0 DUP4 PUSH1 0x1 PUSH1 0x40 MLOAD PUSH1 0x20 ADD PUSH2 0xE87 SWAP3 SWAP2 SWAP1 PUSH1 0x1 PUSH1 0x1 PUSH1 0xA0 SHL SUB SWAP3 SWAP1 SWAP3 AND DUP3 MSTORE ISZERO ISZERO PUSH1 0x20 DUP3 ADD MSTORE PUSH1 0x40 ADD SWAP1 JUMP JUMPDEST PUSH1 0x40 DUP1 MLOAD DUP1 DUP4 SUB PUSH1 0x1F NOT ADD DUP2 MSTORE PUSH2 0x140 DUP4 ADD DUP3 MSTORE PUSH1 0x1 PUSH1 0x1 PUSH1 0x40 SHL SUB DUP7 AND DUP4 MSTORE PUSH1 0x0 PUSH1 0x20 DUP5 ADD DUP2 SWAP1 MSTORE DUP4 DUP4 ADD DUP2 SWAP1 MSTORE PUSH1 0x60 DUP5 ADD DUP2 SWAP1 MSTORE ADDRESS PUSH1 0x80 DUP6 ADD MSTORE PUSH1 0xA0 DUP5 ADD DUP2 SWAP1 MSTORE PUSH1 0xC0 DUP5 ADD DUP2 SWAP1 MSTORE PUSH1 0xE0 DUP5 ADD DUP2 SWAP1 MSTORE PUSH2 0x100 DUP5 ADD DUP7 SWAP1 MSTORE PUSH2 0x120 DUP5 ADD DUP3 SWAP1 MSTORE PUSH1 0xA SLOAD SWAP3 MLOAD PUSH4 0xB82916CB PUSH1 0xE0 SHL DUP2 MSTORE SWAP2 SWAP5 POP SWAP2 PUSH1 0x1 PUSH1 0x1 PUSH1 0xA0 SHL SUB AND SWAP1 PUSH4 0xB82916CB SWAP1 PUSH2 0xF19 SWAP1 DUP6 SWAP1 PUSH1 0x4 ADD PUSH2 0x204E JUMP JUMPDEST PUSH1 0x20 PUSH1 0x40 MLOAD DUP1 DUP4 SUB DUP2 PUSH1 0x0 DUP8 GAS CALL ISZERO DUP1 ISZERO PUSH2 0xF38 JUMPI RETURNDATASIZE PUSH1 0x0 DUP1 RETURNDATACOPY RETURNDATASIZE PUSH1 0x0 REVERT JUMPDEST POP POP POP POP PUSH1 0x40 MLOAD RETURNDATASIZE PUSH1 0x1F NOT PUSH1 0x1F DUP3 ADD AND DUP3 ADD DUP1 PUSH1 0x40 MSTORE POP DUP2 ADD SWAP1 PUSH2 0xF5C SWAP2 SWAP1 PUSH2 0x2181 JUMP JUMPDEST PUSH1 0x1 PUSH1 0x1 PUSH1 0xA0 SHL SUB DUP8 AND PUSH1 0x0 DUP2 DUP2 MSTORE PUSH1 0x9 PUSH1 0x20 SWAP1 DUP2 MSTORE PUSH1 0x40 SWAP2 DUP3 SWAP1 KECCAK256 DUP1 SLOAD PUSH8 0xFFFFFFFFFFFFFFFF NOT AND PUSH1 0x1 PUSH1 0x1 PUSH1 0x40 SHL SUB DUP7 AND SWAP1 DUP2 OR SWAP1 SWAP2 SSTORE SWAP2 MLOAD SWAP2 DUP3 MSTORE SWAP3 SWAP4 POP SWAP1 SWAP2 PUSH32 0x22C9AA052D4E34C225D60366B28389EE92CC16A9675CF0C73566587DB4AABCB8 SWAP2 ADD PUSH1 0x40 MLOAD DUP1 SWAP2 SUB SWAP1 LOG2 POP POP POP POP POP POP JUMP JUMPDEST PUSH2 0xFDD CALLER DUP4 DUP4 PUSH2 0x1272 JUMP JUMPDEST POP POP JUMP JUMPDEST PUSH1 0x7 PUSH1 0x20 DUP2 SWAP1 MSTORE PUSH1 0x0 SWAP2 DUP3 MSTORE PUSH1 0x40 SWAP1 SWAP2 KECCAK256 DUP1 SLOAD PUSH1 0x1 DUP3 ADD SLOAD PUSH1 0x2 DUP4 ADD SLOAD PUSH1 0x3 DUP5 ADD SLOAD PUSH1 0x4 DUP6 ADD SLOAD PUSH1 0x5 DUP7 ADD SLOAD PUSH1 0x6 DUP8 ADD SLOAD SWAP8 DUP8 ADD SLOAD PUSH1 0x8 DUP9 ADD SLOAD PUSH1 0x9 DUP10 ADD DUP1 SLOAD SWAP9 SWAP11 PUSH1 0xFF SWAP1 SWAP9 AND SWAP10 SWAP7 SWAP9 SWAP6 SWAP8 SWAP5 SWAP7 SWAP4 SWAP6 SWAP3 SWAP4 PUSH1 0x1 PUSH1 0x1 PUSH1 0xA0 SHL SUB SWAP1 SWAP3 AND SWAP3 PUSH2 0x4A0 SWAP1 PUSH2 0x1F90 JUMP JUMPDEST PUSH1 0x1 PUSH1 0x1 PUSH1 0xA0 SHL SUB SWAP2 DUP3 AND PUSH1 0x0 SWAP1 DUP2 MSTORE PUSH1 0x1 PUSH1 0x20 SWAP1 DUP2 MSTORE PUSH1 0x40 DUP1 DUP4 KECCAK256 SWAP4 SWAP1 SWAP5 AND DUP3 MSTORE SWAP2 SWAP1 SWAP2 MSTORE KECCAK256 SLOAD PUSH1 0xFF AND SWAP1 JUMP JUMPDEST CALLER PUSH1 0x1 PUSH1 0x1 PUSH1 0xA0 SHL SUB DUP7 AND DUP2 EQ DUP1 ISZERO SWAP1 PUSH2 0x1097 JUMPI POP PUSH2 0x1095 DUP7 DUP3 PUSH2 0x1048 JUMP JUMPDEST ISZERO JUMPDEST ISZERO PUSH2 0x10C8 JUMPI PUSH1 0x40 MLOAD PUSH4 0x711BEC91 PUSH1 0xE1 SHL DUP2 MSTORE PUSH1 0x1 PUSH1 0x1 PUSH1 0xA0 SHL SUB DUP1 DUP4 AND PUSH1 0x4 DUP4 ADD MSTORE DUP8 AND PUSH1 0x24 DUP3 ADD MSTORE PUSH1 0x44 ADD PUSH2 0x605 JUMP JUMPDEST PUSH2 0x61B DUP7 DUP7 DUP7 DUP7 DUP7 PUSH2 0x1308 JUMP JUMPDEST PUSH2 0x10DD PUSH2 0x11F3 JUMP JUMPDEST PUSH1 0x1 PUSH1 0x1 PUSH1 0xA0 SHL SUB DUP2 AND PUSH2 0x1107 JUMPI PUSH1 0x40 MLOAD PUSH4 0x1E4FBDF7 PUSH1 0xE0 SHL DUP2 MSTORE PUSH1 0x0 PUSH1 0x4 DUP3 ADD MSTORE PUSH1 0x24 ADD PUSH2 0x605 JUMP JUMPDEST PUSH2 0xDDC DUP2 PUSH2 0x1220 JUMP JUMPDEST PUSH1 0x1 PUSH1 0x1 PUSH1 0xA0 SHL SUB DUP4 AND CALLER EQ DUP1 ISZERO SWAP1 PUSH2 0x1130 JUMPI POP PUSH2 0x112E DUP4 CALLER PUSH2 0x1048 JUMP JUMPDEST ISZERO JUMPDEST ISZERO PUSH2 0x113B JUMPI CALLER PUSH2 0xD57 JUMP JUMPDEST PUSH2 0xD8F DUP4 DUP4 DUP4 PUSH2 0x1396 JUMP JUMPDEST PUSH1 0x1 PUSH1 0x1 PUSH1 0xA0 SHL SUB DUP5 AND PUSH2 0x1170 JUMPI PUSH1 0x40 MLOAD PUSH4 0x2BFA23E7 PUSH1 0xE1 SHL DUP2 MSTORE PUSH1 0x0 PUSH1 0x4 DUP3 ADD MSTORE PUSH1 0x24 ADD PUSH2 0x605 JUMP JUMPDEST PUSH1 0x1 PUSH1 0x1 PUSH1 0xA0 SHL SUB DUP6 AND PUSH2 0x1199 JUMPI PUSH1 0x40 MLOAD PUSH3 0x6A0D45 PUSH1 0xE2 SHL DUP2 MSTORE PUSH1 0x0 PUSH1 0x4 DUP3 ADD MSTORE PUSH1 0x24 ADD PUSH2 0x605 JUMP JUMPDEST PUSH2 0x11A6 DUP6 DUP6 DUP6 DUP6 DUP6 PUSH2 0x13FA JUMP JUMPDEST POP POP POP POP POP JUMP JUMPDEST PUSH1 0x1 PUSH1 0x1 PUSH1 0xA0 SHL SUB DUP4 AND PUSH2 0x11D6 JUMPI PUSH1 0x40 MLOAD PUSH3 0x6A0D45 PUSH1 0xE2 SHL DUP2 MSTORE PUSH1 0x0 PUSH1 0x4 DUP3 ADD MSTORE PUSH1 0x24 ADD PUSH2 0x605 JUMP JUMPDEST PUSH2 0xD8F DUP4 PUSH1 0x0 DUP5 DUP5 PUSH1 0x40 MLOAD DUP1 PUSH1 0x20 ADD PUSH1 0x40 MSTORE DUP1 PUSH1 0x0 DUP2 MSTORE POP PUSH2 0x13FA JUMP JUMPDEST PUSH1 0x3 SLOAD PUSH1 0x1 PUSH1 0x1 PUSH1 0xA0 SHL SUB AND CALLER EQ PUSH2 0xDA6 JUMPI PUSH1 0x40 MLOAD PUSH4 0x118CDAA7 PUSH1 0xE0 SHL DUP2 MSTORE CALLER PUSH1 0x4 DUP3 ADD MSTORE PUSH1 0x24 ADD PUSH2 0x605 JUMP JUMPDEST PUSH1 0x3 DUP1 SLOAD PUSH1 0x1 PUSH1 0x1 PUSH1 0xA0 SHL SUB DUP4 DUP2 AND PUSH1 0x1 PUSH1 0x1 PUSH1 0xA0 SHL SUB NOT DUP4 AND DUP2 OR SWAP1 SWAP4 SSTORE PUSH1 0x40 MLOAD SWAP2 AND SWAP2 SWAP1 DUP3 SWAP1 PUSH32 0x8BE0079C531659141344CD1FD0A4F28419497F9722A3DAAFE3B4186F6B6457E0 SWAP1 PUSH1 0x0 SWAP1 LOG3 POP POP JUMP JUMPDEST PUSH1 0x1 PUSH1 0x1 PUSH1 0xA0 SHL SUB DUP3 AND PUSH2 0x129B JUMPI PUSH1 0x40 MLOAD PUSH3 0xCED3E1 PUSH1 0xE8 SHL DUP2 MSTORE PUSH1 0x0 PUSH1 0x4 DUP3 ADD MSTORE PUSH1 0x24 ADD PUSH2 0x605 JUMP JUMPDEST PUSH1 0x1 PUSH1 0x1 PUSH1 0xA0 SHL SUB DUP4 DUP2 AND PUSH1 0x0 DUP2 DUP2 MSTORE PUSH1 0x1 PUSH1 0x20 SWAP1 DUP2 MSTORE PUSH1 0x40 DUP1 DUP4 KECCAK256 SWAP5 DUP8 AND DUP1 DUP5 MSTORE SWAP5 DUP3 MSTORE SWAP2 DUP3 SWAP1 KECCAK256 DUP1 SLOAD PUSH1 0xFF NOT AND DUP7 ISZERO ISZERO SWAP1 DUP2 OR SWAP1 SWAP2 SSTORE SWAP2 MLOAD SWAP2 DUP3 MSTORE PUSH32 0x17307EAB39AB6107E8899845AD3D59BD9653F200F220920489CA2B5937696C31 SWAP2 ADD PUSH1 0x40 MLOAD DUP1 SWAP2 SUB SWAP1 LOG3 POP POP POP JUMP JUMPDEST PUSH1 0x1 PUSH1 0x1 PUSH1 0xA0 SHL SUB DUP5 AND PUSH2 0x1332 JUMPI PUSH1 0x40 MLOAD PUSH4 0x2BFA23E7 PUSH1 0xE1 SHL DUP2 MSTORE PUSH1 0x0 PUSH1 0x4 DUP3 ADD MSTORE PUSH1 0x24 ADD PUSH2 0x605 JUMP JUMPDEST PUSH1 0x1 PUSH1 0x1 PUSH1 0xA0 SHL SUB DUP6 AND PUSH2 0x135B JUMPI PUSH1 0x40 MLOAD PUSH3 0x6A0D45 PUSH1 0xE2 SHL DUP2 MSTORE PUSH1 0x0 PUSH1 0x4 DUP3 ADD MSTORE PUSH1 0x24 ADD PUSH2 0x605 JUMP JUMPDEST PUSH1 0x40 DUP1 MLOAD PUSH1 0x1 DUP1 DUP3 MSTORE PUSH1 0x20 DUP3 ADD DUP7 SWAP1 MSTORE DUP2 DUP4 ADD SWAP1 DUP2 MSTORE PUSH1 0x60 DUP3 ADD DUP6 SWAP1 MSTORE PUSH1 0x80 DUP3 ADD SWAP1 SWAP3 MSTORE SWAP1 PUSH2 0x138D DUP8 DUP8 DUP5 DUP5 DUP8 PUSH2 0x13FA JUMP JUMPDEST POP POP POP POP POP POP POP JUMP JUMPDEST PUSH1 0x1 PUSH1 0x1 PUSH1 0xA0 SHL SUB DUP4 AND PUSH2 0x13BF JUMPI PUSH1 0x40 MLOAD PUSH3 0x6A0D45 PUSH1 0xE2 SHL DUP2 MSTORE PUSH1 0x0 PUSH1 0x4 DUP3 ADD MSTORE PUSH1 0x24 ADD PUSH2 0x605 JUMP JUMPDEST PUSH1 0x40 DUP1 MLOAD PUSH1 0x1 DUP1 DUP3 MSTORE PUSH1 0x20 DUP3 ADD DUP6 SWAP1 MSTORE DUP2 DUP4 ADD SWAP1 DUP2 MSTORE PUSH1 0x60 DUP3 ADD DUP5 SWAP1 MSTORE PUSH1 0xA0 DUP3 ADD SWAP1 SWAP3 MSTORE PUSH1 0x0 PUSH1 0x80 DUP3 ADD DUP2 DUP2 MSTORE SWAP2 SWAP3 SWAP2 PUSH2 0x11A6 SWAP2 DUP8 SWAP2 DUP6 SWAP1 DUP6 SWAP1 JUMPDEST PUSH2 0x1406 DUP6 DUP6 DUP6 DUP6 PUSH2 0x144D JUMP JUMPDEST PUSH1 0x1 PUSH1 0x1 PUSH1 0xA0 SHL SUB DUP5 AND ISZERO PUSH2 0x11A6 JUMPI DUP3 MLOAD CALLER SWAP1 PUSH1 0x1 SUB PUSH2 0x143F JUMPI PUSH1 0x20 DUP5 DUP2 ADD MLOAD SWAP1 DUP5 ADD MLOAD PUSH2 0x1438 DUP4 DUP10 DUP10 DUP6 DUP6 DUP10 PUSH2 0x145F JUMP JUMPDEST POP POP PUSH2 0x61B JUMP JUMPDEST PUSH2 0x61B DUP2 DUP8 DUP8 DUP8 DUP8 DUP8 PUSH2 0x1583 JUMP JUMPDEST PUSH2 0x1459 DUP5 DUP5 DUP5 DUP5 PUSH2 0x166C JUMP JUMPDEST POP POP POP POP JUMP JUMPDEST PUSH1 0x1 PUSH1 0x1 PUSH1 0xA0 SHL SUB DUP5 AND EXTCODESIZE ISZERO PUSH2 0x61B JUMPI PUSH1 0x40 MLOAD PUSH4 0xF23A6E61 PUSH1 0xE0 SHL DUP2 MSTORE PUSH1 0x1 PUSH1 0x1 PUSH1 0xA0 SHL SUB DUP6 AND SWAP1 PUSH4 0xF23A6E61 SWAP1 PUSH2 0x14A3 SWAP1 DUP10 SWAP1 DUP10 SWAP1 DUP9 SWAP1 DUP9 SWAP1 DUP9 SWAP1 PUSH1 0x4 ADD PUSH2 0x22F6 JUMP JUMPDEST PUSH1 0x20 PUSH1 0x40 MLOAD DUP1 DUP4 SUB DUP2 PUSH1 0x0 DUP8 GAS CALL SWAP3 POP POP POP DUP1 ISZERO PUSH2 0x14DE JUMPI POP PUSH1 0x40 DUP1 MLOAD PUSH1 0x1F RETURNDATASIZE SWAP1 DUP2 ADD PUSH1 0x1F NOT AND DUP3 ADD SWAP1 SWAP3 MSTORE PUSH2 0x14DB SWAP2 DUP2 ADD SWAP1 PUSH2 0x233B JUMP JUMPDEST PUSH1 0x1 JUMPDEST PUSH2 0x1547 JUMPI RETURNDATASIZE DUP1 DUP1 ISZERO PUSH2 0x150C JUMPI PUSH1 0x40 MLOAD SWAP2 POP PUSH1 0x1F NOT PUSH1 0x3F RETURNDATASIZE ADD AND DUP3 ADD PUSH1 0x40 MSTORE RETURNDATASIZE DUP3 MSTORE RETURNDATASIZE PUSH1 0x0 PUSH1 0x20 DUP5 ADD RETURNDATACOPY PUSH2 0x1511 JUMP JUMPDEST PUSH1 0x60 SWAP2 POP JUMPDEST POP DUP1 MLOAD PUSH1 0x0 SUB PUSH2 0x153F JUMPI PUSH1 0x40 MLOAD PUSH4 0x2BFA23E7 PUSH1 0xE1 SHL DUP2 MSTORE PUSH1 0x1 PUSH1 0x1 PUSH1 0xA0 SHL SUB DUP7 AND PUSH1 0x4 DUP3 ADD MSTORE PUSH1 0x24 ADD PUSH2 0x605 JUMP JUMPDEST DUP1 MLOAD DUP2 PUSH1 0x20 ADD REVERT JUMPDEST PUSH1 0x1 PUSH1 0x1 PUSH1 0xE0 SHL SUB NOT DUP2 AND PUSH4 0xF23A6E61 PUSH1 0xE0 SHL EQ PUSH2 0x138D JUMPI PUSH1 0x40 MLOAD PUSH4 0x2BFA23E7 PUSH1 0xE1 SHL DUP2 MSTORE PUSH1 0x1 PUSH1 0x1 PUSH1 0xA0 SHL SUB DUP7 AND PUSH1 0x4 DUP3 ADD MSTORE PUSH1 0x24 ADD PUSH2 0x605 JUMP JUMPDEST PUSH1 0x1 PUSH1 0x1 PUSH1 0xA0 SHL SUB DUP5 AND EXTCODESIZE ISZERO PUSH2 0x61B JUMPI PUSH1 0x40 MLOAD PUSH4 0xBC197C81 PUSH1 0xE0 SHL DUP2 MSTORE PUSH1 0x1 PUSH1 0x1 PUSH1 0xA0 SHL SUB DUP6 AND SWAP1 PUSH4 0xBC197C81 SWAP1 PUSH2 0x15C7 SWAP1 DUP10 SWAP1 DUP10 SWAP1 DUP9 SWAP1 DUP9 SWAP1 DUP9 SWAP1 PUSH1 0x4 ADD PUSH2 0x2358 JUMP JUMPDEST PUSH1 0x20 PUSH1 0x40 MLOAD DUP1 DUP4 SUB DUP2 PUSH1 0x0 DUP8 GAS CALL SWAP3 POP POP POP DUP1 ISZERO PUSH2 0x1602 JUMPI POP PUSH1 0x40 DUP1 MLOAD PUSH1 0x1F RETURNDATASIZE SWAP1 DUP2 ADD PUSH1 0x1F NOT AND DUP3 ADD SWAP1 SWAP3 MSTORE PUSH2 0x15FF SWAP2 DUP2 ADD SWAP1 PUSH2 0x233B JUMP JUMPDEST PUSH1 0x1 JUMPDEST PUSH2 0x1630 JUMPI RETURNDATASIZE DUP1 DUP1 ISZERO PUSH2 0x150C JUMPI PUSH1 0x40 MLOAD SWAP2 POP PUSH1 0x1F NOT PUSH1 0x3F RETURNDATASIZE ADD AND DUP3 ADD PUSH1 0x40 MSTORE RETURNDATASIZE DUP3 MSTORE RETURNDATASIZE PUSH1 0x0 PUSH1 0x20 DUP5 ADD RETURNDATACOPY PUSH2 0x1511 JUMP JUMPDEST PUSH1 0x1 PUSH1 0x1 PUSH1 0xE0 SHL SUB NOT DUP2 AND PUSH4 0xBC197C81 PUSH1 0xE0 SHL EQ PUSH2 0x138D JUMPI PUSH1 0x40 MLOAD PUSH4 0x2BFA23E7 PUSH1 0xE1 SHL DUP2 MSTORE PUSH1 0x1 PUSH1 0x1 PUSH1 0xA0 SHL SUB DUP7 AND PUSH1 0x4 DUP3 ADD MSTORE PUSH1 0x24 ADD PUSH2 0x605 JUMP JUMPDEST PUSH2 0x1674 PUSH2 0x1680 JUMP JUMPDEST PUSH2 0x1459 DUP5 DUP5 DUP5 DUP5 PUSH2 0x16AB JUMP JUMPDEST PUSH1 0x3 SLOAD PUSH1 0x1 PUSH1 0xA0 SHL SWAP1 DIV PUSH1 0xFF AND ISZERO PUSH2 0xDA6 JUMPI PUSH1 0x40 MLOAD PUSH4 0xD93C0665 PUSH1 0xE0 SHL DUP2 MSTORE PUSH1 0x4 ADD PUSH1 0x40 MLOAD DUP1 SWAP2 SUB SWAP1 REVERT JUMPDEST DUP1 MLOAD DUP3 MLOAD EQ PUSH2 0x16DA JUMPI DUP2 MLOAD DUP2 MLOAD PUSH1 0x40 MLOAD PUSH4 0x5B059991 PUSH1 0xE0 SHL DUP2 MSTORE PUSH1 0x4 DUP2 ADD SWAP3 SWAP1 SWAP3 MSTORE PUSH1 0x24 DUP3 ADD MSTORE PUSH1 0x44 ADD PUSH2 0x605 JUMP JUMPDEST CALLER PUSH1 0x0 JUMPDEST DUP4 MLOAD DUP2 LT ISZERO PUSH2 0x17E0 JUMPI PUSH1 0x20 DUP2 DUP2 MUL DUP6 DUP2 ADD DUP3 ADD MLOAD SWAP1 DUP6 ADD SWAP1 SWAP2 ADD MLOAD PUSH1 0x1 PUSH1 0x1 PUSH1 0xA0 SHL SUB DUP9 AND ISZERO PUSH2 0x1791 JUMPI PUSH1 0x0 DUP3 DUP2 MSTORE PUSH1 0x20 DUP2 DUP2 MSTORE PUSH1 0x40 DUP1 DUP4 KECCAK256 PUSH1 0x1 PUSH1 0x1 PUSH1 0xA0 SHL SUB DUP13 AND DUP5 MSTORE SWAP1 SWAP2 MSTORE SWAP1 KECCAK256 SLOAD DUP2 DUP2 LT ISZERO PUSH2 0x176A JUMPI PUSH1 0x40 MLOAD PUSH4 0x3DEE4C5 PUSH1 0xE0 SHL DUP2 MSTORE PUSH1 0x1 PUSH1 0x1 PUSH1 0xA0 SHL SUB DUP11 AND PUSH1 0x4 DUP3 ADD MSTORE PUSH1 0x24 DUP2 ADD DUP3 SWAP1 MSTORE PUSH1 0x44 DUP2 ADD DUP4 SWAP1 MSTORE PUSH1 0x64 DUP2 ADD DUP5 SWAP1 MSTORE PUSH1 0x84 ADD PUSH2 0x605 JUMP JUMPDEST PUSH1 0x0 DUP4 DUP2 MSTORE PUSH1 0x20 DUP2 DUP2 MSTORE PUSH1 0x40 DUP1 DUP4 KECCAK256 PUSH1 0x1 PUSH1 0x1 PUSH1 0xA0 SHL SUB DUP14 AND DUP5 MSTORE SWAP1 SWAP2 MSTORE SWAP1 KECCAK256 SWAP1 DUP3 SWAP1 SUB SWAP1 SSTORE JUMPDEST PUSH1 0x1 PUSH1 0x1 PUSH1 0xA0 SHL SUB DUP8 AND ISZERO PUSH2 0x17D6 JUMPI PUSH1 0x0 DUP3 DUP2 MSTORE PUSH1 0x20 DUP2 DUP2 MSTORE PUSH1 0x40 DUP1 DUP4 KECCAK256 PUSH1 0x1 PUSH1 0x1 PUSH1 0xA0 SHL SUB DUP12 AND DUP5 MSTORE SWAP1 SWAP2 MSTORE DUP2 KECCAK256 DUP1 SLOAD DUP4 SWAP3 SWAP1 PUSH2 0x17D0 SWAP1 DUP5 SWAP1 PUSH2 0x23B6 JUMP JUMPDEST SWAP1 SWAP2 SSTORE POP POP JUMPDEST POP POP PUSH1 0x1 ADD PUSH2 0x16DE JUMP JUMPDEST POP DUP3 MLOAD PUSH1 0x1 SUB PUSH2 0x1861 JUMPI PUSH1 0x20 DUP4 ADD MLOAD PUSH1 0x0 SWAP1 PUSH1 0x20 DUP5 ADD MLOAD SWAP1 SWAP2 POP DUP6 PUSH1 0x1 PUSH1 0x1 PUSH1 0xA0 SHL SUB AND DUP8 PUSH1 0x1 PUSH1 0x1 PUSH1 0xA0 SHL SUB AND DUP5 PUSH1 0x1 PUSH1 0x1 PUSH1 0xA0 SHL SUB AND PUSH32 0xC3D58168C5AE7397731D063D5BBF3D657854427343F4C083240F7AACAA2D0F62 DUP6 DUP6 PUSH1 0x40 MLOAD PUSH2 0x1852 SWAP3 SWAP2 SWAP1 SWAP2 DUP3 MSTORE PUSH1 0x20 DUP3 ADD MSTORE PUSH1 0x40 ADD SWAP1 JUMP JUMPDEST PUSH1 0x40 MLOAD DUP1 SWAP2 SUB SWAP1 LOG4 POP POP PUSH2 0x11A6 JUMP JUMPDEST DUP4 PUSH1 0x1 PUSH1 0x1 PUSH1 0xA0 SHL SUB AND DUP6 PUSH1 0x1 PUSH1 0x1 PUSH1 0xA0 SHL SUB AND DUP3 PUSH1 0x1 PUSH1 0x1 PUSH1 0xA0 SHL SUB AND PUSH32 0x4A39DC06D4C0DBC64B70AF90FD698A233A518AA5D07E595D983B8C0526C8F7FB DUP7 DUP7 PUSH1 0x40 MLOAD PUSH2 0x18B0 SWAP3 SWAP2 SWAP1 PUSH2 0x23C9 JUMP JUMPDEST PUSH1 0x40 MLOAD DUP1 SWAP2 SUB SWAP1 LOG4 POP POP POP POP POP JUMP JUMPDEST DUP1 CALLDATALOAD PUSH1 0x1 PUSH1 0x1 PUSH1 0xA0 SHL SUB DUP2 AND DUP2 EQ PUSH2 0x18D6 JUMPI PUSH1 0x0 DUP1 REVERT JUMPDEST SWAP2 SWAP1 POP JUMP JUMPDEST PUSH1 0x0 DUP1 PUSH1 0x40 DUP4 DUP6 SUB SLT ISZERO PUSH2 0x18EE JUMPI PUSH1 0x0 DUP1 REVERT JUMPDEST PUSH2 0x18F7 DUP4 PUSH2 0x18BF JUMP JUMPDEST SWAP5 PUSH1 0x20 SWAP4 SWAP1 SWAP4 ADD CALLDATALOAD SWAP4 POP POP POP JUMP JUMPDEST PUSH1 0x1 PUSH1 0x1 PUSH1 0xE0 SHL SUB NOT DUP2 AND DUP2 EQ PUSH2 0xDDC JUMPI PUSH1 0x0 DUP1 REVERT JUMPDEST PUSH1 0x0 PUSH1 0x20 DUP3 DUP5 SUB SLT ISZERO PUSH2 0x192D JUMPI PUSH1 0x0 DUP1 REVERT JUMPDEST DUP2 CALLDATALOAD PUSH2 0x1938 DUP2 PUSH2 0x1905 JUMP JUMPDEST SWAP4 SWAP3 POP POP POP JUMP JUMPDEST PUSH4 0x4E487B71 PUSH1 0xE0 SHL PUSH1 0x0 MSTORE PUSH1 0x21 PUSH1 0x4 MSTORE PUSH1 0x24 PUSH1 0x0 REVERT JUMPDEST PUSH1 0x0 DUP2 MLOAD DUP1 DUP5 MSTORE PUSH1 0x0 JUMPDEST DUP2 DUP2 LT ISZERO PUSH2 0x197B JUMPI PUSH1 0x20 DUP2 DUP6 ADD DUP2 ADD MLOAD DUP7 DUP4 ADD DUP3 ADD MSTORE ADD PUSH2 0x195F JUMP JUMPDEST POP PUSH1 0x0 PUSH1 0x20 DUP3 DUP7 ADD ADD MSTORE PUSH1 0x20 PUSH1 0x1F NOT PUSH1 0x1F DUP4 ADD AND DUP6 ADD ADD SWAP2 POP POP SWAP3 SWAP2 POP POP JUMP JUMPDEST PUSH1 0x0 PUSH2 0x140 DUP13 DUP4 MSTORE PUSH1 0x3 DUP13 LT PUSH2 0x19B3 JUMPI PUSH2 0x19B3 PUSH2 0x193F JUMP JUMPDEST DUP12 PUSH1 0x20 DUP5 ADD MSTORE DUP11 PUSH1 0x40 DUP5 ADD MSTORE DUP10 PUSH1 0x60 DUP5 ADD MSTORE DUP9 PUSH1 0x80 DUP5 ADD MSTORE DUP8 PUSH1 0xA0 DUP5 ADD MSTORE DUP7 PUSH1 0xC0 DUP5 ADD MSTORE DUP6 PUSH1 0xE0 DUP5 ADD MSTORE PUSH1 0x1 DUP1 PUSH1 0xA0 SHL SUB DUP6 AND PUSH2 0x100 DUP5 ADD MSTORE DUP1 PUSH2 0x120 DUP5 ADD MSTORE PUSH2 0x19FF DUP2 DUP5 ADD DUP6 PUSH2 0x1955 JUMP JUMPDEST SWAP14 SWAP13 POP POP POP POP POP POP POP POP POP POP POP POP POP JUMP JUMPDEST PUSH1 0x0 PUSH1 0x20 DUP3 DUP5 SUB SLT ISZERO PUSH2 0x1A22 JUMPI PUSH1 0x0 DUP1 REVERT JUMPDEST POP CALLDATALOAD SWAP2 SWAP1 POP JUMP JUMPDEST PUSH1 0x20 DUP2 MSTORE PUSH1 0x0 PUSH2 0x1938 PUSH1 0x20 DUP4 ADD DUP5 PUSH2 0x1955 JUMP JUMPDEST PUSH4 0x4E487B71 PUSH1 0xE0 SHL PUSH1 0x0 MSTORE PUSH1 0x41 PUSH1 0x4 MSTORE PUSH1 0x24 PUSH1 0x0 REVERT JUMPDEST PUSH1 0x40 MLOAD PUSH1 0x1F DUP3 ADD PUSH1 0x1F NOT AND DUP2 ADD PUSH1 0x1 PUSH1 0x1 PUSH1 0x40 SHL SUB DUP2 GT DUP3 DUP3 LT OR ISZERO PUSH2 0x1A7A JUMPI PUSH2 0x1A7A PUSH2 0x1A3C JUMP JUMPDEST PUSH1 0x40 MSTORE SWAP2 SWAP1 POP JUMP JUMPDEST PUSH1 0x0 PUSH1 0x1 PUSH1 0x1 PUSH1 0x40 SHL SUB DUP3 GT ISZERO PUSH2 0x1A9B JUMPI PUSH2 0x1A9B PUSH2 0x1A3C JUMP JUMPDEST POP PUSH1 0x5 SHL PUSH1 0x20 ADD SWAP1 JUMP JUMPDEST PUSH1 0x0 DUP3 PUSH1 0x1F DUP4 ADD SLT PUSH2 0x1AB6 JUMPI PUSH1 0x0 DUP1 REVERT JUMPDEST DUP2 CALLDATALOAD PUSH1 0x20 PUSH2 0x1ACB PUSH2 0x1AC6 DUP4 PUSH2 0x1A82 JUMP JUMPDEST PUSH2 0x1A52 JUMP JUMPDEST DUP1 DUP4 DUP3 MSTORE PUSH1 0x20 DUP3 ADD SWAP2 POP PUSH1 0x20 DUP5 PUSH1 0x5 SHL DUP8 ADD ADD SWAP4 POP DUP7 DUP5 GT ISZERO PUSH2 0x1AED JUMPI PUSH1 0x0 DUP1 REVERT JUMPDEST PUSH1 0x20 DUP7 ADD JUMPDEST DUP5 DUP2 LT ISZERO PUSH2 0x1B09 JUMPI DUP1 CALLDATALOAD DUP4 MSTORE SWAP2 DUP4 ADD SWAP2 DUP4 ADD PUSH2 0x1AF2 JUMP JUMPDEST POP SWAP7 SWAP6 POP POP POP POP POP POP JUMP JUMPDEST PUSH1 0x0 DUP3 PUSH1 0x1F DUP4 ADD SLT PUSH2 0x1B25 JUMPI PUSH1 0x0 DUP1 REVERT JUMPDEST DUP2 CALLDATALOAD PUSH1 0x1 PUSH1 0x1 PUSH1 0x40 SHL SUB DUP2 GT ISZERO PUSH2 0x1B3E JUMPI PUSH2 0x1B3E PUSH2 0x1A3C JUMP JUMPDEST PUSH2 0x1B51 PUSH1 0x1F DUP3 ADD PUSH1 0x1F NOT AND PUSH1 0x20 ADD PUSH2 0x1A52 JUMP JUMPDEST DUP2 DUP2 MSTORE DUP5 PUSH1 0x20 DUP4 DUP7 ADD ADD GT ISZERO PUSH2 0x1B66 JUMPI PUSH1 0x0 DUP1 REVERT JUMPDEST DUP2 PUSH1 0x20 DUP6 ADD PUSH1 0x20 DUP4 ADD CALLDATACOPY PUSH1 0x0 SWAP2 DUP2 ADD PUSH1 0x20 ADD SWAP2 SWAP1 SWAP2 MSTORE SWAP4 SWAP3 POP POP POP JUMP JUMPDEST PUSH1 0x0 DUP1 PUSH1 0x0 DUP1 PUSH1 0x0 PUSH1 0xA0 DUP7 DUP9 SUB SLT ISZERO PUSH2 0x1B9B JUMPI PUSH1 0x0 DUP1 REVERT JUMPDEST PUSH2 0x1BA4 DUP7 PUSH2 0x18BF JUMP JUMPDEST SWAP5 POP PUSH2 0x1BB2 PUSH1 0x20 DUP8 ADD PUSH2 0x18BF JUMP JUMPDEST SWAP4 POP PUSH1 0x40 DUP7 ADD CALLDATALOAD PUSH1 0x1 PUSH1 0x1 PUSH1 0x40 SHL SUB DUP1 DUP3 GT ISZERO PUSH2 0x1BCE JUMPI PUSH1 0x0 DUP1 REVERT JUMPDEST PUSH2 0x1BDA DUP10 DUP4 DUP11 ADD PUSH2 0x1AA5 JUMP JUMPDEST SWAP5 POP PUSH1 0x60 DUP9 ADD CALLDATALOAD SWAP2 POP DUP1 DUP3 GT ISZERO PUSH2 0x1BF0 JUMPI PUSH1 0x0 DUP1 REVERT JUMPDEST PUSH2 0x1BFC DUP10 DUP4 DUP11 ADD PUSH2 0x1AA5 JUMP JUMPDEST SWAP4 POP PUSH1 0x80 DUP9 ADD CALLDATALOAD SWAP2 POP DUP1 DUP3 GT ISZERO PUSH2 0x1C12 JUMPI PUSH1 0x0 DUP1 REVERT JUMPDEST POP PUSH2 0x1C1F DUP9 DUP3 DUP10 ADD PUSH2 0x1B14 JUMP JUMPDEST SWAP2 POP POP SWAP3 SWAP6 POP SWAP3 SWAP6 SWAP1 SWAP4 POP JUMP JUMPDEST PUSH1 0x0 PUSH1 0x20 DUP3 DUP5 SUB SLT ISZERO PUSH2 0x1C3E JUMPI PUSH1 0x0 DUP1 REVERT JUMPDEST PUSH2 0x1938 DUP3 PUSH2 0x18BF JUMP JUMPDEST PUSH1 0x1 PUSH1 0x1 PUSH1 0x40 SHL SUB DUP2 AND DUP2 EQ PUSH2 0xDDC JUMPI PUSH1 0x0 DUP1 REVERT JUMPDEST PUSH1 0x0 DUP1 PUSH1 0x0 PUSH1 0x60 DUP5 DUP7 SUB SLT ISZERO PUSH2 0x1C71 JUMPI PUSH1 0x0 DUP1 REVERT JUMPDEST DUP4 CALLDATALOAD SWAP3 POP PUSH1 0x20 DUP5 ADD CALLDATALOAD PUSH1 0x1 PUSH1 0x1 PUSH1 0x40 SHL SUB DUP2 GT ISZERO PUSH2 0x1C8E JUMPI PUSH1 0x0 DUP1 REVERT JUMPDEST PUSH2 0x1C9A DUP7 DUP3 DUP8 ADD PUSH2 0x1B14 JUMP JUMPDEST SWAP3 POP POP PUSH1 0x40 DUP5 ADD CALLDATALOAD PUSH2 0x1CAB DUP2 PUSH2 0x1C47 JUMP JUMPDEST DUP1 SWAP2 POP POP SWAP3 POP SWAP3 POP SWAP3 JUMP JUMPDEST PUSH1 0x0 DUP1 PUSH1 0x40 DUP4 DUP6 SUB SLT ISZERO PUSH2 0x1CC9 JUMPI PUSH1 0x0 DUP1 REVERT JUMPDEST DUP3 CALLDATALOAD PUSH1 0x1 PUSH1 0x1 PUSH1 0x40 SHL SUB DUP1 DUP3 GT ISZERO PUSH2 0x1CE0 JUMPI PUSH1 0x0 DUP1 REVERT JUMPDEST DUP2 DUP6 ADD SWAP2 POP DUP6 PUSH1 0x1F DUP4 ADD SLT PUSH2 0x1CF4 JUMPI PUSH1 0x0 DUP1 REVERT JUMPDEST DUP2 CALLDATALOAD PUSH1 0x20 PUSH2 0x1D04 PUSH2 0x1AC6 DUP4 PUSH2 0x1A82 JUMP JUMPDEST DUP3 DUP2 MSTORE PUSH1 0x5 SWAP3 SWAP1 SWAP3 SHL DUP5 ADD DUP2 ADD SWAP2 DUP2 DUP2 ADD SWAP1 DUP10 DUP5 GT ISZERO PUSH2 0x1D23 JUMPI PUSH1 0x0 DUP1 REVERT JUMPDEST SWAP5 DUP3 ADD SWAP5 JUMPDEST DUP4 DUP7 LT ISZERO PUSH2 0x1D48 JUMPI PUSH2 0x1D39 DUP7 PUSH2 0x18BF JUMP JUMPDEST DUP3 MSTORE SWAP5 DUP3 ADD SWAP5 SWAP1 DUP3 ADD SWAP1 PUSH2 0x1D28 JUMP JUMPDEST SWAP7 POP POP DUP7 ADD CALLDATALOAD SWAP3 POP POP DUP1 DUP3 GT ISZERO PUSH2 0x1D5E JUMPI PUSH1 0x0 DUP1 REVERT JUMPDEST POP PUSH2 0x1D6B DUP6 DUP3 DUP7 ADD PUSH2 0x1AA5 JUMP JUMPDEST SWAP2 POP POP SWAP3 POP SWAP3 SWAP1 POP JUMP JUMPDEST PUSH1 0x0 DUP2 MLOAD DUP1 DUP5 MSTORE PUSH1 0x20 DUP1 DUP6 ADD SWAP5 POP PUSH1 0x20 DUP5 ADD PUSH1 0x0 JUMPDEST DUP4 DUP2 LT ISZERO PUSH2 0x1DA6 JUMPI DUP2 MLOAD DUP8 MSTORE SWAP6 DUP3 ADD SWAP6 SWAP1 DUP3 ADD SWAP1 PUSH1 0x1 ADD PUSH2 0x1D8A JUMP JUMPDEST POP SWAP5 SWAP6 SWAP5 POP POP POP POP POP JUMP JUMPDEST PUSH1 0x20 DUP2 MSTORE PUSH1 0x0 PUSH2 0x1938 PUSH1 0x20 DUP4 ADD DUP5 PUSH2 0x1D75 JUMP JUMPDEST PUSH1 0x0 DUP1 PUSH1 0x0 DUP1 PUSH1 0x80 DUP6 DUP8 SUB SLT ISZERO PUSH2 0x1DDA JUMPI PUSH1 0x0 DUP1 REVERT JUMPDEST DUP5 CALLDATALOAD PUSH1 0x1 PUSH1 0x1 PUSH1 0x40 SHL SUB DUP2 GT ISZERO PUSH2 0x1DF0 JUMPI PUSH1 0x0 DUP1 REVERT JUMPDEST PUSH2 0x1DFC DUP8 DUP3 DUP9 ADD PUSH2 0x1B14 JUMP JUMPDEST SWAP8 PUSH1 0x20 DUP8 ADD CALLDATALOAD SWAP8 POP PUSH1 0x40 DUP8 ADD CALLDATALOAD SWAP7 PUSH1 0x60 ADD CALLDATALOAD SWAP6 POP SWAP4 POP POP POP POP JUMP JUMPDEST PUSH1 0x0 DUP1 PUSH1 0x0 PUSH1 0x60 DUP5 DUP7 SUB SLT ISZERO PUSH2 0x1E2C JUMPI PUSH1 0x0 DUP1 REVERT JUMPDEST PUSH2 0x1E35 DUP5 PUSH2 0x18BF JUMP JUMPDEST SWAP3 POP PUSH1 0x20 DUP5 ADD CALLDATALOAD PUSH1 0x1 PUSH1 0x1 PUSH1 0x40 SHL SUB DUP1 DUP3 GT ISZERO PUSH2 0x1E51 JUMPI PUSH1 0x0 DUP1 REVERT JUMPDEST PUSH2 0x1E5D DUP8 DUP4 DUP9 ADD PUSH2 0x1AA5 JUMP JUMPDEST SWAP4 POP PUSH1 0x40 DUP7 ADD CALLDATALOAD SWAP2 POP DUP1 DUP3 GT ISZERO PUSH2 0x1E73 JUMPI PUSH1 0x0 DUP1 REVERT JUMPDEST POP PUSH2 0x1E80 DUP7 DUP3 DUP8 ADD PUSH2 0x1AA5 JUMP JUMPDEST SWAP2 POP POP SWAP3 POP SWAP3 POP SWAP3 JUMP JUMPDEST PUSH1 0x0 DUP1 PUSH1 0x40 DUP4 DUP6 SUB SLT ISZERO PUSH2 0x1E9D JUMPI PUSH1 0x0 DUP1 REVERT JUMPDEST PUSH2 0x1EA6 DUP4 PUSH2 0x18BF JUMP JUMPDEST SWAP2 POP PUSH1 0x20 DUP4 ADD CALLDATALOAD DUP1 ISZERO ISZERO DUP2 EQ PUSH2 0x1EBB JUMPI PUSH1 0x0 DUP1 REVERT JUMPDEST DUP1 SWAP2 POP POP SWAP3 POP SWAP3 SWAP1 POP JUMP JUMPDEST PUSH1 0x0 DUP1 PUSH1 0x40 DUP4 DUP6 SUB SLT ISZERO PUSH2 0x1ED9 JUMPI PUSH1 0x0 DUP1 REVERT JUMPDEST PUSH2 0x1EE2 DUP4 PUSH2 0x18BF JUMP JUMPDEST SWAP2 POP PUSH2 0x1EF0 PUSH1 0x20 DUP5 ADD PUSH2 0x18BF JUMP JUMPDEST SWAP1 POP SWAP3 POP SWAP3 SWAP1 POP JUMP JUMPDEST PUSH1 0x0 DUP1 PUSH1 0x0 DUP1 PUSH1 0x0 PUSH1 0xA0 DUP7 DUP9 SUB SLT ISZERO PUSH2 0x1F11 JUMPI PUSH1 0x0 DUP1 REVERT JUMPDEST PUSH2 0x1F1A DUP7 PUSH2 0x18BF JUMP JUMPDEST SWAP5 POP PUSH2 0x1F28 PUSH1 0x20 DUP8 ADD PUSH2 0x18BF JUMP JUMPDEST SWAP4 POP PUSH1 0x40 DUP7 ADD CALLDATALOAD SWAP3 POP PUSH1 0x60 DUP7 ADD CALLDATALOAD SWAP2 POP PUSH1 0x80 DUP7 ADD CALLDATALOAD PUSH1 0x1 PUSH1 0x1 PUSH1 0x40 SHL SUB DUP2 GT ISZERO PUSH2 0x1F51 JUMPI PUSH1 0x0 DUP1 REVERT JUMPDEST PUSH2 0x1C1F DUP9 DUP3 DUP10 ADD PUSH2 0x1B14 JUMP JUMPDEST PUSH1 0x0 DUP1 PUSH1 0x0 PUSH1 0x60 DUP5 DUP7 SUB SLT ISZERO PUSH2 0x1F72 JUMPI PUSH1 0x0 DUP1 REVERT JUMPDEST PUSH2 0x1F7B DUP5 PUSH2 0x18BF JUMP JUMPDEST SWAP6 PUSH1 0x20 DUP6 ADD CALLDATALOAD SWAP6 POP PUSH1 0x40 SWAP1 SWAP5 ADD CALLDATALOAD SWAP4 SWAP3 POP POP POP JUMP JUMPDEST PUSH1 0x1 DUP2 DUP2 SHR SWAP1 DUP3 AND DUP1 PUSH2 0x1FA4 JUMPI PUSH1 0x7F DUP3 AND SWAP2 POP JUMPDEST PUSH1 0x20 DUP3 LT DUP2 SUB PUSH2 0x1FC4 JUMPI PUSH4 0x4E487B71 PUSH1 0xE0 SHL PUSH1 0x0 MSTORE PUSH1 0x22 PUSH1 0x4 MSTORE PUSH1 0x24 PUSH1 0x0 REVERT JUMPDEST POP SWAP2 SWAP1 POP JUMP JUMPDEST PUSH4 0x4E487B71 PUSH1 0xE0 SHL PUSH1 0x0 MSTORE PUSH1 0x32 PUSH1 0x4 MSTORE PUSH1 0x24 PUSH1 0x0 REVERT JUMPDEST PUSH1 0x4 DUP2 LT PUSH2 0x1FF0 JUMPI PUSH2 0x1FF0 PUSH2 0x193F JUMP JUMPDEST SWAP1 MSTORE JUMP JUMPDEST PUSH1 0x0 DUP3 DUP3 MLOAD DUP1 DUP6 MSTORE PUSH1 0x20 DUP1 DUP7 ADD SWAP6 POP PUSH1 0x20 DUP3 PUSH1 0x5 SHL DUP5 ADD ADD PUSH1 0x20 DUP7 ADD PUSH1 0x0 JUMPDEST DUP5 DUP2 LT ISZERO PUSH2 0x2041 JUMPI PUSH1 0x1F NOT DUP7 DUP5 SUB ADD DUP10 MSTORE PUSH2 0x202F DUP4 DUP4 MLOAD PUSH2 0x1955 JUMP JUMPDEST SWAP9 DUP5 ADD SWAP9 SWAP3 POP SWAP1 DUP4 ADD SWAP1 PUSH1 0x1 ADD PUSH2 0x2013 JUMP JUMPDEST POP SWAP1 SWAP8 SWAP7 POP POP POP POP POP POP POP JUMP JUMPDEST PUSH1 0x80 DUP2 MSTORE PUSH2 0x2068 PUSH1 0x80 DUP3 ADD DUP4 MLOAD PUSH1 0x1 PUSH1 0x1 PUSH1 0x40 SHL SUB AND SWAP1 MSTORE JUMP JUMPDEST PUSH1 0x0 PUSH1 0x20 DUP4 ADD MLOAD PUSH2 0x2084 PUSH1 0xA0 DUP5 ADD DUP3 PUSH1 0x1 PUSH1 0x1 PUSH1 0x40 SHL SUB AND SWAP1 MSTORE JUMP JUMPDEST POP PUSH1 0x40 DUP4 ADD MLOAD PUSH1 0x1 PUSH1 0x1 PUSH1 0x40 SHL SUB SWAP1 DUP2 AND PUSH1 0xC0 DUP5 ADD MSTORE PUSH1 0x60 DUP5 ADD MLOAD AND PUSH1 0xE0 DUP4 ADD MSTORE PUSH1 0x80 DUP4 ADD MLOAD PUSH1 0x1 PUSH1 0x1 PUSH1 0xA0 SHL SUB DUP2 AND PUSH2 0x100 DUP1 DUP6 ADD SWAP2 SWAP1 SWAP2 MSTORE PUSH1 0xA0 DUP6 ADD MLOAD SWAP2 POP PUSH2 0x120 PUSH2 0x20DC DUP2 DUP7 ADD DUP5 PUSH1 0x1 PUSH1 0x1 PUSH1 0x40 SHL SUB AND SWAP1 MSTORE JUMP JUMPDEST PUSH1 0xC0 DUP7 ADD MLOAD SWAP3 POP PUSH2 0x140 PUSH2 0x20F2 DUP2 DUP8 ADD DUP6 PUSH2 0x1FE0 JUMP JUMPDEST PUSH1 0xE0 DUP8 ADD MLOAD ISZERO ISZERO PUSH2 0x160 DUP8 ADD MSTORE DUP3 DUP8 ADD MLOAD PUSH2 0x180 DUP8 ADD SWAP2 SWAP1 SWAP2 MSTORE SWAP3 POP PUSH2 0x211C PUSH2 0x1C0 DUP7 ADD DUP5 PUSH2 0x1FF4 JUMP JUMPDEST SWAP1 DUP7 ADD MLOAD DUP6 DUP3 SUB PUSH1 0x7F NOT ADD PUSH2 0x1A0 DUP8 ADD MSTORE SWAP1 SWAP3 POP SWAP1 POP PUSH2 0x213C DUP3 DUP3 PUSH2 0x1955 JUMP JUMPDEST SWAP2 POP POP DUP3 DUP2 SUB PUSH1 0x20 DUP5 ADD MSTORE PUSH2 0x2155 DUP2 PUSH1 0x0 DUP2 MSTORE PUSH1 0x20 ADD SWAP1 JUMP JUMPDEST DUP4 DUP2 SUB PUSH1 0x40 DUP6 ADD MSTORE PUSH1 0x0 DUP2 MSTORE SWAP1 POP PUSH1 0x20 DUP2 ADD DUP4 DUP2 SUB PUSH1 0x60 DUP6 ADD MSTORE PUSH1 0x0 DUP2 MSTORE SWAP1 POP PUSH1 0x20 DUP2 ADD SWAP5 SWAP4 POP POP POP POP JUMP JUMPDEST PUSH1 0x0 PUSH1 0x20 DUP3 DUP5 SUB SLT ISZERO PUSH2 0x2193 JUMPI PUSH1 0x0 DUP1 REVERT JUMPDEST DUP2 MLOAD PUSH2 0x1938 DUP2 PUSH2 0x1C47 JUMP JUMPDEST PUSH4 0x4E487B71 PUSH1 0xE0 SHL PUSH1 0x0 MSTORE PUSH1 0x11 PUSH1 0x4 MSTORE PUSH1 0x24 PUSH1 0x0 REVERT JUMPDEST PUSH1 0x0 DUP3 PUSH2 0x21D1 JUMPI PUSH4 0x4E487B71 PUSH1 0xE0 SHL PUSH1 0x0 MSTORE PUSH1 0x12 PUSH1 0x4 MSTORE PUSH1 0x24 PUSH1 0x0 REVERT JUMPDEST POP DIV SWAP1 JUMP JUMPDEST PUSH1 0x1F DUP3 GT ISZERO PUSH2 0xD8F JUMPI PUSH1 0x0 DUP2 PUSH1 0x0 MSTORE PUSH1 0x20 PUSH1 0x0 KECCAK256 PUSH1 0x1F DUP6 ADD PUSH1 0x5 SHR DUP2 ADD PUSH1 0x20 DUP7 LT ISZERO PUSH2 0x21FF JUMPI POP DUP1 JUMPDEST PUSH1 0x1F DUP6 ADD PUSH1 0x5 SHR DUP3 ADD SWAP2 POP JUMPDEST DUP2 DUP2 LT ISZERO PUSH2 0x61B JUMPI DUP3 DUP2 SSTORE PUSH1 0x1 ADD PUSH2 0x220B JUMP JUMPDEST DUP2 MLOAD PUSH1 0x1 PUSH1 0x1 PUSH1 0x40 SHL SUB DUP2 GT ISZERO PUSH2 0x2237 JUMPI PUSH2 0x2237 PUSH2 0x1A3C JUMP JUMPDEST PUSH2 0x224B DUP2 PUSH2 0x2245 DUP5 SLOAD PUSH2 0x1F90 JUMP JUMPDEST DUP5 PUSH2 0x21D6 JUMP JUMPDEST PUSH1 0x20 DUP1 PUSH1 0x1F DUP4 GT PUSH1 0x1 DUP2 EQ PUSH2 0x2280 JUMPI PUSH1 0x0 DUP5 ISZERO PUSH2 0x2268 JUMPI POP DUP6 DUP4 ADD MLOAD JUMPDEST PUSH1 0x0 NOT PUSH1 0x3 DUP7 SWAP1 SHL SHR NOT AND PUSH1 0x1 DUP6 SWAP1 SHL OR DUP6 SSTORE PUSH2 0x61B JUMP JUMPDEST PUSH1 0x0 DUP6 DUP2 MSTORE PUSH1 0x20 DUP2 KECCAK256 PUSH1 0x1F NOT DUP7 AND SWAP2 JUMPDEST DUP3 DUP2 LT ISZERO PUSH2 0x22AF JUMPI DUP9 DUP7 ADD MLOAD DUP3 SSTORE SWAP5 DUP5 ADD SWAP5 PUSH1 0x1 SWAP1 SWAP2 ADD SWAP1 DUP5 ADD PUSH2 0x2290 JUMP JUMPDEST POP DUP6 DUP3 LT ISZERO PUSH2 0x22CD JUMPI DUP8 DUP6 ADD MLOAD PUSH1 0x0 NOT PUSH1 0x3 DUP9 SWAP1 SHL PUSH1 0xF8 AND SHR NOT AND DUP2 SSTORE JUMPDEST POP POP POP POP POP PUSH1 0x1 SWAP1 DUP2 SHL ADD SWAP1 SSTORE POP JUMP JUMPDEST PUSH1 0x0 PUSH1 0x1 DUP3 ADD PUSH2 0x22EF JUMPI PUSH2 0x22EF PUSH2 0x219E JUMP JUMPDEST POP PUSH1 0x1 ADD SWAP1 JUMP JUMPDEST PUSH1 0x1 PUSH1 0x1 PUSH1 0xA0 SHL SUB DUP7 DUP2 AND DUP3 MSTORE DUP6 AND PUSH1 0x20 DUP3 ADD MSTORE PUSH1 0x40 DUP2 ADD DUP5 SWAP1 MSTORE PUSH1 0x60 DUP2 ADD DUP4 SWAP1 MSTORE PUSH1 0xA0 PUSH1 0x80 DUP3 ADD DUP2 SWAP1 MSTORE PUSH1 0x0 SWAP1 PUSH2 0x2330 SWAP1 DUP4 ADD DUP5 PUSH2 0x1955 JUMP JUMPDEST SWAP8 SWAP7 POP POP POP POP POP POP POP JUMP JUMPDEST PUSH1 0x0 PUSH1 0x20 DUP3 DUP5 SUB SLT ISZERO PUSH2 0x234D JUMPI PUSH1 0x0 DUP1 REVERT JUMPDEST DUP2 MLOAD PUSH2 0x1938 DUP2 PUSH2 0x1905 JUMP JUMPDEST PUSH1 0x1 PUSH1 0x1 PUSH1 0xA0 SHL SUB DUP7 DUP2 AND DUP3 MSTORE DUP6 AND PUSH1 0x20 DUP3 ADD MSTORE PUSH1 0xA0 PUSH1 0x40 DUP3 ADD DUP2 SWAP1 MSTORE PUSH1 0x0 SWAP1 PUSH2 0x2384 SWAP1 DUP4 ADD DUP7 PUSH2 0x1D75 JUMP JUMPDEST DUP3 DUP2 SUB PUSH1 0x60 DUP5 ADD MSTORE PUSH2 0x2396 DUP2 DUP7 PUSH2 0x1D75 JUMP JUMPDEST SWAP1 POP DUP3 DUP2 SUB PUSH1 0x80 DUP5 ADD MSTORE PUSH2 0x23AA DUP2 DUP6 PUSH2 0x1955 JUMP JUMPDEST SWAP9 SWAP8 POP POP POP POP POP POP POP POP JUMP JUMPDEST DUP1 DUP3 ADD DUP1 DUP3 GT ISZERO PUSH2 0x3C1 JUMPI PUSH2 0x3C1 PUSH2 0x219E JUMP JUMPDEST PUSH1 0x40 DUP2 MSTORE PUSH1 0x0 PUSH2 0x23DC PUSH1 0x40 DUP4 ADD DUP6 PUSH2 0x1D75 JUMP JUMPDEST DUP3 DUP2 SUB PUSH1 0x20 DUP5 ADD MSTORE PUSH2 0x23EE DUP2 DUP6 PUSH2 0x1D75 JUMP JUMPDEST SWAP6 SWAP5 POP POP POP POP POP JUMP INVALID LOG2 PUSH5 0x6970667358 0x22 SLT KECCAK256 PUSH1 0x4 0xAA 0x24 0xF8 ORIGIN 0x4D 0x27 PUSH15 0xA0A88B3EB6F6CDE0B6C230E0D21AF6 PUSH8 0x930E0486558AC64 PUSH20 0x6F6C634300081900330000000000000000000000 "},"gasEstimates":{"creation":{"codeDepositCost":"1852200","executionCost":"infinite","totalCost":"infinite"},"external":{"attestResearchAuthor(uint256,string,uint64)":"infinite","attestResearcherVerification(address)":"infinite","balanceOf(address,uint256)":"2660","balanceOfBatch(address[],uint256[])":"infinite","burn(address,uint256,uint256)":"infinite","burnBatch(address,uint256[],uint256[])":"infinite","createResearch(string,uint256,uint256,uint256)":"infinite","isApprovedForAll(address,address)":"infinite","owner()":"2409","paused()":"2410","renounceOwnership()":"infinite","researchById(uint256)":"infinite","researchRequest(address,uint256)":"infinite","researcherVerificationAttestations(address)":"2669","safeBatchTransferFrom(address,address,uint256[],uint256[],bytes)":"infinite","safeTransferFrom(address,address,uint256,uint256,bytes)":"infinite","setApprovalForAll(address,bool)":"26792","spInstance()":"2359","supportsInterface(bytes4)":"578","transferOwnership(address)":"28446","uri(uint256)":"infinite","verifiedResearchers(address)":"2554","verifyResearcher(address)":"infinite"},"internal":{"_update(address,address,uint256[] memory,uint256[] memory)":"infinite"}},"methodIdentifiers":{"attestResearchAuthor(uint256,string,uint64)":"4dd2febe","attestResearcherVerification(address)":"85235d3d","balanceOf(address,uint256)":"00fdd58e","balanceOfBatch(address[],uint256[])":"4e1273f4","burn(address,uint256,uint256)":"f5298aca","burnBatch(address,uint256[],uint256[])":"6b20c454","createResearch(string,uint256,uint256,uint256)":"68e2cea8","isApprovedForAll(address,address)":"e985e9c5","owner()":"8da5cb5b","paused()":"5c975abb","renounceOwnership()":"715018a6","researchById(uint256)":"c2a756ca","researchRequest(address,uint256)":"08f3e371","researcherVerificationAttestations(address)":"8f192180","safeBatchTransferFrom(address,address,uint256[],uint256[],bytes)":"2eb2c2d6","safeTransferFrom(address,address,uint256,uint256,bytes)":"f242432a","setApprovalForAll(address,bool)":"a22cb465","spInstance()":"a8c5dc33","supportsInterface(bytes4)":"01ffc9a7","transferOwnership(address)":"f2fde38b","uri(uint256)":"0e89341c","verifiedResearchers(address)":"36f58e5f","verifyResearcher(address)":"73fd653d"}},"storageLayout":{"storage":[{"astId":957,"contract":"src/Scientify4.sol:Scientify4","label":"_balances","offset":0,"slot":"0","type":"t_mapping(t_uint256,t_mapping(t_address,t_uint256))"},{"astId":963,"contract":"src/Scientify4.sol:Scientify4","label":"_operatorApprovals","offset":0,"slot":"1","type":"t_mapping(t_address,t_mapping(t_address,t_bool))"},{"astId":965,"contract":"src/Scientify4.sol:Scientify4","label":"_uri","offset":0,"slot":"2","type":"t_string_storage"},{"astId":639,"contract":"src/Scientify4.sol:Scientify4","label":"_owner","offset":0,"slot":"3","type":"t_address"},{"astId":2566,"contract":"src/Scientify4.sol:Scientify4","label":"_paused","offset":20,"slot":"3","type":"t_bool"},{"astId":3908,"contract":"src/Scientify4.sol:Scientify4","label":"researchNumber","offset":0,"slot":"4","type":"t_uint256"},{"astId":3938,"contract":"src/Scientify4.sol:Scientify4","label":"verifiedResearchers","offset":0,"slot":"5","type":"t_mapping(t_address,t_bool)"},{"astId":3944,"contract":"src/Scientify4.sol:Scientify4","label":"researchRequest","offset":0,"slot":"6","type":"t_mapping(t_address,t_array(t_struct(Research)3934_storage)dyn_storage)"},{"astId":3949,"contract":"src/Scientify4.sol:Scientify4","label":"researchById","offset":0,"slot":"7","type":"t_mapping(t_uint256,t_struct(Research)3934_storage)"},{"astId":3953,"contract":"src/Scientify4.sol:Scientify4","label":"repository","offset":0,"slot":"8","type":"t_mapping(t_uint256,t_string_storage)"},{"astId":3957,"contract":"src/Scientify4.sol:Scientify4","label":"researcherVerificationAttestations","offset":0,"slot":"9","type":"t_mapping(t_address,t_uint64)"},{"astId":3963,"contract":"src/Scientify4.sol:Scientify4","label":"spInstance","offset":0,"slot":"10","type":"t_contract(ISP)495"}],"types":{"t_address":{"encoding":"inplace","label":"address","numberOfBytes":"20"},"t_array(t_struct(Research)3934_storage)dyn_storage":{"base":"t_struct(Research)3934_storage","encoding":"dynamic_array","label":"struct Scientify4.Research[]","numberOfBytes":"32"},"t_bool":{"encoding":"inplace","label":"bool","numberOfBytes":"1"},"t_contract(ISP)495":{"encoding":"inplace","label":"contract ISP","numberOfBytes":"20"},"t_enum(ResearchState)3912":{"encoding":"inplace","label":"enum Scientify4.ResearchState","numberOfBytes":"1"},"t_mapping(t_address,t_array(t_struct(Research)3934_storage)dyn_storage)":{"encoding":"mapping","key":"t_address","label":"mapping(address => struct Scientify4.Research[])","numberOfBytes":"32","value":"t_array(t_struct(Research)3934_storage)dyn_storage"},"t_mapping(t_address,t_bool)":{"encoding":"mapping","key":"t_address","label":"mapping(address => bool)","numberOfBytes":"32","value":"t_bool"},"t_mapping(t_address,t_mapping(t_address,t_bool))":{"encoding":"mapping","key":"t_address","label":"mapping(address => mapping(address => bool))","numberOfBytes":"32","value":"t_mapping(t_address,t_bool)"},"t_mapping(t_address,t_uint256)":{"encoding":"mapping","key":"t_address","label":"mapping(address => uint256)","numberOfBytes":"32","value":"t_uint256"},"t_mapping(t_address,t_uint64)":{"encoding":"mapping","key":"t_address","label":"mapping(address => uint64)","numberOfBytes":"32","value":"t_uint64"},"t_mapping(t_uint256,t_mapping(t_address,t_uint256))":{"encoding":"mapping","key":"t_uint256","label":"mapping(uint256 => mapping(address => uint256))","numberOfBytes":"32","value":"t_mapping(t_address,t_uint256)"},"t_mapping(t_uint256,t_string_storage)":{"encoding":"mapping","key":"t_uint256","label":"mapping(uint256 => string)","numberOfBytes":"32","value":"t_string_storage"},"t_mapping(t_uint256,t_struct(Research)3934_storage)":{"encoding":"mapping","key":"t_uint256","label":"mapping(uint256 => struct Scientify4.Research)","numberOfBytes":"32","value":"t_struct(Research)3934_storage"},"t_string_storage":{"encoding":"bytes","label":"string","numberOfBytes":"32"},"t_struct(Research)3934_storage":{"encoding":"inplace","label":"struct Scientify4.Research","members":[{"astId":3914,"contract":"src/Scientify4.sol:Scientify4","label":"id","offset":0,"slot":"0","type":"t_uint256"},{"astId":3917,"contract":"src/Scientify4.sol:Scientify4","label":"state","offset":0,"slot":"1","type":"t_enum(ResearchState)3912"},{"astId":3919,"contract":"src/Scientify4.sol:Scientify4","label":"investment","offset":0,"slot":"2","type":"t_uint256"},{"astId":3921,"contract":"src/Scientify4.sol:Scientify4","label":"articlePrice","offset":0,"slot":"3","type":"t_uint256"},{"astId":3923,"contract":"src/Scientify4.sol:Scientify4","label":"sharePrice","offset":0,"slot":"4","type":"t_uint256"},{"astId":3925,"contract":"src/Scientify4.sol:Scientify4","label":"articlePriceIncreaseRate","offset":0,"slot":"5","type":"t_uint256"},{"astId":3927,"contract":"src/Scientify4.sol:Scientify4","label":"funding","offset":0,"slot":"6","type":"t_uint256"},{"astId":3929,"contract":"src/Scientify4.sol:Scientify4","label":"profit","offset":0,"slot":"7","type":"t_uint256"},{"astId":3931,"contract":"src/Scientify4.sol:Scientify4","label":"owner","offset":0,"slot":"8","type":"t_address"},{"astId":3933,"contract":"src/Scientify4.sol:Scientify4","label":"documentCID","offset":0,"slot":"9","type":"t_string_storage"}],"numberOfBytes":"320"},"t_uint256":{"encoding":"inplace","label":"uint256","numberOfBytes":"32"},"t_uint64":{"encoding":"inplace","label":"uint64","numberOfBytes":"8"}}},"userdoc":{"kind":"user","methods":{},"version":1}}}}