{"src/Scientify4.sol":{"Scientify4":{"abi":[{"inputs":[],"stateMutability":"nonpayable","type":"constructor"},{"inputs":[{"internalType":"address","name":"sender","type":"address"},{"internalType":"uint256","name":"balance","type":"uint256"},{"internalType":"uint256","name":"needed","type":"uint256"},{"internalType":"uint256","name":"tokenId","type":"uint256"}],"name":"ERC1155InsufficientBalance","type":"error"},{"inputs":[{"internalType":"address","name":"approver","type":"address"}],"name":"ERC1155InvalidApprover","type":"error"},{"inputs":[{"internalType":"uint256","name":"idsLength","type":"uint256"},{"internalType":"uint256","name":"valuesLength","type":"uint256"}],"name":"ERC1155InvalidArrayLength","type":"error"},{"inputs":[{"internalType":"address","name":"operator","type":"address"}],"name":"ERC1155InvalidOperator","type":"error"},{"inputs":[{"internalType":"address","name":"receiver","type":"address"}],"name":"ERC1155InvalidReceiver","type":"error"},{"inputs":[{"internalType":"address","name":"sender","type":"address"}],"name":"ERC1155InvalidSender","type":"error"},{"inputs":[{"internalType":"address","name":"operator","type":"address"},{"internalType":"address","name":"owner","type":"address"}],"name":"ERC1155MissingApprovalForAll","type":"error"},{"inputs":[],"name":"EnforcedPause","type":"error"},{"inputs":[],"name":"ExpectedPause","type":"error"},{"inputs":[],"name":"InvalidAttestation","type":"error"},{"inputs":[],"name":"NoTokenBalance","type":"error"},{"inputs":[],"name":"NotAuthenticated","type":"error"},{"inputs":[],"name":"NotEnoughValue","type":"error"},{"inputs":[],"name":"NotLiquidable","type":"error"},{"inputs":[{"internalType":"address","name":"owner","type":"address"}],"name":"OwnableInvalidOwner","type":"error"},{"inputs":[{"internalType":"address","name":"account","type":"address"}],"name":"OwnableUnauthorizedAccount","type":"error"},{"inputs":[],"name":"PaymentFailed","type":"error"},{"inputs":[],"name":"ResearchCap","type":"error"},{"anonymous":false,"inputs":[{"indexed":true,"internalType":"address","name":"account","type":"address"},{"indexed":true,"internalType":"address","name":"operator","type":"address"},{"indexed":false,"internalType":"bool","name":"approved","type":"bool"}],"name":"ApprovalForAll","type":"event"},{"anonymous":false,"inputs":[{"indexed":true,"internalType":"address","name":"previousOwner","type":"address"},{"indexed":true,"internalType":"address","name":"newOwner","type":"address"}],"name":"OwnershipTransferred","type":"event"},{"anonymous":false,"inputs":[{"indexed":false,"internalType":"address","name":"account","type":"address"}],"name":"Paused","type":"event"},{"anonymous":false,"inputs":[{"indexed":true,"internalType":"address","name":"researcher","type":"address"},{"indexed":false,"internalType":"uint64","name":"attestationId","type":"uint64"}],"name":"ResearcherVerificationAttested","type":"event"},{"anonymous":false,"inputs":[{"indexed":true,"internalType":"address","name":"operator","type":"address"},{"indexed":true,"internalType":"address","name":"from","type":"address"},{"indexed":true,"internalType":"address","name":"to","type":"address"},{"indexed":false,"internalType":"uint256[]","name":"ids","type":"uint256[]"},{"indexed":false,"internalType":"uint256[]","name":"values","type":"uint256[]"}],"name":"TransferBatch","type":"event"},{"anonymous":false,"inputs":[{"indexed":true,"internalType":"address","name":"operator","type":"address"},{"indexed":true,"internalType":"address","name":"from","type":"address"},{"indexed":true,"internalType":"address","name":"to","type":"address"},{"indexed":false,"internalType":"uint256","name":"id","type":"uint256"},{"indexed":false,"internalType":"uint256","name":"value","type":"uint256"}],"name":"TransferSingle","type":"event"},{"anonymous":false,"inputs":[{"indexed":false,"internalType":"string","name":"value","type":"string"},{"indexed":true,"internalType":"uint256","name":"id","type":"uint256"}],"name":"URI","type":"event"},{"anonymous":false,"inputs":[{"indexed":false,"internalType":"address","name":"account","type":"address"}],"name":"Unpaused","type":"event"},{"anonymous":false,"inputs":[{"indexed":true,"internalType":"address","name":"researcher","type":"address"},{"indexed":false,"internalType":"uint64","name":"attestationId","type":"uint64"}],"name":"VerificationAttested","type":"event"},{"inputs":[{"internalType":"address","name":"researcher","type":"address"}],"name":"attestResearcherVerification","outputs":[],"stateMutability":"nonpayable","type":"function"},{"inputs":[{"internalType":"address","name":"account","type":"address"},{"internalType":"uint256","name":"id","type":"uint256"}],"name":"balanceOf","outputs":[{"internalType":"uint256","name":"","type":"uint256"}],"stateMutability":"view","type":"function"},{"inputs":[{"internalType":"address[]","name":"accounts","type":"address[]"},{"internalType":"uint256[]","name":"ids","type":"uint256[]"}],"name":"balanceOfBatch","outputs":[{"internalType":"uint256[]","name":"","type":"uint256[]"}],"stateMutability":"view","type":"function"},{"inputs":[{"internalType":"address","name":"account","type":"address"},{"internalType":"uint256","name":"id","type":"uint256"},{"internalType":"uint256","name":"value","type":"uint256"}],"name":"burn","outputs":[],"stateMutability":"nonpayable","type":"function"},{"inputs":[{"internalType":"address","name":"account","type":"address"},{"internalType":"uint256[]","name":"ids","type":"uint256[]"},{"internalType":"uint256[]","name":"values","type":"uint256[]"}],"name":"burnBatch","outputs":[],"stateMutability":"nonpayable","type":"function"},{"inputs":[{"internalType":"string","name":"repo","type":"string"},{"internalType":"uint256","name":"invest","type":"uint256"},{"internalType":"uint256","name":"articlePrice","type":"uint256"},{"internalType":"uint256","name":"articlePriceIncreaseRate","type":"uint256"}],"name":"createResearch","outputs":[],"stateMutability":"nonpayable","type":"function"},{"inputs":[{"internalType":"address","name":"account","type":"address"},{"internalType":"address","name":"operator","type":"address"}],"name":"isApprovedForAll","outputs":[{"internalType":"bool","name":"","type":"bool"}],"stateMutability":"view","type":"function"},{"inputs":[],"name":"owner","outputs":[{"internalType":"address","name":"","type":"address"}],"stateMutability":"view","type":"function"},{"inputs":[],"name":"paused","outputs":[{"internalType":"bool","name":"","type":"bool"}],"stateMutability":"view","type":"function"},{"inputs":[],"name":"renounceOwnership","outputs":[],"stateMutability":"nonpayable","type":"function"},{"inputs":[{"internalType":"uint256","name":"","type":"uint256"}],"name":"researchById","outputs":[{"internalType":"uint256","name":"id","type":"uint256"},{"internalType":"enum Scientify4.ResearchState","name":"state","type":"uint8"},{"internalType":"uint256","name":"investment","type":"uint256"},{"internalType":"uint256","name":"articlePrice","type":"uint256"},{"internalType":"uint256","name":"sharePrice","type":"uint256"},{"internalType":"uint256","name":"articlePriceIncreaseRate","type":"uint256"},{"internalType":"uint256","name":"funding","type":"uint256"},{"internalType":"uint256","name":"profit","type":"uint256"},{"internalType":"address","name":"owner","type":"address"},{"internalType":"string","name":"documentCID","type":"string"}],"stateMutability":"view","type":"function"},{"inputs":[{"internalType":"address","name":"","type":"address"},{"internalType":"uint256","name":"","type":"uint256"}],"name":"researchRequest","outputs":[{"internalType":"uint256","name":"id","type":"uint256"},{"internalType":"enum Scientify4.ResearchState","name":"state","type":"uint8"},{"internalType":"uint256","name":"investment","type":"uint256"},{"internalType":"uint256","name":"articlePrice","type":"uint256"},{"internalType":"uint256","name":"sharePrice","type":"uint256"},{"internalType":"uint256","name":"articlePriceIncreaseRate","type":"uint256"},{"internalType":"uint256","name":"funding","type":"uint256"},{"internalType":"uint256","name":"profit","type":"uint256"},{"internalType":"address","name":"owner","type":"address"},{"internalType":"string","name":"documentCID","type":"string"}],"stateMutability":"view","type":"function"},{"inputs":[{"internalType":"address","name":"","type":"address"}],"name":"researcherVerificationAttestations","outputs":[{"internalType":"uint64","name":"","type":"uint64"}],"stateMutability":"view","type":"function"},{"inputs":[{"internalType":"address","name":"from","type":"address"},{"internalType":"address","name":"to","type":"address"},{"internalType":"uint256[]","name":"ids","type":"uint256[]"},{"internalType":"uint256[]","name":"values","type":"uint256[]"},{"internalType":"bytes","name":"data","type":"bytes"}],"name":"safeBatchTransferFrom","outputs":[],"stateMutability":"nonpayable","type":"function"},{"inputs":[{"internalType":"address","name":"from","type":"address"},{"internalType":"address","name":"to","type":"address"},{"internalType":"uint256","name":"id","type":"uint256"},{"internalType":"uint256","name":"value","type":"uint256"},{"internalType":"bytes","name":"data","type":"bytes"}],"name":"safeTransferFrom","outputs":[],"stateMutability":"nonpayable","type":"function"},{"inputs":[],"name":"schemaId","outputs":[{"internalType":"uint64","name":"","type":"uint64"}],"stateMutability":"view","type":"function"},{"inputs":[{"internalType":"address","name":"operator","type":"address"},{"internalType":"bool","name":"approved","type":"bool"}],"name":"setApprovalForAll","outputs":[],"stateMutability":"nonpayable","type":"function"},{"inputs":[{"internalType":"address","name":"instance","type":"address"}],"name":"setSPInstance","outputs":[],"stateMutability":"nonpayable","type":"function"},{"inputs":[{"internalType":"uint64","name":"schemaId_","type":"uint64"}],"name":"setSchemaID","outputs":[],"stateMutability":"nonpayable","type":"function"},{"inputs":[],"name":"spInstance","outputs":[{"internalType":"contract ISP","name":"","type":"address"}],"stateMutability":"view","type":"function"},{"inputs":[{"internalType":"bytes4","name":"interfaceId","type":"bytes4"}],"name":"supportsInterface","outputs":[{"internalType":"bool","name":"","type":"bool"}],"stateMutability":"view","type":"function"},{"inputs":[{"internalType":"address","name":"newOwner","type":"address"}],"name":"transferOwnership","outputs":[],"stateMutability":"nonpayable","type":"function"},{"inputs":[{"internalType":"uint256","name":"","type":"uint256"}],"name":"uri","outputs":[{"internalType":"string","name":"","type":"string"}],"stateMutability":"view","type":"function"},{"inputs":[{"internalType":"address","name":"","type":"address"}],"name":"verifiedResearchers","outputs":[{"internalType":"bool","name":"","type":"bool"}],"stateMutability":"view","type":"function"},{"inputs":[{"internalType":"address","name":"researcher","type":"address"}],"name":"verifyResearcher","outputs":[],"stateMutability":"nonpayable","type":"function"}],"devdoc":{"errors":{"ERC1155InsufficientBalance(address,uint256,uint256,uint256)":[{"details":"Indicates an error related to the current `balance` of a `sender`. Used in transfers.","params":{"balance":"Current balance for the interacting account.","needed":"Minimum amount required to perform a transfer.","sender":"Address whose tokens are being transferred.","tokenId":"Identifier number of a token."}}],"ERC1155InvalidApprover(address)":[{"details":"Indicates a failure with the `approver` of a token to be approved. Used in approvals.","params":{"approver":"Address initiating an approval operation."}}],"ERC1155InvalidArrayLength(uint256,uint256)":[{"details":"Indicates an array length mismatch between ids and values in a safeBatchTransferFrom operation. Used in batch transfers.","params":{"idsLength":"Length of the array of token identifiers","valuesLength":"Length of the array of token amounts"}}],"ERC1155InvalidOperator(address)":[{"details":"Indicates a failure with the `operator` to be approved. Used in approvals.","params":{"operator":"Address that may be allowed to operate on tokens without being their owner."}}],"ERC1155InvalidReceiver(address)":[{"details":"Indicates a failure with the token `receiver`. Used in transfers.","params":{"receiver":"Address to which tokens are being transferred."}}],"ERC1155InvalidSender(address)":[{"details":"Indicates a failure with the token `sender`. Used in transfers.","params":{"sender":"Address whose tokens are being transferred."}}],"ERC1155MissingApprovalForAll(address,address)":[{"details":"Indicates a failure with the `operator`’s approval. Used in transfers.","params":{"operator":"Address that may be allowed to operate on tokens without being their owner.","owner":"Address of the current owner of a token."}}],"EnforcedPause()":[{"details":"The operation failed because the contract is paused."}],"ExpectedPause()":[{"details":"The operation failed because the contract is not paused."}],"OwnableInvalidOwner(address)":[{"details":"The owner is not a valid owner account. (eg. `address(0)`)"}],"OwnableUnauthorizedAccount(address)":[{"details":"The caller account is not authorized to perform an operation."}]},"events":{"ApprovalForAll(address,address,bool)":{"details":"Emitted when `account` grants or revokes permission to `operator` to transfer their tokens, according to `approved`."},"Paused(address)":{"details":"Emitted when the pause is triggered by `account`."},"TransferBatch(address,address,address,uint256[],uint256[])":{"details":"Equivalent to multiple {TransferSingle} events, where `operator`, `from` and `to` are the same for all transfers."},"TransferSingle(address,address,address,uint256,uint256)":{"details":"Emitted when `value` amount of tokens of type `id` are transferred from `from` to `to` by `operator`."},"URI(string,uint256)":{"details":"Emitted when the URI for token type `id` changes to `value`, if it is a non-programmatic URI. If an {URI} event was emitted for `id`, the standard https://eips.ethereum.org/EIPS/eip-1155#metadata-extensions[guarantees] that `value` will equal the value returned by {IERC1155MetadataURI-uri}."},"Unpaused(address)":{"details":"Emitted when the pause is lifted by `account`."}},"kind":"dev","methods":{"balanceOf(address,uint256)":{"details":"See {IERC1155-balanceOf}."},"balanceOfBatch(address[],uint256[])":{"details":"See {IERC1155-balanceOfBatch}. Requirements: - `accounts` and `ids` must have the same length."},"isApprovedForAll(address,address)":{"details":"See {IERC1155-isApprovedForAll}."},"owner()":{"details":"Returns the address of the current owner."},"paused()":{"details":"Returns true if the contract is paused, and false otherwise."},"renounceOwnership()":{"details":"Leaves the contract without owner. It will not be possible to call `onlyOwner` functions. Can only be called by the current owner. NOTE: Renouncing ownership will leave the contract without an owner, thereby disabling any functionality that is only available to the owner."},"safeBatchTransferFrom(address,address,uint256[],uint256[],bytes)":{"details":"See {IERC1155-safeBatchTransferFrom}."},"safeTransferFrom(address,address,uint256,uint256,bytes)":{"details":"See {IERC1155-safeTransferFrom}."},"setApprovalForAll(address,bool)":{"details":"See {IERC1155-setApprovalForAll}."},"supportsInterface(bytes4)":{"details":"See {IERC165-supportsInterface}."},"transferOwnership(address)":{"details":"Transfers ownership of the contract to a new account (`newOwner`). Can only be called by the current owner."},"uri(uint256)":{"details":"See {IERC1155MetadataURI-uri}. This implementation returns the same URI for *all* token types. It relies on the token type ID substitution mechanism https://eips.ethereum.org/EIPS/eip-1155#metadata[defined in the EIP]. Clients calling this function must replace the `\\{id\\}` substring with the actual token type ID."}},"version":1},"evm":{"bytecode":{"linkReferences":{},"object":"6080604052600160045534801561001557600080fd5b506040805180820190915260048152634555524b60e01b6020820152339061003c81610087565b506001600160a01b03811661006b57604051631e4fbdf760e01b81526000600482015260240160405180910390fd5b61007481610097565b506003805460ff60a01b19169055610249565b6002610093828261018a565b5050565b600380546001600160a01b038381166001600160a01b0319831681179093556040519116919082907f8be0079c531659141344cd1fd0a4f28419497f9722a3daafe3b4186f6b6457e090600090a35050565b634e487b7160e01b600052604160045260246000fd5b600181811c9082168061011357607f821691505b60208210810361013357634e487b7160e01b600052602260045260246000fd5b50919050565b601f821115610185576000816000526020600020601f850160051c810160208610156101625750805b601f850160051c820191505b818110156101815782815560010161016e565b5050505b505050565b81516001600160401b038111156101a3576101a36100e9565b6101b7816101b184546100ff565b84610139565b602080601f8311600181146101ec57600084156101d45750858301515b600019600386901b1c1916600185901b178555610181565b600085815260208120601f198616915b8281101561021b578886015182559484019460019091019084016101fc565b50858210156102395787850151600019600388901b60f8161c191681555b5050505050600190811b01905550565b61211f806102586000396000f3fe608060405234801561001057600080fd5b50600436106101725760003560e01c8063715018a6116100de578063a22cb46511610097578063e985e9c511610071578063e985e9c5146103a6578063f242432a146103b9578063f2fde38b146103cc578063f5298aca146103df57600080fd5b8063a22cb4651461036d578063a8c5dc3314610380578063c2a756ca1461039357600080fd5b8063715018a6146102de57806373fd653d146102e657806385235d3d146102f95780638da5cb5b1461030c5780638e9d660f146103315780638f1921801461034457600080fd5b80632eb2c2d6116101305780632eb2c2d61461025057806336f58e5f146102635780634e1273f4146102865780635c975abb146102a657806368e2cea8146102b85780636b20c454146102cb57600080fd5b8062fdd58e1461017757806301ffc9a71461019d57806305ca8ee3146101c0578063075b1a09146101d557806308f3e371146102075780630e89341c14610230575b600080fd5b61018a6101853660046115ee565b6103f2565b6040519081526020015b60405180910390f35b6101b06101ab36600461162e565b61041a565b6040519015158152602001610194565b6101d36101ce366004611667565b61046a565b005b600a546101ef90600160a01b90046001600160401b031681565b6040516001600160401b039091168152602001610194565b61021a6102153660046115ee565b61049f565b6040516101949a999897969594939291906116e0565b61024361023e366004611755565b6105ab565b604051610194919061176e565b6101d361025e3660046118d0565b61063f565b6101b0610271366004611979565b60056020526000908152604090205460ff1681565b610299610294366004611994565b6106ab565b6040516101949190611a8f565b600354600160a01b900460ff166101b0565b6101d36102c6366004611aa2565b610777565b6101d36102d9366004611b09565b610a19565b6101d3610a7d565b6101d36102f4366004611979565b610a91565b6101d3610307366004611979565b610ac8565b6003546001600160a01b03165b6040516001600160a01b039091168152602001610194565b6101d361033f366004611979565b610cbb565b6101ef610352366004611979565b6009602052600090815260409020546001600160401b031681565b6101d361037b366004611b7c565b610ce5565b600a54610319906001600160a01b031681565b61021a6103a1366004611755565b610cf4565b6101b06103b4366004611bb8565b610d5b565b6101d36103c7366004611beb565b610d89565b6101d36103da366004611979565b610de8565b6101d36103ed366004611c4f565b610e23565b6000818152602081815260408083206001600160a01b03861684529091529020545b92915050565b60006001600160e01b03198216636cdb3d1360e11b148061044b57506001600160e01b031982166303a24d0760e21b145b8061041457506301ffc9a760e01b6001600160e01b0319831614610414565b610472610e59565b600a80546001600160401b03909216600160a01b0267ffffffffffffffff60a01b19909216919091179055565b600660205281600052604060002081815481106104bb57600080fd5b60009182526020909120600a9091020180546001820154600283015460038401546004850154600586015460068701546007880154600889015460098a018054999c5060ff9098169a509598949793969295919490936001600160a01b0390921692909161052890611c82565b80601f016020809104026020016040519081016040528092919081815260200182805461055490611c82565b80156105a15780601f10610576576101008083540402835291602001916105a1565b820191906000526020600020905b81548152906001019060200180831161058457829003601f168201915b505050505090508a565b6060600280546105ba90611c82565b80601f01602080910402602001604051908101604052809291908181526020018280546105e690611c82565b80156106335780601f1061060857610100808354040283529160200191610633565b820191906000526020600020905b81548152906001019060200180831161061657829003601f168201915b50505050509050919050565b336001600160a01b0386168114801590610660575061065e8682610d5b565b155b156106965760405163711bec9160e11b81526001600160a01b038083166004830152871660248201526044015b60405180910390fd5b6106a38686868686610e86565b505050505050565b606081518351146106dc5781518351604051635b05999160e01b81526004810192909252602482015260440161068d565b600083516001600160401b038111156106f7576106f7611781565b604051908082528060200260200182016040528015610720578160200160208202803683370190505b50905060005b845181101561076f5760208082028601015161074a906020808402870101516103f2565b82828151811061075c5761075c611cbc565b6020908102919091010152600101610726565b509392505050565b3360009081526005602052604090205460ff166107ca5760405162461bcd60e51b8152602060048201526011602482015270139bdd08185d5d1a195b9d1a58d85d1959607a1b604482015260640161068d565b336000908152600660205260409020546005116107fa576040516302e298ed60e61b815260040160405180910390fd5b6040805161014081018252600454815260006020820181905291810185905260608101849052608081016108326305f5e10087611ce8565b815260208082018590526000604080840182905260608401829052336080850181905260a09094018a905292815260068252918220805460018181018355918452928290208451600a9094020192835590830151828201805494955085949192909160ff1916908360028111156108ab576108ab611684565b021790555060408201516002820155606082015160038201556080820151600482015560a0820151600582015560c0820151600682015560e082015160078201556101008201516008820180546001600160a01b0319166001600160a01b0390921691909117905561012082015160098201906109289082611d52565b505081516000908152600760209081526040909120835181559083015160018083018054869550909160ff199091169083600281111561096a5761096a611684565b021790555060408201516002820155606082015160038201556080820151600482015560a0820151600582015560c0820151600682015560e082015160078201556101008201516008820180546001600160a01b0319166001600160a01b0390921691909117905561012082015160098201906109e79082611d52565b505060048054915060006109fa83611e11565b9091555050805160009081526008602052604090206106a38682611d52565b6001600160a01b0383163314801590610a395750610a378333610d5b565b155b15610a6d57335b60405163711bec9160e11b81526001600160a01b039182166004820152908416602482015260440161068d565b610a78838383610eed565b505050565b610a85610e59565b610a8f6000610f33565b565b610a99610e59565b6001600160a01b0381166000908152600560205260409020805460ff19166001179055610ac581610ac8565b50565b610ad0610e59565b604080516001808252818301909252600091816020015b6060815260200190600190039081610ae757905050604080516001600160a01b03851660208201529192500160405160208183030381529060405281600081518110610b3557610b35611cbc565b60200260200101819052506000826001604051602001610b6c9291906001600160a01b039290921682521515602082015260400190565b60408051601f1981840301815261014083018252600a546001600160401b03600160a01b82041684526000602085018190528484018190526060850181905230608086015260a0850181905260c0850181905260e0850181905261010085018790526101208501839052925163b82916cb60e01b81529194506001600160a01b03169063b82916cb90610c03908590600401611e98565b6020604051808303816000875af1158015610c22573d6000803e3d6000fd5b505050506040513d601f19601f82011682018060405250810190610c469190611fcb565b6001600160a01b038616600081815260096020908152604091829020805467ffffffffffffffff19166001600160401b038616908117909155915191825292935090917f22c9aa052d4e34c225d60366b28389ee92cc16a9675cf0c73566587db4aabcb8910160405180910390a25050505050565b610cc3610e59565b600a80546001600160a01b0319166001600160a01b0392909216919091179055565b610cf0338383610f85565b5050565b60076020819052600091825260409091208054600182015460028301546003840154600485015460058601546006870154978701546008880154600989018054989a60ff90981699969895979496939592936001600160a01b039092169261052890611c82565b6001600160a01b03918216600090815260016020908152604080832093909416825291909152205460ff1690565b336001600160a01b0386168114801590610daa5750610da88682610d5b565b155b15610ddb5760405163711bec9160e11b81526001600160a01b0380831660048301528716602482015260440161068d565b6106a3868686868661101b565b610df0610e59565b6001600160a01b038116610e1a57604051631e4fbdf760e01b81526000600482015260240161068d565b610ac581610f33565b6001600160a01b0383163314801590610e435750610e418333610d5b565b155b15610e4e5733610a40565b610a788383836110a9565b6003546001600160a01b03163314610a8f5760405163118cdaa760e01b815233600482015260240161068d565b6001600160a01b038416610eb057604051632bfa23e760e11b81526000600482015260240161068d565b6001600160a01b038516610ed957604051626a0d4560e21b81526000600482015260240161068d565b610ee6858585858561110d565b5050505050565b6001600160a01b038316610f1657604051626a0d4560e21b81526000600482015260240161068d565b610a7883600084846040518060200160405280600081525061110d565b600380546001600160a01b038381166001600160a01b0319831681179093556040519116919082907f8be0079c531659141344cd1fd0a4f28419497f9722a3daafe3b4186f6b6457e090600090a35050565b6001600160a01b038216610fae5760405162ced3e160e81b81526000600482015260240161068d565b6001600160a01b03838116600081815260016020908152604080832094871680845294825291829020805460ff191686151590811790915591519182527f17307eab39ab6107e8899845ad3d59bd9653f200f220920489ca2b5937696c31910160405180910390a3505050565b6001600160a01b03841661104557604051632bfa23e760e11b81526000600482015260240161068d565b6001600160a01b03851661106e57604051626a0d4560e21b81526000600482015260240161068d565b604080516001808252602082018690528183019081526060820185905260808201909252906110a0878784848761110d565b50505050505050565b6001600160a01b0383166110d257604051626a0d4560e21b81526000600482015260240161068d565b604080516001808252602082018590528183019081526060820184905260a08201909252600060808201818152919291610ee6918791859085905b61111985858585611160565b6001600160a01b03841615610ee65782513390600103611152576020848101519084015161114b838989858589611172565b50506106a3565b6106a3818787878787611296565b61116c8484848461137f565b50505050565b6001600160a01b0384163b156106a35760405163f23a6e6160e01b81526001600160a01b0385169063f23a6e61906111b69089908990889088908890600401611fe8565b6020604051808303816000875af19250505080156111f1575060408051601f3d908101601f191682019092526111ee9181019061202d565b60015b61125a573d80801561121f576040519150601f19603f3d011682016040523d82523d6000602084013e611224565b606091505b50805160000361125257604051632bfa23e760e11b81526001600160a01b038616600482015260240161068d565b805181602001fd5b6001600160e01b0319811663f23a6e6160e01b146110a057604051632bfa23e760e11b81526001600160a01b038616600482015260240161068d565b6001600160a01b0384163b156106a35760405163bc197c8160e01b81526001600160a01b0385169063bc197c81906112da908990899088908890889060040161204a565b6020604051808303816000875af1925050508015611315575060408051601f3d908101601f191682019092526113129181019061202d565b60015b611343573d80801561121f576040519150601f19603f3d011682016040523d82523d6000602084013e611224565b6001600160e01b0319811663bc197c8160e01b146110a057604051632bfa23e760e11b81526001600160a01b038616600482015260240161068d565b611387611393565b61116c848484846113be565b600354600160a01b900460ff1615610a8f5760405163d93c066560e01b815260040160405180910390fd5b80518251146113ed5781518151604051635b05999160e01b81526004810192909252602482015260440161068d565b3360005b83518110156114f3576020818102858101820151908501909101516001600160a01b038816156114a4576000828152602081815260408083206001600160a01b038c1684529091529020548181101561147d576040516303dee4c560e01b81526001600160a01b038a16600482015260248101829052604481018390526064810184905260840161068d565b6000838152602081815260408083206001600160a01b038d16845290915290209082900390555b6001600160a01b038716156114e9576000828152602081815260408083206001600160a01b038b168452909152812080548392906114e39084906120a8565b90915550505b50506001016113f1565b5082516001036115745760208301516000906020840151909150856001600160a01b0316876001600160a01b0316846001600160a01b03167fc3d58168c5ae7397731d063d5bbf3d657854427343f4c083240f7aacaa2d0f628585604051611565929190918252602082015260400190565b60405180910390a45050610ee6565b836001600160a01b0316856001600160a01b0316826001600160a01b03167f4a39dc06d4c0dbc64b70af90fd698a233a518aa5d07e595d983b8c0526c8f7fb86866040516115c39291906120bb565b60405180910390a45050505050565b80356001600160a01b03811681146115e957600080fd5b919050565b6000806040838503121561160157600080fd5b61160a836115d2565b946020939093013593505050565b6001600160e01b031981168114610ac557600080fd5b60006020828403121561164057600080fd5b813561164b81611618565b9392505050565b6001600160401b0381168114610ac557600080fd5b60006020828403121561167957600080fd5b813561164b81611652565b634e487b7160e01b600052602160045260246000fd5b6000815180845260005b818110156116c0576020818501810151868301820152016116a4565b506000602082860101526020601f19601f83011685010191505092915050565b60006101408c835260038c106116f8576116f8611684565b8b60208401528a60408401528960608401528860808401528760a08401528660c08401528560e084015260018060a01b038516610100840152806101208401526117448184018561169a565b9d9c50505050505050505050505050565b60006020828403121561176757600080fd5b5035919050565b60208152600061164b602083018461169a565b634e487b7160e01b600052604160045260246000fd5b604051601f8201601f191681016001600160401b03811182821017156117bf576117bf611781565b604052919050565b60006001600160401b038211156117e0576117e0611781565b5060051b60200190565b600082601f8301126117fb57600080fd5b8135602061181061180b836117c7565b611797565b8083825260208201915060208460051b87010193508684111561183257600080fd5b602086015b8481101561184e5780358352918301918301611837565b509695505050505050565b60006001600160401b0383111561187257611872611781565b611885601f8401601f1916602001611797565b905082815283838301111561189957600080fd5b828260208301376000602084830101529392505050565b600082601f8301126118c157600080fd5b61164b83833560208501611859565b600080600080600060a086880312156118e857600080fd5b6118f1866115d2565b94506118ff602087016115d2565b935060408601356001600160401b038082111561191b57600080fd5b61192789838a016117ea565b9450606088013591508082111561193d57600080fd5b61194989838a016117ea565b9350608088013591508082111561195f57600080fd5b5061196c888289016118b0565b9150509295509295909350565b60006020828403121561198b57600080fd5b61164b826115d2565b600080604083850312156119a757600080fd5b82356001600160401b03808211156119be57600080fd5b818501915085601f8301126119d257600080fd5b813560206119e261180b836117c7565b82815260059290921b84018101918181019089841115611a0157600080fd5b948201945b83861015611a2657611a17866115d2565b82529482019490820190611a06565b96505086013592505080821115611a3c57600080fd5b50611a49858286016117ea565b9150509250929050565b60008151808452602080850194506020840160005b83811015611a8457815187529582019590820190600101611a68565b509495945050505050565b60208152600061164b6020830184611a53565b60008060008060808587031215611ab857600080fd5b84356001600160401b03811115611ace57600080fd5b8501601f81018713611adf57600080fd5b611aee87823560208401611859565b97602087013597506040870135966060013595509350505050565b600080600060608486031215611b1e57600080fd5b611b27846115d2565b925060208401356001600160401b0380821115611b4357600080fd5b611b4f878388016117ea565b93506040860135915080821115611b6557600080fd5b50611b72868287016117ea565b9150509250925092565b60008060408385031215611b8f57600080fd5b611b98836115d2565b915060208301358015158114611bad57600080fd5b809150509250929050565b60008060408385031215611bcb57600080fd5b611bd4836115d2565b9150611be2602084016115d2565b90509250929050565b600080600080600060a08688031215611c0357600080fd5b611c0c866115d2565b9450611c1a602087016115d2565b9350604086013592506060860135915060808601356001600160401b03811115611c4357600080fd5b61196c888289016118b0565b600080600060608486031215611c6457600080fd5b611c6d846115d2565b95602085013595506040909401359392505050565b600181811c90821680611c9657607f821691505b602082108103611cb657634e487b7160e01b600052602260045260246000fd5b50919050565b634e487b7160e01b600052603260045260246000fd5b634e487b7160e01b600052601160045260246000fd5b600082611d0557634e487b7160e01b600052601260045260246000fd5b500490565b601f821115610a78576000816000526020600020601f850160051c81016020861015611d335750805b601f850160051c820191505b818110156106a357828155600101611d3f565b81516001600160401b03811115611d6b57611d6b611781565b611d7f81611d798454611c82565b84611d0a565b602080601f831160018114611db45760008415611d9c5750858301515b600019600386901b1c1916600185901b1785556106a3565b600085815260208120601f198616915b82811015611de357888601518255948401946001909101908401611dc4565b5085821015611e015787850151600019600388901b60f8161c191681555b5050505050600190811b01905550565b600060018201611e2357611e23611cd2565b5060010190565b60048110611e3a57611e3a611684565b9052565b60008282518085526020808601955060208260051b8401016020860160005b84811015611e8b57601f19868403018952611e7983835161169a565b98840198925090830190600101611e5d565b5090979650505050505050565b60808152611eb26080820183516001600160401b03169052565b60006020830151611ece60a08401826001600160401b03169052565b5060408301516001600160401b0390811660c084015260608401511660e083015260808301516001600160a01b0381166101008085019190915260a08501519150610120611f26818601846001600160401b03169052565b60c08601519250610140611f3c81870185611e2a565b60e08701511515610160870152828701516101808701919091529250611f666101c0860184611e3e565b90860151858203607f19016101a08701529092509050611f86828261169a565b9150508281036020840152611f9f816000815260200190565b838103604085015260008152905060208101838103606085015260008152905060208101949350505050565b600060208284031215611fdd57600080fd5b815161164b81611652565b6001600160a01b03868116825285166020820152604081018490526060810183905260a0608082018190526000906120229083018461169a565b979650505050505050565b60006020828403121561203f57600080fd5b815161164b81611618565b6001600160a01b0386811682528516602082015260a06040820181905260009061207690830186611a53565b82810360608401526120888186611a53565b9050828103608084015261209c818561169a565b98975050505050505050565b8082018082111561041457610414611cd2565b6040815260006120ce6040830185611a53565b82810360208401526120e08185611a53565b9594505050505056fea26469706673582212201545f9ee522c6fb67e5fa0afb5bb88ebd3aef2f3f943b6b60c175a70335d2e9b64736f6c63430008190033","opcodes":"PUSH1 0x80 PUSH1 0x40 MSTORE PUSH1 0x1 PUSH1 0x4 SSTORE CALLVALUE DUP1 ISZERO PUSH2 0x15 JUMPI PUSH1 0x0 DUP1 REVERT JUMPDEST POP PUSH1 0x40 DUP1 MLOAD DUP1 DUP3 ADD SWAP1 SWAP2 MSTORE PUSH1 0x4 DUP2 MSTORE PUSH4 0x4555524B PUSH1 0xE0 SHL PUSH1 0x20 DUP3 ADD MSTORE CALLER SWAP1 PUSH2 0x3C DUP2 PUSH2 0x87 JUMP JUMPDEST POP PUSH1 0x1 PUSH1 0x1 PUSH1 0xA0 SHL SUB DUP2 AND PUSH2 0x6B JUMPI PUSH1 0x40 MLOAD PUSH4 0x1E4FBDF7 PUSH1 0xE0 SHL DUP2 MSTORE PUSH1 0x0 PUSH1 0x4 DUP3 ADD MSTORE PUSH1 0x24 ADD PUSH1 0x40 MLOAD DUP1 SWAP2 SUB SWAP1 REVERT JUMPDEST PUSH2 0x74 DUP2 PUSH2 0x97 JUMP JUMPDEST POP PUSH1 0x3 DUP1 SLOAD PUSH1 0xFF PUSH1 0xA0 SHL NOT AND SWAP1 SSTORE PUSH2 0x249 JUMP JUMPDEST PUSH1 0x2 PUSH2 0x93 DUP3 DUP3 PUSH2 0x18A JUMP JUMPDEST POP POP JUMP JUMPDEST PUSH1 0x3 DUP1 SLOAD PUSH1 0x1 PUSH1 0x1 PUSH1 0xA0 SHL SUB DUP4 DUP2 AND PUSH1 0x1 PUSH1 0x1 PUSH1 0xA0 SHL SUB NOT DUP4 AND DUP2 OR SWAP1 SWAP4 SSTORE PUSH1 0x40 MLOAD SWAP2 AND SWAP2 SWAP1 DUP3 SWAP1 PUSH32 0x8BE0079C531659141344CD1FD0A4F28419497F9722A3DAAFE3B4186F6B6457E0 SWAP1 PUSH1 0x0 SWAP1 LOG3 POP POP JUMP JUMPDEST PUSH4 0x4E487B71 PUSH1 0xE0 SHL PUSH1 0x0 MSTORE PUSH1 0x41 PUSH1 0x4 MSTORE PUSH1 0x24 PUSH1 0x0 REVERT JUMPDEST PUSH1 0x1 DUP2 DUP2 SHR SWAP1 DUP3 AND DUP1 PUSH2 0x113 JUMPI PUSH1 0x7F DUP3 AND SWAP2 POP JUMPDEST PUSH1 0x20 DUP3 LT DUP2 SUB PUSH2 0x133 JUMPI PUSH4 0x4E487B71 PUSH1 0xE0 SHL PUSH1 0x0 MSTORE PUSH1 0x22 PUSH1 0x4 MSTORE PUSH1 0x24 PUSH1 0x0 REVERT JUMPDEST POP SWAP2 SWAP1 POP JUMP JUMPDEST PUSH1 0x1F DUP3 GT ISZERO PUSH2 0x185 JUMPI PUSH1 0x0 DUP2 PUSH1 0x0 MSTORE PUSH1 0x20 PUSH1 0x0 KECCAK256 PUSH1 0x1F DUP6 ADD PUSH1 0x5 SHR DUP2 ADD PUSH1 0x20 DUP7 LT ISZERO PUSH2 0x162 JUMPI POP DUP1 JUMPDEST PUSH1 0x1F DUP6 ADD PUSH1 0x5 SHR DUP3 ADD SWAP2 POP JUMPDEST DUP2 DUP2 LT ISZERO PUSH2 0x181 JUMPI DUP3 DUP2 SSTORE PUSH1 0x1 ADD PUSH2 0x16E JUMP JUMPDEST POP POP POP JUMPDEST POP POP POP JUMP JUMPDEST DUP2 MLOAD PUSH1 0x1 PUSH1 0x1 PUSH1 0x40 SHL SUB DUP2 GT ISZERO PUSH2 0x1A3 JUMPI PUSH2 0x1A3 PUSH2 0xE9 JUMP JUMPDEST PUSH2 0x1B7 DUP2 PUSH2 0x1B1 DUP5 SLOAD PUSH2 0xFF JUMP JUMPDEST DUP5 PUSH2 0x139 JUMP JUMPDEST PUSH1 0x20 DUP1 PUSH1 0x1F DUP4 GT PUSH1 0x1 DUP2 EQ PUSH2 0x1EC JUMPI PUSH1 0x0 DUP5 ISZERO PUSH2 0x1D4 JUMPI POP DUP6 DUP4 ADD MLOAD JUMPDEST PUSH1 0x0 NOT PUSH1 0x3 DUP7 SWAP1 SHL SHR NOT AND PUSH1 0x1 DUP6 SWAP1 SHL OR DUP6 SSTORE PUSH2 0x181 JUMP JUMPDEST PUSH1 0x0 DUP6 DUP2 MSTORE PUSH1 0x20 DUP2 KECCAK256 PUSH1 0x1F NOT DUP7 AND SWAP2 JUMPDEST DUP3 DUP2 LT ISZERO PUSH2 0x21B JUMPI DUP9 DUP7 ADD MLOAD DUP3 SSTORE SWAP5 DUP5 ADD SWAP5 PUSH1 0x1 SWAP1 SWAP2 ADD SWAP1 DUP5 ADD PUSH2 0x1FC JUMP JUMPDEST POP DUP6 DUP3 LT ISZERO PUSH2 0x239 JUMPI DUP8 DUP6 ADD MLOAD PUSH1 0x0 NOT PUSH1 0x3 DUP9 SWAP1 SHL PUSH1 0xF8 AND SHR NOT AND DUP2 SSTORE JUMPDEST POP POP POP POP POP PUSH1 0x1 SWAP1 DUP2 SHL ADD SWAP1 SSTORE POP JUMP JUMPDEST PUSH2 0x211F DUP1 PUSH2 0x258 PUSH1 0x0 CODECOPY PUSH1 0x0 RETURN INVALID PUSH1 0x80 PUSH1 0x40 MSTORE CALLVALUE DUP1 ISZERO PUSH2 0x10 JUMPI PUSH1 0x0 DUP1 REVERT JUMPDEST POP PUSH1 0x4 CALLDATASIZE LT PUSH2 0x172 JUMPI PUSH1 0x0 CALLDATALOAD PUSH1 0xE0 SHR DUP1 PUSH4 0x715018A6 GT PUSH2 0xDE JUMPI DUP1 PUSH4 0xA22CB465 GT PUSH2 0x97 JUMPI DUP1 PUSH4 0xE985E9C5 GT PUSH2 0x71 JUMPI DUP1 PUSH4 0xE985E9C5 EQ PUSH2 0x3A6 JUMPI DUP1 PUSH4 0xF242432A EQ PUSH2 0x3B9 JUMPI DUP1 PUSH4 0xF2FDE38B EQ PUSH2 0x3CC JUMPI DUP1 PUSH4 0xF5298ACA EQ PUSH2 0x3DF JUMPI PUSH1 0x0 DUP1 REVERT JUMPDEST DUP1 PUSH4 0xA22CB465 EQ PUSH2 0x36D JUMPI DUP1 PUSH4 0xA8C5DC33 EQ PUSH2 0x380 JUMPI DUP1 PUSH4 0xC2A756CA EQ PUSH2 0x393 JUMPI PUSH1 0x0 DUP1 REVERT JUMPDEST DUP1 PUSH4 0x715018A6 EQ PUSH2 0x2DE JUMPI DUP1 PUSH4 0x73FD653D EQ PUSH2 0x2E6 JUMPI DUP1 PUSH4 0x85235D3D EQ PUSH2 0x2F9 JUMPI DUP1 PUSH4 0x8DA5CB5B EQ PUSH2 0x30C JUMPI DUP1 PUSH4 0x8E9D660F EQ PUSH2 0x331 JUMPI DUP1 PUSH4 0x8F192180 EQ PUSH2 0x344 JUMPI PUSH1 0x0 DUP1 REVERT JUMPDEST DUP1 PUSH4 0x2EB2C2D6 GT PUSH2 0x130 JUMPI DUP1 PUSH4 0x2EB2C2D6 EQ PUSH2 0x250 JUMPI DUP1 PUSH4 0x36F58E5F EQ PUSH2 0x263 JUMPI DUP1 PUSH4 0x4E1273F4 EQ PUSH2 0x286 JUMPI DUP1 PUSH4 0x5C975ABB EQ PUSH2 0x2A6 JUMPI DUP1 PUSH4 0x68E2CEA8 EQ PUSH2 0x2B8 JUMPI DUP1 PUSH4 0x6B20C454 EQ PUSH2 0x2CB JUMPI PUSH1 0x0 DUP1 REVERT JUMPDEST DUP1 PUSH3 0xFDD58E EQ PUSH2 0x177 JUMPI DUP1 PUSH4 0x1FFC9A7 EQ PUSH2 0x19D JUMPI DUP1 PUSH4 0x5CA8EE3 EQ PUSH2 0x1C0 JUMPI DUP1 PUSH4 0x75B1A09 EQ PUSH2 0x1D5 JUMPI DUP1 PUSH4 0x8F3E371 EQ PUSH2 0x207 JUMPI DUP1 PUSH4 0xE89341C EQ PUSH2 0x230 JUMPI JUMPDEST PUSH1 0x0 DUP1 REVERT JUMPDEST PUSH2 0x18A PUSH2 0x185 CALLDATASIZE PUSH1 0x4 PUSH2 0x15EE JUMP JUMPDEST PUSH2 0x3F2 JUMP JUMPDEST PUSH1 0x40 MLOAD SWAP1 DUP2 MSTORE PUSH1 0x20 ADD JUMPDEST PUSH1 0x40 MLOAD DUP1 SWAP2 SUB SWAP1 RETURN JUMPDEST PUSH2 0x1B0 PUSH2 0x1AB CALLDATASIZE PUSH1 0x4 PUSH2 0x162E JUMP JUMPDEST PUSH2 0x41A JUMP JUMPDEST PUSH1 0x40 MLOAD SWAP1 ISZERO ISZERO DUP2 MSTORE PUSH1 0x20 ADD PUSH2 0x194 JUMP JUMPDEST PUSH2 0x1D3 PUSH2 0x1CE CALLDATASIZE PUSH1 0x4 PUSH2 0x1667 JUMP JUMPDEST PUSH2 0x46A JUMP JUMPDEST STOP JUMPDEST PUSH1 0xA SLOAD PUSH2 0x1EF SWAP1 PUSH1 0x1 PUSH1 0xA0 SHL SWAP1 DIV PUSH1 0x1 PUSH1 0x1 PUSH1 0x40 SHL SUB AND DUP2 JUMP JUMPDEST PUSH1 0x40 MLOAD PUSH1 0x1 PUSH1 0x1 PUSH1 0x40 SHL SUB SWAP1 SWAP2 AND DUP2 MSTORE PUSH1 0x20 ADD PUSH2 0x194 JUMP JUMPDEST PUSH2 0x21A PUSH2 0x215 CALLDATASIZE PUSH1 0x4 PUSH2 0x15EE JUMP JUMPDEST PUSH2 0x49F JUMP JUMPDEST PUSH1 0x40 MLOAD PUSH2 0x194 SWAP11 SWAP10 SWAP9 SWAP8 SWAP7 SWAP6 SWAP5 SWAP4 SWAP3 SWAP2 SWAP1 PUSH2 0x16E0 JUMP JUMPDEST PUSH2 0x243 PUSH2 0x23E CALLDATASIZE PUSH1 0x4 PUSH2 0x1755 JUMP JUMPDEST PUSH2 0x5AB JUMP JUMPDEST PUSH1 0x40 MLOAD PUSH2 0x194 SWAP2 SWAP1 PUSH2 0x176E JUMP JUMPDEST PUSH2 0x1D3 PUSH2 0x25E CALLDATASIZE PUSH1 0x4 PUSH2 0x18D0 JUMP JUMPDEST PUSH2 0x63F JUMP JUMPDEST PUSH2 0x1B0 PUSH2 0x271 CALLDATASIZE PUSH1 0x4 PUSH2 0x1979 JUMP JUMPDEST PUSH1 0x5 PUSH1 0x20 MSTORE PUSH1 0x0 SWAP1 DUP2 MSTORE PUSH1 0x40 SWAP1 KECCAK256 SLOAD PUSH1 0xFF AND DUP2 JUMP JUMPDEST PUSH2 0x299 PUSH2 0x294 CALLDATASIZE PUSH1 0x4 PUSH2 0x1994 JUMP JUMPDEST PUSH2 0x6AB JUMP JUMPDEST PUSH1 0x40 MLOAD PUSH2 0x194 SWAP2 SWAP1 PUSH2 0x1A8F JUMP JUMPDEST PUSH1 0x3 SLOAD PUSH1 0x1 PUSH1 0xA0 SHL SWAP1 DIV PUSH1 0xFF AND PUSH2 0x1B0 JUMP JUMPDEST PUSH2 0x1D3 PUSH2 0x2C6 CALLDATASIZE PUSH1 0x4 PUSH2 0x1AA2 JUMP JUMPDEST PUSH2 0x777 JUMP JUMPDEST PUSH2 0x1D3 PUSH2 0x2D9 CALLDATASIZE PUSH1 0x4 PUSH2 0x1B09 JUMP JUMPDEST PUSH2 0xA19 JUMP JUMPDEST PUSH2 0x1D3 PUSH2 0xA7D JUMP JUMPDEST PUSH2 0x1D3 PUSH2 0x2F4 CALLDATASIZE PUSH1 0x4 PUSH2 0x1979 JUMP JUMPDEST PUSH2 0xA91 JUMP JUMPDEST PUSH2 0x1D3 PUSH2 0x307 CALLDATASIZE PUSH1 0x4 PUSH2 0x1979 JUMP JUMPDEST PUSH2 0xAC8 JUMP JUMPDEST PUSH1 0x3 SLOAD PUSH1 0x1 PUSH1 0x1 PUSH1 0xA0 SHL SUB AND JUMPDEST PUSH1 0x40 MLOAD PUSH1 0x1 PUSH1 0x1 PUSH1 0xA0 SHL SUB SWAP1 SWAP2 AND DUP2 MSTORE PUSH1 0x20 ADD PUSH2 0x194 JUMP JUMPDEST PUSH2 0x1D3 PUSH2 0x33F CALLDATASIZE PUSH1 0x4 PUSH2 0x1979 JUMP JUMPDEST PUSH2 0xCBB JUMP JUMPDEST PUSH2 0x1EF PUSH2 0x352 CALLDATASIZE PUSH1 0x4 PUSH2 0x1979 JUMP JUMPDEST PUSH1 0x9 PUSH1 0x20 MSTORE PUSH1 0x0 SWAP1 DUP2 MSTORE PUSH1 0x40 SWAP1 KECCAK256 SLOAD PUSH1 0x1 PUSH1 0x1 PUSH1 0x40 SHL SUB AND DUP2 JUMP JUMPDEST PUSH2 0x1D3 PUSH2 0x37B CALLDATASIZE PUSH1 0x4 PUSH2 0x1B7C JUMP JUMPDEST PUSH2 0xCE5 JUMP JUMPDEST PUSH1 0xA SLOAD PUSH2 0x319 SWAP1 PUSH1 0x1 PUSH1 0x1 PUSH1 0xA0 SHL SUB AND DUP2 JUMP JUMPDEST PUSH2 0x21A PUSH2 0x3A1 CALLDATASIZE PUSH1 0x4 PUSH2 0x1755 JUMP JUMPDEST PUSH2 0xCF4 JUMP JUMPDEST PUSH2 0x1B0 PUSH2 0x3B4 CALLDATASIZE PUSH1 0x4 PUSH2 0x1BB8 JUMP JUMPDEST PUSH2 0xD5B JUMP JUMPDEST PUSH2 0x1D3 PUSH2 0x3C7 CALLDATASIZE PUSH1 0x4 PUSH2 0x1BEB JUMP JUMPDEST PUSH2 0xD89 JUMP JUMPDEST PUSH2 0x1D3 PUSH2 0x3DA CALLDATASIZE PUSH1 0x4 PUSH2 0x1979 JUMP JUMPDEST PUSH2 0xDE8 JUMP JUMPDEST PUSH2 0x1D3 PUSH2 0x3ED CALLDATASIZE PUSH1 0x4 PUSH2 0x1C4F JUMP JUMPDEST PUSH2 0xE23 JUMP JUMPDEST PUSH1 0x0 DUP2 DUP2 MSTORE PUSH1 0x20 DUP2 DUP2 MSTORE PUSH1 0x40 DUP1 DUP4 KECCAK256 PUSH1 0x1 PUSH1 0x1 PUSH1 0xA0 SHL SUB DUP7 AND DUP5 MSTORE SWAP1 SWAP2 MSTORE SWAP1 KECCAK256 SLOAD JUMPDEST SWAP3 SWAP2 POP POP JUMP JUMPDEST PUSH1 0x0 PUSH1 0x1 PUSH1 0x1 PUSH1 0xE0 SHL SUB NOT DUP3 AND PUSH4 0x6CDB3D13 PUSH1 0xE1 SHL EQ DUP1 PUSH2 0x44B JUMPI POP PUSH1 0x1 PUSH1 0x1 PUSH1 0xE0 SHL SUB NOT DUP3 AND PUSH4 0x3A24D07 PUSH1 0xE2 SHL EQ JUMPDEST DUP1 PUSH2 0x414 JUMPI POP PUSH4 0x1FFC9A7 PUSH1 0xE0 SHL PUSH1 0x1 PUSH1 0x1 PUSH1 0xE0 SHL SUB NOT DUP4 AND EQ PUSH2 0x414 JUMP JUMPDEST PUSH2 0x472 PUSH2 0xE59 JUMP JUMPDEST PUSH1 0xA DUP1 SLOAD PUSH1 0x1 PUSH1 0x1 PUSH1 0x40 SHL SUB SWAP1 SWAP3 AND PUSH1 0x1 PUSH1 0xA0 SHL MUL PUSH8 0xFFFFFFFFFFFFFFFF PUSH1 0xA0 SHL NOT SWAP1 SWAP3 AND SWAP2 SWAP1 SWAP2 OR SWAP1 SSTORE JUMP JUMPDEST PUSH1 0x6 PUSH1 0x20 MSTORE DUP2 PUSH1 0x0 MSTORE PUSH1 0x40 PUSH1 0x0 KECCAK256 DUP2 DUP2 SLOAD DUP2 LT PUSH2 0x4BB JUMPI PUSH1 0x0 DUP1 REVERT JUMPDEST PUSH1 0x0 SWAP2 DUP3 MSTORE PUSH1 0x20 SWAP1 SWAP2 KECCAK256 PUSH1 0xA SWAP1 SWAP2 MUL ADD DUP1 SLOAD PUSH1 0x1 DUP3 ADD SLOAD PUSH1 0x2 DUP4 ADD SLOAD PUSH1 0x3 DUP5 ADD SLOAD PUSH1 0x4 DUP6 ADD SLOAD PUSH1 0x5 DUP7 ADD SLOAD PUSH1 0x6 DUP8 ADD SLOAD PUSH1 0x7 DUP9 ADD SLOAD PUSH1 0x8 DUP10 ADD SLOAD PUSH1 0x9 DUP11 ADD DUP1 SLOAD SWAP10 SWAP13 POP PUSH1 0xFF SWAP1 SWAP9 AND SWAP11 POP SWAP6 SWAP9 SWAP5 SWAP8 SWAP4 SWAP7 SWAP3 SWAP6 SWAP2 SWAP5 SWAP1 SWAP4 PUSH1 0x1 PUSH1 0x1 PUSH1 0xA0 SHL SUB SWAP1 SWAP3 AND SWAP3 SWAP1 SWAP2 PUSH2 0x528 SWAP1 PUSH2 0x1C82 JUMP JUMPDEST DUP1 PUSH1 0x1F ADD PUSH1 0x20 DUP1 SWAP2 DIV MUL PUSH1 0x20 ADD PUSH1 0x40 MLOAD SWAP1 DUP2 ADD PUSH1 0x40 MSTORE DUP1 SWAP3 SWAP2 SWAP1 DUP2 DUP2 MSTORE PUSH1 0x20 ADD DUP3 DUP1 SLOAD PUSH2 0x554 SWAP1 PUSH2 0x1C82 JUMP JUMPDEST DUP1 ISZERO PUSH2 0x5A1 JUMPI DUP1 PUSH1 0x1F LT PUSH2 0x576 JUMPI PUSH2 0x100 DUP1 DUP4 SLOAD DIV MUL DUP4 MSTORE SWAP2 PUSH1 0x20 ADD SWAP2 PUSH2 0x5A1 JUMP JUMPDEST DUP3 ADD SWAP2 SWAP1 PUSH1 0x0 MSTORE PUSH1 0x20 PUSH1 0x0 KECCAK256 SWAP1 JUMPDEST DUP2 SLOAD DUP2 MSTORE SWAP1 PUSH1 0x1 ADD SWAP1 PUSH1 0x20 ADD DUP1 DUP4 GT PUSH2 0x584 JUMPI DUP3 SWAP1 SUB PUSH1 0x1F AND DUP3 ADD SWAP2 JUMPDEST POP POP POP POP POP SWAP1 POP DUP11 JUMP JUMPDEST PUSH1 0x60 PUSH1 0x2 DUP1 SLOAD PUSH2 0x5BA SWAP1 PUSH2 0x1C82 JUMP JUMPDEST DUP1 PUSH1 0x1F ADD PUSH1 0x20 DUP1 SWAP2 DIV MUL PUSH1 0x20 ADD PUSH1 0x40 MLOAD SWAP1 DUP2 ADD PUSH1 0x40 MSTORE DUP1 SWAP3 SWAP2 SWAP1 DUP2 DUP2 MSTORE PUSH1 0x20 ADD DUP3 DUP1 SLOAD PUSH2 0x5E6 SWAP1 PUSH2 0x1C82 JUMP JUMPDEST DUP1 ISZERO PUSH2 0x633 JUMPI DUP1 PUSH1 0x1F LT PUSH2 0x608 JUMPI PUSH2 0x100 DUP1 DUP4 SLOAD DIV MUL DUP4 MSTORE SWAP2 PUSH1 0x20 ADD SWAP2 PUSH2 0x633 JUMP JUMPDEST DUP3 ADD SWAP2 SWAP1 PUSH1 0x0 MSTORE PUSH1 0x20 PUSH1 0x0 KECCAK256 SWAP1 JUMPDEST DUP2 SLOAD DUP2 MSTORE SWAP1 PUSH1 0x1 ADD SWAP1 PUSH1 0x20 ADD DUP1 DUP4 GT PUSH2 0x616 JUMPI DUP3 SWAP1 SUB PUSH1 0x1F AND DUP3 ADD SWAP2 JUMPDEST POP POP POP POP POP SWAP1 POP SWAP2 SWAP1 POP JUMP JUMPDEST CALLER PUSH1 0x1 PUSH1 0x1 PUSH1 0xA0 SHL SUB DUP7 AND DUP2 EQ DUP1 ISZERO SWAP1 PUSH2 0x660 JUMPI POP PUSH2 0x65E DUP7 DUP3 PUSH2 0xD5B JUMP JUMPDEST ISZERO JUMPDEST ISZERO PUSH2 0x696 JUMPI PUSH1 0x40 MLOAD PUSH4 0x711BEC91 PUSH1 0xE1 SHL DUP2 MSTORE PUSH1 0x1 PUSH1 0x1 PUSH1 0xA0 SHL SUB DUP1 DUP4 AND PUSH1 0x4 DUP4 ADD MSTORE DUP8 AND PUSH1 0x24 DUP3 ADD MSTORE PUSH1 0x44 ADD JUMPDEST PUSH1 0x40 MLOAD DUP1 SWAP2 SUB SWAP1 REVERT JUMPDEST PUSH2 0x6A3 DUP7 DUP7 DUP7 DUP7 DUP7 PUSH2 0xE86 JUMP JUMPDEST POP POP POP POP POP POP JUMP JUMPDEST PUSH1 0x60 DUP2 MLOAD DUP4 MLOAD EQ PUSH2 0x6DC JUMPI DUP2 MLOAD DUP4 MLOAD PUSH1 0x40 MLOAD PUSH4 0x5B059991 PUSH1 0xE0 SHL DUP2 MSTORE PUSH1 0x4 DUP2 ADD SWAP3 SWAP1 SWAP3 MSTORE PUSH1 0x24 DUP3 ADD MSTORE PUSH1 0x44 ADD PUSH2 0x68D JUMP JUMPDEST PUSH1 0x0 DUP4 MLOAD PUSH1 0x1 PUSH1 0x1 PUSH1 0x40 SHL SUB DUP2 GT ISZERO PUSH2 0x6F7 JUMPI PUSH2 0x6F7 PUSH2 0x1781 JUMP JUMPDEST PUSH1 0x40 MLOAD SWAP1 DUP1 DUP3 MSTORE DUP1 PUSH1 0x20 MUL PUSH1 0x20 ADD DUP3 ADD PUSH1 0x40 MSTORE DUP1 ISZERO PUSH2 0x720 JUMPI DUP2 PUSH1 0x20 ADD PUSH1 0x20 DUP3 MUL DUP1 CALLDATASIZE DUP4 CALLDATACOPY ADD SWAP1 POP JUMPDEST POP SWAP1 POP PUSH1 0x0 JUMPDEST DUP5 MLOAD DUP2 LT ISZERO PUSH2 0x76F JUMPI PUSH1 0x20 DUP1 DUP3 MUL DUP7 ADD ADD MLOAD PUSH2 0x74A SWAP1 PUSH1 0x20 DUP1 DUP5 MUL DUP8 ADD ADD MLOAD PUSH2 0x3F2 JUMP JUMPDEST DUP3 DUP3 DUP2 MLOAD DUP2 LT PUSH2 0x75C JUMPI PUSH2 0x75C PUSH2 0x1CBC JUMP JUMPDEST PUSH1 0x20 SWAP1 DUP2 MUL SWAP2 SWAP1 SWAP2 ADD ADD MSTORE PUSH1 0x1 ADD PUSH2 0x726 JUMP JUMPDEST POP SWAP4 SWAP3 POP POP POP JUMP JUMPDEST CALLER PUSH1 0x0 SWAP1 DUP2 MSTORE PUSH1 0x5 PUSH1 0x20 MSTORE PUSH1 0x40 SWAP1 KECCAK256 SLOAD PUSH1 0xFF AND PUSH2 0x7CA JUMPI PUSH1 0x40 MLOAD PUSH3 0x461BCD PUSH1 0xE5 SHL DUP2 MSTORE PUSH1 0x20 PUSH1 0x4 DUP3 ADD MSTORE PUSH1 0x11 PUSH1 0x24 DUP3 ADD MSTORE PUSH17 0x139BDD08185D5D1A195B9D1A58D85D1959 PUSH1 0x7A SHL PUSH1 0x44 DUP3 ADD MSTORE PUSH1 0x64 ADD PUSH2 0x68D JUMP JUMPDEST CALLER PUSH1 0x0 SWAP1 DUP2 MSTORE PUSH1 0x6 PUSH1 0x20 MSTORE PUSH1 0x40 SWAP1 KECCAK256 SLOAD PUSH1 0x5 GT PUSH2 0x7FA JUMPI PUSH1 0x40 MLOAD PUSH4 0x2E298ED PUSH1 0xE6 SHL DUP2 MSTORE PUSH1 0x4 ADD PUSH1 0x40 MLOAD DUP1 SWAP2 SUB SWAP1 REVERT JUMPDEST PUSH1 0x40 DUP1 MLOAD PUSH2 0x140 DUP2 ADD DUP3 MSTORE PUSH1 0x4 SLOAD DUP2 MSTORE PUSH1 0x0 PUSH1 0x20 DUP3 ADD DUP2 SWAP1 MSTORE SWAP2 DUP2 ADD DUP6 SWAP1 MSTORE PUSH1 0x60 DUP2 ADD DUP5 SWAP1 MSTORE PUSH1 0x80 DUP2 ADD PUSH2 0x832 PUSH4 0x5F5E100 DUP8 PUSH2 0x1CE8 JUMP JUMPDEST DUP2 MSTORE PUSH1 0x20 DUP1 DUP3 ADD DUP6 SWAP1 MSTORE PUSH1 0x0 PUSH1 0x40 DUP1 DUP5 ADD DUP3 SWAP1 MSTORE PUSH1 0x60 DUP5 ADD DUP3 SWAP1 MSTORE CALLER PUSH1 0x80 DUP6 ADD DUP2 SWAP1 MSTORE PUSH1 0xA0 SWAP1 SWAP5 ADD DUP11 SWAP1 MSTORE SWAP3 DUP2 MSTORE PUSH1 0x6 DUP3 MSTORE SWAP2 DUP3 KECCAK256 DUP1 SLOAD PUSH1 0x1 DUP2 DUP2 ADD DUP4 SSTORE SWAP2 DUP5 MSTORE SWAP3 DUP3 SWAP1 KECCAK256 DUP5 MLOAD PUSH1 0xA SWAP1 SWAP5 MUL ADD SWAP3 DUP4 SSTORE SWAP1 DUP4 ADD MLOAD DUP3 DUP3 ADD DUP1 SLOAD SWAP5 SWAP6 POP DUP6 SWAP5 SWAP2 SWAP3 SWAP1 SWAP2 PUSH1 0xFF NOT AND SWAP1 DUP4 PUSH1 0x2 DUP2 GT ISZERO PUSH2 0x8AB JUMPI PUSH2 0x8AB PUSH2 0x1684 JUMP JUMPDEST MUL OR SWAP1 SSTORE POP PUSH1 0x40 DUP3 ADD MLOAD PUSH1 0x2 DUP3 ADD SSTORE PUSH1 0x60 DUP3 ADD MLOAD PUSH1 0x3 DUP3 ADD SSTORE PUSH1 0x80 DUP3 ADD MLOAD PUSH1 0x4 DUP3 ADD SSTORE PUSH1 0xA0 DUP3 ADD MLOAD PUSH1 0x5 DUP3 ADD SSTORE PUSH1 0xC0 DUP3 ADD MLOAD PUSH1 0x6 DUP3 ADD SSTORE PUSH1 0xE0 DUP3 ADD MLOAD PUSH1 0x7 DUP3 ADD SSTORE PUSH2 0x100 DUP3 ADD MLOAD PUSH1 0x8 DUP3 ADD DUP1 SLOAD PUSH1 0x1 PUSH1 0x1 PUSH1 0xA0 SHL SUB NOT AND PUSH1 0x1 PUSH1 0x1 PUSH1 0xA0 SHL SUB SWAP1 SWAP3 AND SWAP2 SWAP1 SWAP2 OR SWAP1 SSTORE PUSH2 0x120 DUP3 ADD MLOAD PUSH1 0x9 DUP3 ADD SWAP1 PUSH2 0x928 SWAP1 DUP3 PUSH2 0x1D52 JUMP JUMPDEST POP POP DUP2 MLOAD PUSH1 0x0 SWAP1 DUP2 MSTORE PUSH1 0x7 PUSH1 0x20 SWAP1 DUP2 MSTORE PUSH1 0x40 SWAP1 SWAP2 KECCAK256 DUP4 MLOAD DUP2 SSTORE SWAP1 DUP4 ADD MLOAD PUSH1 0x1 DUP1 DUP4 ADD DUP1 SLOAD DUP7 SWAP6 POP SWAP1 SWAP2 PUSH1 0xFF NOT SWAP1 SWAP2 AND SWAP1 DUP4 PUSH1 0x2 DUP2 GT ISZERO PUSH2 0x96A JUMPI PUSH2 0x96A PUSH2 0x1684 JUMP JUMPDEST MUL OR SWAP1 SSTORE POP PUSH1 0x40 DUP3 ADD MLOAD PUSH1 0x2 DUP3 ADD SSTORE PUSH1 0x60 DUP3 ADD MLOAD PUSH1 0x3 DUP3 ADD SSTORE PUSH1 0x80 DUP3 ADD MLOAD PUSH1 0x4 DUP3 ADD SSTORE PUSH1 0xA0 DUP3 ADD MLOAD PUSH1 0x5 DUP3 ADD SSTORE PUSH1 0xC0 DUP3 ADD MLOAD PUSH1 0x6 DUP3 ADD SSTORE PUSH1 0xE0 DUP3 ADD MLOAD PUSH1 0x7 DUP3 ADD SSTORE PUSH2 0x100 DUP3 ADD MLOAD PUSH1 0x8 DUP3 ADD DUP1 SLOAD PUSH1 0x1 PUSH1 0x1 PUSH1 0xA0 SHL SUB NOT AND PUSH1 0x1 PUSH1 0x1 PUSH1 0xA0 SHL SUB SWAP1 SWAP3 AND SWAP2 SWAP1 SWAP2 OR SWAP1 SSTORE PUSH2 0x120 DUP3 ADD MLOAD PUSH1 0x9 DUP3 ADD SWAP1 PUSH2 0x9E7 SWAP1 DUP3 PUSH2 0x1D52 JUMP JUMPDEST POP POP PUSH1 0x4 DUP1 SLOAD SWAP2 POP PUSH1 0x0 PUSH2 0x9FA DUP4 PUSH2 0x1E11 JUMP JUMPDEST SWAP1 SWAP2 SSTORE POP POP DUP1 MLOAD PUSH1 0x0 SWAP1 DUP2 MSTORE PUSH1 0x8 PUSH1 0x20 MSTORE PUSH1 0x40 SWAP1 KECCAK256 PUSH2 0x6A3 DUP7 DUP3 PUSH2 0x1D52 JUMP JUMPDEST PUSH1 0x1 PUSH1 0x1 PUSH1 0xA0 SHL SUB DUP4 AND CALLER EQ DUP1 ISZERO SWAP1 PUSH2 0xA39 JUMPI POP PUSH2 0xA37 DUP4 CALLER PUSH2 0xD5B JUMP JUMPDEST ISZERO JUMPDEST ISZERO PUSH2 0xA6D JUMPI CALLER JUMPDEST PUSH1 0x40 MLOAD PUSH4 0x711BEC91 PUSH1 0xE1 SHL DUP2 MSTORE PUSH1 0x1 PUSH1 0x1 PUSH1 0xA0 SHL SUB SWAP2 DUP3 AND PUSH1 0x4 DUP3 ADD MSTORE SWAP1 DUP5 AND PUSH1 0x24 DUP3 ADD MSTORE PUSH1 0x44 ADD PUSH2 0x68D JUMP JUMPDEST PUSH2 0xA78 DUP4 DUP4 DUP4 PUSH2 0xEED JUMP JUMPDEST POP POP POP JUMP JUMPDEST PUSH2 0xA85 PUSH2 0xE59 JUMP JUMPDEST PUSH2 0xA8F PUSH1 0x0 PUSH2 0xF33 JUMP JUMPDEST JUMP JUMPDEST PUSH2 0xA99 PUSH2 0xE59 JUMP JUMPDEST PUSH1 0x1 PUSH1 0x1 PUSH1 0xA0 SHL SUB DUP2 AND PUSH1 0x0 SWAP1 DUP2 MSTORE PUSH1 0x5 PUSH1 0x20 MSTORE PUSH1 0x40 SWAP1 KECCAK256 DUP1 SLOAD PUSH1 0xFF NOT AND PUSH1 0x1 OR SWAP1 SSTORE PUSH2 0xAC5 DUP2 PUSH2 0xAC8 JUMP JUMPDEST POP JUMP JUMPDEST PUSH2 0xAD0 PUSH2 0xE59 JUMP JUMPDEST PUSH1 0x40 DUP1 MLOAD PUSH1 0x1 DUP1 DUP3 MSTORE DUP2 DUP4 ADD SWAP1 SWAP3 MSTORE PUSH1 0x0 SWAP2 DUP2 PUSH1 0x20 ADD JUMPDEST PUSH1 0x60 DUP2 MSTORE PUSH1 0x20 ADD SWAP1 PUSH1 0x1 SWAP1 SUB SWAP1 DUP2 PUSH2 0xAE7 JUMPI SWAP1 POP POP PUSH1 0x40 DUP1 MLOAD PUSH1 0x1 PUSH1 0x1 PUSH1 0xA0 SHL SUB DUP6 AND PUSH1 0x20 DUP3 ADD MSTORE SWAP2 SWAP3 POP ADD PUSH1 0x40 MLOAD PUSH1 0x20 DUP2 DUP4 SUB SUB DUP2 MSTORE SWAP1 PUSH1 0x40 MSTORE DUP2 PUSH1 0x0 DUP2 MLOAD DUP2 LT PUSH2 0xB35 JUMPI PUSH2 0xB35 PUSH2 0x1CBC JUMP JUMPDEST PUSH1 0x20 MUL PUSH1 0x20 ADD ADD DUP2 SWAP1 MSTORE POP PUSH1 0x0 DUP3 PUSH1 0x1 PUSH1 0x40 MLOAD PUSH1 0x20 ADD PUSH2 0xB6C SWAP3 SWAP2 SWAP1 PUSH1 0x1 PUSH1 0x1 PUSH1 0xA0 SHL SUB SWAP3 SWAP1 SWAP3 AND DUP3 MSTORE ISZERO ISZERO PUSH1 0x20 DUP3 ADD MSTORE PUSH1 0x40 ADD SWAP1 JUMP JUMPDEST PUSH1 0x40 DUP1 MLOAD PUSH1 0x1F NOT DUP2 DUP5 SUB ADD DUP2 MSTORE PUSH2 0x140 DUP4 ADD DUP3 MSTORE PUSH1 0xA SLOAD PUSH1 0x1 PUSH1 0x1 PUSH1 0x40 SHL SUB PUSH1 0x1 PUSH1 0xA0 SHL DUP3 DIV AND DUP5 MSTORE PUSH1 0x0 PUSH1 0x20 DUP6 ADD DUP2 SWAP1 MSTORE DUP5 DUP5 ADD DUP2 SWAP1 MSTORE PUSH1 0x60 DUP6 ADD DUP2 SWAP1 MSTORE ADDRESS PUSH1 0x80 DUP7 ADD MSTORE PUSH1 0xA0 DUP6 ADD DUP2 SWAP1 MSTORE PUSH1 0xC0 DUP6 ADD DUP2 SWAP1 MSTORE PUSH1 0xE0 DUP6 ADD DUP2 SWAP1 MSTORE PUSH2 0x100 DUP6 ADD DUP8 SWAP1 MSTORE PUSH2 0x120 DUP6 ADD DUP4 SWAP1 MSTORE SWAP3 MLOAD PUSH4 0xB82916CB PUSH1 0xE0 SHL DUP2 MSTORE SWAP2 SWAP5 POP PUSH1 0x1 PUSH1 0x1 PUSH1 0xA0 SHL SUB AND SWAP1 PUSH4 0xB82916CB SWAP1 PUSH2 0xC03 SWAP1 DUP6 SWAP1 PUSH1 0x4 ADD PUSH2 0x1E98 JUMP JUMPDEST PUSH1 0x20 PUSH1 0x40 MLOAD DUP1 DUP4 SUB DUP2 PUSH1 0x0 DUP8 GAS CALL ISZERO DUP1 ISZERO PUSH2 0xC22 JUMPI RETURNDATASIZE PUSH1 0x0 DUP1 RETURNDATACOPY RETURNDATASIZE PUSH1 0x0 REVERT JUMPDEST POP POP POP POP PUSH1 0x40 MLOAD RETURNDATASIZE PUSH1 0x1F NOT PUSH1 0x1F DUP3 ADD AND DUP3 ADD DUP1 PUSH1 0x40 MSTORE POP DUP2 ADD SWAP1 PUSH2 0xC46 SWAP2 SWAP1 PUSH2 0x1FCB JUMP JUMPDEST PUSH1 0x1 PUSH1 0x1 PUSH1 0xA0 SHL SUB DUP7 AND PUSH1 0x0 DUP2 DUP2 MSTORE PUSH1 0x9 PUSH1 0x20 SWAP1 DUP2 MSTORE PUSH1 0x40 SWAP2 DUP3 SWAP1 KECCAK256 DUP1 SLOAD PUSH8 0xFFFFFFFFFFFFFFFF NOT AND PUSH1 0x1 PUSH1 0x1 PUSH1 0x40 SHL SUB DUP7 AND SWAP1 DUP2 OR SWAP1 SWAP2 SSTORE SWAP2 MLOAD SWAP2 DUP3 MSTORE SWAP3 SWAP4 POP SWAP1 SWAP2 PUSH32 0x22C9AA052D4E34C225D60366B28389EE92CC16A9675CF0C73566587DB4AABCB8 SWAP2 ADD PUSH1 0x40 MLOAD DUP1 SWAP2 SUB SWAP1 LOG2 POP POP POP POP POP JUMP JUMPDEST PUSH2 0xCC3 PUSH2 0xE59 JUMP JUMPDEST PUSH1 0xA DUP1 SLOAD PUSH1 0x1 PUSH1 0x1 PUSH1 0xA0 SHL SUB NOT AND PUSH1 0x1 PUSH1 0x1 PUSH1 0xA0 SHL SUB SWAP3 SWAP1 SWAP3 AND SWAP2 SWAP1 SWAP2 OR SWAP1 SSTORE JUMP JUMPDEST PUSH2 0xCF0 CALLER DUP4 DUP4 PUSH2 0xF85 JUMP JUMPDEST POP POP JUMP JUMPDEST PUSH1 0x7 PUSH1 0x20 DUP2 SWAP1 MSTORE PUSH1 0x0 SWAP2 DUP3 MSTORE PUSH1 0x40 SWAP1 SWAP2 KECCAK256 DUP1 SLOAD PUSH1 0x1 DUP3 ADD SLOAD PUSH1 0x2 DUP4 ADD SLOAD PUSH1 0x3 DUP5 ADD SLOAD PUSH1 0x4 DUP6 ADD SLOAD PUSH1 0x5 DUP7 ADD SLOAD PUSH1 0x6 DUP8 ADD SLOAD SWAP8 DUP8 ADD SLOAD PUSH1 0x8 DUP9 ADD SLOAD PUSH1 0x9 DUP10 ADD DUP1 SLOAD SWAP9 SWAP11 PUSH1 0xFF SWAP1 SWAP9 AND SWAP10 SWAP7 SWAP9 SWAP6 SWAP8 SWAP5 SWAP7 SWAP4 SWAP6 SWAP3 SWAP4 PUSH1 0x1 PUSH1 0x1 PUSH1 0xA0 SHL SUB SWAP1 SWAP3 AND SWAP3 PUSH2 0x528 SWAP1 PUSH2 0x1C82 JUMP JUMPDEST PUSH1 0x1 PUSH1 0x1 PUSH1 0xA0 SHL SUB SWAP2 DUP3 AND PUSH1 0x0 SWAP1 DUP2 MSTORE PUSH1 0x1 PUSH1 0x20 SWAP1 DUP2 MSTORE PUSH1 0x40 DUP1 DUP4 KECCAK256 SWAP4 SWAP1 SWAP5 AND DUP3 MSTORE SWAP2 SWAP1 SWAP2 MSTORE KECCAK256 SLOAD PUSH1 0xFF AND SWAP1 JUMP JUMPDEST CALLER PUSH1 0x1 PUSH1 0x1 PUSH1 0xA0 SHL SUB DUP7 AND DUP2 EQ DUP1 ISZERO SWAP1 PUSH2 0xDAA JUMPI POP PUSH2 0xDA8 DUP7 DUP3 PUSH2 0xD5B JUMP JUMPDEST ISZERO JUMPDEST ISZERO PUSH2 0xDDB JUMPI PUSH1 0x40 MLOAD PUSH4 0x711BEC91 PUSH1 0xE1 SHL DUP2 MSTORE PUSH1 0x1 PUSH1 0x1 PUSH1 0xA0 SHL SUB DUP1 DUP4 AND PUSH1 0x4 DUP4 ADD MSTORE DUP8 AND PUSH1 0x24 DUP3 ADD MSTORE PUSH1 0x44 ADD PUSH2 0x68D JUMP JUMPDEST PUSH2 0x6A3 DUP7 DUP7 DUP7 DUP7 DUP7 PUSH2 0x101B JUMP JUMPDEST PUSH2 0xDF0 PUSH2 0xE59 JUMP JUMPDEST PUSH1 0x1 PUSH1 0x1 PUSH1 0xA0 SHL SUB DUP2 AND PUSH2 0xE1A JUMPI PUSH1 0x40 MLOAD PUSH4 0x1E4FBDF7 PUSH1 0xE0 SHL DUP2 MSTORE PUSH1 0x0 PUSH1 0x4 DUP3 ADD MSTORE PUSH1 0x24 ADD PUSH2 0x68D JUMP JUMPDEST PUSH2 0xAC5 DUP2 PUSH2 0xF33 JUMP JUMPDEST PUSH1 0x1 PUSH1 0x1 PUSH1 0xA0 SHL SUB DUP4 AND CALLER EQ DUP1 ISZERO SWAP1 PUSH2 0xE43 JUMPI POP PUSH2 0xE41 DUP4 CALLER PUSH2 0xD5B JUMP JUMPDEST ISZERO JUMPDEST ISZERO PUSH2 0xE4E JUMPI CALLER PUSH2 0xA40 JUMP JUMPDEST PUSH2 0xA78 DUP4 DUP4 DUP4 PUSH2 0x10A9 JUMP JUMPDEST PUSH1 0x3 SLOAD PUSH1 0x1 PUSH1 0x1 PUSH1 0xA0 SHL SUB AND CALLER EQ PUSH2 0xA8F JUMPI PUSH1 0x40 MLOAD PUSH4 0x118CDAA7 PUSH1 0xE0 SHL DUP2 MSTORE CALLER PUSH1 0x4 DUP3 ADD MSTORE PUSH1 0x24 ADD PUSH2 0x68D JUMP JUMPDEST PUSH1 0x1 PUSH1 0x1 PUSH1 0xA0 SHL SUB DUP5 AND PUSH2 0xEB0 JUMPI PUSH1 0x40 MLOAD PUSH4 0x2BFA23E7 PUSH1 0xE1 SHL DUP2 MSTORE PUSH1 0x0 PUSH1 0x4 DUP3 ADD MSTORE PUSH1 0x24 ADD PUSH2 0x68D JUMP JUMPDEST PUSH1 0x1 PUSH1 0x1 PUSH1 0xA0 SHL SUB DUP6 AND PUSH2 0xED9 JUMPI PUSH1 0x40 MLOAD PUSH3 0x6A0D45 PUSH1 0xE2 SHL DUP2 MSTORE PUSH1 0x0 PUSH1 0x4 DUP3 ADD MSTORE PUSH1 0x24 ADD PUSH2 0x68D JUMP JUMPDEST PUSH2 0xEE6 DUP6 DUP6 DUP6 DUP6 DUP6 PUSH2 0x110D JUMP JUMPDEST POP POP POP POP POP JUMP JUMPDEST PUSH1 0x1 PUSH1 0x1 PUSH1 0xA0 SHL SUB DUP4 AND PUSH2 0xF16 JUMPI PUSH1 0x40 MLOAD PUSH3 0x6A0D45 PUSH1 0xE2 SHL DUP2 MSTORE PUSH1 0x0 PUSH1 0x4 DUP3 ADD MSTORE PUSH1 0x24 ADD PUSH2 0x68D JUMP JUMPDEST PUSH2 0xA78 DUP4 PUSH1 0x0 DUP5 DUP5 PUSH1 0x40 MLOAD DUP1 PUSH1 0x20 ADD PUSH1 0x40 MSTORE DUP1 PUSH1 0x0 DUP2 MSTORE POP PUSH2 0x110D JUMP JUMPDEST PUSH1 0x3 DUP1 SLOAD PUSH1 0x1 PUSH1 0x1 PUSH1 0xA0 SHL SUB DUP4 DUP2 AND PUSH1 0x1 PUSH1 0x1 PUSH1 0xA0 SHL SUB NOT DUP4 AND DUP2 OR SWAP1 SWAP4 SSTORE PUSH1 0x40 MLOAD SWAP2 AND SWAP2 SWAP1 DUP3 SWAP1 PUSH32 0x8BE0079C531659141344CD1FD0A4F28419497F9722A3DAAFE3B4186F6B6457E0 SWAP1 PUSH1 0x0 SWAP1 LOG3 POP POP JUMP JUMPDEST PUSH1 0x1 PUSH1 0x1 PUSH1 0xA0 SHL SUB DUP3 AND PUSH2 0xFAE JUMPI PUSH1 0x40 MLOAD PUSH3 0xCED3E1 PUSH1 0xE8 SHL DUP2 MSTORE PUSH1 0x0 PUSH1 0x4 DUP3 ADD MSTORE PUSH1 0x24 ADD PUSH2 0x68D JUMP JUMPDEST PUSH1 0x1 PUSH1 0x1 PUSH1 0xA0 SHL SUB DUP4 DUP2 AND PUSH1 0x0 DUP2 DUP2 MSTORE PUSH1 0x1 PUSH1 0x20 SWAP1 DUP2 MSTORE PUSH1 0x40 DUP1 DUP4 KECCAK256 SWAP5 DUP8 AND DUP1 DUP5 MSTORE SWAP5 DUP3 MSTORE SWAP2 DUP3 SWAP1 KECCAK256 DUP1 SLOAD PUSH1 0xFF NOT AND DUP7 ISZERO ISZERO SWAP1 DUP2 OR SWAP1 SWAP2 SSTORE SWAP2 MLOAD SWAP2 DUP3 MSTORE PUSH32 0x17307EAB39AB6107E8899845AD3D59BD9653F200F220920489CA2B5937696C31 SWAP2 ADD PUSH1 0x40 MLOAD DUP1 SWAP2 SUB SWAP1 LOG3 POP POP POP JUMP JUMPDEST PUSH1 0x1 PUSH1 0x1 PUSH1 0xA0 SHL SUB DUP5 AND PUSH2 0x1045 JUMPI PUSH1 0x40 MLOAD PUSH4 0x2BFA23E7 PUSH1 0xE1 SHL DUP2 MSTORE PUSH1 0x0 PUSH1 0x4 DUP3 ADD MSTORE PUSH1 0x24 ADD PUSH2 0x68D JUMP JUMPDEST PUSH1 0x1 PUSH1 0x1 PUSH1 0xA0 SHL SUB DUP6 AND PUSH2 0x106E JUMPI PUSH1 0x40 MLOAD PUSH3 0x6A0D45 PUSH1 0xE2 SHL DUP2 MSTORE PUSH1 0x0 PUSH1 0x4 DUP3 ADD MSTORE PUSH1 0x24 ADD PUSH2 0x68D JUMP JUMPDEST PUSH1 0x40 DUP1 MLOAD PUSH1 0x1 DUP1 DUP3 MSTORE PUSH1 0x20 DUP3 ADD DUP7 SWAP1 MSTORE DUP2 DUP4 ADD SWAP1 DUP2 MSTORE PUSH1 0x60 DUP3 ADD DUP6 SWAP1 MSTORE PUSH1 0x80 DUP3 ADD SWAP1 SWAP3 MSTORE SWAP1 PUSH2 0x10A0 DUP8 DUP8 DUP5 DUP5 DUP8 PUSH2 0x110D JUMP JUMPDEST POP POP POP POP POP POP POP JUMP JUMPDEST PUSH1 0x1 PUSH1 0x1 PUSH1 0xA0 SHL SUB DUP4 AND PUSH2 0x10D2 JUMPI PUSH1 0x40 MLOAD PUSH3 0x6A0D45 PUSH1 0xE2 SHL DUP2 MSTORE PUSH1 0x0 PUSH1 0x4 DUP3 ADD MSTORE PUSH1 0x24 ADD PUSH2 0x68D JUMP JUMPDEST PUSH1 0x40 DUP1 MLOAD PUSH1 0x1 DUP1 DUP3 MSTORE PUSH1 0x20 DUP3 ADD DUP6 SWAP1 MSTORE DUP2 DUP4 ADD SWAP1 DUP2 MSTORE PUSH1 0x60 DUP3 ADD DUP5 SWAP1 MSTORE PUSH1 0xA0 DUP3 ADD SWAP1 SWAP3 MSTORE PUSH1 0x0 PUSH1 0x80 DUP3 ADD DUP2 DUP2 MSTORE SWAP2 SWAP3 SWAP2 PUSH2 0xEE6 SWAP2 DUP8 SWAP2 DUP6 SWAP1 DUP6 SWAP1 JUMPDEST PUSH2 0x1119 DUP6 DUP6 DUP6 DUP6 PUSH2 0x1160 JUMP JUMPDEST PUSH1 0x1 PUSH1 0x1 PUSH1 0xA0 SHL SUB DUP5 AND ISZERO PUSH2 0xEE6 JUMPI DUP3 MLOAD CALLER SWAP1 PUSH1 0x1 SUB PUSH2 0x1152 JUMPI PUSH1 0x20 DUP5 DUP2 ADD MLOAD SWAP1 DUP5 ADD MLOAD PUSH2 0x114B DUP4 DUP10 DUP10 DUP6 DUP6 DUP10 PUSH2 0x1172 JUMP JUMPDEST POP POP PUSH2 0x6A3 JUMP JUMPDEST PUSH2 0x6A3 DUP2 DUP8 DUP8 DUP8 DUP8 DUP8 PUSH2 0x1296 JUMP JUMPDEST PUSH2 0x116C DUP5 DUP5 DUP5 DUP5 PUSH2 0x137F JUMP JUMPDEST POP POP POP POP JUMP JUMPDEST PUSH1 0x1 PUSH1 0x1 PUSH1 0xA0 SHL SUB DUP5 AND EXTCODESIZE ISZERO PUSH2 0x6A3 JUMPI PUSH1 0x40 MLOAD PUSH4 0xF23A6E61 PUSH1 0xE0 SHL DUP2 MSTORE PUSH1 0x1 PUSH1 0x1 PUSH1 0xA0 SHL SUB DUP6 AND SWAP1 PUSH4 0xF23A6E61 SWAP1 PUSH2 0x11B6 SWAP1 DUP10 SWAP1 DUP10 SWAP1 DUP9 SWAP1 DUP9 SWAP1 DUP9 SWAP1 PUSH1 0x4 ADD PUSH2 0x1FE8 JUMP JUMPDEST PUSH1 0x20 PUSH1 0x40 MLOAD DUP1 DUP4 SUB DUP2 PUSH1 0x0 DUP8 GAS CALL SWAP3 POP POP POP DUP1 ISZERO PUSH2 0x11F1 JUMPI POP PUSH1 0x40 DUP1 MLOAD PUSH1 0x1F RETURNDATASIZE SWAP1 DUP2 ADD PUSH1 0x1F NOT AND DUP3 ADD SWAP1 SWAP3 MSTORE PUSH2 0x11EE SWAP2 DUP2 ADD SWAP1 PUSH2 0x202D JUMP JUMPDEST PUSH1 0x1 JUMPDEST PUSH2 0x125A JUMPI RETURNDATASIZE DUP1 DUP1 ISZERO PUSH2 0x121F JUMPI PUSH1 0x40 MLOAD SWAP2 POP PUSH1 0x1F NOT PUSH1 0x3F RETURNDATASIZE ADD AND DUP3 ADD PUSH1 0x40 MSTORE RETURNDATASIZE DUP3 MSTORE RETURNDATASIZE PUSH1 0x0 PUSH1 0x20 DUP5 ADD RETURNDATACOPY PUSH2 0x1224 JUMP JUMPDEST PUSH1 0x60 SWAP2 POP JUMPDEST POP DUP1 MLOAD PUSH1 0x0 SUB PUSH2 0x1252 JUMPI PUSH1 0x40 MLOAD PUSH4 0x2BFA23E7 PUSH1 0xE1 SHL DUP2 MSTORE PUSH1 0x1 PUSH1 0x1 PUSH1 0xA0 SHL SUB DUP7 AND PUSH1 0x4 DUP3 ADD MSTORE PUSH1 0x24 ADD PUSH2 0x68D JUMP JUMPDEST DUP1 MLOAD DUP2 PUSH1 0x20 ADD REVERT JUMPDEST PUSH1 0x1 PUSH1 0x1 PUSH1 0xE0 SHL SUB NOT DUP2 AND PUSH4 0xF23A6E61 PUSH1 0xE0 SHL EQ PUSH2 0x10A0 JUMPI PUSH1 0x40 MLOAD PUSH4 0x2BFA23E7 PUSH1 0xE1 SHL DUP2 MSTORE PUSH1 0x1 PUSH1 0x1 PUSH1 0xA0 SHL SUB DUP7 AND PUSH1 0x4 DUP3 ADD MSTORE PUSH1 0x24 ADD PUSH2 0x68D JUMP JUMPDEST PUSH1 0x1 PUSH1 0x1 PUSH1 0xA0 SHL SUB DUP5 AND EXTCODESIZE ISZERO PUSH2 0x6A3 JUMPI PUSH1 0x40 MLOAD PUSH4 0xBC197C81 PUSH1 0xE0 SHL DUP2 MSTORE PUSH1 0x1 PUSH1 0x1 PUSH1 0xA0 SHL SUB DUP6 AND SWAP1 PUSH4 0xBC197C81 SWAP1 PUSH2 0x12DA SWAP1 DUP10 SWAP1 DUP10 SWAP1 DUP9 SWAP1 DUP9 SWAP1 DUP9 SWAP1 PUSH1 0x4 ADD PUSH2 0x204A JUMP JUMPDEST PUSH1 0x20 PUSH1 0x40 MLOAD DUP1 DUP4 SUB DUP2 PUSH1 0x0 DUP8 GAS CALL SWAP3 POP POP POP DUP1 ISZERO PUSH2 0x1315 JUMPI POP PUSH1 0x40 DUP1 MLOAD PUSH1 0x1F RETURNDATASIZE SWAP1 DUP2 ADD PUSH1 0x1F NOT AND DUP3 ADD SWAP1 SWAP3 MSTORE PUSH2 0x1312 SWAP2 DUP2 ADD SWAP1 PUSH2 0x202D JUMP JUMPDEST PUSH1 0x1 JUMPDEST PUSH2 0x1343 JUMPI RETURNDATASIZE DUP1 DUP1 ISZERO PUSH2 0x121F JUMPI PUSH1 0x40 MLOAD SWAP2 POP PUSH1 0x1F NOT PUSH1 0x3F RETURNDATASIZE ADD AND DUP3 ADD PUSH1 0x40 MSTORE RETURNDATASIZE DUP3 MSTORE RETURNDATASIZE PUSH1 0x0 PUSH1 0x20 DUP5 ADD RETURNDATACOPY PUSH2 0x1224 JUMP JUMPDEST PUSH1 0x1 PUSH1 0x1 PUSH1 0xE0 SHL SUB NOT DUP2 AND PUSH4 0xBC197C81 PUSH1 0xE0 SHL EQ PUSH2 0x10A0 JUMPI PUSH1 0x40 MLOAD PUSH4 0x2BFA23E7 PUSH1 0xE1 SHL DUP2 MSTORE PUSH1 0x1 PUSH1 0x1 PUSH1 0xA0 SHL SUB DUP7 AND PUSH1 0x4 DUP3 ADD MSTORE PUSH1 0x24 ADD PUSH2 0x68D JUMP JUMPDEST PUSH2 0x1387 PUSH2 0x1393 JUMP JUMPDEST PUSH2 0x116C DUP5 DUP5 DUP5 DUP5 PUSH2 0x13BE JUMP JUMPDEST PUSH1 0x3 SLOAD PUSH1 0x1 PUSH1 0xA0 SHL SWAP1 DIV PUSH1 0xFF AND ISZERO PUSH2 0xA8F JUMPI PUSH1 0x40 MLOAD PUSH4 0xD93C0665 PUSH1 0xE0 SHL DUP2 MSTORE PUSH1 0x4 ADD PUSH1 0x40 MLOAD DUP1 SWAP2 SUB SWAP1 REVERT JUMPDEST DUP1 MLOAD DUP3 MLOAD EQ PUSH2 0x13ED JUMPI DUP2 MLOAD DUP2 MLOAD PUSH1 0x40 MLOAD PUSH4 0x5B059991 PUSH1 0xE0 SHL DUP2 MSTORE PUSH1 0x4 DUP2 ADD SWAP3 SWAP1 SWAP3 MSTORE PUSH1 0x24 DUP3 ADD MSTORE PUSH1 0x44 ADD PUSH2 0x68D JUMP JUMPDEST CALLER PUSH1 0x0 JUMPDEST DUP4 MLOAD DUP2 LT ISZERO PUSH2 0x14F3 JUMPI PUSH1 0x20 DUP2 DUP2 MUL DUP6 DUP2 ADD DUP3 ADD MLOAD SWAP1 DUP6 ADD SWAP1 SWAP2 ADD MLOAD PUSH1 0x1 PUSH1 0x1 PUSH1 0xA0 SHL SUB DUP9 AND ISZERO PUSH2 0x14A4 JUMPI PUSH1 0x0 DUP3 DUP2 MSTORE PUSH1 0x20 DUP2 DUP2 MSTORE PUSH1 0x40 DUP1 DUP4 KECCAK256 PUSH1 0x1 PUSH1 0x1 PUSH1 0xA0 SHL SUB DUP13 AND DUP5 MSTORE SWAP1 SWAP2 MSTORE SWAP1 KECCAK256 SLOAD DUP2 DUP2 LT ISZERO PUSH2 0x147D JUMPI PUSH1 0x40 MLOAD PUSH4 0x3DEE4C5 PUSH1 0xE0 SHL DUP2 MSTORE PUSH1 0x1 PUSH1 0x1 PUSH1 0xA0 SHL SUB DUP11 AND PUSH1 0x4 DUP3 ADD MSTORE PUSH1 0x24 DUP2 ADD DUP3 SWAP1 MSTORE PUSH1 0x44 DUP2 ADD DUP4 SWAP1 MSTORE PUSH1 0x64 DUP2 ADD DUP5 SWAP1 MSTORE PUSH1 0x84 ADD PUSH2 0x68D JUMP JUMPDEST PUSH1 0x0 DUP4 DUP2 MSTORE PUSH1 0x20 DUP2 DUP2 MSTORE PUSH1 0x40 DUP1 DUP4 KECCAK256 PUSH1 0x1 PUSH1 0x1 PUSH1 0xA0 SHL SUB DUP14 AND DUP5 MSTORE SWAP1 SWAP2 MSTORE SWAP1 KECCAK256 SWAP1 DUP3 SWAP1 SUB SWAP1 SSTORE JUMPDEST PUSH1 0x1 PUSH1 0x1 PUSH1 0xA0 SHL SUB DUP8 AND ISZERO PUSH2 0x14E9 JUMPI PUSH1 0x0 DUP3 DUP2 MSTORE PUSH1 0x20 DUP2 DUP2 MSTORE PUSH1 0x40 DUP1 DUP4 KECCAK256 PUSH1 0x1 PUSH1 0x1 PUSH1 0xA0 SHL SUB DUP12 AND DUP5 MSTORE SWAP1 SWAP2 MSTORE DUP2 KECCAK256 DUP1 SLOAD DUP4 SWAP3 SWAP1 PUSH2 0x14E3 SWAP1 DUP5 SWAP1 PUSH2 0x20A8 JUMP JUMPDEST SWAP1 SWAP2 SSTORE POP POP JUMPDEST POP POP PUSH1 0x1 ADD PUSH2 0x13F1 JUMP JUMPDEST POP DUP3 MLOAD PUSH1 0x1 SUB PUSH2 0x1574 JUMPI PUSH1 0x20 DUP4 ADD MLOAD PUSH1 0x0 SWAP1 PUSH1 0x20 DUP5 ADD MLOAD SWAP1 SWAP2 POP DUP6 PUSH1 0x1 PUSH1 0x1 PUSH1 0xA0 SHL SUB AND DUP8 PUSH1 0x1 PUSH1 0x1 PUSH1 0xA0 SHL SUB AND DUP5 PUSH1 0x1 PUSH1 0x1 PUSH1 0xA0 SHL SUB AND PUSH32 0xC3D58168C5AE7397731D063D5BBF3D657854427343F4C083240F7AACAA2D0F62 DUP6 DUP6 PUSH1 0x40 MLOAD PUSH2 0x1565 SWAP3 SWAP2 SWAP1 SWAP2 DUP3 MSTORE PUSH1 0x20 DUP3 ADD MSTORE PUSH1 0x40 ADD SWAP1 JUMP JUMPDEST PUSH1 0x40 MLOAD DUP1 SWAP2 SUB SWAP1 LOG4 POP POP PUSH2 0xEE6 JUMP JUMPDEST DUP4 PUSH1 0x1 PUSH1 0x1 PUSH1 0xA0 SHL SUB AND DUP6 PUSH1 0x1 PUSH1 0x1 PUSH1 0xA0 SHL SUB AND DUP3 PUSH1 0x1 PUSH1 0x1 PUSH1 0xA0 SHL SUB AND PUSH32 0x4A39DC06D4C0DBC64B70AF90FD698A233A518AA5D07E595D983B8C0526C8F7FB DUP7 DUP7 PUSH1 0x40 MLOAD PUSH2 0x15C3 SWAP3 SWAP2 SWAP1 PUSH2 0x20BB JUMP JUMPDEST PUSH1 0x40 MLOAD DUP1 SWAP2 SUB SWAP1 LOG4 POP POP POP POP POP JUMP JUMPDEST DUP1 CALLDATALOAD PUSH1 0x1 PUSH1 0x1 PUSH1 0xA0 SHL SUB DUP2 AND DUP2 EQ PUSH2 0x15E9 JUMPI PUSH1 0x0 DUP1 REVERT JUMPDEST SWAP2 SWAP1 POP JUMP JUMPDEST PUSH1 0x0 DUP1 PUSH1 0x40 DUP4 DUP6 SUB SLT ISZERO PUSH2 0x1601 JUMPI PUSH1 0x0 DUP1 REVERT JUMPDEST PUSH2 0x160A DUP4 PUSH2 0x15D2 JUMP JUMPDEST SWAP5 PUSH1 0x20 SWAP4 SWAP1 SWAP4 ADD CALLDATALOAD SWAP4 POP POP POP JUMP JUMPDEST PUSH1 0x1 PUSH1 0x1 PUSH1 0xE0 SHL SUB NOT DUP2 AND DUP2 EQ PUSH2 0xAC5 JUMPI PUSH1 0x0 DUP1 REVERT JUMPDEST PUSH1 0x0 PUSH1 0x20 DUP3 DUP5 SUB SLT ISZERO PUSH2 0x1640 JUMPI PUSH1 0x0 DUP1 REVERT JUMPDEST DUP2 CALLDATALOAD PUSH2 0x164B DUP2 PUSH2 0x1618 JUMP JUMPDEST SWAP4 SWAP3 POP POP POP JUMP JUMPDEST PUSH1 0x1 PUSH1 0x1 PUSH1 0x40 SHL SUB DUP2 AND DUP2 EQ PUSH2 0xAC5 JUMPI PUSH1 0x0 DUP1 REVERT JUMPDEST PUSH1 0x0 PUSH1 0x20 DUP3 DUP5 SUB SLT ISZERO PUSH2 0x1679 JUMPI PUSH1 0x0 DUP1 REVERT JUMPDEST DUP2 CALLDATALOAD PUSH2 0x164B DUP2 PUSH2 0x1652 JUMP JUMPDEST PUSH4 0x4E487B71 PUSH1 0xE0 SHL PUSH1 0x0 MSTORE PUSH1 0x21 PUSH1 0x4 MSTORE PUSH1 0x24 PUSH1 0x0 REVERT JUMPDEST PUSH1 0x0 DUP2 MLOAD DUP1 DUP5 MSTORE PUSH1 0x0 JUMPDEST DUP2 DUP2 LT ISZERO PUSH2 0x16C0 JUMPI PUSH1 0x20 DUP2 DUP6 ADD DUP2 ADD MLOAD DUP7 DUP4 ADD DUP3 ADD MSTORE ADD PUSH2 0x16A4 JUMP JUMPDEST POP PUSH1 0x0 PUSH1 0x20 DUP3 DUP7 ADD ADD MSTORE PUSH1 0x20 PUSH1 0x1F NOT PUSH1 0x1F DUP4 ADD AND DUP6 ADD ADD SWAP2 POP POP SWAP3 SWAP2 POP POP JUMP JUMPDEST PUSH1 0x0 PUSH2 0x140 DUP13 DUP4 MSTORE PUSH1 0x3 DUP13 LT PUSH2 0x16F8 JUMPI PUSH2 0x16F8 PUSH2 0x1684 JUMP JUMPDEST DUP12 PUSH1 0x20 DUP5 ADD MSTORE DUP11 PUSH1 0x40 DUP5 ADD MSTORE DUP10 PUSH1 0x60 DUP5 ADD MSTORE DUP9 PUSH1 0x80 DUP5 ADD MSTORE DUP8 PUSH1 0xA0 DUP5 ADD MSTORE DUP7 PUSH1 0xC0 DUP5 ADD MSTORE DUP6 PUSH1 0xE0 DUP5 ADD MSTORE PUSH1 0x1 DUP1 PUSH1 0xA0 SHL SUB DUP6 AND PUSH2 0x100 DUP5 ADD MSTORE DUP1 PUSH2 0x120 DUP5 ADD MSTORE PUSH2 0x1744 DUP2 DUP5 ADD DUP6 PUSH2 0x169A JUMP JUMPDEST SWAP14 SWAP13 POP POP POP POP POP POP POP POP POP POP POP POP POP JUMP JUMPDEST PUSH1 0x0 PUSH1 0x20 DUP3 DUP5 SUB SLT ISZERO PUSH2 0x1767 JUMPI PUSH1 0x0 DUP1 REVERT JUMPDEST POP CALLDATALOAD SWAP2 SWAP1 POP JUMP JUMPDEST PUSH1 0x20 DUP2 MSTORE PUSH1 0x0 PUSH2 0x164B PUSH1 0x20 DUP4 ADD DUP5 PUSH2 0x169A JUMP JUMPDEST PUSH4 0x4E487B71 PUSH1 0xE0 SHL PUSH1 0x0 MSTORE PUSH1 0x41 PUSH1 0x4 MSTORE PUSH1 0x24 PUSH1 0x0 REVERT JUMPDEST PUSH1 0x40 MLOAD PUSH1 0x1F DUP3 ADD PUSH1 0x1F NOT AND DUP2 ADD PUSH1 0x1 PUSH1 0x1 PUSH1 0x40 SHL SUB DUP2 GT DUP3 DUP3 LT OR ISZERO PUSH2 0x17BF JUMPI PUSH2 0x17BF PUSH2 0x1781 JUMP JUMPDEST PUSH1 0x40 MSTORE SWAP2 SWAP1 POP JUMP JUMPDEST PUSH1 0x0 PUSH1 0x1 PUSH1 0x1 PUSH1 0x40 SHL SUB DUP3 GT ISZERO PUSH2 0x17E0 JUMPI PUSH2 0x17E0 PUSH2 0x1781 JUMP JUMPDEST POP PUSH1 0x5 SHL PUSH1 0x20 ADD SWAP1 JUMP JUMPDEST PUSH1 0x0 DUP3 PUSH1 0x1F DUP4 ADD SLT PUSH2 0x17FB JUMPI PUSH1 0x0 DUP1 REVERT JUMPDEST DUP2 CALLDATALOAD PUSH1 0x20 PUSH2 0x1810 PUSH2 0x180B DUP4 PUSH2 0x17C7 JUMP JUMPDEST PUSH2 0x1797 JUMP JUMPDEST DUP1 DUP4 DUP3 MSTORE PUSH1 0x20 DUP3 ADD SWAP2 POP PUSH1 0x20 DUP5 PUSH1 0x5 SHL DUP8 ADD ADD SWAP4 POP DUP7 DUP5 GT ISZERO PUSH2 0x1832 JUMPI PUSH1 0x0 DUP1 REVERT JUMPDEST PUSH1 0x20 DUP7 ADD JUMPDEST DUP5 DUP2 LT ISZERO PUSH2 0x184E JUMPI DUP1 CALLDATALOAD DUP4 MSTORE SWAP2 DUP4 ADD SWAP2 DUP4 ADD PUSH2 0x1837 JUMP JUMPDEST POP SWAP7 SWAP6 POP POP POP POP POP POP JUMP JUMPDEST PUSH1 0x0 PUSH1 0x1 PUSH1 0x1 PUSH1 0x40 SHL SUB DUP4 GT ISZERO PUSH2 0x1872 JUMPI PUSH2 0x1872 PUSH2 0x1781 JUMP JUMPDEST PUSH2 0x1885 PUSH1 0x1F DUP5 ADD PUSH1 0x1F NOT AND PUSH1 0x20 ADD PUSH2 0x1797 JUMP JUMPDEST SWAP1 POP DUP3 DUP2 MSTORE DUP4 DUP4 DUP4 ADD GT ISZERO PUSH2 0x1899 JUMPI PUSH1 0x0 DUP1 REVERT JUMPDEST DUP3 DUP3 PUSH1 0x20 DUP4 ADD CALLDATACOPY PUSH1 0x0 PUSH1 0x20 DUP5 DUP4 ADD ADD MSTORE SWAP4 SWAP3 POP POP POP JUMP JUMPDEST PUSH1 0x0 DUP3 PUSH1 0x1F DUP4 ADD SLT PUSH2 0x18C1 JUMPI PUSH1 0x0 DUP1 REVERT JUMPDEST PUSH2 0x164B DUP4 DUP4 CALLDATALOAD PUSH1 0x20 DUP6 ADD PUSH2 0x1859 JUMP JUMPDEST PUSH1 0x0 DUP1 PUSH1 0x0 DUP1 PUSH1 0x0 PUSH1 0xA0 DUP7 DUP9 SUB SLT ISZERO PUSH2 0x18E8 JUMPI PUSH1 0x0 DUP1 REVERT JUMPDEST PUSH2 0x18F1 DUP7 PUSH2 0x15D2 JUMP JUMPDEST SWAP5 POP PUSH2 0x18FF PUSH1 0x20 DUP8 ADD PUSH2 0x15D2 JUMP JUMPDEST SWAP4 POP PUSH1 0x40 DUP7 ADD CALLDATALOAD PUSH1 0x1 PUSH1 0x1 PUSH1 0x40 SHL SUB DUP1 DUP3 GT ISZERO PUSH2 0x191B JUMPI PUSH1 0x0 DUP1 REVERT JUMPDEST PUSH2 0x1927 DUP10 DUP4 DUP11 ADD PUSH2 0x17EA JUMP JUMPDEST SWAP5 POP PUSH1 0x60 DUP9 ADD CALLDATALOAD SWAP2 POP DUP1 DUP3 GT ISZERO PUSH2 0x193D JUMPI PUSH1 0x0 DUP1 REVERT JUMPDEST PUSH2 0x1949 DUP10 DUP4 DUP11 ADD PUSH2 0x17EA JUMP JUMPDEST SWAP4 POP PUSH1 0x80 DUP9 ADD CALLDATALOAD SWAP2 POP DUP1 DUP3 GT ISZERO PUSH2 0x195F JUMPI PUSH1 0x0 DUP1 REVERT JUMPDEST POP PUSH2 0x196C DUP9 DUP3 DUP10 ADD PUSH2 0x18B0 JUMP JUMPDEST SWAP2 POP POP SWAP3 SWAP6 POP SWAP3 SWAP6 SWAP1 SWAP4 POP JUMP JUMPDEST PUSH1 0x0 PUSH1 0x20 DUP3 DUP5 SUB SLT ISZERO PUSH2 0x198B JUMPI PUSH1 0x0 DUP1 REVERT JUMPDEST PUSH2 0x164B DUP3 PUSH2 0x15D2 JUMP JUMPDEST PUSH1 0x0 DUP1 PUSH1 0x40 DUP4 DUP6 SUB SLT ISZERO PUSH2 0x19A7 JUMPI PUSH1 0x0 DUP1 REVERT JUMPDEST DUP3 CALLDATALOAD PUSH1 0x1 PUSH1 0x1 PUSH1 0x40 SHL SUB DUP1 DUP3 GT ISZERO PUSH2 0x19BE JUMPI PUSH1 0x0 DUP1 REVERT JUMPDEST DUP2 DUP6 ADD SWAP2 POP DUP6 PUSH1 0x1F DUP4 ADD SLT PUSH2 0x19D2 JUMPI PUSH1 0x0 DUP1 REVERT JUMPDEST DUP2 CALLDATALOAD PUSH1 0x20 PUSH2 0x19E2 PUSH2 0x180B DUP4 PUSH2 0x17C7 JUMP JUMPDEST DUP3 DUP2 MSTORE PUSH1 0x5 SWAP3 SWAP1 SWAP3 SHL DUP5 ADD DUP2 ADD SWAP2 DUP2 DUP2 ADD SWAP1 DUP10 DUP5 GT ISZERO PUSH2 0x1A01 JUMPI PUSH1 0x0 DUP1 REVERT JUMPDEST SWAP5 DUP3 ADD SWAP5 JUMPDEST DUP4 DUP7 LT ISZERO PUSH2 0x1A26 JUMPI PUSH2 0x1A17 DUP7 PUSH2 0x15D2 JUMP JUMPDEST DUP3 MSTORE SWAP5 DUP3 ADD SWAP5 SWAP1 DUP3 ADD SWAP1 PUSH2 0x1A06 JUMP JUMPDEST SWAP7 POP POP DUP7 ADD CALLDATALOAD SWAP3 POP POP DUP1 DUP3 GT ISZERO PUSH2 0x1A3C JUMPI PUSH1 0x0 DUP1 REVERT JUMPDEST POP PUSH2 0x1A49 DUP6 DUP3 DUP7 ADD PUSH2 0x17EA JUMP JUMPDEST SWAP2 POP POP SWAP3 POP SWAP3 SWAP1 POP JUMP JUMPDEST PUSH1 0x0 DUP2 MLOAD DUP1 DUP5 MSTORE PUSH1 0x20 DUP1 DUP6 ADD SWAP5 POP PUSH1 0x20 DUP5 ADD PUSH1 0x0 JUMPDEST DUP4 DUP2 LT ISZERO PUSH2 0x1A84 JUMPI DUP2 MLOAD DUP8 MSTORE SWAP6 DUP3 ADD SWAP6 SWAP1 DUP3 ADD SWAP1 PUSH1 0x1 ADD PUSH2 0x1A68 JUMP JUMPDEST POP SWAP5 SWAP6 SWAP5 POP POP POP POP POP JUMP JUMPDEST PUSH1 0x20 DUP2 MSTORE PUSH1 0x0 PUSH2 0x164B PUSH1 0x20 DUP4 ADD DUP5 PUSH2 0x1A53 JUMP JUMPDEST PUSH1 0x0 DUP1 PUSH1 0x0 DUP1 PUSH1 0x80 DUP6 DUP8 SUB SLT ISZERO PUSH2 0x1AB8 JUMPI PUSH1 0x0 DUP1 REVERT JUMPDEST DUP5 CALLDATALOAD PUSH1 0x1 PUSH1 0x1 PUSH1 0x40 SHL SUB DUP2 GT ISZERO PUSH2 0x1ACE JUMPI PUSH1 0x0 DUP1 REVERT JUMPDEST DUP6 ADD PUSH1 0x1F DUP2 ADD DUP8 SGT PUSH2 0x1ADF JUMPI PUSH1 0x0 DUP1 REVERT JUMPDEST PUSH2 0x1AEE DUP8 DUP3 CALLDATALOAD PUSH1 0x20 DUP5 ADD PUSH2 0x1859 JUMP JUMPDEST SWAP8 PUSH1 0x20 DUP8 ADD CALLDATALOAD SWAP8 POP PUSH1 0x40 DUP8 ADD CALLDATALOAD SWAP7 PUSH1 0x60 ADD CALLDATALOAD SWAP6 POP SWAP4 POP POP POP POP JUMP JUMPDEST PUSH1 0x0 DUP1 PUSH1 0x0 PUSH1 0x60 DUP5 DUP7 SUB SLT ISZERO PUSH2 0x1B1E JUMPI PUSH1 0x0 DUP1 REVERT JUMPDEST PUSH2 0x1B27 DUP5 PUSH2 0x15D2 JUMP JUMPDEST SWAP3 POP PUSH1 0x20 DUP5 ADD CALLDATALOAD PUSH1 0x1 PUSH1 0x1 PUSH1 0x40 SHL SUB DUP1 DUP3 GT ISZERO PUSH2 0x1B43 JUMPI PUSH1 0x0 DUP1 REVERT JUMPDEST PUSH2 0x1B4F DUP8 DUP4 DUP9 ADD PUSH2 0x17EA JUMP JUMPDEST SWAP4 POP PUSH1 0x40 DUP7 ADD CALLDATALOAD SWAP2 POP DUP1 DUP3 GT ISZERO PUSH2 0x1B65 JUMPI PUSH1 0x0 DUP1 REVERT JUMPDEST POP PUSH2 0x1B72 DUP7 DUP3 DUP8 ADD PUSH2 0x17EA JUMP JUMPDEST SWAP2 POP POP SWAP3 POP SWAP3 POP SWAP3 JUMP JUMPDEST PUSH1 0x0 DUP1 PUSH1 0x40 DUP4 DUP6 SUB SLT ISZERO PUSH2 0x1B8F JUMPI PUSH1 0x0 DUP1 REVERT JUMPDEST PUSH2 0x1B98 DUP4 PUSH2 0x15D2 JUMP JUMPDEST SWAP2 POP PUSH1 0x20 DUP4 ADD CALLDATALOAD DUP1 ISZERO ISZERO DUP2 EQ PUSH2 0x1BAD JUMPI PUSH1 0x0 DUP1 REVERT JUMPDEST DUP1 SWAP2 POP POP SWAP3 POP SWAP3 SWAP1 POP JUMP JUMPDEST PUSH1 0x0 DUP1 PUSH1 0x40 DUP4 DUP6 SUB SLT ISZERO PUSH2 0x1BCB JUMPI PUSH1 0x0 DUP1 REVERT JUMPDEST PUSH2 0x1BD4 DUP4 PUSH2 0x15D2 JUMP JUMPDEST SWAP2 POP PUSH2 0x1BE2 PUSH1 0x20 DUP5 ADD PUSH2 0x15D2 JUMP JUMPDEST SWAP1 POP SWAP3 POP SWAP3 SWAP1 POP JUMP JUMPDEST PUSH1 0x0 DUP1 PUSH1 0x0 DUP1 PUSH1 0x0 PUSH1 0xA0 DUP7 DUP9 SUB SLT ISZERO PUSH2 0x1C03 JUMPI PUSH1 0x0 DUP1 REVERT JUMPDEST PUSH2 0x1C0C DUP7 PUSH2 0x15D2 JUMP JUMPDEST SWAP5 POP PUSH2 0x1C1A PUSH1 0x20 DUP8 ADD PUSH2 0x15D2 JUMP JUMPDEST SWAP4 POP PUSH1 0x40 DUP7 ADD CALLDATALOAD SWAP3 POP PUSH1 0x60 DUP7 ADD CALLDATALOAD SWAP2 POP PUSH1 0x80 DUP7 ADD CALLDATALOAD PUSH1 0x1 PUSH1 0x1 PUSH1 0x40 SHL SUB DUP2 GT ISZERO PUSH2 0x1C43 JUMPI PUSH1 0x0 DUP1 REVERT JUMPDEST PUSH2 0x196C DUP9 DUP3 DUP10 ADD PUSH2 0x18B0 JUMP JUMPDEST PUSH1 0x0 DUP1 PUSH1 0x0 PUSH1 0x60 DUP5 DUP7 SUB SLT ISZERO PUSH2 0x1C64 JUMPI PUSH1 0x0 DUP1 REVERT JUMPDEST PUSH2 0x1C6D DUP5 PUSH2 0x15D2 JUMP JUMPDEST SWAP6 PUSH1 0x20 DUP6 ADD CALLDATALOAD SWAP6 POP PUSH1 0x40 SWAP1 SWAP5 ADD CALLDATALOAD SWAP4 SWAP3 POP POP POP JUMP JUMPDEST PUSH1 0x1 DUP2 DUP2 SHR SWAP1 DUP3 AND DUP1 PUSH2 0x1C96 JUMPI PUSH1 0x7F DUP3 AND SWAP2 POP JUMPDEST PUSH1 0x20 DUP3 LT DUP2 SUB PUSH2 0x1CB6 JUMPI PUSH4 0x4E487B71 PUSH1 0xE0 SHL PUSH1 0x0 MSTORE PUSH1 0x22 PUSH1 0x4 MSTORE PUSH1 0x24 PUSH1 0x0 REVERT JUMPDEST POP SWAP2 SWAP1 POP JUMP JUMPDEST PUSH4 0x4E487B71 PUSH1 0xE0 SHL PUSH1 0x0 MSTORE PUSH1 0x32 PUSH1 0x4 MSTORE PUSH1 0x24 PUSH1 0x0 REVERT JUMPDEST PUSH4 0x4E487B71 PUSH1 0xE0 SHL PUSH1 0x0 MSTORE PUSH1 0x11 PUSH1 0x4 MSTORE PUSH1 0x24 PUSH1 0x0 REVERT JUMPDEST PUSH1 0x0 DUP3 PUSH2 0x1D05 JUMPI PUSH4 0x4E487B71 PUSH1 0xE0 SHL PUSH1 0x0 MSTORE PUSH1 0x12 PUSH1 0x4 MSTORE PUSH1 0x24 PUSH1 0x0 REVERT JUMPDEST POP DIV SWAP1 JUMP JUMPDEST PUSH1 0x1F DUP3 GT ISZERO PUSH2 0xA78 JUMPI PUSH1 0x0 DUP2 PUSH1 0x0 MSTORE PUSH1 0x20 PUSH1 0x0 KECCAK256 PUSH1 0x1F DUP6 ADD PUSH1 0x5 SHR DUP2 ADD PUSH1 0x20 DUP7 LT ISZERO PUSH2 0x1D33 JUMPI POP DUP1 JUMPDEST PUSH1 0x1F DUP6 ADD PUSH1 0x5 SHR DUP3 ADD SWAP2 POP JUMPDEST DUP2 DUP2 LT ISZERO PUSH2 0x6A3 JUMPI DUP3 DUP2 SSTORE PUSH1 0x1 ADD PUSH2 0x1D3F JUMP JUMPDEST DUP2 MLOAD PUSH1 0x1 PUSH1 0x1 PUSH1 0x40 SHL SUB DUP2 GT ISZERO PUSH2 0x1D6B JUMPI PUSH2 0x1D6B PUSH2 0x1781 JUMP JUMPDEST PUSH2 0x1D7F DUP2 PUSH2 0x1D79 DUP5 SLOAD PUSH2 0x1C82 JUMP JUMPDEST DUP5 PUSH2 0x1D0A JUMP JUMPDEST PUSH1 0x20 DUP1 PUSH1 0x1F DUP4 GT PUSH1 0x1 DUP2 EQ PUSH2 0x1DB4 JUMPI PUSH1 0x0 DUP5 ISZERO PUSH2 0x1D9C JUMPI POP DUP6 DUP4 ADD MLOAD JUMPDEST PUSH1 0x0 NOT PUSH1 0x3 DUP7 SWAP1 SHL SHR NOT AND PUSH1 0x1 DUP6 SWAP1 SHL OR DUP6 SSTORE PUSH2 0x6A3 JUMP JUMPDEST PUSH1 0x0 DUP6 DUP2 MSTORE PUSH1 0x20 DUP2 KECCAK256 PUSH1 0x1F NOT DUP7 AND SWAP2 JUMPDEST DUP3 DUP2 LT ISZERO PUSH2 0x1DE3 JUMPI DUP9 DUP7 ADD MLOAD DUP3 SSTORE SWAP5 DUP5 ADD SWAP5 PUSH1 0x1 SWAP1 SWAP2 ADD SWAP1 DUP5 ADD PUSH2 0x1DC4 JUMP JUMPDEST POP DUP6 DUP3 LT ISZERO PUSH2 0x1E01 JUMPI DUP8 DUP6 ADD MLOAD PUSH1 0x0 NOT PUSH1 0x3 DUP9 SWAP1 SHL PUSH1 0xF8 AND SHR NOT AND DUP2 SSTORE JUMPDEST POP POP POP POP POP PUSH1 0x1 SWAP1 DUP2 SHL ADD SWAP1 SSTORE POP JUMP JUMPDEST PUSH1 0x0 PUSH1 0x1 DUP3 ADD PUSH2 0x1E23 JUMPI PUSH2 0x1E23 PUSH2 0x1CD2 JUMP JUMPDEST POP PUSH1 0x1 ADD SWAP1 JUMP JUMPDEST PUSH1 0x4 DUP2 LT PUSH2 0x1E3A JUMPI PUSH2 0x1E3A PUSH2 0x1684 JUMP JUMPDEST SWAP1 MSTORE JUMP JUMPDEST PUSH1 0x0 DUP3 DUP3 MLOAD DUP1 DUP6 MSTORE PUSH1 0x20 DUP1 DUP7 ADD SWAP6 POP PUSH1 0x20 DUP3 PUSH1 0x5 SHL DUP5 ADD ADD PUSH1 0x20 DUP7 ADD PUSH1 0x0 JUMPDEST DUP5 DUP2 LT ISZERO PUSH2 0x1E8B JUMPI PUSH1 0x1F NOT DUP7 DUP5 SUB ADD DUP10 MSTORE PUSH2 0x1E79 DUP4 DUP4 MLOAD PUSH2 0x169A JUMP JUMPDEST SWAP9 DUP5 ADD SWAP9 SWAP3 POP SWAP1 DUP4 ADD SWAP1 PUSH1 0x1 ADD PUSH2 0x1E5D JUMP JUMPDEST POP SWAP1 SWAP8 SWAP7 POP POP POP POP POP POP POP JUMP JUMPDEST PUSH1 0x80 DUP2 MSTORE PUSH2 0x1EB2 PUSH1 0x80 DUP3 ADD DUP4 MLOAD PUSH1 0x1 PUSH1 0x1 PUSH1 0x40 SHL SUB AND SWAP1 MSTORE JUMP JUMPDEST PUSH1 0x0 PUSH1 0x20 DUP4 ADD MLOAD PUSH2 0x1ECE PUSH1 0xA0 DUP5 ADD DUP3 PUSH1 0x1 PUSH1 0x1 PUSH1 0x40 SHL SUB AND SWAP1 MSTORE JUMP JUMPDEST POP PUSH1 0x40 DUP4 ADD MLOAD PUSH1 0x1 PUSH1 0x1 PUSH1 0x40 SHL SUB SWAP1 DUP2 AND PUSH1 0xC0 DUP5 ADD MSTORE PUSH1 0x60 DUP5 ADD MLOAD AND PUSH1 0xE0 DUP4 ADD MSTORE PUSH1 0x80 DUP4 ADD MLOAD PUSH1 0x1 PUSH1 0x1 PUSH1 0xA0 SHL SUB DUP2 AND PUSH2 0x100 DUP1 DUP6 ADD SWAP2 SWAP1 SWAP2 MSTORE PUSH1 0xA0 DUP6 ADD MLOAD SWAP2 POP PUSH2 0x120 PUSH2 0x1F26 DUP2 DUP7 ADD DUP5 PUSH1 0x1 PUSH1 0x1 PUSH1 0x40 SHL SUB AND SWAP1 MSTORE JUMP JUMPDEST PUSH1 0xC0 DUP7 ADD MLOAD SWAP3 POP PUSH2 0x140 PUSH2 0x1F3C DUP2 DUP8 ADD DUP6 PUSH2 0x1E2A JUMP JUMPDEST PUSH1 0xE0 DUP8 ADD MLOAD ISZERO ISZERO PUSH2 0x160 DUP8 ADD MSTORE DUP3 DUP8 ADD MLOAD PUSH2 0x180 DUP8 ADD SWAP2 SWAP1 SWAP2 MSTORE SWAP3 POP PUSH2 0x1F66 PUSH2 0x1C0 DUP7 ADD DUP5 PUSH2 0x1E3E JUMP JUMPDEST SWAP1 DUP7 ADD MLOAD DUP6 DUP3 SUB PUSH1 0x7F NOT ADD PUSH2 0x1A0 DUP8 ADD MSTORE SWAP1 SWAP3 POP SWAP1 POP PUSH2 0x1F86 DUP3 DUP3 PUSH2 0x169A JUMP JUMPDEST SWAP2 POP POP DUP3 DUP2 SUB PUSH1 0x20 DUP5 ADD MSTORE PUSH2 0x1F9F DUP2 PUSH1 0x0 DUP2 MSTORE PUSH1 0x20 ADD SWAP1 JUMP JUMPDEST DUP4 DUP2 SUB PUSH1 0x40 DUP6 ADD MSTORE PUSH1 0x0 DUP2 MSTORE SWAP1 POP PUSH1 0x20 DUP2 ADD DUP4 DUP2 SUB PUSH1 0x60 DUP6 ADD MSTORE PUSH1 0x0 DUP2 MSTORE SWAP1 POP PUSH1 0x20 DUP2 ADD SWAP5 SWAP4 POP POP POP POP JUMP JUMPDEST PUSH1 0x0 PUSH1 0x20 DUP3 DUP5 SUB SLT ISZERO PUSH2 0x1FDD JUMPI PUSH1 0x0 DUP1 REVERT JUMPDEST DUP2 MLOAD PUSH2 0x164B DUP2 PUSH2 0x1652 JUMP JUMPDEST PUSH1 0x1 PUSH1 0x1 PUSH1 0xA0 SHL SUB DUP7 DUP2 AND DUP3 MSTORE DUP6 AND PUSH1 0x20 DUP3 ADD MSTORE PUSH1 0x40 DUP2 ADD DUP5 SWAP1 MSTORE PUSH1 0x60 DUP2 ADD DUP4 SWAP1 MSTORE PUSH1 0xA0 PUSH1 0x80 DUP3 ADD DUP2 SWAP1 MSTORE PUSH1 0x0 SWAP1 PUSH2 0x2022 SWAP1 DUP4 ADD DUP5 PUSH2 0x169A JUMP JUMPDEST SWAP8 SWAP7 POP POP POP POP POP POP POP JUMP JUMPDEST PUSH1 0x0 PUSH1 0x20 DUP3 DUP5 SUB SLT ISZERO PUSH2 0x203F JUMPI PUSH1 0x0 DUP1 REVERT JUMPDEST DUP2 MLOAD PUSH2 0x164B DUP2 PUSH2 0x1618 JUMP JUMPDEST PUSH1 0x1 PUSH1 0x1 PUSH1 0xA0 SHL SUB DUP7 DUP2 AND DUP3 MSTORE DUP6 AND PUSH1 0x20 DUP3 ADD MSTORE PUSH1 0xA0 PUSH1 0x40 DUP3 ADD DUP2 SWAP1 MSTORE PUSH1 0x0 SWAP1 PUSH2 0x2076 SWAP1 DUP4 ADD DUP7 PUSH2 0x1A53 JUMP JUMPDEST DUP3 DUP2 SUB PUSH1 0x60 DUP5 ADD MSTORE PUSH2 0x2088 DUP2 DUP7 PUSH2 0x1A53 JUMP JUMPDEST SWAP1 POP DUP3 DUP2 SUB PUSH1 0x80 DUP5 ADD MSTORE PUSH2 0x209C DUP2 DUP6 PUSH2 0x169A JUMP JUMPDEST SWAP9 SWAP8 POP POP POP POP POP POP POP POP JUMP JUMPDEST DUP1 DUP3 ADD DUP1 DUP3 GT ISZERO PUSH2 0x414 JUMPI PUSH2 0x414 PUSH2 0x1CD2 JUMP JUMPDEST PUSH1 0x40 DUP2 MSTORE PUSH1 0x0 PUSH2 0x20CE PUSH1 0x40 DUP4 ADD DUP6 PUSH2 0x1A53 JUMP JUMPDEST DUP3 DUP2 SUB PUSH1 0x20 DUP5 ADD MSTORE PUSH2 0x20E0 DUP2 DUP6 PUSH2 0x1A53 JUMP JUMPDEST SWAP6 SWAP5 POP POP POP POP POP JUMP INVALID LOG2 PUSH5 0x6970667358 0x22 SLT KECCAK256 ISZERO GASLIMIT 0xF9 0xEE MSTORE 0x2C PUSH16 0xB67E5FA0AFB5BB88EBD3AEF2F3F943B6 0xB6 0xC OR GAS PUSH17 0x335D2E9B64736F6C634300081900330000 "},"gasEstimates":{"creation":{"codeDepositCost":"1695800","executionCost":"infinite","totalCost":"infinite"},"external":{"attestResearcherVerification(address)":"infinite","balanceOf(address,uint256)":"2660","balanceOfBatch(address[],uint256[])":"infinite","burn(address,uint256,uint256)":"infinite","burnBatch(address,uint256[],uint256[])":"infinite","createResearch(string,uint256,uint256,uint256)":"infinite","isApprovedForAll(address,address)":"infinite","owner()":"2409","paused()":"2410","renounceOwnership()":"infinite","researchById(uint256)":"infinite","researchRequest(address,uint256)":"infinite","researcherVerificationAttestations(address)":"2691","safeBatchTransferFrom(address,address,uint256[],uint256[],bytes)":"infinite","safeTransferFrom(address,address,uint256,uint256,bytes)":"infinite","schemaId()":"2444","setApprovalForAll(address,bool)":"26704","setSPInstance(address)":"26846","setSchemaID(uint64)":"26808","spInstance()":"2404","supportsInterface(bytes4)":"578","transferOwnership(address)":"28424","uri(uint256)":"infinite","verifiedResearchers(address)":"2576","verifyResearcher(address)":"infinite"},"internal":{"_update(address,address,uint256[] memory,uint256[] memory)":"infinite"}},"methodIdentifiers":{"attestResearcherVerification(address)":"85235d3d","balanceOf(address,uint256)":"00fdd58e","balanceOfBatch(address[],uint256[])":"4e1273f4","burn(address,uint256,uint256)":"f5298aca","burnBatch(address,uint256[],uint256[])":"6b20c454","createResearch(string,uint256,uint256,uint256)":"68e2cea8","isApprovedForAll(address,address)":"e985e9c5","owner()":"8da5cb5b","paused()":"5c975abb","renounceOwnership()":"715018a6","researchById(uint256)":"c2a756ca","researchRequest(address,uint256)":"08f3e371","researcherVerificationAttestations(address)":"8f192180","safeBatchTransferFrom(address,address,uint256[],uint256[],bytes)":"2eb2c2d6","safeTransferFrom(address,address,uint256,uint256,bytes)":"f242432a","schemaId()":"075b1a09","setApprovalForAll(address,bool)":"a22cb465","setSPInstance(address)":"8e9d660f","setSchemaID(uint64)":"05ca8ee3","spInstance()":"a8c5dc33","supportsInterface(bytes4)":"01ffc9a7","transferOwnership(address)":"f2fde38b","uri(uint256)":"0e89341c","verifiedResearchers(address)":"36f58e5f","verifyResearcher(address)":"73fd653d"}},"storageLayout":{"storage":[{"astId":957,"contract":"src/Scientify4.sol:Scientify4","label":"_balances","offset":0,"slot":"0","type":"t_mapping(t_uint256,t_mapping(t_address,t_uint256))"},{"astId":963,"contract":"src/Scientify4.sol:Scientify4","label":"_operatorApprovals","offset":0,"slot":"1","type":"t_mapping(t_address,t_mapping(t_address,t_bool))"},{"astId":965,"contract":"src/Scientify4.sol:Scientify4","label":"_uri","offset":0,"slot":"2","type":"t_string_storage"},{"astId":639,"contract":"src/Scientify4.sol:Scientify4","label":"_owner","offset":0,"slot":"3","type":"t_address"},{"astId":2566,"contract":"src/Scientify4.sol:Scientify4","label":"_paused","offset":20,"slot":"3","type":"t_bool"},{"astId":3908,"contract":"src/Scientify4.sol:Scientify4","label":"researchNumber","offset":0,"slot":"4","type":"t_uint256"},{"astId":3938,"contract":"src/Scientify4.sol:Scientify4","label":"verifiedResearchers","offset":0,"slot":"5","type":"t_mapping(t_address,t_bool)"},{"astId":3944,"contract":"src/Scientify4.sol:Scientify4","label":"researchRequest","offset":0,"slot":"6","type":"t_mapping(t_address,t_array(t_struct(Research)3934_storage)dyn_storage)"},{"astId":3949,"contract":"src/Scientify4.sol:Scientify4","label":"researchById","offset":0,"slot":"7","type":"t_mapping(t_uint256,t_struct(Research)3934_storage)"},{"astId":3953,"contract":"src/Scientify4.sol:Scientify4","label":"repository","offset":0,"slot":"8","type":"t_mapping(t_uint256,t_string_storage)"},{"astId":3957,"contract":"src/Scientify4.sol:Scientify4","label":"researcherVerificationAttestations","offset":0,"slot":"9","type":"t_mapping(t_address,t_uint64)"},{"astId":3960,"contract":"src/Scientify4.sol:Scientify4","label":"spInstance","offset":0,"slot":"10","type":"t_contract(ISP)495"},{"astId":3962,"contract":"src/Scientify4.sol:Scientify4","label":"schemaId","offset":20,"slot":"10","type":"t_uint64"}],"types":{"t_address":{"encoding":"inplace","label":"address","numberOfBytes":"20"},"t_array(t_struct(Research)3934_storage)dyn_storage":{"base":"t_struct(Research)3934_storage","encoding":"dynamic_array","label":"struct Scientify4.Research[]","numberOfBytes":"32"},"t_bool":{"encoding":"inplace","label":"bool","numberOfBytes":"1"},"t_contract(ISP)495":{"encoding":"inplace","label":"contract ISP","numberOfBytes":"20"},"t_enum(ResearchState)3912":{"encoding":"inplace","label":"enum Scientify4.ResearchState","numberOfBytes":"1"},"t_mapping(t_address,t_array(t_struct(Research)3934_storage)dyn_storage)":{"encoding":"mapping","key":"t_address","label":"mapping(address => struct Scientify4.Research[])","numberOfBytes":"32","value":"t_array(t_struct(Research)3934_storage)dyn_storage"},"t_mapping(t_address,t_bool)":{"encoding":"mapping","key":"t_address","label":"mapping(address => bool)","numberOfBytes":"32","value":"t_bool"},"t_mapping(t_address,t_mapping(t_address,t_bool))":{"encoding":"mapping","key":"t_address","label":"mapping(address => mapping(address => bool))","numberOfBytes":"32","value":"t_mapping(t_address,t_bool)"},"t_mapping(t_address,t_uint256)":{"encoding":"mapping","key":"t_address","label":"mapping(address => uint256)","numberOfBytes":"32","value":"t_uint256"},"t_mapping(t_address,t_uint64)":{"encoding":"mapping","key":"t_address","label":"mapping(address => uint64)","numberOfBytes":"32","value":"t_uint64"},"t_mapping(t_uint256,t_mapping(t_address,t_uint256))":{"encoding":"mapping","key":"t_uint256","label":"mapping(uint256 => mapping(address => uint256))","numberOfBytes":"32","value":"t_mapping(t_address,t_uint256)"},"t_mapping(t_uint256,t_string_storage)":{"encoding":"mapping","key":"t_uint256","label":"mapping(uint256 => string)","numberOfBytes":"32","value":"t_string_storage"},"t_mapping(t_uint256,t_struct(Research)3934_storage)":{"encoding":"mapping","key":"t_uint256","label":"mapping(uint256 => struct Scientify4.Research)","numberOfBytes":"32","value":"t_struct(Research)3934_storage"},"t_string_storage":{"encoding":"bytes","label":"string","numberOfBytes":"32"},"t_struct(Research)3934_storage":{"encoding":"inplace","label":"struct Scientify4.Research","members":[{"astId":3914,"contract":"src/Scientify4.sol:Scientify4","label":"id","offset":0,"slot":"0","type":"t_uint256"},{"astId":3917,"contract":"src/Scientify4.sol:Scientify4","label":"state","offset":0,"slot":"1","type":"t_enum(ResearchState)3912"},{"astId":3919,"contract":"src/Scientify4.sol:Scientify4","label":"investment","offset":0,"slot":"2","type":"t_uint256"},{"astId":3921,"contract":"src/Scientify4.sol:Scientify4","label":"articlePrice","offset":0,"slot":"3","type":"t_uint256"},{"astId":3923,"contract":"src/Scientify4.sol:Scientify4","label":"sharePrice","offset":0,"slot":"4","type":"t_uint256"},{"astId":3925,"contract":"src/Scientify4.sol:Scientify4","label":"articlePriceIncreaseRate","offset":0,"slot":"5","type":"t_uint256"},{"astId":3927,"contract":"src/Scientify4.sol:Scientify4","label":"funding","offset":0,"slot":"6","type":"t_uint256"},{"astId":3929,"contract":"src/Scientify4.sol:Scientify4","label":"profit","offset":0,"slot":"7","type":"t_uint256"},{"astId":3931,"contract":"src/Scientify4.sol:Scientify4","label":"owner","offset":0,"slot":"8","type":"t_address"},{"astId":3933,"contract":"src/Scientify4.sol:Scientify4","label":"documentCID","offset":0,"slot":"9","type":"t_string_storage"}],"numberOfBytes":"320"},"t_uint256":{"encoding":"inplace","label":"uint256","numberOfBytes":"32"},"t_uint64":{"encoding":"inplace","label":"uint64","numberOfBytes":"8"}}},"userdoc":{"kind":"user","methods":{},"version":1}}}}