{"src/Scientify.sol":{"Scientify":{"abi":[{"inputs":[],"stateMutability":"nonpayable","type":"constructor"},{"inputs":[{"internalType":"address","name":"sender","type":"address"},{"internalType":"uint256","name":"balance","type":"uint256"},{"internalType":"uint256","name":"needed","type":"uint256"},{"internalType":"uint256","name":"tokenId","type":"uint256"}],"name":"ERC1155InsufficientBalance","type":"error"},{"inputs":[{"internalType":"address","name":"approver","type":"address"}],"name":"ERC1155InvalidApprover","type":"error"},{"inputs":[{"internalType":"uint256","name":"idsLength","type":"uint256"},{"internalType":"uint256","name":"valuesLength","type":"uint256"}],"name":"ERC1155InvalidArrayLength","type":"error"},{"inputs":[{"internalType":"address","name":"operator","type":"address"}],"name":"ERC1155InvalidOperator","type":"error"},{"inputs":[{"internalType":"address","name":"receiver","type":"address"}],"name":"ERC1155InvalidReceiver","type":"error"},{"inputs":[{"internalType":"address","name":"sender","type":"address"}],"name":"ERC1155InvalidSender","type":"error"},{"inputs":[{"internalType":"address","name":"operator","type":"address"},{"internalType":"address","name":"owner","type":"address"}],"name":"ERC1155MissingApprovalForAll","type":"error"},{"inputs":[],"name":"EnforcedPause","type":"error"},{"inputs":[],"name":"ExpectedPause","type":"error"},{"inputs":[],"name":"NoTokenBalance","type":"error"},{"inputs":[],"name":"NotAuthenticated","type":"error"},{"inputs":[],"name":"NotEnoughValue","type":"error"},{"inputs":[],"name":"NotLiquidable","type":"error"},{"inputs":[{"internalType":"address","name":"owner","type":"address"}],"name":"OwnableInvalidOwner","type":"error"},{"inputs":[{"internalType":"address","name":"account","type":"address"}],"name":"OwnableUnauthorizedAccount","type":"error"},{"inputs":[],"name":"PaymentFailed","type":"error"},{"inputs":[],"name":"ResearchCap","type":"error"},{"anonymous":false,"inputs":[{"indexed":true,"internalType":"address","name":"account","type":"address"},{"indexed":true,"internalType":"address","name":"operator","type":"address"},{"indexed":false,"internalType":"bool","name":"approved","type":"bool"}],"name":"ApprovalForAll","type":"event"},{"anonymous":false,"inputs":[{"indexed":false,"internalType":"address","name":"author","type":"address"},{"indexed":false,"internalType":"uint64","name":"attestationId","type":"uint64"},{"indexed":false,"internalType":"string","name":"documentHash","type":"string"}],"name":"AuthorshipAttested","type":"event"},{"anonymous":false,"inputs":[{"indexed":true,"internalType":"address","name":"previousOwner","type":"address"},{"indexed":true,"internalType":"address","name":"newOwner","type":"address"}],"name":"OwnershipTransferred","type":"event"},{"anonymous":false,"inputs":[{"indexed":false,"internalType":"address","name":"account","type":"address"}],"name":"Paused","type":"event"},{"anonymous":false,"inputs":[{"indexed":true,"internalType":"address","name":"operator","type":"address"},{"indexed":true,"internalType":"address","name":"from","type":"address"},{"indexed":true,"internalType":"address","name":"to","type":"address"},{"indexed":false,"internalType":"uint256[]","name":"ids","type":"uint256[]"},{"indexed":false,"internalType":"uint256[]","name":"values","type":"uint256[]"}],"name":"TransferBatch","type":"event"},{"anonymous":false,"inputs":[{"indexed":true,"internalType":"address","name":"operator","type":"address"},{"indexed":true,"internalType":"address","name":"from","type":"address"},{"indexed":true,"internalType":"address","name":"to","type":"address"},{"indexed":false,"internalType":"uint256","name":"id","type":"uint256"},{"indexed":false,"internalType":"uint256","name":"value","type":"uint256"}],"name":"TransferSingle","type":"event"},{"anonymous":false,"inputs":[{"indexed":false,"internalType":"string","name":"value","type":"string"},{"indexed":true,"internalType":"uint256","name":"id","type":"uint256"}],"name":"URI","type":"event"},{"anonymous":false,"inputs":[{"indexed":false,"internalType":"address","name":"account","type":"address"}],"name":"Unpaused","type":"event"},{"inputs":[{"internalType":"uint256","name":"researchId","type":"uint256"},{"internalType":"string","name":"documentHash","type":"string"}],"name":"attestAuthorship","outputs":[{"internalType":"uint64","name":"","type":"uint64"}],"stateMutability":"nonpayable","type":"function"},{"inputs":[{"internalType":"string","name":"proof","type":"string"}],"name":"authenticateUser","outputs":[],"stateMutability":"nonpayable","type":"function"},{"inputs":[{"internalType":"string","name":"","type":"string"}],"name":"authenticatedResearchers","outputs":[{"internalType":"address","name":"","type":"address"}],"stateMutability":"view","type":"function"},{"inputs":[{"internalType":"address","name":"account","type":"address"},{"internalType":"uint256","name":"id","type":"uint256"}],"name":"balanceOf","outputs":[{"internalType":"uint256","name":"","type":"uint256"}],"stateMutability":"view","type":"function"},{"inputs":[{"internalType":"address[]","name":"accounts","type":"address[]"},{"internalType":"uint256[]","name":"ids","type":"uint256[]"}],"name":"balanceOfBatch","outputs":[{"internalType":"uint256[]","name":"","type":"uint256[]"}],"stateMutability":"view","type":"function"},{"inputs":[{"internalType":"address","name":"account","type":"address"},{"internalType":"uint256","name":"id","type":"uint256"},{"internalType":"uint256","name":"value","type":"uint256"}],"name":"burn","outputs":[],"stateMutability":"nonpayable","type":"function"},{"inputs":[{"internalType":"address","name":"account","type":"address"},{"internalType":"uint256[]","name":"ids","type":"uint256[]"},{"internalType":"uint256[]","name":"values","type":"uint256[]"}],"name":"burnBatch","outputs":[],"stateMutability":"nonpayable","type":"function"},{"inputs":[{"internalType":"string","name":"authentication","type":"string"},{"internalType":"string","name":"repo","type":"string"},{"internalType":"uint256","name":"invest","type":"uint256"},{"internalType":"uint256","name":"articlePrice","type":"uint256"},{"internalType":"uint256","name":"articlePriceIncreaseRate","type":"uint256"}],"name":"createResearch","outputs":[],"stateMutability":"nonpayable","type":"function"},{"inputs":[{"internalType":"uint256","name":"id","type":"uint256"},{"internalType":"uint256","name":"amount","type":"uint256"}],"name":"fundResearch","outputs":[],"stateMutability":"payable","type":"function"},{"inputs":[{"internalType":"address","name":"account","type":"address"},{"internalType":"address","name":"operator","type":"address"}],"name":"isApprovedForAll","outputs":[{"internalType":"bool","name":"","type":"bool"}],"stateMutability":"view","type":"function"},{"inputs":[],"name":"owner","outputs":[{"internalType":"address","name":"","type":"address"}],"stateMutability":"view","type":"function"},{"inputs":[],"name":"pause","outputs":[],"stateMutability":"nonpayable","type":"function"},{"inputs":[],"name":"paused","outputs":[{"internalType":"bool","name":"","type":"bool"}],"stateMutability":"view","type":"function"},{"inputs":[{"internalType":"uint256","name":"id","type":"uint256"}],"name":"readArticle","outputs":[{"internalType":"string","name":"repo","type":"string"}],"stateMutability":"payable","type":"function"},{"inputs":[{"internalType":"uint256","name":"id","type":"uint256"}],"name":"redeemToken","outputs":[],"stateMutability":"payable","type":"function"},{"inputs":[],"name":"renounceOwnership","outputs":[],"stateMutability":"nonpayable","type":"function"},{"inputs":[{"internalType":"uint256","name":"","type":"uint256"}],"name":"researchById","outputs":[{"internalType":"uint256","name":"id","type":"uint256"},{"internalType":"enum Scientify.ResearchState","name":"state","type":"uint8"},{"internalType":"uint256","name":"investiment","type":"uint256"},{"internalType":"uint256","name":"articlePrice","type":"uint256"},{"internalType":"uint256","name":"sharePrice","type":"uint256"},{"internalType":"uint256","name":"articlePriceIncreaseRate","type":"uint256"},{"internalType":"uint256","name":"funding","type":"uint256"},{"internalType":"uint256","name":"profit","type":"uint256"},{"internalType":"address","name":"owner","type":"address"}],"stateMutability":"view","type":"function"},{"inputs":[{"internalType":"uint256","name":"","type":"uint256"}],"name":"researchOwner","outputs":[{"internalType":"address","name":"","type":"address"}],"stateMutability":"view","type":"function"},{"inputs":[{"internalType":"address","name":"","type":"address"},{"internalType":"uint256","name":"","type":"uint256"}],"name":"researchRequest","outputs":[{"internalType":"uint256","name":"id","type":"uint256"},{"internalType":"enum Scientify.ResearchState","name":"state","type":"uint8"},{"internalType":"uint256","name":"investiment","type":"uint256"},{"internalType":"uint256","name":"articlePrice","type":"uint256"},{"internalType":"uint256","name":"sharePrice","type":"uint256"},{"internalType":"uint256","name":"articlePriceIncreaseRate","type":"uint256"},{"internalType":"uint256","name":"funding","type":"uint256"},{"internalType":"uint256","name":"profit","type":"uint256"},{"internalType":"address","name":"owner","type":"address"}],"stateMutability":"view","type":"function"},{"inputs":[{"internalType":"address","name":"from","type":"address"},{"internalType":"address","name":"to","type":"address"},{"internalType":"uint256[]","name":"ids","type":"uint256[]"},{"internalType":"uint256[]","name":"values","type":"uint256[]"},{"internalType":"bytes","name":"data","type":"bytes"}],"name":"safeBatchTransferFrom","outputs":[],"stateMutability":"nonpayable","type":"function"},{"inputs":[{"internalType":"address","name":"from","type":"address"},{"internalType":"address","name":"to","type":"address"},{"internalType":"uint256","name":"id","type":"uint256"},{"internalType":"uint256","name":"value","type":"uint256"},{"internalType":"bytes","name":"data","type":"bytes"}],"name":"safeTransferFrom","outputs":[],"stateMutability":"nonpayable","type":"function"},{"inputs":[],"name":"schemaId","outputs":[{"internalType":"uint64","name":"","type":"uint64"}],"stateMutability":"view","type":"function"},{"inputs":[{"internalType":"address","name":"operator","type":"address"},{"internalType":"bool","name":"approved","type":"bool"}],"name":"setApprovalForAll","outputs":[],"stateMutability":"nonpayable","type":"function"},{"inputs":[{"internalType":"address","name":"instance","type":"address"}],"name":"setSPInstance","outputs":[],"stateMutability":"nonpayable","type":"function"},{"inputs":[{"internalType":"uint64","name":"schemaId_","type":"uint64"}],"name":"setSchemaID","outputs":[],"stateMutability":"nonpayable","type":"function"},{"inputs":[{"internalType":"string","name":"newuri","type":"string"}],"name":"setURI","outputs":[],"stateMutability":"nonpayable","type":"function"},{"inputs":[],"name":"spInstance","outputs":[{"internalType":"contract ISP","name":"","type":"address"}],"stateMutability":"view","type":"function"},{"inputs":[{"internalType":"bytes4","name":"interfaceId","type":"bytes4"}],"name":"supportsInterface","outputs":[{"internalType":"bool","name":"","type":"bool"}],"stateMutability":"view","type":"function"},{"inputs":[{"internalType":"address","name":"newOwner","type":"address"}],"name":"transferOwnership","outputs":[],"stateMutability":"nonpayable","type":"function"},{"inputs":[],"name":"unpause","outputs":[],"stateMutability":"nonpayable","type":"function"},{"inputs":[{"internalType":"uint256","name":"","type":"uint256"}],"name":"uri","outputs":[{"internalType":"string","name":"","type":"string"}],"stateMutability":"view","type":"function"}],"devdoc":{"errors":{"ERC1155InsufficientBalance(address,uint256,uint256,uint256)":[{"details":"Indicates an error related to the current `balance` of a `sender`. Used in transfers.","params":{"balance":"Current balance for the interacting account.","needed":"Minimum amount required to perform a transfer.","sender":"Address whose tokens are being transferred.","tokenId":"Identifier number of a token."}}],"ERC1155InvalidApprover(address)":[{"details":"Indicates a failure with the `approver` of a token to be approved. Used in approvals.","params":{"approver":"Address initiating an approval operation."}}],"ERC1155InvalidArrayLength(uint256,uint256)":[{"details":"Indicates an array length mismatch between ids and values in a safeBatchTransferFrom operation. Used in batch transfers.","params":{"idsLength":"Length of the array of token identifiers","valuesLength":"Length of the array of token amounts"}}],"ERC1155InvalidOperator(address)":[{"details":"Indicates a failure with the `operator` to be approved. Used in approvals.","params":{"operator":"Address that may be allowed to operate on tokens without being their owner."}}],"ERC1155InvalidReceiver(address)":[{"details":"Indicates a failure with the token `receiver`. Used in transfers.","params":{"receiver":"Address to which tokens are being transferred."}}],"ERC1155InvalidSender(address)":[{"details":"Indicates a failure with the token `sender`. Used in transfers.","params":{"sender":"Address whose tokens are being transferred."}}],"ERC1155MissingApprovalForAll(address,address)":[{"details":"Indicates a failure with the `operator`’s approval. Used in transfers.","params":{"operator":"Address that may be allowed to operate on tokens without being their owner.","owner":"Address of the current owner of a token."}}],"EnforcedPause()":[{"details":"The operation failed because the contract is paused."}],"ExpectedPause()":[{"details":"The operation failed because the contract is not paused."}],"OwnableInvalidOwner(address)":[{"details":"The owner is not a valid owner account. (eg. `address(0)`)"}],"OwnableUnauthorizedAccount(address)":[{"details":"The caller account is not authorized to perform an operation."}]},"events":{"ApprovalForAll(address,address,bool)":{"details":"Emitted when `account` grants or revokes permission to `operator` to transfer their tokens, according to `approved`."},"Paused(address)":{"details":"Emitted when the pause is triggered by `account`."},"TransferBatch(address,address,address,uint256[],uint256[])":{"details":"Equivalent to multiple {TransferSingle} events, where `operator`, `from` and `to` are the same for all transfers."},"TransferSingle(address,address,address,uint256,uint256)":{"details":"Emitted when `value` amount of tokens of type `id` are transferred from `from` to `to` by `operator`."},"URI(string,uint256)":{"details":"Emitted when the URI for token type `id` changes to `value`, if it is a non-programmatic URI. If an {URI} event was emitted for `id`, the standard https://eips.ethereum.org/EIPS/eip-1155#metadata-extensions[guarantees] that `value` will equal the value returned by {IERC1155MetadataURI-uri}."},"Unpaused(address)":{"details":"Emitted when the pause is lifted by `account`."}},"kind":"dev","methods":{"balanceOf(address,uint256)":{"details":"See {IERC1155-balanceOf}."},"balanceOfBatch(address[],uint256[])":{"details":"See {IERC1155-balanceOfBatch}. Requirements: - `accounts` and `ids` must have the same length."},"isApprovedForAll(address,address)":{"details":"See {IERC1155-isApprovedForAll}."},"owner()":{"details":"Returns the address of the current owner."},"paused()":{"details":"Returns true if the contract is paused, and false otherwise."},"renounceOwnership()":{"details":"Leaves the contract without owner. It will not be possible to call `onlyOwner` functions. Can only be called by the current owner. NOTE: Renouncing ownership will leave the contract without an owner, thereby disabling any functionality that is only available to the owner."},"safeBatchTransferFrom(address,address,uint256[],uint256[],bytes)":{"details":"See {IERC1155-safeBatchTransferFrom}."},"safeTransferFrom(address,address,uint256,uint256,bytes)":{"details":"See {IERC1155-safeTransferFrom}."},"setApprovalForAll(address,bool)":{"details":"See {IERC1155-setApprovalForAll}."},"supportsInterface(bytes4)":{"details":"See {IERC165-supportsInterface}."},"transferOwnership(address)":{"details":"Transfers ownership of the contract to a new account (`newOwner`). Can only be called by the current owner."},"uri(uint256)":{"details":"See {IERC1155MetadataURI-uri}. This implementation returns the same URI for *all* token types. It relies on the token type ID substitution mechanism https://eips.ethereum.org/EIPS/eip-1155#metadata[defined in the EIP]. Clients calling this function must replace the `\\{id\\}` substring with the actual token type ID."}},"version":1},"evm":{"bytecode":{"linkReferences":{},"object":"608060405260016004553480156200001657600080fd5b506040805180820190915260048152634555524b60e01b602082015233906200003f816200008e565b506001600160a01b0381166200006f57604051631e4fbdf760e01b81526000600482015260240160405180910390fd5b6200007a81620000a0565b506003805460ff60a01b1916905562000265565b60026200009c828262000199565b5050565b600380546001600160a01b038381166001600160a01b0319831681179093556040519116919082907f8be0079c531659141344cd1fd0a4f28419497f9722a3daafe3b4186f6b6457e090600090a35050565b634e487b7160e01b600052604160045260246000fd5b600181811c908216806200011d57607f821691505b6020821081036200013e57634e487b7160e01b600052602260045260246000fd5b50919050565b601f82111562000194576000816000526020600020601f850160051c810160208610156200016f5750805b601f850160051c820191505b8181101562000190578281556001016200017b565b5050505b505050565b81516001600160401b03811115620001b557620001b5620000f2565b620001cd81620001c6845462000108565b8462000144565b602080601f831160018114620002055760008415620001ec5750858301515b600019600386901b1c1916600185901b17855562000190565b600085815260208120601f198616915b82811015620002365788860151825594840194600190910190840162000215565b5085821015620002555787850151600019600388901b60f8161c191681555b5050505050600190811b01905550565b6128c580620002756000396000f3fe6080604052600436106101d75760003560e01c80635c975abb11610102578063a22cb46511610095578063e985e9c511610064578063e985e9c514610605578063f242432a14610625578063f2fde38b14610645578063f5298aca1461066557600080fd5b8063a22cb46514610512578063a8c5dc3314610532578063bfc0ee2814610552578063c2a756ca1461059357600080fd5b806374396a29116100d157806374396a29146104ac5780638456cb59146104bf5780638da5cb5b146104d45780638e9d660f146104f257600080fd5b80635c975abb146104455780635f2b4ad3146104645780636b20c45414610477578063715018a61461049757600080fd5b80630e89341c1161017a5780632eb2c2d6116101495780632eb2c2d6146103955780633f4ba83a146103b55780634e1273f4146103ca57806350abac5d146103f757600080fd5b80630e89341c146103085780631616517d146103355780631f919e8d146103555780632795c1cf1461037557600080fd5b806302fe5305116101b657806302fe53051461025457806305ca8ee314610274578063075b1a091461029457806308f3e371146102d357600080fd5b8062fdd58e146101dc578063013054c21461020f57806301ffc9a714610224575b600080fd5b3480156101e857600080fd5b506101fc6101f7366004611c81565b610685565b6040519081526020015b60405180910390f35b61022261021d366004611cab565b6106ad565b005b34801561023057600080fd5b5061024461023f366004611cda565b6107b3565b6040519015158152602001610206565b34801561026057600080fd5b5061022261026f366004611db3565b610803565b34801561028057600080fd5b5061022261028f366004611e04565b610817565b3480156102a057600080fd5b506005546102bb90600160a01b90046001600160401b031681565b6040516001600160401b039091168152602001610206565b3480156102df57600080fd5b506102f36102ee366004611c81565b61084c565b60405161020699989796959493929190611e37565b34801561031457600080fd5b50610328610323366004611cab565b6108c1565b6040516102069190611ee6565b34801561034157600080fd5b506102bb610350366004611ef9565b610955565b34801561036157600080fd5b50610222610370366004611db3565b610b06565b34801561038157600080fd5b50610222610390366004611f3f565b610b49565b3480156103a157600080fd5b506102226103b036600461204f565b610dbf565b3480156103c157600080fd5b50610222610e2b565b3480156103d657600080fd5b506103ea6103e53660046120f8565b610e3d565b60405161020691906121e9565b34801561040357600080fd5b5061042d610412366004611cab565b6009602052600090815260409020546001600160a01b031681565b6040516001600160a01b039091168152602001610206565b34801561045157600080fd5b50600354600160a01b900460ff16610244565b610328610472366004611cab565b610f09565b34801561048357600080fd5b506102226104923660046121fc565b6110d1565b3480156104a357600080fd5b50610222611135565b6102226104ba36600461226f565b611147565b3480156104cb57600080fd5b50610222611279565b3480156104e057600080fd5b506003546001600160a01b031661042d565b3480156104fe57600080fd5b5061022261050d366004612291565b611289565b34801561051e57600080fd5b5061022261052d3660046122ac565b6112b3565b34801561053e57600080fd5b5060055461042d906001600160a01b031681565b34801561055e57600080fd5b5061042d61056d366004611db3565b80516020818301810180516006825292820191909301209152546001600160a01b031681565b34801561059f57600080fd5b506102f36105ae366004611cab565b6008602081905260009182526040909120805460018201546002830154600384015460048501546005860154600687015460078801549790980154959760ff9095169693959294919390926001600160a01b031689565b34801561061157600080fd5b506102446106203660046122e8565b6112c2565b34801561063157600080fd5b5061022261064036600461231b565b6112f0565b34801561065157600080fd5b50610222610660366004612291565b61134f565b34801561067157600080fd5b5061022261068036600461237f565b61138a565b6000818152602081815260408083206001600160a01b03861684529091529020545b92915050565b60008181526008602052604090206002600182015460ff1660028111156106d6576106d6611e21565b146106f457604051634eb60de760e01b815260040160405180910390fd5b60006107003384610685565b90508060000361072357604051633dbd9b6d60e11b815260040160405180910390fd5b61072e33848361138a565b6000336001600160a01b031682846004015461074a91906123c8565b604051600081818185875af1925050503d8060008114610786576040519150601f19603f3d011682016040523d82523d6000602084013e61078b565b606091505b50509050806107ad576040516307a4ced160e51b815260040160405180910390fd5b50505050565b60006001600160e01b03198216636cdb3d1360e11b14806107e457506001600160e01b031982166303a24d0760e21b145b806106a757506301ffc9a760e01b6001600160e01b03198316146106a7565b61080b6113c0565b610814816113ed565b50565b61081f6113c0565b600580546001600160401b03909216600160a01b0267ffffffffffffffff60a01b19909216919091179055565b6007602052816000526040600020818154811061086857600080fd5b600091825260209091206009909102018054600182015460028301546003840154600485015460058601546006870154600788015460089098015496995060ff909516975092959194909391906001600160a01b031689565b6060600280546108d0906123df565b80601f01602080910402602001604051908101604052809291908181526020018280546108fc906123df565b80156109495780601f1061091e57610100808354040283529160200191610949565b820191906000526020600020905b81548152906001019060200180831161092c57829003601f168201915b50505050509050919050565b600061095f6113c0565b604080516001808252818301909252600091816020015b6060815260200190600190039081610976579050506040805133602082015291925001604051602081830303815290604052816000815181106109bb576109bb612419565b6020908102919091018101919091526040805161014081018252600554600160a01b90046001600160401b0316815260009281018390529081018290526060810182905230608082015260a0810182905260c0810182815260200160001515815260200183815260200185604051602001610a369190611ee6565b60408051601f198184030181529181529152600554905163b82916cb60e01b81529192506000916001600160a01b039091169063b82916cb90610a7d90859060040161249d565b6020604051808303816000875af1158015610a9c573d6000803e3d6000fd5b505050506040513d601f19601f82011682018060405250810190610ac091906125cd565b90507fa40237c94acca11bd53ae7ff9f5f7b2ef0fd023096aa108f2a55e63db7cb2782338287604051610af5939291906125ea565b60405180910390a195945050505050565b33600682604051610b179190612626565b90815260405190819003602001902080546001600160a01b03929092166001600160a01b031990921691909117905550565b336001600160a01b0316600686604051610b639190612626565b908152604051908190036020019020546001600160a01b031614610b9a57604051637f52c42d60e11b815260040160405180910390fd5b3360009081526007602052604090205460041015610bcb576040516302e298ed60e61b815260040160405180910390fd5b600060405180610120016040528060046000815480929190610bec90612642565b909155508152602001600081526020018581526020018481526020016305f5e10086610c18919061265b565b8152602080820185905260006040808401829052606084018290523360809094019390935283518152600a90915220909150610c5486826126c5565b50336000908152600760209081526040822080546001818101835591845292829020845160099094020192835590830151828201805485949360ff1990911690836002811115610ca657610ca6611e21565b0217905550604082810151600283810191909155606084015160038401556080840151600484015560a0840151600584015560c0840151600684015560e0840151600784015561010090930151600892830180546001600160a01b0319166001600160a01b03909216919091179055835160009081526020928352208351815590830151600182810180548695919260ff19909116918490811115610d4d57610d4d611e21565b021790555060408201516002820155606082015160038201556080820151600482015560a0820151600582015560c0820151600682015560e0820151600782015561010090910151600890910180546001600160a01b0319166001600160a01b03909216919091179055505050505050565b336001600160a01b0386168114801590610de05750610dde86826112c2565b155b15610e165760405163711bec9160e11b81526001600160a01b038083166004830152871660248201526044015b60405180910390fd5b610e2386868686866113f9565b505050505050565b610e336113c0565b610e3b611460565b565b60608151835114610e6e5781518351604051635b05999160e01b815260048101929092526024820152604401610e0d565b600083516001600160401b03811115610e8957610e89611cfe565b604051908082528060200260200182016040528015610eb2578160200160208202803683370190505b50905060005b8451811015610f0157602080820286010151610edc90602080840287010151610685565b828281518110610eee57610eee612419565b6020908102919091010152600101610eb8565b509392505050565b6000818152600860205260409020600381015460609190341015610f4057604051630717c22560e51b815260040160405180910390fd5b60648160050154610f51919061265b565b610f5c906001612784565b816003016000828254610f6f91906123c8565b9250508190555034816007016000828254610f8a9190612784565b909155505060028101546007820154106110325760018101805460ff191660029081179091556000600383018190559082015460078301543391610fcd91612797565b604051600081818185875af1925050503d8060008114611009576040519150601f19603f3d011682016040523d82523d6000602084013e61100e565b606091505b5050905080611030576040516307a4ced160e51b815260040160405180910390fd5b505b6000838152600a60205260409020805461104b906123df565b80601f0160208091040260200160405190810160405280929190818152602001828054611077906123df565b80156110c45780601f10611099576101008083540402835291602001916110c4565b820191906000526020600020905b8154815290600101906020018083116110a757829003601f168201915b5050505050915050919050565b6001600160a01b03831633148015906110f157506110ef83336112c2565b155b1561112557335b60405163711bec9160e11b81526001600160a01b0391821660048201529084166024820152604401610e0d565b6111308383836114b5565b505050565b61113d6113c0565b610e3b60006114fb565b6000828152600860205260409020600401546111649082906123c8565b34101561118457604051630717c22560e51b815260040160405180910390fd5b600082815260086020908152604080832081519283019091529181526111af9033908590859061154d565b348160060160008282546111c39190612784565b90915550506000838152600960205260408082205490516001600160a01b039091169034908381818185875af1925050503d8060008114611220576040519150601f19603f3d011682016040523d82523d6000602084013e611225565b606091505b5050905080611247576040516307a4ced160e51b815260040160405180910390fd5b81600201548260060154106107ad5750505060009081526008602052604090206001908101805460ff19169091179055565b6112816113c0565b610e3b611559565b6112916113c0565b600580546001600160a01b0319166001600160a01b0392909216919091179055565b6112be33838361159c565b5050565b6001600160a01b03918216600090815260016020908152604080832093909416825291909152205460ff1690565b336001600160a01b0386168114801590611311575061130f86826112c2565b155b156113425760405163711bec9160e11b81526001600160a01b03808316600483015287166024820152604401610e0d565b610e238686868686611632565b6113576113c0565b6001600160a01b03811661138157604051631e4fbdf760e01b815260006004820152602401610e0d565b610814816114fb565b6001600160a01b03831633148015906113aa57506113a883336112c2565b155b156113b557336110f8565b6111308383836116c0565b6003546001600160a01b03163314610e3b5760405163118cdaa760e01b8152336004820152602401610e0d565b60026112be82826126c5565b6001600160a01b03841661142357604051632bfa23e760e11b815260006004820152602401610e0d565b6001600160a01b03851661144c57604051626a0d4560e21b815260006004820152602401610e0d565b6114598585858585611724565b5050505050565b611468611777565b6003805460ff60a01b191690557f5db9ee0a495bf2e6ff9c91a7834c1ba4fdd244a5e8aa4e537bd38aeae4b073aa335b6040516001600160a01b03909116815260200160405180910390a1565b6001600160a01b0383166114de57604051626a0d4560e21b815260006004820152602401610e0d565b611130836000848460405180602001604052806000815250611724565b600380546001600160a01b038381166001600160a01b0319831681179093556040519116919082907f8be0079c531659141344cd1fd0a4f28419497f9722a3daafe3b4186f6b6457e090600090a35050565b6107ad848484846117a1565b6115616117fe565b6003805460ff60a01b1916600160a01b1790557f62e78cea01bee320cd4e420270b5ea74000d11b0c9f74754ebdbfc544b05a2586114983390565b6001600160a01b0382166115c55760405162ced3e160e81b815260006004820152602401610e0d565b6001600160a01b03838116600081815260016020908152604080832094871680845294825291829020805460ff191686151590811790915591519182527f17307eab39ab6107e8899845ad3d59bd9653f200f220920489ca2b5937696c31910160405180910390a3505050565b6001600160a01b03841661165c57604051632bfa23e760e11b815260006004820152602401610e0d565b6001600160a01b03851661168557604051626a0d4560e21b815260006004820152602401610e0d565b604080516001808252602082018690528183019081526060820185905260808201909252906116b78787848487611724565b50505050505050565b6001600160a01b0383166116e957604051626a0d4560e21b815260006004820152602401610e0d565b604080516001808252602082018590528183019081526060820184905260a08201909252600060808201818152919291611459918791859085905b61173085858585611829565b6001600160a01b0384161561145957825133906001036117695760208481015190840151611762838989858589611835565b5050610e23565b610e23818787878787611959565b600354600160a01b900460ff16610e3b57604051638dfc202b60e01b815260040160405180910390fd5b6001600160a01b0384166117cb57604051632bfa23e760e11b815260006004820152602401610e0d565b60408051600180825260208201869052818301908152606082018590526080820190925290610e23600087848487611724565b600354600160a01b900460ff1615610e3b5760405163d93c066560e01b815260040160405180910390fd5b6107ad84848484611a42565b6001600160a01b0384163b15610e235760405163f23a6e6160e01b81526001600160a01b0385169063f23a6e619061187990899089908890889088906004016127aa565b6020604051808303816000875af19250505080156118b4575060408051601f3d908101601f191682019092526118b1918101906127ef565b60015b61191d573d8080156118e2576040519150601f19603f3d011682016040523d82523d6000602084013e6118e7565b606091505b50805160000361191557604051632bfa23e760e11b81526001600160a01b0386166004820152602401610e0d565b805181602001fd5b6001600160e01b0319811663f23a6e6160e01b146116b757604051632bfa23e760e11b81526001600160a01b0386166004820152602401610e0d565b6001600160a01b0384163b15610e235760405163bc197c8160e01b81526001600160a01b0385169063bc197c819061199d908990899088908890889060040161280c565b6020604051808303816000875af19250505080156119d8575060408051601f3d908101601f191682019092526119d5918101906127ef565b60015b611a06573d8080156118e2576040519150601f19603f3d011682016040523d82523d6000602084013e6118e7565b6001600160e01b0319811663bc197c8160e01b146116b757604051632bfa23e760e11b81526001600160a01b0386166004820152602401610e0d565b611a4a6117fe565b6107ad848484848051825114611a805781518151604051635b05999160e01b815260048101929092526024820152604401610e0d565b3360005b8351811015611b86576020818102858101820151908501909101516001600160a01b03881615611b37576000828152602081815260408083206001600160a01b038c16845290915290205481811015611b10576040516303dee4c560e01b81526001600160a01b038a166004820152602481018290526044810183905260648101849052608401610e0d565b6000838152602081815260408083206001600160a01b038d16845290915290209082900390555b6001600160a01b03871615611b7c576000828152602081815260408083206001600160a01b038b16845290915281208054839290611b76908490612784565b90915550505b5050600101611a84565b508251600103611c075760208301516000906020840151909150856001600160a01b0316876001600160a01b0316846001600160a01b03167fc3d58168c5ae7397731d063d5bbf3d657854427343f4c083240f7aacaa2d0f628585604051611bf8929190918252602082015260400190565b60405180910390a45050611459565b836001600160a01b0316856001600160a01b0316826001600160a01b03167f4a39dc06d4c0dbc64b70af90fd698a233a518aa5d07e595d983b8c0526c8f7fb8686604051611c5692919061286a565b60405180910390a45050505050565b80356001600160a01b0381168114611c7c57600080fd5b919050565b60008060408385031215611c9457600080fd5b611c9d83611c65565b946020939093013593505050565b600060208284031215611cbd57600080fd5b5035919050565b6001600160e01b03198116811461081457600080fd5b600060208284031215611cec57600080fd5b8135611cf781611cc4565b9392505050565b634e487b7160e01b600052604160045260246000fd5b604051601f8201601f191681016001600160401b0381118282101715611d3c57611d3c611cfe565b604052919050565b600082601f830112611d5557600080fd5b81356001600160401b03811115611d6e57611d6e611cfe565b611d81601f8201601f1916602001611d14565b818152846020838601011115611d9657600080fd5b816020850160208301376000918101602001919091529392505050565b600060208284031215611dc557600080fd5b81356001600160401b03811115611ddb57600080fd5b611de784828501611d44565b949350505050565b6001600160401b038116811461081457600080fd5b600060208284031215611e1657600080fd5b8135611cf781611def565b634e487b7160e01b600052602160045260246000fd5b898152610120810160038a10611e4f57611e4f611e21565b602082019990995260408101979097526060870195909552608086019390935260a085019190915260c084015260e08301526001600160a01b031661010090910152919050565b60005b83811015611eb1578181015183820152602001611e99565b50506000910152565b60008151808452611ed2816020860160208601611e96565b601f01601f19169290920160200192915050565b602081526000611cf76020830184611eba565b60008060408385031215611f0c57600080fd5b8235915060208301356001600160401b03811115611f2957600080fd5b611f3585828601611d44565b9150509250929050565b600080600080600060a08688031215611f5757600080fd5b85356001600160401b0380821115611f6e57600080fd5b611f7a89838a01611d44565b96506020880135915080821115611f9057600080fd5b50611f9d88828901611d44565b959895975050505060408401359360608101359360809091013592509050565b60006001600160401b03821115611fd657611fd6611cfe565b5060051b60200190565b600082601f830112611ff157600080fd5b8135602061200661200183611fbd565b611d14565b8083825260208201915060208460051b87010193508684111561202857600080fd5b602086015b84811015612044578035835291830191830161202d565b509695505050505050565b600080600080600060a0868803121561206757600080fd5b61207086611c65565b945061207e60208701611c65565b935060408601356001600160401b038082111561209a57600080fd5b6120a689838a01611fe0565b945060608801359150808211156120bc57600080fd5b6120c889838a01611fe0565b935060808801359150808211156120de57600080fd5b506120eb88828901611d44565b9150509295509295909350565b6000806040838503121561210b57600080fd5b82356001600160401b038082111561212257600080fd5b818501915085601f83011261213657600080fd5b8135602061214661200183611fbd565b82815260059290921b8401810191818101908984111561216557600080fd5b948201945b8386101561218a5761217b86611c65565b8252948201949082019061216a565b965050860135925050808211156121a057600080fd5b50611f3585828601611fe0565b60008151808452602080850194506020840160005b838110156121de578151875295820195908201906001016121c2565b509495945050505050565b602081526000611cf760208301846121ad565b60008060006060848603121561221157600080fd5b61221a84611c65565b925060208401356001600160401b038082111561223657600080fd5b61224287838801611fe0565b9350604086013591508082111561225857600080fd5b5061226586828701611fe0565b9150509250925092565b6000806040838503121561228257600080fd5b50508035926020909101359150565b6000602082840312156122a357600080fd5b611cf782611c65565b600080604083850312156122bf57600080fd5b6122c883611c65565b9150602083013580151581146122dd57600080fd5b809150509250929050565b600080604083850312156122fb57600080fd5b61230483611c65565b915061231260208401611c65565b90509250929050565b600080600080600060a0868803121561233357600080fd5b61233c86611c65565b945061234a60208701611c65565b9350604086013592506060860135915060808601356001600160401b0381111561237357600080fd5b6120eb88828901611d44565b60008060006060848603121561239457600080fd5b61239d84611c65565b95602085013595506040909401359392505050565b634e487b7160e01b600052601160045260246000fd5b80820281158282048414176106a7576106a76123b2565b600181811c908216806123f357607f821691505b60208210810361241357634e487b7160e01b600052602260045260246000fd5b50919050565b634e487b7160e01b600052603260045260246000fd5b6004811061243f5761243f611e21565b9052565b60008282518085526020808601955060208260051b8401016020860160005b8481101561249057601f1986840301895261247e838351611eba565b98840198925090830190600101612462565b5090979650505050505050565b608081526124b76080820183516001600160401b03169052565b600060208301516124d360a08401826001600160401b03169052565b5060408301516001600160401b0390811660c084015260608401511660e083015260808301516001600160a01b0381166101008085019190915260a0850151915061012061252b818601846001600160401b03169052565b60c086015192506101406125418187018561242f565b60e0870151151561016087015282870151610180870191909152925061256b6101c0860184612443565b90860151858203607f19016101a0870152909250905061258b8282611eba565b91505082810360208401526125a4816000815260200190565b838103604085015260008152905060208101838103606085015260008152905060208101611de7565b6000602082840312156125df57600080fd5b8151611cf781611def565b6001600160a01b03841681526001600160401b038316602082015260606040820181905260009061261d90830184611eba565b95945050505050565b60008251612638818460208701611e96565b9190910192915050565b600060018201612654576126546123b2565b5060010190565b60008261267857634e487b7160e01b600052601260045260246000fd5b500490565b601f821115611130576000816000526020600020601f850160051c810160208610156126a65750805b601f850160051c820191505b81811015610e23578281556001016126b2565b81516001600160401b038111156126de576126de611cfe565b6126f2816126ec84546123df565b8461267d565b602080601f831160018114612727576000841561270f5750858301515b600019600386901b1c1916600185901b178555610e23565b600085815260208120601f198616915b8281101561275657888601518255948401946001909101908401612737565b50858210156127745787850151600019600388901b60f8161c191681555b5050505050600190811b01905550565b808201808211156106a7576106a76123b2565b818103818111156106a7576106a76123b2565b6001600160a01b03868116825285166020820152604081018490526060810183905260a0608082018190526000906127e490830184611eba565b979650505050505050565b60006020828403121561280157600080fd5b8151611cf781611cc4565b6001600160a01b0386811682528516602082015260a060408201819052600090612838908301866121ad565b828103606084015261284a81866121ad565b9050828103608084015261285e8185611eba565b98975050505050505050565b60408152600061287d60408301856121ad565b828103602084015261261d81856121ad56fea26469706673582212207fb41c8919fb711153fb5b302f9dee8b80a82af401ab18e7343708fc038a69e864736f6c63430008180033","opcodes":"PUSH1 0x80 PUSH1 0x40 MSTORE PUSH1 0x1 PUSH1 0x4 SSTORE CALLVALUE DUP1 ISZERO PUSH3 0x16 JUMPI PUSH1 0x0 DUP1 REVERT JUMPDEST POP PUSH1 0x40 DUP1 MLOAD DUP1 DUP3 ADD SWAP1 SWAP2 MSTORE PUSH1 0x4 DUP2 MSTORE PUSH4 0x4555524B PUSH1 0xE0 SHL PUSH1 0x20 DUP3 ADD MSTORE CALLER SWAP1 PUSH3 0x3F DUP2 PUSH3 0x8E JUMP JUMPDEST POP PUSH1 0x1 PUSH1 0x1 PUSH1 0xA0 SHL SUB DUP2 AND PUSH3 0x6F JUMPI PUSH1 0x40 MLOAD PUSH4 0x1E4FBDF7 PUSH1 0xE0 SHL DUP2 MSTORE PUSH1 0x0 PUSH1 0x4 DUP3 ADD MSTORE PUSH1 0x24 ADD PUSH1 0x40 MLOAD DUP1 SWAP2 SUB SWAP1 REVERT JUMPDEST PUSH3 0x7A DUP2 PUSH3 0xA0 JUMP JUMPDEST POP PUSH1 0x3 DUP1 SLOAD PUSH1 0xFF PUSH1 0xA0 SHL NOT AND SWAP1 SSTORE PUSH3 0x265 JUMP JUMPDEST PUSH1 0x2 PUSH3 0x9C DUP3 DUP3 PUSH3 0x199 JUMP JUMPDEST POP POP JUMP JUMPDEST PUSH1 0x3 DUP1 SLOAD PUSH1 0x1 PUSH1 0x1 PUSH1 0xA0 SHL SUB DUP4 DUP2 AND PUSH1 0x1 PUSH1 0x1 PUSH1 0xA0 SHL SUB NOT DUP4 AND DUP2 OR SWAP1 SWAP4 SSTORE PUSH1 0x40 MLOAD SWAP2 AND SWAP2 SWAP1 DUP3 SWAP1 PUSH32 0x8BE0079C531659141344CD1FD0A4F28419497F9722A3DAAFE3B4186F6B6457E0 SWAP1 PUSH1 0x0 SWAP1 LOG3 POP POP JUMP JUMPDEST PUSH4 0x4E487B71 PUSH1 0xE0 SHL PUSH1 0x0 MSTORE PUSH1 0x41 PUSH1 0x4 MSTORE PUSH1 0x24 PUSH1 0x0 REVERT JUMPDEST PUSH1 0x1 DUP2 DUP2 SHR SWAP1 DUP3 AND DUP1 PUSH3 0x11D JUMPI PUSH1 0x7F DUP3 AND SWAP2 POP JUMPDEST PUSH1 0x20 DUP3 LT DUP2 SUB PUSH3 0x13E JUMPI PUSH4 0x4E487B71 PUSH1 0xE0 SHL PUSH1 0x0 MSTORE PUSH1 0x22 PUSH1 0x4 MSTORE PUSH1 0x24 PUSH1 0x0 REVERT JUMPDEST POP SWAP2 SWAP1 POP JUMP JUMPDEST PUSH1 0x1F DUP3 GT ISZERO PUSH3 0x194 JUMPI PUSH1 0x0 DUP2 PUSH1 0x0 MSTORE PUSH1 0x20 PUSH1 0x0 KECCAK256 PUSH1 0x1F DUP6 ADD PUSH1 0x5 SHR DUP2 ADD PUSH1 0x20 DUP7 LT ISZERO PUSH3 0x16F JUMPI POP DUP1 JUMPDEST PUSH1 0x1F DUP6 ADD PUSH1 0x5 SHR DUP3 ADD SWAP2 POP JUMPDEST DUP2 DUP2 LT ISZERO PUSH3 0x190 JUMPI DUP3 DUP2 SSTORE PUSH1 0x1 ADD PUSH3 0x17B JUMP JUMPDEST POP POP POP JUMPDEST POP POP POP JUMP JUMPDEST DUP2 MLOAD PUSH1 0x1 PUSH1 0x1 PUSH1 0x40 SHL SUB DUP2 GT ISZERO PUSH3 0x1B5 JUMPI PUSH3 0x1B5 PUSH3 0xF2 JUMP JUMPDEST PUSH3 0x1CD DUP2 PUSH3 0x1C6 DUP5 SLOAD PUSH3 0x108 JUMP JUMPDEST DUP5 PUSH3 0x144 JUMP JUMPDEST PUSH1 0x20 DUP1 PUSH1 0x1F DUP4 GT PUSH1 0x1 DUP2 EQ PUSH3 0x205 JUMPI PUSH1 0x0 DUP5 ISZERO PUSH3 0x1EC JUMPI POP DUP6 DUP4 ADD MLOAD JUMPDEST PUSH1 0x0 NOT PUSH1 0x3 DUP7 SWAP1 SHL SHR NOT AND PUSH1 0x1 DUP6 SWAP1 SHL OR DUP6 SSTORE PUSH3 0x190 JUMP JUMPDEST PUSH1 0x0 DUP6 DUP2 MSTORE PUSH1 0x20 DUP2 KECCAK256 PUSH1 0x1F NOT DUP7 AND SWAP2 JUMPDEST DUP3 DUP2 LT ISZERO PUSH3 0x236 JUMPI DUP9 DUP7 ADD MLOAD DUP3 SSTORE SWAP5 DUP5 ADD SWAP5 PUSH1 0x1 SWAP1 SWAP2 ADD SWAP1 DUP5 ADD PUSH3 0x215 JUMP JUMPDEST POP DUP6 DUP3 LT ISZERO PUSH3 0x255 JUMPI DUP8 DUP6 ADD MLOAD PUSH1 0x0 NOT PUSH1 0x3 DUP9 SWAP1 SHL PUSH1 0xF8 AND SHR NOT AND DUP2 SSTORE JUMPDEST POP POP POP POP POP PUSH1 0x1 SWAP1 DUP2 SHL ADD SWAP1 SSTORE POP JUMP JUMPDEST PUSH2 0x28C5 DUP1 PUSH3 0x275 PUSH1 0x0 CODECOPY PUSH1 0x0 RETURN INVALID PUSH1 0x80 PUSH1 0x40 MSTORE PUSH1 0x4 CALLDATASIZE LT PUSH2 0x1D7 JUMPI PUSH1 0x0 CALLDATALOAD PUSH1 0xE0 SHR DUP1 PUSH4 0x5C975ABB GT PUSH2 0x102 JUMPI DUP1 PUSH4 0xA22CB465 GT PUSH2 0x95 JUMPI DUP1 PUSH4 0xE985E9C5 GT PUSH2 0x64 JUMPI DUP1 PUSH4 0xE985E9C5 EQ PUSH2 0x605 JUMPI DUP1 PUSH4 0xF242432A EQ PUSH2 0x625 JUMPI DUP1 PUSH4 0xF2FDE38B EQ PUSH2 0x645 JUMPI DUP1 PUSH4 0xF5298ACA EQ PUSH2 0x665 JUMPI PUSH1 0x0 DUP1 REVERT JUMPDEST DUP1 PUSH4 0xA22CB465 EQ PUSH2 0x512 JUMPI DUP1 PUSH4 0xA8C5DC33 EQ PUSH2 0x532 JUMPI DUP1 PUSH4 0xBFC0EE28 EQ PUSH2 0x552 JUMPI DUP1 PUSH4 0xC2A756CA EQ PUSH2 0x593 JUMPI PUSH1 0x0 DUP1 REVERT JUMPDEST DUP1 PUSH4 0x74396A29 GT PUSH2 0xD1 JUMPI DUP1 PUSH4 0x74396A29 EQ PUSH2 0x4AC JUMPI DUP1 PUSH4 0x8456CB59 EQ PUSH2 0x4BF JUMPI DUP1 PUSH4 0x8DA5CB5B EQ PUSH2 0x4D4 JUMPI DUP1 PUSH4 0x8E9D660F EQ PUSH2 0x4F2 JUMPI PUSH1 0x0 DUP1 REVERT JUMPDEST DUP1 PUSH4 0x5C975ABB EQ PUSH2 0x445 JUMPI DUP1 PUSH4 0x5F2B4AD3 EQ PUSH2 0x464 JUMPI DUP1 PUSH4 0x6B20C454 EQ PUSH2 0x477 JUMPI DUP1 PUSH4 0x715018A6 EQ PUSH2 0x497 JUMPI PUSH1 0x0 DUP1 REVERT JUMPDEST DUP1 PUSH4 0xE89341C GT PUSH2 0x17A JUMPI DUP1 PUSH4 0x2EB2C2D6 GT PUSH2 0x149 JUMPI DUP1 PUSH4 0x2EB2C2D6 EQ PUSH2 0x395 JUMPI DUP1 PUSH4 0x3F4BA83A EQ PUSH2 0x3B5 JUMPI DUP1 PUSH4 0x4E1273F4 EQ PUSH2 0x3CA JUMPI DUP1 PUSH4 0x50ABAC5D EQ PUSH2 0x3F7 JUMPI PUSH1 0x0 DUP1 REVERT JUMPDEST DUP1 PUSH4 0xE89341C EQ PUSH2 0x308 JUMPI DUP1 PUSH4 0x1616517D EQ PUSH2 0x335 JUMPI DUP1 PUSH4 0x1F919E8D EQ PUSH2 0x355 JUMPI DUP1 PUSH4 0x2795C1CF EQ PUSH2 0x375 JUMPI PUSH1 0x0 DUP1 REVERT JUMPDEST DUP1 PUSH4 0x2FE5305 GT PUSH2 0x1B6 JUMPI DUP1 PUSH4 0x2FE5305 EQ PUSH2 0x254 JUMPI DUP1 PUSH4 0x5CA8EE3 EQ PUSH2 0x274 JUMPI DUP1 PUSH4 0x75B1A09 EQ PUSH2 0x294 JUMPI DUP1 PUSH4 0x8F3E371 EQ PUSH2 0x2D3 JUMPI PUSH1 0x0 DUP1 REVERT JUMPDEST DUP1 PUSH3 0xFDD58E EQ PUSH2 0x1DC JUMPI DUP1 PUSH4 0x13054C2 EQ PUSH2 0x20F JUMPI DUP1 PUSH4 0x1FFC9A7 EQ PUSH2 0x224 JUMPI JUMPDEST PUSH1 0x0 DUP1 REVERT JUMPDEST CALLVALUE DUP1 ISZERO PUSH2 0x1E8 JUMPI PUSH1 0x0 DUP1 REVERT JUMPDEST POP PUSH2 0x1FC PUSH2 0x1F7 CALLDATASIZE PUSH1 0x4 PUSH2 0x1C81 JUMP JUMPDEST PUSH2 0x685 JUMP JUMPDEST PUSH1 0x40 MLOAD SWAP1 DUP2 MSTORE PUSH1 0x20 ADD JUMPDEST PUSH1 0x40 MLOAD DUP1 SWAP2 SUB SWAP1 RETURN JUMPDEST PUSH2 0x222 PUSH2 0x21D CALLDATASIZE PUSH1 0x4 PUSH2 0x1CAB JUMP JUMPDEST PUSH2 0x6AD JUMP JUMPDEST STOP JUMPDEST CALLVALUE DUP1 ISZERO PUSH2 0x230 JUMPI PUSH1 0x0 DUP1 REVERT JUMPDEST POP PUSH2 0x244 PUSH2 0x23F CALLDATASIZE PUSH1 0x4 PUSH2 0x1CDA JUMP JUMPDEST PUSH2 0x7B3 JUMP JUMPDEST PUSH1 0x40 MLOAD SWAP1 ISZERO ISZERO DUP2 MSTORE PUSH1 0x20 ADD PUSH2 0x206 JUMP JUMPDEST CALLVALUE DUP1 ISZERO PUSH2 0x260 JUMPI PUSH1 0x0 DUP1 REVERT JUMPDEST POP PUSH2 0x222 PUSH2 0x26F CALLDATASIZE PUSH1 0x4 PUSH2 0x1DB3 JUMP JUMPDEST PUSH2 0x803 JUMP JUMPDEST CALLVALUE DUP1 ISZERO PUSH2 0x280 JUMPI PUSH1 0x0 DUP1 REVERT JUMPDEST POP PUSH2 0x222 PUSH2 0x28F CALLDATASIZE PUSH1 0x4 PUSH2 0x1E04 JUMP JUMPDEST PUSH2 0x817 JUMP JUMPDEST CALLVALUE DUP1 ISZERO PUSH2 0x2A0 JUMPI PUSH1 0x0 DUP1 REVERT JUMPDEST POP PUSH1 0x5 SLOAD PUSH2 0x2BB SWAP1 PUSH1 0x1 PUSH1 0xA0 SHL SWAP1 DIV PUSH1 0x1 PUSH1 0x1 PUSH1 0x40 SHL SUB AND DUP2 JUMP JUMPDEST PUSH1 0x40 MLOAD PUSH1 0x1 PUSH1 0x1 PUSH1 0x40 SHL SUB SWAP1 SWAP2 AND DUP2 MSTORE PUSH1 0x20 ADD PUSH2 0x206 JUMP JUMPDEST CALLVALUE DUP1 ISZERO PUSH2 0x2DF JUMPI PUSH1 0x0 DUP1 REVERT JUMPDEST POP PUSH2 0x2F3 PUSH2 0x2EE CALLDATASIZE PUSH1 0x4 PUSH2 0x1C81 JUMP JUMPDEST PUSH2 0x84C JUMP JUMPDEST PUSH1 0x40 MLOAD PUSH2 0x206 SWAP10 SWAP9 SWAP8 SWAP7 SWAP6 SWAP5 SWAP4 SWAP3 SWAP2 SWAP1 PUSH2 0x1E37 JUMP JUMPDEST CALLVALUE DUP1 ISZERO PUSH2 0x314 JUMPI PUSH1 0x0 DUP1 REVERT JUMPDEST POP PUSH2 0x328 PUSH2 0x323 CALLDATASIZE PUSH1 0x4 PUSH2 0x1CAB JUMP JUMPDEST PUSH2 0x8C1 JUMP JUMPDEST PUSH1 0x40 MLOAD PUSH2 0x206 SWAP2 SWAP1 PUSH2 0x1EE6 JUMP JUMPDEST CALLVALUE DUP1 ISZERO PUSH2 0x341 JUMPI PUSH1 0x0 DUP1 REVERT JUMPDEST POP PUSH2 0x2BB PUSH2 0x350 CALLDATASIZE PUSH1 0x4 PUSH2 0x1EF9 JUMP JUMPDEST PUSH2 0x955 JUMP JUMPDEST CALLVALUE DUP1 ISZERO PUSH2 0x361 JUMPI PUSH1 0x0 DUP1 REVERT JUMPDEST POP PUSH2 0x222 PUSH2 0x370 CALLDATASIZE PUSH1 0x4 PUSH2 0x1DB3 JUMP JUMPDEST PUSH2 0xB06 JUMP JUMPDEST CALLVALUE DUP1 ISZERO PUSH2 0x381 JUMPI PUSH1 0x0 DUP1 REVERT JUMPDEST POP PUSH2 0x222 PUSH2 0x390 CALLDATASIZE PUSH1 0x4 PUSH2 0x1F3F JUMP JUMPDEST PUSH2 0xB49 JUMP JUMPDEST CALLVALUE DUP1 ISZERO PUSH2 0x3A1 JUMPI PUSH1 0x0 DUP1 REVERT JUMPDEST POP PUSH2 0x222 PUSH2 0x3B0 CALLDATASIZE PUSH1 0x4 PUSH2 0x204F JUMP JUMPDEST PUSH2 0xDBF JUMP JUMPDEST CALLVALUE DUP1 ISZERO PUSH2 0x3C1 JUMPI PUSH1 0x0 DUP1 REVERT JUMPDEST POP PUSH2 0x222 PUSH2 0xE2B JUMP JUMPDEST CALLVALUE DUP1 ISZERO PUSH2 0x3D6 JUMPI PUSH1 0x0 DUP1 REVERT JUMPDEST POP PUSH2 0x3EA PUSH2 0x3E5 CALLDATASIZE PUSH1 0x4 PUSH2 0x20F8 JUMP JUMPDEST PUSH2 0xE3D JUMP JUMPDEST PUSH1 0x40 MLOAD PUSH2 0x206 SWAP2 SWAP1 PUSH2 0x21E9 JUMP JUMPDEST CALLVALUE DUP1 ISZERO PUSH2 0x403 JUMPI PUSH1 0x0 DUP1 REVERT JUMPDEST POP PUSH2 0x42D PUSH2 0x412 CALLDATASIZE PUSH1 0x4 PUSH2 0x1CAB JUMP JUMPDEST PUSH1 0x9 PUSH1 0x20 MSTORE PUSH1 0x0 SWAP1 DUP2 MSTORE PUSH1 0x40 SWAP1 KECCAK256 SLOAD PUSH1 0x1 PUSH1 0x1 PUSH1 0xA0 SHL SUB AND DUP2 JUMP JUMPDEST PUSH1 0x40 MLOAD PUSH1 0x1 PUSH1 0x1 PUSH1 0xA0 SHL SUB SWAP1 SWAP2 AND DUP2 MSTORE PUSH1 0x20 ADD PUSH2 0x206 JUMP JUMPDEST CALLVALUE DUP1 ISZERO PUSH2 0x451 JUMPI PUSH1 0x0 DUP1 REVERT JUMPDEST POP PUSH1 0x3 SLOAD PUSH1 0x1 PUSH1 0xA0 SHL SWAP1 DIV PUSH1 0xFF AND PUSH2 0x244 JUMP JUMPDEST PUSH2 0x328 PUSH2 0x472 CALLDATASIZE PUSH1 0x4 PUSH2 0x1CAB JUMP JUMPDEST PUSH2 0xF09 JUMP JUMPDEST CALLVALUE DUP1 ISZERO PUSH2 0x483 JUMPI PUSH1 0x0 DUP1 REVERT JUMPDEST POP PUSH2 0x222 PUSH2 0x492 CALLDATASIZE PUSH1 0x4 PUSH2 0x21FC JUMP JUMPDEST PUSH2 0x10D1 JUMP JUMPDEST CALLVALUE DUP1 ISZERO PUSH2 0x4A3 JUMPI PUSH1 0x0 DUP1 REVERT JUMPDEST POP PUSH2 0x222 PUSH2 0x1135 JUMP JUMPDEST PUSH2 0x222 PUSH2 0x4BA CALLDATASIZE PUSH1 0x4 PUSH2 0x226F JUMP JUMPDEST PUSH2 0x1147 JUMP JUMPDEST CALLVALUE DUP1 ISZERO PUSH2 0x4CB JUMPI PUSH1 0x0 DUP1 REVERT JUMPDEST POP PUSH2 0x222 PUSH2 0x1279 JUMP JUMPDEST CALLVALUE DUP1 ISZERO PUSH2 0x4E0 JUMPI PUSH1 0x0 DUP1 REVERT JUMPDEST POP PUSH1 0x3 SLOAD PUSH1 0x1 PUSH1 0x1 PUSH1 0xA0 SHL SUB AND PUSH2 0x42D JUMP JUMPDEST CALLVALUE DUP1 ISZERO PUSH2 0x4FE JUMPI PUSH1 0x0 DUP1 REVERT JUMPDEST POP PUSH2 0x222 PUSH2 0x50D CALLDATASIZE PUSH1 0x4 PUSH2 0x2291 JUMP JUMPDEST PUSH2 0x1289 JUMP JUMPDEST CALLVALUE DUP1 ISZERO PUSH2 0x51E JUMPI PUSH1 0x0 DUP1 REVERT JUMPDEST POP PUSH2 0x222 PUSH2 0x52D CALLDATASIZE PUSH1 0x4 PUSH2 0x22AC JUMP JUMPDEST PUSH2 0x12B3 JUMP JUMPDEST CALLVALUE DUP1 ISZERO PUSH2 0x53E JUMPI PUSH1 0x0 DUP1 REVERT JUMPDEST POP PUSH1 0x5 SLOAD PUSH2 0x42D SWAP1 PUSH1 0x1 PUSH1 0x1 PUSH1 0xA0 SHL SUB AND DUP2 JUMP JUMPDEST CALLVALUE DUP1 ISZERO PUSH2 0x55E JUMPI PUSH1 0x0 DUP1 REVERT JUMPDEST POP PUSH2 0x42D PUSH2 0x56D CALLDATASIZE PUSH1 0x4 PUSH2 0x1DB3 JUMP JUMPDEST DUP1 MLOAD PUSH1 0x20 DUP2 DUP4 ADD DUP2 ADD DUP1 MLOAD PUSH1 0x6 DUP3 MSTORE SWAP3 DUP3 ADD SWAP2 SWAP1 SWAP4 ADD KECCAK256 SWAP2 MSTORE SLOAD PUSH1 0x1 PUSH1 0x1 PUSH1 0xA0 SHL SUB AND DUP2 JUMP JUMPDEST CALLVALUE DUP1 ISZERO PUSH2 0x59F JUMPI PUSH1 0x0 DUP1 REVERT JUMPDEST POP PUSH2 0x2F3 PUSH2 0x5AE CALLDATASIZE PUSH1 0x4 PUSH2 0x1CAB JUMP JUMPDEST PUSH1 0x8 PUSH1 0x20 DUP2 SWAP1 MSTORE PUSH1 0x0 SWAP2 DUP3 MSTORE PUSH1 0x40 SWAP1 SWAP2 KECCAK256 DUP1 SLOAD PUSH1 0x1 DUP3 ADD SLOAD PUSH1 0x2 DUP4 ADD SLOAD PUSH1 0x3 DUP5 ADD SLOAD PUSH1 0x4 DUP6 ADD SLOAD PUSH1 0x5 DUP7 ADD SLOAD PUSH1 0x6 DUP8 ADD SLOAD PUSH1 0x7 DUP9 ADD SLOAD SWAP8 SWAP1 SWAP9 ADD SLOAD SWAP6 SWAP8 PUSH1 0xFF SWAP1 SWAP6 AND SWAP7 SWAP4 SWAP6 SWAP3 SWAP5 SWAP2 SWAP4 SWAP1 SWAP3 PUSH1 0x1 PUSH1 0x1 PUSH1 0xA0 SHL SUB AND DUP10 JUMP JUMPDEST CALLVALUE DUP1 ISZERO PUSH2 0x611 JUMPI PUSH1 0x0 DUP1 REVERT JUMPDEST POP PUSH2 0x244 PUSH2 0x620 CALLDATASIZE PUSH1 0x4 PUSH2 0x22E8 JUMP JUMPDEST PUSH2 0x12C2 JUMP JUMPDEST CALLVALUE DUP1 ISZERO PUSH2 0x631 JUMPI PUSH1 0x0 DUP1 REVERT JUMPDEST POP PUSH2 0x222 PUSH2 0x640 CALLDATASIZE PUSH1 0x4 PUSH2 0x231B JUMP JUMPDEST PUSH2 0x12F0 JUMP JUMPDEST CALLVALUE DUP1 ISZERO PUSH2 0x651 JUMPI PUSH1 0x0 DUP1 REVERT JUMPDEST POP PUSH2 0x222 PUSH2 0x660 CALLDATASIZE PUSH1 0x4 PUSH2 0x2291 JUMP JUMPDEST PUSH2 0x134F JUMP JUMPDEST CALLVALUE DUP1 ISZERO PUSH2 0x671 JUMPI PUSH1 0x0 DUP1 REVERT JUMPDEST POP PUSH2 0x222 PUSH2 0x680 CALLDATASIZE PUSH1 0x4 PUSH2 0x237F JUMP JUMPDEST PUSH2 0x138A JUMP JUMPDEST PUSH1 0x0 DUP2 DUP2 MSTORE PUSH1 0x20 DUP2 DUP2 MSTORE PUSH1 0x40 DUP1 DUP4 KECCAK256 PUSH1 0x1 PUSH1 0x1 PUSH1 0xA0 SHL SUB DUP7 AND DUP5 MSTORE SWAP1 SWAP2 MSTORE SWAP1 KECCAK256 SLOAD JUMPDEST SWAP3 SWAP2 POP POP JUMP JUMPDEST PUSH1 0x0 DUP2 DUP2 MSTORE PUSH1 0x8 PUSH1 0x20 MSTORE PUSH1 0x40 SWAP1 KECCAK256 PUSH1 0x2 PUSH1 0x1 DUP3 ADD SLOAD PUSH1 0xFF AND PUSH1 0x2 DUP2 GT ISZERO PUSH2 0x6D6 JUMPI PUSH2 0x6D6 PUSH2 0x1E21 JUMP JUMPDEST EQ PUSH2 0x6F4 JUMPI PUSH1 0x40 MLOAD PUSH4 0x4EB60DE7 PUSH1 0xE0 SHL DUP2 MSTORE PUSH1 0x4 ADD PUSH1 0x40 MLOAD DUP1 SWAP2 SUB SWAP1 REVERT JUMPDEST PUSH1 0x0 PUSH2 0x700 CALLER DUP5 PUSH2 0x685 JUMP JUMPDEST SWAP1 POP DUP1 PUSH1 0x0 SUB PUSH2 0x723 JUMPI PUSH1 0x40 MLOAD PUSH4 0x3DBD9B6D PUSH1 0xE1 SHL DUP2 MSTORE PUSH1 0x4 ADD PUSH1 0x40 MLOAD DUP1 SWAP2 SUB SWAP1 REVERT JUMPDEST PUSH2 0x72E CALLER DUP5 DUP4 PUSH2 0x138A JUMP JUMPDEST PUSH1 0x0 CALLER PUSH1 0x1 PUSH1 0x1 PUSH1 0xA0 SHL SUB AND DUP3 DUP5 PUSH1 0x4 ADD SLOAD PUSH2 0x74A SWAP2 SWAP1 PUSH2 0x23C8 JUMP JUMPDEST PUSH1 0x40 MLOAD PUSH1 0x0 DUP2 DUP2 DUP2 DUP6 DUP8 GAS CALL SWAP3 POP POP POP RETURNDATASIZE DUP1 PUSH1 0x0 DUP2 EQ PUSH2 0x786 JUMPI PUSH1 0x40 MLOAD SWAP2 POP PUSH1 0x1F NOT PUSH1 0x3F RETURNDATASIZE ADD AND DUP3 ADD PUSH1 0x40 MSTORE RETURNDATASIZE DUP3 MSTORE RETURNDATASIZE PUSH1 0x0 PUSH1 0x20 DUP5 ADD RETURNDATACOPY PUSH2 0x78B JUMP JUMPDEST PUSH1 0x60 SWAP2 POP JUMPDEST POP POP SWAP1 POP DUP1 PUSH2 0x7AD JUMPI PUSH1 0x40 MLOAD PUSH4 0x7A4CED1 PUSH1 0xE5 SHL DUP2 MSTORE PUSH1 0x4 ADD PUSH1 0x40 MLOAD DUP1 SWAP2 SUB SWAP1 REVERT JUMPDEST POP POP POP POP JUMP JUMPDEST PUSH1 0x0 PUSH1 0x1 PUSH1 0x1 PUSH1 0xE0 SHL SUB NOT DUP3 AND PUSH4 0x6CDB3D13 PUSH1 0xE1 SHL EQ DUP1 PUSH2 0x7E4 JUMPI POP PUSH1 0x1 PUSH1 0x1 PUSH1 0xE0 SHL SUB NOT DUP3 AND PUSH4 0x3A24D07 PUSH1 0xE2 SHL EQ JUMPDEST DUP1 PUSH2 0x6A7 JUMPI POP PUSH4 0x1FFC9A7 PUSH1 0xE0 SHL PUSH1 0x1 PUSH1 0x1 PUSH1 0xE0 SHL SUB NOT DUP4 AND EQ PUSH2 0x6A7 JUMP JUMPDEST PUSH2 0x80B PUSH2 0x13C0 JUMP JUMPDEST PUSH2 0x814 DUP2 PUSH2 0x13ED JUMP JUMPDEST POP JUMP JUMPDEST PUSH2 0x81F PUSH2 0x13C0 JUMP JUMPDEST PUSH1 0x5 DUP1 SLOAD PUSH1 0x1 PUSH1 0x1 PUSH1 0x40 SHL SUB SWAP1 SWAP3 AND PUSH1 0x1 PUSH1 0xA0 SHL MUL PUSH8 0xFFFFFFFFFFFFFFFF PUSH1 0xA0 SHL NOT SWAP1 SWAP3 AND SWAP2 SWAP1 SWAP2 OR SWAP1 SSTORE JUMP JUMPDEST PUSH1 0x7 PUSH1 0x20 MSTORE DUP2 PUSH1 0x0 MSTORE PUSH1 0x40 PUSH1 0x0 KECCAK256 DUP2 DUP2 SLOAD DUP2 LT PUSH2 0x868 JUMPI PUSH1 0x0 DUP1 REVERT JUMPDEST PUSH1 0x0 SWAP2 DUP3 MSTORE PUSH1 0x20 SWAP1 SWAP2 KECCAK256 PUSH1 0x9 SWAP1 SWAP2 MUL ADD DUP1 SLOAD PUSH1 0x1 DUP3 ADD SLOAD PUSH1 0x2 DUP4 ADD SLOAD PUSH1 0x3 DUP5 ADD SLOAD PUSH1 0x4 DUP6 ADD SLOAD PUSH1 0x5 DUP7 ADD SLOAD PUSH1 0x6 DUP8 ADD SLOAD PUSH1 0x7 DUP9 ADD SLOAD PUSH1 0x8 SWAP1 SWAP9 ADD SLOAD SWAP7 SWAP10 POP PUSH1 0xFF SWAP1 SWAP6 AND SWAP8 POP SWAP3 SWAP6 SWAP2 SWAP5 SWAP1 SWAP4 SWAP2 SWAP1 PUSH1 0x1 PUSH1 0x1 PUSH1 0xA0 SHL SUB AND DUP10 JUMP JUMPDEST PUSH1 0x60 PUSH1 0x2 DUP1 SLOAD PUSH2 0x8D0 SWAP1 PUSH2 0x23DF JUMP JUMPDEST DUP1 PUSH1 0x1F ADD PUSH1 0x20 DUP1 SWAP2 DIV MUL PUSH1 0x20 ADD PUSH1 0x40 MLOAD SWAP1 DUP2 ADD PUSH1 0x40 MSTORE DUP1 SWAP3 SWAP2 SWAP1 DUP2 DUP2 MSTORE PUSH1 0x20 ADD DUP3 DUP1 SLOAD PUSH2 0x8FC SWAP1 PUSH2 0x23DF JUMP JUMPDEST DUP1 ISZERO PUSH2 0x949 JUMPI DUP1 PUSH1 0x1F LT PUSH2 0x91E JUMPI PUSH2 0x100 DUP1 DUP4 SLOAD DIV MUL DUP4 MSTORE SWAP2 PUSH1 0x20 ADD SWAP2 PUSH2 0x949 JUMP JUMPDEST DUP3 ADD SWAP2 SWAP1 PUSH1 0x0 MSTORE PUSH1 0x20 PUSH1 0x0 KECCAK256 SWAP1 JUMPDEST DUP2 SLOAD DUP2 MSTORE SWAP1 PUSH1 0x1 ADD SWAP1 PUSH1 0x20 ADD DUP1 DUP4 GT PUSH2 0x92C JUMPI DUP3 SWAP1 SUB PUSH1 0x1F AND DUP3 ADD SWAP2 JUMPDEST POP POP POP POP POP SWAP1 POP SWAP2 SWAP1 POP JUMP JUMPDEST PUSH1 0x0 PUSH2 0x95F PUSH2 0x13C0 JUMP JUMPDEST PUSH1 0x40 DUP1 MLOAD PUSH1 0x1 DUP1 DUP3 MSTORE DUP2 DUP4 ADD SWAP1 SWAP3 MSTORE PUSH1 0x0 SWAP2 DUP2 PUSH1 0x20 ADD JUMPDEST PUSH1 0x60 DUP2 MSTORE PUSH1 0x20 ADD SWAP1 PUSH1 0x1 SWAP1 SUB SWAP1 DUP2 PUSH2 0x976 JUMPI SWAP1 POP POP PUSH1 0x40 DUP1 MLOAD CALLER PUSH1 0x20 DUP3 ADD MSTORE SWAP2 SWAP3 POP ADD PUSH1 0x40 MLOAD PUSH1 0x20 DUP2 DUP4 SUB SUB DUP2 MSTORE SWAP1 PUSH1 0x40 MSTORE DUP2 PUSH1 0x0 DUP2 MLOAD DUP2 LT PUSH2 0x9BB JUMPI PUSH2 0x9BB PUSH2 0x2419 JUMP JUMPDEST PUSH1 0x20 SWAP1 DUP2 MUL SWAP2 SWAP1 SWAP2 ADD DUP2 ADD SWAP2 SWAP1 SWAP2 MSTORE PUSH1 0x40 DUP1 MLOAD PUSH2 0x140 DUP2 ADD DUP3 MSTORE PUSH1 0x5 SLOAD PUSH1 0x1 PUSH1 0xA0 SHL SWAP1 DIV PUSH1 0x1 PUSH1 0x1 PUSH1 0x40 SHL SUB AND DUP2 MSTORE PUSH1 0x0 SWAP3 DUP2 ADD DUP4 SWAP1 MSTORE SWAP1 DUP2 ADD DUP3 SWAP1 MSTORE PUSH1 0x60 DUP2 ADD DUP3 SWAP1 MSTORE ADDRESS PUSH1 0x80 DUP3 ADD MSTORE PUSH1 0xA0 DUP2 ADD DUP3 SWAP1 MSTORE PUSH1 0xC0 DUP2 ADD DUP3 DUP2 MSTORE PUSH1 0x20 ADD PUSH1 0x0 ISZERO ISZERO DUP2 MSTORE PUSH1 0x20 ADD DUP4 DUP2 MSTORE PUSH1 0x20 ADD DUP6 PUSH1 0x40 MLOAD PUSH1 0x20 ADD PUSH2 0xA36 SWAP2 SWAP1 PUSH2 0x1EE6 JUMP JUMPDEST PUSH1 0x40 DUP1 MLOAD PUSH1 0x1F NOT DUP2 DUP5 SUB ADD DUP2 MSTORE SWAP2 DUP2 MSTORE SWAP2 MSTORE PUSH1 0x5 SLOAD SWAP1 MLOAD PUSH4 0xB82916CB PUSH1 0xE0 SHL DUP2 MSTORE SWAP2 SWAP3 POP PUSH1 0x0 SWAP2 PUSH1 0x1 PUSH1 0x1 PUSH1 0xA0 SHL SUB SWAP1 SWAP2 AND SWAP1 PUSH4 0xB82916CB SWAP1 PUSH2 0xA7D SWAP1 DUP6 SWAP1 PUSH1 0x4 ADD PUSH2 0x249D JUMP JUMPDEST PUSH1 0x20 PUSH1 0x40 MLOAD DUP1 DUP4 SUB DUP2 PUSH1 0x0 DUP8 GAS CALL ISZERO DUP1 ISZERO PUSH2 0xA9C JUMPI RETURNDATASIZE PUSH1 0x0 DUP1 RETURNDATACOPY RETURNDATASIZE PUSH1 0x0 REVERT JUMPDEST POP POP POP POP PUSH1 0x40 MLOAD RETURNDATASIZE PUSH1 0x1F NOT PUSH1 0x1F DUP3 ADD AND DUP3 ADD DUP1 PUSH1 0x40 MSTORE POP DUP2 ADD SWAP1 PUSH2 0xAC0 SWAP2 SWAP1 PUSH2 0x25CD JUMP JUMPDEST SWAP1 POP PUSH32 0xA40237C94ACCA11BD53AE7FF9F5F7B2EF0FD023096AA108F2A55E63DB7CB2782 CALLER DUP3 DUP8 PUSH1 0x40 MLOAD PUSH2 0xAF5 SWAP4 SWAP3 SWAP2 SWAP1 PUSH2 0x25EA JUMP JUMPDEST PUSH1 0x40 MLOAD DUP1 SWAP2 SUB SWAP1 LOG1 SWAP6 SWAP5 POP POP POP POP POP JUMP JUMPDEST CALLER PUSH1 0x6 DUP3 PUSH1 0x40 MLOAD PUSH2 0xB17 SWAP2 SWAP1 PUSH2 0x2626 JUMP JUMPDEST SWAP1 DUP2 MSTORE PUSH1 0x40 MLOAD SWAP1 DUP2 SWAP1 SUB PUSH1 0x20 ADD SWAP1 KECCAK256 DUP1 SLOAD PUSH1 0x1 PUSH1 0x1 PUSH1 0xA0 SHL SUB SWAP3 SWAP1 SWAP3 AND PUSH1 0x1 PUSH1 0x1 PUSH1 0xA0 SHL SUB NOT SWAP1 SWAP3 AND SWAP2 SWAP1 SWAP2 OR SWAP1 SSTORE POP JUMP JUMPDEST CALLER PUSH1 0x1 PUSH1 0x1 PUSH1 0xA0 SHL SUB AND PUSH1 0x6 DUP7 PUSH1 0x40 MLOAD PUSH2 0xB63 SWAP2 SWAP1 PUSH2 0x2626 JUMP JUMPDEST SWAP1 DUP2 MSTORE PUSH1 0x40 MLOAD SWAP1 DUP2 SWAP1 SUB PUSH1 0x20 ADD SWAP1 KECCAK256 SLOAD PUSH1 0x1 PUSH1 0x1 PUSH1 0xA0 SHL SUB AND EQ PUSH2 0xB9A JUMPI PUSH1 0x40 MLOAD PUSH4 0x7F52C42D PUSH1 0xE1 SHL DUP2 MSTORE PUSH1 0x4 ADD PUSH1 0x40 MLOAD DUP1 SWAP2 SUB SWAP1 REVERT JUMPDEST CALLER PUSH1 0x0 SWAP1 DUP2 MSTORE PUSH1 0x7 PUSH1 0x20 MSTORE PUSH1 0x40 SWAP1 KECCAK256 SLOAD PUSH1 0x4 LT ISZERO PUSH2 0xBCB JUMPI PUSH1 0x40 MLOAD PUSH4 0x2E298ED PUSH1 0xE6 SHL DUP2 MSTORE PUSH1 0x4 ADD PUSH1 0x40 MLOAD DUP1 SWAP2 SUB SWAP1 REVERT JUMPDEST PUSH1 0x0 PUSH1 0x40 MLOAD DUP1 PUSH2 0x120 ADD PUSH1 0x40 MSTORE DUP1 PUSH1 0x4 PUSH1 0x0 DUP2 SLOAD DUP1 SWAP3 SWAP2 SWAP1 PUSH2 0xBEC SWAP1 PUSH2 0x2642 JUMP JUMPDEST SWAP1 SWAP2 SSTORE POP DUP2 MSTORE PUSH1 0x20 ADD PUSH1 0x0 DUP2 MSTORE PUSH1 0x20 ADD DUP6 DUP2 MSTORE PUSH1 0x20 ADD DUP5 DUP2 MSTORE PUSH1 0x20 ADD PUSH4 0x5F5E100 DUP7 PUSH2 0xC18 SWAP2 SWAP1 PUSH2 0x265B JUMP JUMPDEST DUP2 MSTORE PUSH1 0x20 DUP1 DUP3 ADD DUP6 SWAP1 MSTORE PUSH1 0x0 PUSH1 0x40 DUP1 DUP5 ADD DUP3 SWAP1 MSTORE PUSH1 0x60 DUP5 ADD DUP3 SWAP1 MSTORE CALLER PUSH1 0x80 SWAP1 SWAP5 ADD SWAP4 SWAP1 SWAP4 MSTORE DUP4 MLOAD DUP2 MSTORE PUSH1 0xA SWAP1 SWAP2 MSTORE KECCAK256 SWAP1 SWAP2 POP PUSH2 0xC54 DUP7 DUP3 PUSH2 0x26C5 JUMP JUMPDEST POP CALLER PUSH1 0x0 SWAP1 DUP2 MSTORE PUSH1 0x7 PUSH1 0x20 SWAP1 DUP2 MSTORE PUSH1 0x40 DUP3 KECCAK256 DUP1 SLOAD PUSH1 0x1 DUP2 DUP2 ADD DUP4 SSTORE SWAP2 DUP5 MSTORE SWAP3 DUP3 SWAP1 KECCAK256 DUP5 MLOAD PUSH1 0x9 SWAP1 SWAP5 MUL ADD SWAP3 DUP4 SSTORE SWAP1 DUP4 ADD MLOAD DUP3 DUP3 ADD DUP1 SLOAD DUP6 SWAP5 SWAP4 PUSH1 0xFF NOT SWAP1 SWAP2 AND SWAP1 DUP4 PUSH1 0x2 DUP2 GT ISZERO PUSH2 0xCA6 JUMPI PUSH2 0xCA6 PUSH2 0x1E21 JUMP JUMPDEST MUL OR SWAP1 SSTORE POP PUSH1 0x40 DUP3 DUP2 ADD MLOAD PUSH1 0x2 DUP4 DUP2 ADD SWAP2 SWAP1 SWAP2 SSTORE PUSH1 0x60 DUP5 ADD MLOAD PUSH1 0x3 DUP5 ADD SSTORE PUSH1 0x80 DUP5 ADD MLOAD PUSH1 0x4 DUP5 ADD SSTORE PUSH1 0xA0 DUP5 ADD MLOAD PUSH1 0x5 DUP5 ADD SSTORE PUSH1 0xC0 DUP5 ADD MLOAD PUSH1 0x6 DUP5 ADD SSTORE PUSH1 0xE0 DUP5 ADD MLOAD PUSH1 0x7 DUP5 ADD SSTORE PUSH2 0x100 SWAP1 SWAP4 ADD MLOAD PUSH1 0x8 SWAP3 DUP4 ADD DUP1 SLOAD PUSH1 0x1 PUSH1 0x1 PUSH1 0xA0 SHL SUB NOT AND PUSH1 0x1 PUSH1 0x1 PUSH1 0xA0 SHL SUB SWAP1 SWAP3 AND SWAP2 SWAP1 SWAP2 OR SWAP1 SSTORE DUP4 MLOAD PUSH1 0x0 SWAP1 DUP2 MSTORE PUSH1 0x20 SWAP3 DUP4 MSTORE KECCAK256 DUP4 MLOAD DUP2 SSTORE SWAP1 DUP4 ADD MLOAD PUSH1 0x1 DUP3 DUP2 ADD DUP1 SLOAD DUP7 SWAP6 SWAP2 SWAP3 PUSH1 0xFF NOT SWAP1 SWAP2 AND SWAP2 DUP5 SWAP1 DUP2 GT ISZERO PUSH2 0xD4D JUMPI PUSH2 0xD4D PUSH2 0x1E21 JUMP JUMPDEST MUL OR SWAP1 SSTORE POP PUSH1 0x40 DUP3 ADD MLOAD PUSH1 0x2 DUP3 ADD SSTORE PUSH1 0x60 DUP3 ADD MLOAD PUSH1 0x3 DUP3 ADD SSTORE PUSH1 0x80 DUP3 ADD MLOAD PUSH1 0x4 DUP3 ADD SSTORE PUSH1 0xA0 DUP3 ADD MLOAD PUSH1 0x5 DUP3 ADD SSTORE PUSH1 0xC0 DUP3 ADD MLOAD PUSH1 0x6 DUP3 ADD SSTORE PUSH1 0xE0 DUP3 ADD MLOAD PUSH1 0x7 DUP3 ADD SSTORE PUSH2 0x100 SWAP1 SWAP2 ADD MLOAD PUSH1 0x8 SWAP1 SWAP2 ADD DUP1 SLOAD PUSH1 0x1 PUSH1 0x1 PUSH1 0xA0 SHL SUB NOT AND PUSH1 0x1 PUSH1 0x1 PUSH1 0xA0 SHL SUB SWAP1 SWAP3 AND SWAP2 SWAP1 SWAP2 OR SWAP1 SSTORE POP POP POP POP POP POP JUMP JUMPDEST CALLER PUSH1 0x1 PUSH1 0x1 PUSH1 0xA0 SHL SUB DUP7 AND DUP2 EQ DUP1 ISZERO SWAP1 PUSH2 0xDE0 JUMPI POP PUSH2 0xDDE DUP7 DUP3 PUSH2 0x12C2 JUMP JUMPDEST ISZERO JUMPDEST ISZERO PUSH2 0xE16 JUMPI PUSH1 0x40 MLOAD PUSH4 0x711BEC91 PUSH1 0xE1 SHL DUP2 MSTORE PUSH1 0x1 PUSH1 0x1 PUSH1 0xA0 SHL SUB DUP1 DUP4 AND PUSH1 0x4 DUP4 ADD MSTORE DUP8 AND PUSH1 0x24 DUP3 ADD MSTORE PUSH1 0x44 ADD JUMPDEST PUSH1 0x40 MLOAD DUP1 SWAP2 SUB SWAP1 REVERT JUMPDEST PUSH2 0xE23 DUP7 DUP7 DUP7 DUP7 DUP7 PUSH2 0x13F9 JUMP JUMPDEST POP POP POP POP POP POP JUMP JUMPDEST PUSH2 0xE33 PUSH2 0x13C0 JUMP JUMPDEST PUSH2 0xE3B PUSH2 0x1460 JUMP JUMPDEST JUMP JUMPDEST PUSH1 0x60 DUP2 MLOAD DUP4 MLOAD EQ PUSH2 0xE6E JUMPI DUP2 MLOAD DUP4 MLOAD PUSH1 0x40 MLOAD PUSH4 0x5B059991 PUSH1 0xE0 SHL DUP2 MSTORE PUSH1 0x4 DUP2 ADD SWAP3 SWAP1 SWAP3 MSTORE PUSH1 0x24 DUP3 ADD MSTORE PUSH1 0x44 ADD PUSH2 0xE0D JUMP JUMPDEST PUSH1 0x0 DUP4 MLOAD PUSH1 0x1 PUSH1 0x1 PUSH1 0x40 SHL SUB DUP2 GT ISZERO PUSH2 0xE89 JUMPI PUSH2 0xE89 PUSH2 0x1CFE JUMP JUMPDEST PUSH1 0x40 MLOAD SWAP1 DUP1 DUP3 MSTORE DUP1 PUSH1 0x20 MUL PUSH1 0x20 ADD DUP3 ADD PUSH1 0x40 MSTORE DUP1 ISZERO PUSH2 0xEB2 JUMPI DUP2 PUSH1 0x20 ADD PUSH1 0x20 DUP3 MUL DUP1 CALLDATASIZE DUP4 CALLDATACOPY ADD SWAP1 POP JUMPDEST POP SWAP1 POP PUSH1 0x0 JUMPDEST DUP5 MLOAD DUP2 LT ISZERO PUSH2 0xF01 JUMPI PUSH1 0x20 DUP1 DUP3 MUL DUP7 ADD ADD MLOAD PUSH2 0xEDC SWAP1 PUSH1 0x20 DUP1 DUP5 MUL DUP8 ADD ADD MLOAD PUSH2 0x685 JUMP JUMPDEST DUP3 DUP3 DUP2 MLOAD DUP2 LT PUSH2 0xEEE JUMPI PUSH2 0xEEE PUSH2 0x2419 JUMP JUMPDEST PUSH1 0x20 SWAP1 DUP2 MUL SWAP2 SWAP1 SWAP2 ADD ADD MSTORE PUSH1 0x1 ADD PUSH2 0xEB8 JUMP JUMPDEST POP SWAP4 SWAP3 POP POP POP JUMP JUMPDEST PUSH1 0x0 DUP2 DUP2 MSTORE PUSH1 0x8 PUSH1 0x20 MSTORE PUSH1 0x40 SWAP1 KECCAK256 PUSH1 0x3 DUP2 ADD SLOAD PUSH1 0x60 SWAP2 SWAP1 CALLVALUE LT ISZERO PUSH2 0xF40 JUMPI PUSH1 0x40 MLOAD PUSH4 0x717C225 PUSH1 0xE5 SHL DUP2 MSTORE PUSH1 0x4 ADD PUSH1 0x40 MLOAD DUP1 SWAP2 SUB SWAP1 REVERT JUMPDEST PUSH1 0x64 DUP2 PUSH1 0x5 ADD SLOAD PUSH2 0xF51 SWAP2 SWAP1 PUSH2 0x265B JUMP JUMPDEST PUSH2 0xF5C SWAP1 PUSH1 0x1 PUSH2 0x2784 JUMP JUMPDEST DUP2 PUSH1 0x3 ADD PUSH1 0x0 DUP3 DUP3 SLOAD PUSH2 0xF6F SWAP2 SWAP1 PUSH2 0x23C8 JUMP JUMPDEST SWAP3 POP POP DUP2 SWAP1 SSTORE POP CALLVALUE DUP2 PUSH1 0x7 ADD PUSH1 0x0 DUP3 DUP3 SLOAD PUSH2 0xF8A SWAP2 SWAP1 PUSH2 0x2784 JUMP JUMPDEST SWAP1 SWAP2 SSTORE POP POP PUSH1 0x2 DUP2 ADD SLOAD PUSH1 0x7 DUP3 ADD SLOAD LT PUSH2 0x1032 JUMPI PUSH1 0x1 DUP2 ADD DUP1 SLOAD PUSH1 0xFF NOT AND PUSH1 0x2 SWAP1 DUP2 OR SWAP1 SWAP2 SSTORE PUSH1 0x0 PUSH1 0x3 DUP4 ADD DUP2 SWAP1 SSTORE SWAP1 DUP3 ADD SLOAD PUSH1 0x7 DUP4 ADD SLOAD CALLER SWAP2 PUSH2 0xFCD SWAP2 PUSH2 0x2797 JUMP JUMPDEST PUSH1 0x40 MLOAD PUSH1 0x0 DUP2 DUP2 DUP2 DUP6 DUP8 GAS CALL SWAP3 POP POP POP RETURNDATASIZE DUP1 PUSH1 0x0 DUP2 EQ PUSH2 0x1009 JUMPI PUSH1 0x40 MLOAD SWAP2 POP PUSH1 0x1F NOT PUSH1 0x3F RETURNDATASIZE ADD AND DUP3 ADD PUSH1 0x40 MSTORE RETURNDATASIZE DUP3 MSTORE RETURNDATASIZE PUSH1 0x0 PUSH1 0x20 DUP5 ADD RETURNDATACOPY PUSH2 0x100E JUMP JUMPDEST PUSH1 0x60 SWAP2 POP JUMPDEST POP POP SWAP1 POP DUP1 PUSH2 0x1030 JUMPI PUSH1 0x40 MLOAD PUSH4 0x7A4CED1 PUSH1 0xE5 SHL DUP2 MSTORE PUSH1 0x4 ADD PUSH1 0x40 MLOAD DUP1 SWAP2 SUB SWAP1 REVERT JUMPDEST POP JUMPDEST PUSH1 0x0 DUP4 DUP2 MSTORE PUSH1 0xA PUSH1 0x20 MSTORE PUSH1 0x40 SWAP1 KECCAK256 DUP1 SLOAD PUSH2 0x104B SWAP1 PUSH2 0x23DF JUMP JUMPDEST DUP1 PUSH1 0x1F ADD PUSH1 0x20 DUP1 SWAP2 DIV MUL PUSH1 0x20 ADD PUSH1 0x40 MLOAD SWAP1 DUP2 ADD PUSH1 0x40 MSTORE DUP1 SWAP3 SWAP2 SWAP1 DUP2 DUP2 MSTORE PUSH1 0x20 ADD DUP3 DUP1 SLOAD PUSH2 0x1077 SWAP1 PUSH2 0x23DF JUMP JUMPDEST DUP1 ISZERO PUSH2 0x10C4 JUMPI DUP1 PUSH1 0x1F LT PUSH2 0x1099 JUMPI PUSH2 0x100 DUP1 DUP4 SLOAD DIV MUL DUP4 MSTORE SWAP2 PUSH1 0x20 ADD SWAP2 PUSH2 0x10C4 JUMP JUMPDEST DUP3 ADD SWAP2 SWAP1 PUSH1 0x0 MSTORE PUSH1 0x20 PUSH1 0x0 KECCAK256 SWAP1 JUMPDEST DUP2 SLOAD DUP2 MSTORE SWAP1 PUSH1 0x1 ADD SWAP1 PUSH1 0x20 ADD DUP1 DUP4 GT PUSH2 0x10A7 JUMPI DUP3 SWAP1 SUB PUSH1 0x1F AND DUP3 ADD SWAP2 JUMPDEST POP POP POP POP POP SWAP2 POP POP SWAP2 SWAP1 POP JUMP JUMPDEST PUSH1 0x1 PUSH1 0x1 PUSH1 0xA0 SHL SUB DUP4 AND CALLER EQ DUP1 ISZERO SWAP1 PUSH2 0x10F1 JUMPI POP PUSH2 0x10EF DUP4 CALLER PUSH2 0x12C2 JUMP JUMPDEST ISZERO JUMPDEST ISZERO PUSH2 0x1125 JUMPI CALLER JUMPDEST PUSH1 0x40 MLOAD PUSH4 0x711BEC91 PUSH1 0xE1 SHL DUP2 MSTORE PUSH1 0x1 PUSH1 0x1 PUSH1 0xA0 SHL SUB SWAP2 DUP3 AND PUSH1 0x4 DUP3 ADD MSTORE SWAP1 DUP5 AND PUSH1 0x24 DUP3 ADD MSTORE PUSH1 0x44 ADD PUSH2 0xE0D JUMP JUMPDEST PUSH2 0x1130 DUP4 DUP4 DUP4 PUSH2 0x14B5 JUMP JUMPDEST POP POP POP JUMP JUMPDEST PUSH2 0x113D PUSH2 0x13C0 JUMP JUMPDEST PUSH2 0xE3B PUSH1 0x0 PUSH2 0x14FB JUMP JUMPDEST PUSH1 0x0 DUP3 DUP2 MSTORE PUSH1 0x8 PUSH1 0x20 MSTORE PUSH1 0x40 SWAP1 KECCAK256 PUSH1 0x4 ADD SLOAD PUSH2 0x1164 SWAP1 DUP3 SWAP1 PUSH2 0x23C8 JUMP JUMPDEST CALLVALUE LT ISZERO PUSH2 0x1184 JUMPI PUSH1 0x40 MLOAD PUSH4 0x717C225 PUSH1 0xE5 SHL DUP2 MSTORE PUSH1 0x4 ADD PUSH1 0x40 MLOAD DUP1 SWAP2 SUB SWAP1 REVERT JUMPDEST PUSH1 0x0 DUP3 DUP2 MSTORE PUSH1 0x8 PUSH1 0x20 SWAP1 DUP2 MSTORE PUSH1 0x40 DUP1 DUP4 KECCAK256 DUP2 MLOAD SWAP3 DUP4 ADD SWAP1 SWAP2 MSTORE SWAP2 DUP2 MSTORE PUSH2 0x11AF SWAP1 CALLER SWAP1 DUP6 SWAP1 DUP6 SWAP1 PUSH2 0x154D JUMP JUMPDEST CALLVALUE DUP2 PUSH1 0x6 ADD PUSH1 0x0 DUP3 DUP3 SLOAD PUSH2 0x11C3 SWAP2 SWAP1 PUSH2 0x2784 JUMP JUMPDEST SWAP1 SWAP2 SSTORE POP POP PUSH1 0x0 DUP4 DUP2 MSTORE PUSH1 0x9 PUSH1 0x20 MSTORE PUSH1 0x40 DUP1 DUP3 KECCAK256 SLOAD SWAP1 MLOAD PUSH1 0x1 PUSH1 0x1 PUSH1 0xA0 SHL SUB SWAP1 SWAP2 AND SWAP1 CALLVALUE SWAP1 DUP4 DUP2 DUP2 DUP2 DUP6 DUP8 GAS CALL SWAP3 POP POP POP RETURNDATASIZE DUP1 PUSH1 0x0 DUP2 EQ PUSH2 0x1220 JUMPI PUSH1 0x40 MLOAD SWAP2 POP PUSH1 0x1F NOT PUSH1 0x3F RETURNDATASIZE ADD AND DUP3 ADD PUSH1 0x40 MSTORE RETURNDATASIZE DUP3 MSTORE RETURNDATASIZE PUSH1 0x0 PUSH1 0x20 DUP5 ADD RETURNDATACOPY PUSH2 0x1225 JUMP JUMPDEST PUSH1 0x60 SWAP2 POP JUMPDEST POP POP SWAP1 POP DUP1 PUSH2 0x1247 JUMPI PUSH1 0x40 MLOAD PUSH4 0x7A4CED1 PUSH1 0xE5 SHL DUP2 MSTORE PUSH1 0x4 ADD PUSH1 0x40 MLOAD DUP1 SWAP2 SUB SWAP1 REVERT JUMPDEST DUP2 PUSH1 0x2 ADD SLOAD DUP3 PUSH1 0x6 ADD SLOAD LT PUSH2 0x7AD JUMPI POP POP POP PUSH1 0x0 SWAP1 DUP2 MSTORE PUSH1 0x8 PUSH1 0x20 MSTORE PUSH1 0x40 SWAP1 KECCAK256 PUSH1 0x1 SWAP1 DUP2 ADD DUP1 SLOAD PUSH1 0xFF NOT AND SWAP1 SWAP2 OR SWAP1 SSTORE JUMP JUMPDEST PUSH2 0x1281 PUSH2 0x13C0 JUMP JUMPDEST PUSH2 0xE3B PUSH2 0x1559 JUMP JUMPDEST PUSH2 0x1291 PUSH2 0x13C0 JUMP JUMPDEST PUSH1 0x5 DUP1 SLOAD PUSH1 0x1 PUSH1 0x1 PUSH1 0xA0 SHL SUB NOT AND PUSH1 0x1 PUSH1 0x1 PUSH1 0xA0 SHL SUB SWAP3 SWAP1 SWAP3 AND SWAP2 SWAP1 SWAP2 OR SWAP1 SSTORE JUMP JUMPDEST PUSH2 0x12BE CALLER DUP4 DUP4 PUSH2 0x159C JUMP JUMPDEST POP POP JUMP JUMPDEST PUSH1 0x1 PUSH1 0x1 PUSH1 0xA0 SHL SUB SWAP2 DUP3 AND PUSH1 0x0 SWAP1 DUP2 MSTORE PUSH1 0x1 PUSH1 0x20 SWAP1 DUP2 MSTORE PUSH1 0x40 DUP1 DUP4 KECCAK256 SWAP4 SWAP1 SWAP5 AND DUP3 MSTORE SWAP2 SWAP1 SWAP2 MSTORE KECCAK256 SLOAD PUSH1 0xFF AND SWAP1 JUMP JUMPDEST CALLER PUSH1 0x1 PUSH1 0x1 PUSH1 0xA0 SHL SUB DUP7 AND DUP2 EQ DUP1 ISZERO SWAP1 PUSH2 0x1311 JUMPI POP PUSH2 0x130F DUP7 DUP3 PUSH2 0x12C2 JUMP JUMPDEST ISZERO JUMPDEST ISZERO PUSH2 0x1342 JUMPI PUSH1 0x40 MLOAD PUSH4 0x711BEC91 PUSH1 0xE1 SHL DUP2 MSTORE PUSH1 0x1 PUSH1 0x1 PUSH1 0xA0 SHL SUB DUP1 DUP4 AND PUSH1 0x4 DUP4 ADD MSTORE DUP8 AND PUSH1 0x24 DUP3 ADD MSTORE PUSH1 0x44 ADD PUSH2 0xE0D JUMP JUMPDEST PUSH2 0xE23 DUP7 DUP7 DUP7 DUP7 DUP7 PUSH2 0x1632 JUMP JUMPDEST PUSH2 0x1357 PUSH2 0x13C0 JUMP JUMPDEST PUSH1 0x1 PUSH1 0x1 PUSH1 0xA0 SHL SUB DUP2 AND PUSH2 0x1381 JUMPI PUSH1 0x40 MLOAD PUSH4 0x1E4FBDF7 PUSH1 0xE0 SHL DUP2 MSTORE PUSH1 0x0 PUSH1 0x4 DUP3 ADD MSTORE PUSH1 0x24 ADD PUSH2 0xE0D JUMP JUMPDEST PUSH2 0x814 DUP2 PUSH2 0x14FB JUMP JUMPDEST PUSH1 0x1 PUSH1 0x1 PUSH1 0xA0 SHL SUB DUP4 AND CALLER EQ DUP1 ISZERO SWAP1 PUSH2 0x13AA JUMPI POP PUSH2 0x13A8 DUP4 CALLER PUSH2 0x12C2 JUMP JUMPDEST ISZERO JUMPDEST ISZERO PUSH2 0x13B5 JUMPI CALLER PUSH2 0x10F8 JUMP JUMPDEST PUSH2 0x1130 DUP4 DUP4 DUP4 PUSH2 0x16C0 JUMP JUMPDEST PUSH1 0x3 SLOAD PUSH1 0x1 PUSH1 0x1 PUSH1 0xA0 SHL SUB AND CALLER EQ PUSH2 0xE3B JUMPI PUSH1 0x40 MLOAD PUSH4 0x118CDAA7 PUSH1 0xE0 SHL DUP2 MSTORE CALLER PUSH1 0x4 DUP3 ADD MSTORE PUSH1 0x24 ADD PUSH2 0xE0D JUMP JUMPDEST PUSH1 0x2 PUSH2 0x12BE DUP3 DUP3 PUSH2 0x26C5 JUMP JUMPDEST PUSH1 0x1 PUSH1 0x1 PUSH1 0xA0 SHL SUB DUP5 AND PUSH2 0x1423 JUMPI PUSH1 0x40 MLOAD PUSH4 0x2BFA23E7 PUSH1 0xE1 SHL DUP2 MSTORE PUSH1 0x0 PUSH1 0x4 DUP3 ADD MSTORE PUSH1 0x24 ADD PUSH2 0xE0D JUMP JUMPDEST PUSH1 0x1 PUSH1 0x1 PUSH1 0xA0 SHL SUB DUP6 AND PUSH2 0x144C JUMPI PUSH1 0x40 MLOAD PUSH3 0x6A0D45 PUSH1 0xE2 SHL DUP2 MSTORE PUSH1 0x0 PUSH1 0x4 DUP3 ADD MSTORE PUSH1 0x24 ADD PUSH2 0xE0D JUMP JUMPDEST PUSH2 0x1459 DUP6 DUP6 DUP6 DUP6 DUP6 PUSH2 0x1724 JUMP JUMPDEST POP POP POP POP POP JUMP JUMPDEST PUSH2 0x1468 PUSH2 0x1777 JUMP JUMPDEST PUSH1 0x3 DUP1 SLOAD PUSH1 0xFF PUSH1 0xA0 SHL NOT AND SWAP1 SSTORE PUSH32 0x5DB9EE0A495BF2E6FF9C91A7834C1BA4FDD244A5E8AA4E537BD38AEAE4B073AA CALLER JUMPDEST PUSH1 0x40 MLOAD PUSH1 0x1 PUSH1 0x1 PUSH1 0xA0 SHL SUB SWAP1 SWAP2 AND DUP2 MSTORE PUSH1 0x20 ADD PUSH1 0x40 MLOAD DUP1 SWAP2 SUB SWAP1 LOG1 JUMP JUMPDEST PUSH1 0x1 PUSH1 0x1 PUSH1 0xA0 SHL SUB DUP4 AND PUSH2 0x14DE JUMPI PUSH1 0x40 MLOAD PUSH3 0x6A0D45 PUSH1 0xE2 SHL DUP2 MSTORE PUSH1 0x0 PUSH1 0x4 DUP3 ADD MSTORE PUSH1 0x24 ADD PUSH2 0xE0D JUMP JUMPDEST PUSH2 0x1130 DUP4 PUSH1 0x0 DUP5 DUP5 PUSH1 0x40 MLOAD DUP1 PUSH1 0x20 ADD PUSH1 0x40 MSTORE DUP1 PUSH1 0x0 DUP2 MSTORE POP PUSH2 0x1724 JUMP JUMPDEST PUSH1 0x3 DUP1 SLOAD PUSH1 0x1 PUSH1 0x1 PUSH1 0xA0 SHL SUB DUP4 DUP2 AND PUSH1 0x1 PUSH1 0x1 PUSH1 0xA0 SHL SUB NOT DUP4 AND DUP2 OR SWAP1 SWAP4 SSTORE PUSH1 0x40 MLOAD SWAP2 AND SWAP2 SWAP1 DUP3 SWAP1 PUSH32 0x8BE0079C531659141344CD1FD0A4F28419497F9722A3DAAFE3B4186F6B6457E0 SWAP1 PUSH1 0x0 SWAP1 LOG3 POP POP JUMP JUMPDEST PUSH2 0x7AD DUP5 DUP5 DUP5 DUP5 PUSH2 0x17A1 JUMP JUMPDEST PUSH2 0x1561 PUSH2 0x17FE JUMP JUMPDEST PUSH1 0x3 DUP1 SLOAD PUSH1 0xFF PUSH1 0xA0 SHL NOT AND PUSH1 0x1 PUSH1 0xA0 SHL OR SWAP1 SSTORE PUSH32 0x62E78CEA01BEE320CD4E420270B5EA74000D11B0C9F74754EBDBFC544B05A258 PUSH2 0x1498 CALLER SWAP1 JUMP JUMPDEST PUSH1 0x1 PUSH1 0x1 PUSH1 0xA0 SHL SUB DUP3 AND PUSH2 0x15C5 JUMPI PUSH1 0x40 MLOAD PUSH3 0xCED3E1 PUSH1 0xE8 SHL DUP2 MSTORE PUSH1 0x0 PUSH1 0x4 DUP3 ADD MSTORE PUSH1 0x24 ADD PUSH2 0xE0D JUMP JUMPDEST PUSH1 0x1 PUSH1 0x1 PUSH1 0xA0 SHL SUB DUP4 DUP2 AND PUSH1 0x0 DUP2 DUP2 MSTORE PUSH1 0x1 PUSH1 0x20 SWAP1 DUP2 MSTORE PUSH1 0x40 DUP1 DUP4 KECCAK256 SWAP5 DUP8 AND DUP1 DUP5 MSTORE SWAP5 DUP3 MSTORE SWAP2 DUP3 SWAP1 KECCAK256 DUP1 SLOAD PUSH1 0xFF NOT AND DUP7 ISZERO ISZERO SWAP1 DUP2 OR SWAP1 SWAP2 SSTORE SWAP2 MLOAD SWAP2 DUP3 MSTORE PUSH32 0x17307EAB39AB6107E8899845AD3D59BD9653F200F220920489CA2B5937696C31 SWAP2 ADD PUSH1 0x40 MLOAD DUP1 SWAP2 SUB SWAP1 LOG3 POP POP POP JUMP JUMPDEST PUSH1 0x1 PUSH1 0x1 PUSH1 0xA0 SHL SUB DUP5 AND PUSH2 0x165C JUMPI PUSH1 0x40 MLOAD PUSH4 0x2BFA23E7 PUSH1 0xE1 SHL DUP2 MSTORE PUSH1 0x0 PUSH1 0x4 DUP3 ADD MSTORE PUSH1 0x24 ADD PUSH2 0xE0D JUMP JUMPDEST PUSH1 0x1 PUSH1 0x1 PUSH1 0xA0 SHL SUB DUP6 AND PUSH2 0x1685 JUMPI PUSH1 0x40 MLOAD PUSH3 0x6A0D45 PUSH1 0xE2 SHL DUP2 MSTORE PUSH1 0x0 PUSH1 0x4 DUP3 ADD MSTORE PUSH1 0x24 ADD PUSH2 0xE0D JUMP JUMPDEST PUSH1 0x40 DUP1 MLOAD PUSH1 0x1 DUP1 DUP3 MSTORE PUSH1 0x20 DUP3 ADD DUP7 SWAP1 MSTORE DUP2 DUP4 ADD SWAP1 DUP2 MSTORE PUSH1 0x60 DUP3 ADD DUP6 SWAP1 MSTORE PUSH1 0x80 DUP3 ADD SWAP1 SWAP3 MSTORE SWAP1 PUSH2 0x16B7 DUP8 DUP8 DUP5 DUP5 DUP8 PUSH2 0x1724 JUMP JUMPDEST POP POP POP POP POP POP POP JUMP JUMPDEST PUSH1 0x1 PUSH1 0x1 PUSH1 0xA0 SHL SUB DUP4 AND PUSH2 0x16E9 JUMPI PUSH1 0x40 MLOAD PUSH3 0x6A0D45 PUSH1 0xE2 SHL DUP2 MSTORE PUSH1 0x0 PUSH1 0x4 DUP3 ADD MSTORE PUSH1 0x24 ADD PUSH2 0xE0D JUMP JUMPDEST PUSH1 0x40 DUP1 MLOAD PUSH1 0x1 DUP1 DUP3 MSTORE PUSH1 0x20 DUP3 ADD DUP6 SWAP1 MSTORE DUP2 DUP4 ADD SWAP1 DUP2 MSTORE PUSH1 0x60 DUP3 ADD DUP5 SWAP1 MSTORE PUSH1 0xA0 DUP3 ADD SWAP1 SWAP3 MSTORE PUSH1 0x0 PUSH1 0x80 DUP3 ADD DUP2 DUP2 MSTORE SWAP2 SWAP3 SWAP2 PUSH2 0x1459 SWAP2 DUP8 SWAP2 DUP6 SWAP1 DUP6 SWAP1 JUMPDEST PUSH2 0x1730 DUP6 DUP6 DUP6 DUP6 PUSH2 0x1829 JUMP JUMPDEST PUSH1 0x1 PUSH1 0x1 PUSH1 0xA0 SHL SUB DUP5 AND ISZERO PUSH2 0x1459 JUMPI DUP3 MLOAD CALLER SWAP1 PUSH1 0x1 SUB PUSH2 0x1769 JUMPI PUSH1 0x20 DUP5 DUP2 ADD MLOAD SWAP1 DUP5 ADD MLOAD PUSH2 0x1762 DUP4 DUP10 DUP10 DUP6 DUP6 DUP10 PUSH2 0x1835 JUMP JUMPDEST POP POP PUSH2 0xE23 JUMP JUMPDEST PUSH2 0xE23 DUP2 DUP8 DUP8 DUP8 DUP8 DUP8 PUSH2 0x1959 JUMP JUMPDEST PUSH1 0x3 SLOAD PUSH1 0x1 PUSH1 0xA0 SHL SWAP1 DIV PUSH1 0xFF AND PUSH2 0xE3B JUMPI PUSH1 0x40 MLOAD PUSH4 0x8DFC202B PUSH1 0xE0 SHL DUP2 MSTORE PUSH1 0x4 ADD PUSH1 0x40 MLOAD DUP1 SWAP2 SUB SWAP1 REVERT JUMPDEST PUSH1 0x1 PUSH1 0x1 PUSH1 0xA0 SHL SUB DUP5 AND PUSH2 0x17CB JUMPI PUSH1 0x40 MLOAD PUSH4 0x2BFA23E7 PUSH1 0xE1 SHL DUP2 MSTORE PUSH1 0x0 PUSH1 0x4 DUP3 ADD MSTORE PUSH1 0x24 ADD PUSH2 0xE0D JUMP JUMPDEST PUSH1 0x40 DUP1 MLOAD PUSH1 0x1 DUP1 DUP3 MSTORE PUSH1 0x20 DUP3 ADD DUP7 SWAP1 MSTORE DUP2 DUP4 ADD SWAP1 DUP2 MSTORE PUSH1 0x60 DUP3 ADD DUP6 SWAP1 MSTORE PUSH1 0x80 DUP3 ADD SWAP1 SWAP3 MSTORE SWAP1 PUSH2 0xE23 PUSH1 0x0 DUP8 DUP5 DUP5 DUP8 PUSH2 0x1724 JUMP JUMPDEST PUSH1 0x3 SLOAD PUSH1 0x1 PUSH1 0xA0 SHL SWAP1 DIV PUSH1 0xFF AND ISZERO PUSH2 0xE3B JUMPI PUSH1 0x40 MLOAD PUSH4 0xD93C0665 PUSH1 0xE0 SHL DUP2 MSTORE PUSH1 0x4 ADD PUSH1 0x40 MLOAD DUP1 SWAP2 SUB SWAP1 REVERT JUMPDEST PUSH2 0x7AD DUP5 DUP5 DUP5 DUP5 PUSH2 0x1A42 JUMP JUMPDEST PUSH1 0x1 PUSH1 0x1 PUSH1 0xA0 SHL SUB DUP5 AND EXTCODESIZE ISZERO PUSH2 0xE23 JUMPI PUSH1 0x40 MLOAD PUSH4 0xF23A6E61 PUSH1 0xE0 SHL DUP2 MSTORE PUSH1 0x1 PUSH1 0x1 PUSH1 0xA0 SHL SUB DUP6 AND SWAP1 PUSH4 0xF23A6E61 SWAP1 PUSH2 0x1879 SWAP1 DUP10 SWAP1 DUP10 SWAP1 DUP9 SWAP1 DUP9 SWAP1 DUP9 SWAP1 PUSH1 0x4 ADD PUSH2 0x27AA JUMP JUMPDEST PUSH1 0x20 PUSH1 0x40 MLOAD DUP1 DUP4 SUB DUP2 PUSH1 0x0 DUP8 GAS CALL SWAP3 POP POP POP DUP1 ISZERO PUSH2 0x18B4 JUMPI POP PUSH1 0x40 DUP1 MLOAD PUSH1 0x1F RETURNDATASIZE SWAP1 DUP2 ADD PUSH1 0x1F NOT AND DUP3 ADD SWAP1 SWAP3 MSTORE PUSH2 0x18B1 SWAP2 DUP2 ADD SWAP1 PUSH2 0x27EF JUMP JUMPDEST PUSH1 0x1 JUMPDEST PUSH2 0x191D JUMPI RETURNDATASIZE DUP1 DUP1 ISZERO PUSH2 0x18E2 JUMPI PUSH1 0x40 MLOAD SWAP2 POP PUSH1 0x1F NOT PUSH1 0x3F RETURNDATASIZE ADD AND DUP3 ADD PUSH1 0x40 MSTORE RETURNDATASIZE DUP3 MSTORE RETURNDATASIZE PUSH1 0x0 PUSH1 0x20 DUP5 ADD RETURNDATACOPY PUSH2 0x18E7 JUMP JUMPDEST PUSH1 0x60 SWAP2 POP JUMPDEST POP DUP1 MLOAD PUSH1 0x0 SUB PUSH2 0x1915 JUMPI PUSH1 0x40 MLOAD PUSH4 0x2BFA23E7 PUSH1 0xE1 SHL DUP2 MSTORE PUSH1 0x1 PUSH1 0x1 PUSH1 0xA0 SHL SUB DUP7 AND PUSH1 0x4 DUP3 ADD MSTORE PUSH1 0x24 ADD PUSH2 0xE0D JUMP JUMPDEST DUP1 MLOAD DUP2 PUSH1 0x20 ADD REVERT JUMPDEST PUSH1 0x1 PUSH1 0x1 PUSH1 0xE0 SHL SUB NOT DUP2 AND PUSH4 0xF23A6E61 PUSH1 0xE0 SHL EQ PUSH2 0x16B7 JUMPI PUSH1 0x40 MLOAD PUSH4 0x2BFA23E7 PUSH1 0xE1 SHL DUP2 MSTORE PUSH1 0x1 PUSH1 0x1 PUSH1 0xA0 SHL SUB DUP7 AND PUSH1 0x4 DUP3 ADD MSTORE PUSH1 0x24 ADD PUSH2 0xE0D JUMP JUMPDEST PUSH1 0x1 PUSH1 0x1 PUSH1 0xA0 SHL SUB DUP5 AND EXTCODESIZE ISZERO PUSH2 0xE23 JUMPI PUSH1 0x40 MLOAD PUSH4 0xBC197C81 PUSH1 0xE0 SHL DUP2 MSTORE PUSH1 0x1 PUSH1 0x1 PUSH1 0xA0 SHL SUB DUP6 AND SWAP1 PUSH4 0xBC197C81 SWAP1 PUSH2 0x199D SWAP1 DUP10 SWAP1 DUP10 SWAP1 DUP9 SWAP1 DUP9 SWAP1 DUP9 SWAP1 PUSH1 0x4 ADD PUSH2 0x280C JUMP JUMPDEST PUSH1 0x20 PUSH1 0x40 MLOAD DUP1 DUP4 SUB DUP2 PUSH1 0x0 DUP8 GAS CALL SWAP3 POP POP POP DUP1 ISZERO PUSH2 0x19D8 JUMPI POP PUSH1 0x40 DUP1 MLOAD PUSH1 0x1F RETURNDATASIZE SWAP1 DUP2 ADD PUSH1 0x1F NOT AND DUP3 ADD SWAP1 SWAP3 MSTORE PUSH2 0x19D5 SWAP2 DUP2 ADD SWAP1 PUSH2 0x27EF JUMP JUMPDEST PUSH1 0x1 JUMPDEST PUSH2 0x1A06 JUMPI RETURNDATASIZE DUP1 DUP1 ISZERO PUSH2 0x18E2 JUMPI PUSH1 0x40 MLOAD SWAP2 POP PUSH1 0x1F NOT PUSH1 0x3F RETURNDATASIZE ADD AND DUP3 ADD PUSH1 0x40 MSTORE RETURNDATASIZE DUP3 MSTORE RETURNDATASIZE PUSH1 0x0 PUSH1 0x20 DUP5 ADD RETURNDATACOPY PUSH2 0x18E7 JUMP JUMPDEST PUSH1 0x1 PUSH1 0x1 PUSH1 0xE0 SHL SUB NOT DUP2 AND PUSH4 0xBC197C81 PUSH1 0xE0 SHL EQ PUSH2 0x16B7 JUMPI PUSH1 0x40 MLOAD PUSH4 0x2BFA23E7 PUSH1 0xE1 SHL DUP2 MSTORE PUSH1 0x1 PUSH1 0x1 PUSH1 0xA0 SHL SUB DUP7 AND PUSH1 0x4 DUP3 ADD MSTORE PUSH1 0x24 ADD PUSH2 0xE0D JUMP JUMPDEST PUSH2 0x1A4A PUSH2 0x17FE JUMP JUMPDEST PUSH2 0x7AD DUP5 DUP5 DUP5 DUP5 DUP1 MLOAD DUP3 MLOAD EQ PUSH2 0x1A80 JUMPI DUP2 MLOAD DUP2 MLOAD PUSH1 0x40 MLOAD PUSH4 0x5B059991 PUSH1 0xE0 SHL DUP2 MSTORE PUSH1 0x4 DUP2 ADD SWAP3 SWAP1 SWAP3 MSTORE PUSH1 0x24 DUP3 ADD MSTORE PUSH1 0x44 ADD PUSH2 0xE0D JUMP JUMPDEST CALLER PUSH1 0x0 JUMPDEST DUP4 MLOAD DUP2 LT ISZERO PUSH2 0x1B86 JUMPI PUSH1 0x20 DUP2 DUP2 MUL DUP6 DUP2 ADD DUP3 ADD MLOAD SWAP1 DUP6 ADD SWAP1 SWAP2 ADD MLOAD PUSH1 0x1 PUSH1 0x1 PUSH1 0xA0 SHL SUB DUP9 AND ISZERO PUSH2 0x1B37 JUMPI PUSH1 0x0 DUP3 DUP2 MSTORE PUSH1 0x20 DUP2 DUP2 MSTORE PUSH1 0x40 DUP1 DUP4 KECCAK256 PUSH1 0x1 PUSH1 0x1 PUSH1 0xA0 SHL SUB DUP13 AND DUP5 MSTORE SWAP1 SWAP2 MSTORE SWAP1 KECCAK256 SLOAD DUP2 DUP2 LT ISZERO PUSH2 0x1B10 JUMPI PUSH1 0x40 MLOAD PUSH4 0x3DEE4C5 PUSH1 0xE0 SHL DUP2 MSTORE PUSH1 0x1 PUSH1 0x1 PUSH1 0xA0 SHL SUB DUP11 AND PUSH1 0x4 DUP3 ADD MSTORE PUSH1 0x24 DUP2 ADD DUP3 SWAP1 MSTORE PUSH1 0x44 DUP2 ADD DUP4 SWAP1 MSTORE PUSH1 0x64 DUP2 ADD DUP5 SWAP1 MSTORE PUSH1 0x84 ADD PUSH2 0xE0D JUMP JUMPDEST PUSH1 0x0 DUP4 DUP2 MSTORE PUSH1 0x20 DUP2 DUP2 MSTORE PUSH1 0x40 DUP1 DUP4 KECCAK256 PUSH1 0x1 PUSH1 0x1 PUSH1 0xA0 SHL SUB DUP14 AND DUP5 MSTORE SWAP1 SWAP2 MSTORE SWAP1 KECCAK256 SWAP1 DUP3 SWAP1 SUB SWAP1 SSTORE JUMPDEST PUSH1 0x1 PUSH1 0x1 PUSH1 0xA0 SHL SUB DUP8 AND ISZERO PUSH2 0x1B7C JUMPI PUSH1 0x0 DUP3 DUP2 MSTORE PUSH1 0x20 DUP2 DUP2 MSTORE PUSH1 0x40 DUP1 DUP4 KECCAK256 PUSH1 0x1 PUSH1 0x1 PUSH1 0xA0 SHL SUB DUP12 AND DUP5 MSTORE SWAP1 SWAP2 MSTORE DUP2 KECCAK256 DUP1 SLOAD DUP4 SWAP3 SWAP1 PUSH2 0x1B76 SWAP1 DUP5 SWAP1 PUSH2 0x2784 JUMP JUMPDEST SWAP1 SWAP2 SSTORE POP POP JUMPDEST POP POP PUSH1 0x1 ADD PUSH2 0x1A84 JUMP JUMPDEST POP DUP3 MLOAD PUSH1 0x1 SUB PUSH2 0x1C07 JUMPI PUSH1 0x20 DUP4 ADD MLOAD PUSH1 0x0 SWAP1 PUSH1 0x20 DUP5 ADD MLOAD SWAP1 SWAP2 POP DUP6 PUSH1 0x1 PUSH1 0x1 PUSH1 0xA0 SHL SUB AND DUP8 PUSH1 0x1 PUSH1 0x1 PUSH1 0xA0 SHL SUB AND DUP5 PUSH1 0x1 PUSH1 0x1 PUSH1 0xA0 SHL SUB AND PUSH32 0xC3D58168C5AE7397731D063D5BBF3D657854427343F4C083240F7AACAA2D0F62 DUP6 DUP6 PUSH1 0x40 MLOAD PUSH2 0x1BF8 SWAP3 SWAP2 SWAP1 SWAP2 DUP3 MSTORE PUSH1 0x20 DUP3 ADD MSTORE PUSH1 0x40 ADD SWAP1 JUMP JUMPDEST PUSH1 0x40 MLOAD DUP1 SWAP2 SUB SWAP1 LOG4 POP POP PUSH2 0x1459 JUMP JUMPDEST DUP4 PUSH1 0x1 PUSH1 0x1 PUSH1 0xA0 SHL SUB AND DUP6 PUSH1 0x1 PUSH1 0x1 PUSH1 0xA0 SHL SUB AND DUP3 PUSH1 0x1 PUSH1 0x1 PUSH1 0xA0 SHL SUB AND PUSH32 0x4A39DC06D4C0DBC64B70AF90FD698A233A518AA5D07E595D983B8C0526C8F7FB DUP7 DUP7 PUSH1 0x40 MLOAD PUSH2 0x1C56 SWAP3 SWAP2 SWAP1 PUSH2 0x286A JUMP JUMPDEST PUSH1 0x40 MLOAD DUP1 SWAP2 SUB SWAP1 LOG4 POP POP POP POP POP JUMP JUMPDEST DUP1 CALLDATALOAD PUSH1 0x1 PUSH1 0x1 PUSH1 0xA0 SHL SUB DUP2 AND DUP2 EQ PUSH2 0x1C7C JUMPI PUSH1 0x0 DUP1 REVERT JUMPDEST SWAP2 SWAP1 POP JUMP JUMPDEST PUSH1 0x0 DUP1 PUSH1 0x40 DUP4 DUP6 SUB SLT ISZERO PUSH2 0x1C94 JUMPI PUSH1 0x0 DUP1 REVERT JUMPDEST PUSH2 0x1C9D DUP4 PUSH2 0x1C65 JUMP JUMPDEST SWAP5 PUSH1 0x20 SWAP4 SWAP1 SWAP4 ADD CALLDATALOAD SWAP4 POP POP POP JUMP JUMPDEST PUSH1 0x0 PUSH1 0x20 DUP3 DUP5 SUB SLT ISZERO PUSH2 0x1CBD JUMPI PUSH1 0x0 DUP1 REVERT JUMPDEST POP CALLDATALOAD SWAP2 SWAP1 POP JUMP JUMPDEST PUSH1 0x1 PUSH1 0x1 PUSH1 0xE0 SHL SUB NOT DUP2 AND DUP2 EQ PUSH2 0x814 JUMPI PUSH1 0x0 DUP1 REVERT JUMPDEST PUSH1 0x0 PUSH1 0x20 DUP3 DUP5 SUB SLT ISZERO PUSH2 0x1CEC JUMPI PUSH1 0x0 DUP1 REVERT JUMPDEST DUP2 CALLDATALOAD PUSH2 0x1CF7 DUP2 PUSH2 0x1CC4 JUMP JUMPDEST SWAP4 SWAP3 POP POP POP JUMP JUMPDEST PUSH4 0x4E487B71 PUSH1 0xE0 SHL PUSH1 0x0 MSTORE PUSH1 0x41 PUSH1 0x4 MSTORE PUSH1 0x24 PUSH1 0x0 REVERT JUMPDEST PUSH1 0x40 MLOAD PUSH1 0x1F DUP3 ADD PUSH1 0x1F NOT AND DUP2 ADD PUSH1 0x1 PUSH1 0x1 PUSH1 0x40 SHL SUB DUP2 GT DUP3 DUP3 LT OR ISZERO PUSH2 0x1D3C JUMPI PUSH2 0x1D3C PUSH2 0x1CFE JUMP JUMPDEST PUSH1 0x40 MSTORE SWAP2 SWAP1 POP JUMP JUMPDEST PUSH1 0x0 DUP3 PUSH1 0x1F DUP4 ADD SLT PUSH2 0x1D55 JUMPI PUSH1 0x0 DUP1 REVERT JUMPDEST DUP2 CALLDATALOAD PUSH1 0x1 PUSH1 0x1 PUSH1 0x40 SHL SUB DUP2 GT ISZERO PUSH2 0x1D6E JUMPI PUSH2 0x1D6E PUSH2 0x1CFE JUMP JUMPDEST PUSH2 0x1D81 PUSH1 0x1F DUP3 ADD PUSH1 0x1F NOT AND PUSH1 0x20 ADD PUSH2 0x1D14 JUMP JUMPDEST DUP2 DUP2 MSTORE DUP5 PUSH1 0x20 DUP4 DUP7 ADD ADD GT ISZERO PUSH2 0x1D96 JUMPI PUSH1 0x0 DUP1 REVERT JUMPDEST DUP2 PUSH1 0x20 DUP6 ADD PUSH1 0x20 DUP4 ADD CALLDATACOPY PUSH1 0x0 SWAP2 DUP2 ADD PUSH1 0x20 ADD SWAP2 SWAP1 SWAP2 MSTORE SWAP4 SWAP3 POP POP POP JUMP JUMPDEST PUSH1 0x0 PUSH1 0x20 DUP3 DUP5 SUB SLT ISZERO PUSH2 0x1DC5 JUMPI PUSH1 0x0 DUP1 REVERT JUMPDEST DUP2 CALLDATALOAD PUSH1 0x1 PUSH1 0x1 PUSH1 0x40 SHL SUB DUP2 GT ISZERO PUSH2 0x1DDB JUMPI PUSH1 0x0 DUP1 REVERT JUMPDEST PUSH2 0x1DE7 DUP5 DUP3 DUP6 ADD PUSH2 0x1D44 JUMP JUMPDEST SWAP5 SWAP4 POP POP POP POP JUMP JUMPDEST PUSH1 0x1 PUSH1 0x1 PUSH1 0x40 SHL SUB DUP2 AND DUP2 EQ PUSH2 0x814 JUMPI PUSH1 0x0 DUP1 REVERT JUMPDEST PUSH1 0x0 PUSH1 0x20 DUP3 DUP5 SUB SLT ISZERO PUSH2 0x1E16 JUMPI PUSH1 0x0 DUP1 REVERT JUMPDEST DUP2 CALLDATALOAD PUSH2 0x1CF7 DUP2 PUSH2 0x1DEF JUMP JUMPDEST PUSH4 0x4E487B71 PUSH1 0xE0 SHL PUSH1 0x0 MSTORE PUSH1 0x21 PUSH1 0x4 MSTORE PUSH1 0x24 PUSH1 0x0 REVERT JUMPDEST DUP10 DUP2 MSTORE PUSH2 0x120 DUP2 ADD PUSH1 0x3 DUP11 LT PUSH2 0x1E4F JUMPI PUSH2 0x1E4F PUSH2 0x1E21 JUMP JUMPDEST PUSH1 0x20 DUP3 ADD SWAP10 SWAP1 SWAP10 MSTORE PUSH1 0x40 DUP2 ADD SWAP8 SWAP1 SWAP8 MSTORE PUSH1 0x60 DUP8 ADD SWAP6 SWAP1 SWAP6 MSTORE PUSH1 0x80 DUP7 ADD SWAP4 SWAP1 SWAP4 MSTORE PUSH1 0xA0 DUP6 ADD SWAP2 SWAP1 SWAP2 MSTORE PUSH1 0xC0 DUP5 ADD MSTORE PUSH1 0xE0 DUP4 ADD MSTORE PUSH1 0x1 PUSH1 0x1 PUSH1 0xA0 SHL SUB AND PUSH2 0x100 SWAP1 SWAP2 ADD MSTORE SWAP2 SWAP1 POP JUMP JUMPDEST PUSH1 0x0 JUMPDEST DUP4 DUP2 LT ISZERO PUSH2 0x1EB1 JUMPI DUP2 DUP2 ADD MLOAD DUP4 DUP3 ADD MSTORE PUSH1 0x20 ADD PUSH2 0x1E99 JUMP JUMPDEST POP POP PUSH1 0x0 SWAP2 ADD MSTORE JUMP JUMPDEST PUSH1 0x0 DUP2 MLOAD DUP1 DUP5 MSTORE PUSH2 0x1ED2 DUP2 PUSH1 0x20 DUP7 ADD PUSH1 0x20 DUP7 ADD PUSH2 0x1E96 JUMP JUMPDEST PUSH1 0x1F ADD PUSH1 0x1F NOT AND SWAP3 SWAP1 SWAP3 ADD PUSH1 0x20 ADD SWAP3 SWAP2 POP POP JUMP JUMPDEST PUSH1 0x20 DUP2 MSTORE PUSH1 0x0 PUSH2 0x1CF7 PUSH1 0x20 DUP4 ADD DUP5 PUSH2 0x1EBA JUMP JUMPDEST PUSH1 0x0 DUP1 PUSH1 0x40 DUP4 DUP6 SUB SLT ISZERO PUSH2 0x1F0C JUMPI PUSH1 0x0 DUP1 REVERT JUMPDEST DUP3 CALLDATALOAD SWAP2 POP PUSH1 0x20 DUP4 ADD CALLDATALOAD PUSH1 0x1 PUSH1 0x1 PUSH1 0x40 SHL SUB DUP2 GT ISZERO PUSH2 0x1F29 JUMPI PUSH1 0x0 DUP1 REVERT JUMPDEST PUSH2 0x1F35 DUP6 DUP3 DUP7 ADD PUSH2 0x1D44 JUMP JUMPDEST SWAP2 POP POP SWAP3 POP SWAP3 SWAP1 POP JUMP JUMPDEST PUSH1 0x0 DUP1 PUSH1 0x0 DUP1 PUSH1 0x0 PUSH1 0xA0 DUP7 DUP9 SUB SLT ISZERO PUSH2 0x1F57 JUMPI PUSH1 0x0 DUP1 REVERT JUMPDEST DUP6 CALLDATALOAD PUSH1 0x1 PUSH1 0x1 PUSH1 0x40 SHL SUB DUP1 DUP3 GT ISZERO PUSH2 0x1F6E JUMPI PUSH1 0x0 DUP1 REVERT JUMPDEST PUSH2 0x1F7A DUP10 DUP4 DUP11 ADD PUSH2 0x1D44 JUMP JUMPDEST SWAP7 POP PUSH1 0x20 DUP9 ADD CALLDATALOAD SWAP2 POP DUP1 DUP3 GT ISZERO PUSH2 0x1F90 JUMPI PUSH1 0x0 DUP1 REVERT JUMPDEST POP PUSH2 0x1F9D DUP9 DUP3 DUP10 ADD PUSH2 0x1D44 JUMP JUMPDEST SWAP6 SWAP9 SWAP6 SWAP8 POP POP POP POP PUSH1 0x40 DUP5 ADD CALLDATALOAD SWAP4 PUSH1 0x60 DUP2 ADD CALLDATALOAD SWAP4 PUSH1 0x80 SWAP1 SWAP2 ADD CALLDATALOAD SWAP3 POP SWAP1 POP JUMP JUMPDEST PUSH1 0x0 PUSH1 0x1 PUSH1 0x1 PUSH1 0x40 SHL SUB DUP3 GT ISZERO PUSH2 0x1FD6 JUMPI PUSH2 0x1FD6 PUSH2 0x1CFE JUMP JUMPDEST POP PUSH1 0x5 SHL PUSH1 0x20 ADD SWAP1 JUMP JUMPDEST PUSH1 0x0 DUP3 PUSH1 0x1F DUP4 ADD SLT PUSH2 0x1FF1 JUMPI PUSH1 0x0 DUP1 REVERT JUMPDEST DUP2 CALLDATALOAD PUSH1 0x20 PUSH2 0x2006 PUSH2 0x2001 DUP4 PUSH2 0x1FBD JUMP JUMPDEST PUSH2 0x1D14 JUMP JUMPDEST DUP1 DUP4 DUP3 MSTORE PUSH1 0x20 DUP3 ADD SWAP2 POP PUSH1 0x20 DUP5 PUSH1 0x5 SHL DUP8 ADD ADD SWAP4 POP DUP7 DUP5 GT ISZERO PUSH2 0x2028 JUMPI PUSH1 0x0 DUP1 REVERT JUMPDEST PUSH1 0x20 DUP7 ADD JUMPDEST DUP5 DUP2 LT ISZERO PUSH2 0x2044 JUMPI DUP1 CALLDATALOAD DUP4 MSTORE SWAP2 DUP4 ADD SWAP2 DUP4 ADD PUSH2 0x202D JUMP JUMPDEST POP SWAP7 SWAP6 POP POP POP POP POP POP JUMP JUMPDEST PUSH1 0x0 DUP1 PUSH1 0x0 DUP1 PUSH1 0x0 PUSH1 0xA0 DUP7 DUP9 SUB SLT ISZERO PUSH2 0x2067 JUMPI PUSH1 0x0 DUP1 REVERT JUMPDEST PUSH2 0x2070 DUP7 PUSH2 0x1C65 JUMP JUMPDEST SWAP5 POP PUSH2 0x207E PUSH1 0x20 DUP8 ADD PUSH2 0x1C65 JUMP JUMPDEST SWAP4 POP PUSH1 0x40 DUP7 ADD CALLDATALOAD PUSH1 0x1 PUSH1 0x1 PUSH1 0x40 SHL SUB DUP1 DUP3 GT ISZERO PUSH2 0x209A JUMPI PUSH1 0x0 DUP1 REVERT JUMPDEST PUSH2 0x20A6 DUP10 DUP4 DUP11 ADD PUSH2 0x1FE0 JUMP JUMPDEST SWAP5 POP PUSH1 0x60 DUP9 ADD CALLDATALOAD SWAP2 POP DUP1 DUP3 GT ISZERO PUSH2 0x20BC JUMPI PUSH1 0x0 DUP1 REVERT JUMPDEST PUSH2 0x20C8 DUP10 DUP4 DUP11 ADD PUSH2 0x1FE0 JUMP JUMPDEST SWAP4 POP PUSH1 0x80 DUP9 ADD CALLDATALOAD SWAP2 POP DUP1 DUP3 GT ISZERO PUSH2 0x20DE JUMPI PUSH1 0x0 DUP1 REVERT JUMPDEST POP PUSH2 0x20EB DUP9 DUP3 DUP10 ADD PUSH2 0x1D44 JUMP JUMPDEST SWAP2 POP POP SWAP3 SWAP6 POP SWAP3 SWAP6 SWAP1 SWAP4 POP JUMP JUMPDEST PUSH1 0x0 DUP1 PUSH1 0x40 DUP4 DUP6 SUB SLT ISZERO PUSH2 0x210B JUMPI PUSH1 0x0 DUP1 REVERT JUMPDEST DUP3 CALLDATALOAD PUSH1 0x1 PUSH1 0x1 PUSH1 0x40 SHL SUB DUP1 DUP3 GT ISZERO PUSH2 0x2122 JUMPI PUSH1 0x0 DUP1 REVERT JUMPDEST DUP2 DUP6 ADD SWAP2 POP DUP6 PUSH1 0x1F DUP4 ADD SLT PUSH2 0x2136 JUMPI PUSH1 0x0 DUP1 REVERT JUMPDEST DUP2 CALLDATALOAD PUSH1 0x20 PUSH2 0x2146 PUSH2 0x2001 DUP4 PUSH2 0x1FBD JUMP JUMPDEST DUP3 DUP2 MSTORE PUSH1 0x5 SWAP3 SWAP1 SWAP3 SHL DUP5 ADD DUP2 ADD SWAP2 DUP2 DUP2 ADD SWAP1 DUP10 DUP5 GT ISZERO PUSH2 0x2165 JUMPI PUSH1 0x0 DUP1 REVERT JUMPDEST SWAP5 DUP3 ADD SWAP5 JUMPDEST DUP4 DUP7 LT ISZERO PUSH2 0x218A JUMPI PUSH2 0x217B DUP7 PUSH2 0x1C65 JUMP JUMPDEST DUP3 MSTORE SWAP5 DUP3 ADD SWAP5 SWAP1 DUP3 ADD SWAP1 PUSH2 0x216A JUMP JUMPDEST SWAP7 POP POP DUP7 ADD CALLDATALOAD SWAP3 POP POP DUP1 DUP3 GT ISZERO PUSH2 0x21A0 JUMPI PUSH1 0x0 DUP1 REVERT JUMPDEST POP PUSH2 0x1F35 DUP6 DUP3 DUP7 ADD PUSH2 0x1FE0 JUMP JUMPDEST PUSH1 0x0 DUP2 MLOAD DUP1 DUP5 MSTORE PUSH1 0x20 DUP1 DUP6 ADD SWAP5 POP PUSH1 0x20 DUP5 ADD PUSH1 0x0 JUMPDEST DUP4 DUP2 LT ISZERO PUSH2 0x21DE JUMPI DUP2 MLOAD DUP8 MSTORE SWAP6 DUP3 ADD SWAP6 SWAP1 DUP3 ADD SWAP1 PUSH1 0x1 ADD PUSH2 0x21C2 JUMP JUMPDEST POP SWAP5 SWAP6 SWAP5 POP POP POP POP POP JUMP JUMPDEST PUSH1 0x20 DUP2 MSTORE PUSH1 0x0 PUSH2 0x1CF7 PUSH1 0x20 DUP4 ADD DUP5 PUSH2 0x21AD JUMP JUMPDEST PUSH1 0x0 DUP1 PUSH1 0x0 PUSH1 0x60 DUP5 DUP7 SUB SLT ISZERO PUSH2 0x2211 JUMPI PUSH1 0x0 DUP1 REVERT JUMPDEST PUSH2 0x221A DUP5 PUSH2 0x1C65 JUMP JUMPDEST SWAP3 POP PUSH1 0x20 DUP5 ADD CALLDATALOAD PUSH1 0x1 PUSH1 0x1 PUSH1 0x40 SHL SUB DUP1 DUP3 GT ISZERO PUSH2 0x2236 JUMPI PUSH1 0x0 DUP1 REVERT JUMPDEST PUSH2 0x2242 DUP8 DUP4 DUP9 ADD PUSH2 0x1FE0 JUMP JUMPDEST SWAP4 POP PUSH1 0x40 DUP7 ADD CALLDATALOAD SWAP2 POP DUP1 DUP3 GT ISZERO PUSH2 0x2258 JUMPI PUSH1 0x0 DUP1 REVERT JUMPDEST POP PUSH2 0x2265 DUP7 DUP3 DUP8 ADD PUSH2 0x1FE0 JUMP JUMPDEST SWAP2 POP POP SWAP3 POP SWAP3 POP SWAP3 JUMP JUMPDEST PUSH1 0x0 DUP1 PUSH1 0x40 DUP4 DUP6 SUB SLT ISZERO PUSH2 0x2282 JUMPI PUSH1 0x0 DUP1 REVERT JUMPDEST POP POP DUP1 CALLDATALOAD SWAP3 PUSH1 0x20 SWAP1 SWAP2 ADD CALLDATALOAD SWAP2 POP JUMP JUMPDEST PUSH1 0x0 PUSH1 0x20 DUP3 DUP5 SUB SLT ISZERO PUSH2 0x22A3 JUMPI PUSH1 0x0 DUP1 REVERT JUMPDEST PUSH2 0x1CF7 DUP3 PUSH2 0x1C65 JUMP JUMPDEST PUSH1 0x0 DUP1 PUSH1 0x40 DUP4 DUP6 SUB SLT ISZERO PUSH2 0x22BF JUMPI PUSH1 0x0 DUP1 REVERT JUMPDEST PUSH2 0x22C8 DUP4 PUSH2 0x1C65 JUMP JUMPDEST SWAP2 POP PUSH1 0x20 DUP4 ADD CALLDATALOAD DUP1 ISZERO ISZERO DUP2 EQ PUSH2 0x22DD JUMPI PUSH1 0x0 DUP1 REVERT JUMPDEST DUP1 SWAP2 POP POP SWAP3 POP SWAP3 SWAP1 POP JUMP JUMPDEST PUSH1 0x0 DUP1 PUSH1 0x40 DUP4 DUP6 SUB SLT ISZERO PUSH2 0x22FB JUMPI PUSH1 0x0 DUP1 REVERT JUMPDEST PUSH2 0x2304 DUP4 PUSH2 0x1C65 JUMP JUMPDEST SWAP2 POP PUSH2 0x2312 PUSH1 0x20 DUP5 ADD PUSH2 0x1C65 JUMP JUMPDEST SWAP1 POP SWAP3 POP SWAP3 SWAP1 POP JUMP JUMPDEST PUSH1 0x0 DUP1 PUSH1 0x0 DUP1 PUSH1 0x0 PUSH1 0xA0 DUP7 DUP9 SUB SLT ISZERO PUSH2 0x2333 JUMPI PUSH1 0x0 DUP1 REVERT JUMPDEST PUSH2 0x233C DUP7 PUSH2 0x1C65 JUMP JUMPDEST SWAP5 POP PUSH2 0x234A PUSH1 0x20 DUP8 ADD PUSH2 0x1C65 JUMP JUMPDEST SWAP4 POP PUSH1 0x40 DUP7 ADD CALLDATALOAD SWAP3 POP PUSH1 0x60 DUP7 ADD CALLDATALOAD SWAP2 POP PUSH1 0x80 DUP7 ADD CALLDATALOAD PUSH1 0x1 PUSH1 0x1 PUSH1 0x40 SHL SUB DUP2 GT ISZERO PUSH2 0x2373 JUMPI PUSH1 0x0 DUP1 REVERT JUMPDEST PUSH2 0x20EB DUP9 DUP3 DUP10 ADD PUSH2 0x1D44 JUMP JUMPDEST PUSH1 0x0 DUP1 PUSH1 0x0 PUSH1 0x60 DUP5 DUP7 SUB SLT ISZERO PUSH2 0x2394 JUMPI PUSH1 0x0 DUP1 REVERT JUMPDEST PUSH2 0x239D DUP5 PUSH2 0x1C65 JUMP JUMPDEST SWAP6 PUSH1 0x20 DUP6 ADD CALLDATALOAD SWAP6 POP PUSH1 0x40 SWAP1 SWAP5 ADD CALLDATALOAD SWAP4 SWAP3 POP POP POP JUMP JUMPDEST PUSH4 0x4E487B71 PUSH1 0xE0 SHL PUSH1 0x0 MSTORE PUSH1 0x11 PUSH1 0x4 MSTORE PUSH1 0x24 PUSH1 0x0 REVERT JUMPDEST DUP1 DUP3 MUL DUP2 ISZERO DUP3 DUP3 DIV DUP5 EQ OR PUSH2 0x6A7 JUMPI PUSH2 0x6A7 PUSH2 0x23B2 JUMP JUMPDEST PUSH1 0x1 DUP2 DUP2 SHR SWAP1 DUP3 AND DUP1 PUSH2 0x23F3 JUMPI PUSH1 0x7F DUP3 AND SWAP2 POP JUMPDEST PUSH1 0x20 DUP3 LT DUP2 SUB PUSH2 0x2413 JUMPI PUSH4 0x4E487B71 PUSH1 0xE0 SHL PUSH1 0x0 MSTORE PUSH1 0x22 PUSH1 0x4 MSTORE PUSH1 0x24 PUSH1 0x0 REVERT JUMPDEST POP SWAP2 SWAP1 POP JUMP JUMPDEST PUSH4 0x4E487B71 PUSH1 0xE0 SHL PUSH1 0x0 MSTORE PUSH1 0x32 PUSH1 0x4 MSTORE PUSH1 0x24 PUSH1 0x0 REVERT JUMPDEST PUSH1 0x4 DUP2 LT PUSH2 0x243F JUMPI PUSH2 0x243F PUSH2 0x1E21 JUMP JUMPDEST SWAP1 MSTORE JUMP JUMPDEST PUSH1 0x0 DUP3 DUP3 MLOAD DUP1 DUP6 MSTORE PUSH1 0x20 DUP1 DUP7 ADD SWAP6 POP PUSH1 0x20 DUP3 PUSH1 0x5 SHL DUP5 ADD ADD PUSH1 0x20 DUP7 ADD PUSH1 0x0 JUMPDEST DUP5 DUP2 LT ISZERO PUSH2 0x2490 JUMPI PUSH1 0x1F NOT DUP7 DUP5 SUB ADD DUP10 MSTORE PUSH2 0x247E DUP4 DUP4 MLOAD PUSH2 0x1EBA JUMP JUMPDEST SWAP9 DUP5 ADD SWAP9 SWAP3 POP SWAP1 DUP4 ADD SWAP1 PUSH1 0x1 ADD PUSH2 0x2462 JUMP JUMPDEST POP SWAP1 SWAP8 SWAP7 POP POP POP POP POP POP POP JUMP JUMPDEST PUSH1 0x80 DUP2 MSTORE PUSH2 0x24B7 PUSH1 0x80 DUP3 ADD DUP4 MLOAD PUSH1 0x1 PUSH1 0x1 PUSH1 0x40 SHL SUB AND SWAP1 MSTORE JUMP JUMPDEST PUSH1 0x0 PUSH1 0x20 DUP4 ADD MLOAD PUSH2 0x24D3 PUSH1 0xA0 DUP5 ADD DUP3 PUSH1 0x1 PUSH1 0x1 PUSH1 0x40 SHL SUB AND SWAP1 MSTORE JUMP JUMPDEST POP PUSH1 0x40 DUP4 ADD MLOAD PUSH1 0x1 PUSH1 0x1 PUSH1 0x40 SHL SUB SWAP1 DUP2 AND PUSH1 0xC0 DUP5 ADD MSTORE PUSH1 0x60 DUP5 ADD MLOAD AND PUSH1 0xE0 DUP4 ADD MSTORE PUSH1 0x80 DUP4 ADD MLOAD PUSH1 0x1 PUSH1 0x1 PUSH1 0xA0 SHL SUB DUP2 AND PUSH2 0x100 DUP1 DUP6 ADD SWAP2 SWAP1 SWAP2 MSTORE PUSH1 0xA0 DUP6 ADD MLOAD SWAP2 POP PUSH2 0x120 PUSH2 0x252B DUP2 DUP7 ADD DUP5 PUSH1 0x1 PUSH1 0x1 PUSH1 0x40 SHL SUB AND SWAP1 MSTORE JUMP JUMPDEST PUSH1 0xC0 DUP7 ADD MLOAD SWAP3 POP PUSH2 0x140 PUSH2 0x2541 DUP2 DUP8 ADD DUP6 PUSH2 0x242F JUMP JUMPDEST PUSH1 0xE0 DUP8 ADD MLOAD ISZERO ISZERO PUSH2 0x160 DUP8 ADD MSTORE DUP3 DUP8 ADD MLOAD PUSH2 0x180 DUP8 ADD SWAP2 SWAP1 SWAP2 MSTORE SWAP3 POP PUSH2 0x256B PUSH2 0x1C0 DUP7 ADD DUP5 PUSH2 0x2443 JUMP JUMPDEST SWAP1 DUP7 ADD MLOAD DUP6 DUP3 SUB PUSH1 0x7F NOT ADD PUSH2 0x1A0 DUP8 ADD MSTORE SWAP1 SWAP3 POP SWAP1 POP PUSH2 0x258B DUP3 DUP3 PUSH2 0x1EBA JUMP JUMPDEST SWAP2 POP POP DUP3 DUP2 SUB PUSH1 0x20 DUP5 ADD MSTORE PUSH2 0x25A4 DUP2 PUSH1 0x0 DUP2 MSTORE PUSH1 0x20 ADD SWAP1 JUMP JUMPDEST DUP4 DUP2 SUB PUSH1 0x40 DUP6 ADD MSTORE PUSH1 0x0 DUP2 MSTORE SWAP1 POP PUSH1 0x20 DUP2 ADD DUP4 DUP2 SUB PUSH1 0x60 DUP6 ADD MSTORE PUSH1 0x0 DUP2 MSTORE SWAP1 POP PUSH1 0x20 DUP2 ADD PUSH2 0x1DE7 JUMP JUMPDEST PUSH1 0x0 PUSH1 0x20 DUP3 DUP5 SUB SLT ISZERO PUSH2 0x25DF JUMPI PUSH1 0x0 DUP1 REVERT JUMPDEST DUP2 MLOAD PUSH2 0x1CF7 DUP2 PUSH2 0x1DEF JUMP JUMPDEST PUSH1 0x1 PUSH1 0x1 PUSH1 0xA0 SHL SUB DUP5 AND DUP2 MSTORE PUSH1 0x1 PUSH1 0x1 PUSH1 0x40 SHL SUB DUP4 AND PUSH1 0x20 DUP3 ADD MSTORE PUSH1 0x60 PUSH1 0x40 DUP3 ADD DUP2 SWAP1 MSTORE PUSH1 0x0 SWAP1 PUSH2 0x261D SWAP1 DUP4 ADD DUP5 PUSH2 0x1EBA JUMP JUMPDEST SWAP6 SWAP5 POP POP POP POP POP JUMP JUMPDEST PUSH1 0x0 DUP3 MLOAD PUSH2 0x2638 DUP2 DUP5 PUSH1 0x20 DUP8 ADD PUSH2 0x1E96 JUMP JUMPDEST SWAP2 SWAP1 SWAP2 ADD SWAP3 SWAP2 POP POP JUMP JUMPDEST PUSH1 0x0 PUSH1 0x1 DUP3 ADD PUSH2 0x2654 JUMPI PUSH2 0x2654 PUSH2 0x23B2 JUMP JUMPDEST POP PUSH1 0x1 ADD SWAP1 JUMP JUMPDEST PUSH1 0x0 DUP3 PUSH2 0x2678 JUMPI PUSH4 0x4E487B71 PUSH1 0xE0 SHL PUSH1 0x0 MSTORE PUSH1 0x12 PUSH1 0x4 MSTORE PUSH1 0x24 PUSH1 0x0 REVERT JUMPDEST POP DIV SWAP1 JUMP JUMPDEST PUSH1 0x1F DUP3 GT ISZERO PUSH2 0x1130 JUMPI PUSH1 0x0 DUP2 PUSH1 0x0 MSTORE PUSH1 0x20 PUSH1 0x0 KECCAK256 PUSH1 0x1F DUP6 ADD PUSH1 0x5 SHR DUP2 ADD PUSH1 0x20 DUP7 LT ISZERO PUSH2 0x26A6 JUMPI POP DUP1 JUMPDEST PUSH1 0x1F DUP6 ADD PUSH1 0x5 SHR DUP3 ADD SWAP2 POP JUMPDEST DUP2 DUP2 LT ISZERO PUSH2 0xE23 JUMPI DUP3 DUP2 SSTORE PUSH1 0x1 ADD PUSH2 0x26B2 JUMP JUMPDEST DUP2 MLOAD PUSH1 0x1 PUSH1 0x1 PUSH1 0x40 SHL SUB DUP2 GT ISZERO PUSH2 0x26DE JUMPI PUSH2 0x26DE PUSH2 0x1CFE JUMP JUMPDEST PUSH2 0x26F2 DUP2 PUSH2 0x26EC DUP5 SLOAD PUSH2 0x23DF JUMP JUMPDEST DUP5 PUSH2 0x267D JUMP JUMPDEST PUSH1 0x20 DUP1 PUSH1 0x1F DUP4 GT PUSH1 0x1 DUP2 EQ PUSH2 0x2727 JUMPI PUSH1 0x0 DUP5 ISZERO PUSH2 0x270F JUMPI POP DUP6 DUP4 ADD MLOAD JUMPDEST PUSH1 0x0 NOT PUSH1 0x3 DUP7 SWAP1 SHL SHR NOT AND PUSH1 0x1 DUP6 SWAP1 SHL OR DUP6 SSTORE PUSH2 0xE23 JUMP JUMPDEST PUSH1 0x0 DUP6 DUP2 MSTORE PUSH1 0x20 DUP2 KECCAK256 PUSH1 0x1F NOT DUP7 AND SWAP2 JUMPDEST DUP3 DUP2 LT ISZERO PUSH2 0x2756 JUMPI DUP9 DUP7 ADD MLOAD DUP3 SSTORE SWAP5 DUP5 ADD SWAP5 PUSH1 0x1 SWAP1 SWAP2 ADD SWAP1 DUP5 ADD PUSH2 0x2737 JUMP JUMPDEST POP DUP6 DUP3 LT ISZERO PUSH2 0x2774 JUMPI DUP8 DUP6 ADD MLOAD PUSH1 0x0 NOT PUSH1 0x3 DUP9 SWAP1 SHL PUSH1 0xF8 AND SHR NOT AND DUP2 SSTORE JUMPDEST POP POP POP POP POP PUSH1 0x1 SWAP1 DUP2 SHL ADD SWAP1 SSTORE POP JUMP JUMPDEST DUP1 DUP3 ADD DUP1 DUP3 GT ISZERO PUSH2 0x6A7 JUMPI PUSH2 0x6A7 PUSH2 0x23B2 JUMP JUMPDEST DUP2 DUP2 SUB DUP2 DUP2 GT ISZERO PUSH2 0x6A7 JUMPI PUSH2 0x6A7 PUSH2 0x23B2 JUMP JUMPDEST PUSH1 0x1 PUSH1 0x1 PUSH1 0xA0 SHL SUB DUP7 DUP2 AND DUP3 MSTORE DUP6 AND PUSH1 0x20 DUP3 ADD MSTORE PUSH1 0x40 DUP2 ADD DUP5 SWAP1 MSTORE PUSH1 0x60 DUP2 ADD DUP4 SWAP1 MSTORE PUSH1 0xA0 PUSH1 0x80 DUP3 ADD DUP2 SWAP1 MSTORE PUSH1 0x0 SWAP1 PUSH2 0x27E4 SWAP1 DUP4 ADD DUP5 PUSH2 0x1EBA JUMP JUMPDEST SWAP8 SWAP7 POP POP POP POP POP POP POP JUMP JUMPDEST PUSH1 0x0 PUSH1 0x20 DUP3 DUP5 SUB SLT ISZERO PUSH2 0x2801 JUMPI PUSH1 0x0 DUP1 REVERT JUMPDEST DUP2 MLOAD PUSH2 0x1CF7 DUP2 PUSH2 0x1CC4 JUMP JUMPDEST PUSH1 0x1 PUSH1 0x1 PUSH1 0xA0 SHL SUB DUP7 DUP2 AND DUP3 MSTORE DUP6 AND PUSH1 0x20 DUP3 ADD MSTORE PUSH1 0xA0 PUSH1 0x40 DUP3 ADD DUP2 SWAP1 MSTORE PUSH1 0x0 SWAP1 PUSH2 0x2838 SWAP1 DUP4 ADD DUP7 PUSH2 0x21AD JUMP JUMPDEST DUP3 DUP2 SUB PUSH1 0x60 DUP5 ADD MSTORE PUSH2 0x284A DUP2 DUP7 PUSH2 0x21AD JUMP JUMPDEST SWAP1 POP DUP3 DUP2 SUB PUSH1 0x80 DUP5 ADD MSTORE PUSH2 0x285E DUP2 DUP6 PUSH2 0x1EBA JUMP JUMPDEST SWAP9 SWAP8 POP POP POP POP POP POP POP POP JUMP JUMPDEST PUSH1 0x40 DUP2 MSTORE PUSH1 0x0 PUSH2 0x287D PUSH1 0x40 DUP4 ADD DUP6 PUSH2 0x21AD JUMP JUMPDEST DUP3 DUP2 SUB PUSH1 0x20 DUP5 ADD MSTORE PUSH2 0x261D DUP2 DUP6 PUSH2 0x21AD JUMP INVALID LOG2 PUSH5 0x6970667358 0x22 SLT KECCAK256 PUSH32 0xB41C8919FB711153FB5B302F9DEE8B80A82AF401AB18E7343708FC038A69E864 PUSH20 0x6F6C634300081800330000000000000000000000 "},"gasEstimates":{"creation":{"codeDepositCost":"2087400","executionCost":"infinite","totalCost":"infinite"},"external":{"attestAuthorship(uint256,string)":"infinite","authenticateUser(string)":"infinite","authenticatedResearchers(string)":"infinite","balanceOf(address,uint256)":"2683","balanceOfBatch(address[],uint256[])":"infinite","burn(address,uint256,uint256)":"infinite","burnBatch(address,uint256[],uint256[])":"infinite","createResearch(string,string,uint256,uint256,uint256)":"infinite","fundResearch(uint256,uint256)":"infinite","isApprovedForAll(address,address)":"infinite","owner()":"2420","pause()":"infinite","paused()":"2367","readArticle(uint256)":"infinite","redeemToken(uint256)":"infinite","renounceOwnership()":"infinite","researchById(uint256)":"19761","researchOwner(uint256)":"2588","researchRequest(address,uint256)":"22068","safeBatchTransferFrom(address,address,uint256[],uint256[],bytes)":"infinite","safeTransferFrom(address,address,uint256,uint256,bytes)":"infinite","schemaId()":"2444","setApprovalForAll(address,bool)":"26704","setSPInstance(address)":"26846","setSchemaID(uint64)":"26808","setURI(string)":"infinite","spInstance()":"2404","supportsInterface(bytes4)":"623","transferOwnership(address)":"28424","unpause()":"infinite","uri(uint256)":"infinite"},"internal":{"_update(address,address,uint256[] memory,uint256[] memory)":"infinite","mint(address,uint256,uint256,bytes memory)":"infinite","mintBatch(address,uint256[] memory,uint256[] memory,bytes memory)":"infinite"}},"methodIdentifiers":{"attestAuthorship(uint256,string)":"1616517d","authenticateUser(string)":"1f919e8d","authenticatedResearchers(string)":"bfc0ee28","balanceOf(address,uint256)":"00fdd58e","balanceOfBatch(address[],uint256[])":"4e1273f4","burn(address,uint256,uint256)":"f5298aca","burnBatch(address,uint256[],uint256[])":"6b20c454","createResearch(string,string,uint256,uint256,uint256)":"2795c1cf","fundResearch(uint256,uint256)":"74396a29","isApprovedForAll(address,address)":"e985e9c5","owner()":"8da5cb5b","pause()":"8456cb59","paused()":"5c975abb","readArticle(uint256)":"5f2b4ad3","redeemToken(uint256)":"013054c2","renounceOwnership()":"715018a6","researchById(uint256)":"c2a756ca","researchOwner(uint256)":"50abac5d","researchRequest(address,uint256)":"08f3e371","safeBatchTransferFrom(address,address,uint256[],uint256[],bytes)":"2eb2c2d6","safeTransferFrom(address,address,uint256,uint256,bytes)":"f242432a","schemaId()":"075b1a09","setApprovalForAll(address,bool)":"a22cb465","setSPInstance(address)":"8e9d660f","setSchemaID(uint64)":"05ca8ee3","setURI(string)":"02fe5305","spInstance()":"a8c5dc33","supportsInterface(bytes4)":"01ffc9a7","transferOwnership(address)":"f2fde38b","unpause()":"3f4ba83a","uri(uint256)":"0e89341c"}},"storageLayout":{"storage":[{"astId":957,"contract":"src/Scientify.sol:Scientify","label":"_balances","offset":0,"slot":"0","type":"t_mapping(t_uint256,t_mapping(t_address,t_uint256))"},{"astId":963,"contract":"src/Scientify.sol:Scientify","label":"_operatorApprovals","offset":0,"slot":"1","type":"t_mapping(t_address,t_mapping(t_address,t_bool))"},{"astId":965,"contract":"src/Scientify.sol:Scientify","label":"_uri","offset":0,"slot":"2","type":"t_string_storage"},{"astId":639,"contract":"src/Scientify.sol:Scientify","label":"_owner","offset":0,"slot":"3","type":"t_address"},{"astId":2566,"contract":"src/Scientify.sol:Scientify","label":"_paused","offset":20,"slot":"3","type":"t_bool"},{"astId":3906,"contract":"src/Scientify.sol:Scientify","label":"researchNumber","offset":0,"slot":"4","type":"t_uint256"},{"astId":3933,"contract":"src/Scientify.sol:Scientify","label":"spInstance","offset":0,"slot":"5","type":"t_contract(ISP)495"},{"astId":3935,"contract":"src/Scientify.sol:Scientify","label":"schemaId","offset":20,"slot":"5","type":"t_uint64"},{"astId":3939,"contract":"src/Scientify.sol:Scientify","label":"authenticatedResearchers","offset":0,"slot":"6","type":"t_mapping(t_string_memory_ptr,t_address)"},{"astId":3945,"contract":"src/Scientify.sol:Scientify","label":"researchRequest","offset":0,"slot":"7","type":"t_mapping(t_address,t_array(t_struct(Research)3930_storage)dyn_storage)"},{"astId":3950,"contract":"src/Scientify.sol:Scientify","label":"researchById","offset":0,"slot":"8","type":"t_mapping(t_uint256,t_struct(Research)3930_storage)"},{"astId":3954,"contract":"src/Scientify.sol:Scientify","label":"researchOwner","offset":0,"slot":"9","type":"t_mapping(t_uint256,t_address)"},{"astId":3958,"contract":"src/Scientify.sol:Scientify","label":"repository","offset":0,"slot":"10","type":"t_mapping(t_uint256,t_string_storage)"}],"types":{"t_address":{"encoding":"inplace","label":"address","numberOfBytes":"20"},"t_array(t_struct(Research)3930_storage)dyn_storage":{"base":"t_struct(Research)3930_storage","encoding":"dynamic_array","label":"struct Scientify.Research[]","numberOfBytes":"32"},"t_bool":{"encoding":"inplace","label":"bool","numberOfBytes":"1"},"t_contract(ISP)495":{"encoding":"inplace","label":"contract ISP","numberOfBytes":"20"},"t_enum(ResearchState)3910":{"encoding":"inplace","label":"enum Scientify.ResearchState","numberOfBytes":"1"},"t_mapping(t_address,t_array(t_struct(Research)3930_storage)dyn_storage)":{"encoding":"mapping","key":"t_address","label":"mapping(address => struct Scientify.Research[])","numberOfBytes":"32","value":"t_array(t_struct(Research)3930_storage)dyn_storage"},"t_mapping(t_address,t_bool)":{"encoding":"mapping","key":"t_address","label":"mapping(address => bool)","numberOfBytes":"32","value":"t_bool"},"t_mapping(t_address,t_mapping(t_address,t_bool))":{"encoding":"mapping","key":"t_address","label":"mapping(address => mapping(address => bool))","numberOfBytes":"32","value":"t_mapping(t_address,t_bool)"},"t_mapping(t_address,t_uint256)":{"encoding":"mapping","key":"t_address","label":"mapping(address => uint256)","numberOfBytes":"32","value":"t_uint256"},"t_mapping(t_string_memory_ptr,t_address)":{"encoding":"mapping","key":"t_string_memory_ptr","label":"mapping(string => address)","numberOfBytes":"32","value":"t_address"},"t_mapping(t_uint256,t_address)":{"encoding":"mapping","key":"t_uint256","label":"mapping(uint256 => address)","numberOfBytes":"32","value":"t_address"},"t_mapping(t_uint256,t_mapping(t_address,t_uint256))":{"encoding":"mapping","key":"t_uint256","label":"mapping(uint256 => mapping(address => uint256))","numberOfBytes":"32","value":"t_mapping(t_address,t_uint256)"},"t_mapping(t_uint256,t_string_storage)":{"encoding":"mapping","key":"t_uint256","label":"mapping(uint256 => string)","numberOfBytes":"32","value":"t_string_storage"},"t_mapping(t_uint256,t_struct(Research)3930_storage)":{"encoding":"mapping","key":"t_uint256","label":"mapping(uint256 => struct Scientify.Research)","numberOfBytes":"32","value":"t_struct(Research)3930_storage"},"t_string_memory_ptr":{"encoding":"bytes","label":"string","numberOfBytes":"32"},"t_string_storage":{"encoding":"bytes","label":"string","numberOfBytes":"32"},"t_struct(Research)3930_storage":{"encoding":"inplace","label":"struct Scientify.Research","members":[{"astId":3912,"contract":"src/Scientify.sol:Scientify","label":"id","offset":0,"slot":"0","type":"t_uint256"},{"astId":3915,"contract":"src/Scientify.sol:Scientify","label":"state","offset":0,"slot":"1","type":"t_enum(ResearchState)3910"},{"astId":3917,"contract":"src/Scientify.sol:Scientify","label":"investiment","offset":0,"slot":"2","type":"t_uint256"},{"astId":3919,"contract":"src/Scientify.sol:Scientify","label":"articlePrice","offset":0,"slot":"3","type":"t_uint256"},{"astId":3921,"contract":"src/Scientify.sol:Scientify","label":"sharePrice","offset":0,"slot":"4","type":"t_uint256"},{"astId":3923,"contract":"src/Scientify.sol:Scientify","label":"articlePriceIncreaseRate","offset":0,"slot":"5","type":"t_uint256"},{"astId":3925,"contract":"src/Scientify.sol:Scientify","label":"funding","offset":0,"slot":"6","type":"t_uint256"},{"astId":3927,"contract":"src/Scientify.sol:Scientify","label":"profit","offset":0,"slot":"7","type":"t_uint256"},{"astId":3929,"contract":"src/Scientify.sol:Scientify","label":"owner","offset":0,"slot":"8","type":"t_address"}],"numberOfBytes":"288"},"t_uint256":{"encoding":"inplace","label":"uint256","numberOfBytes":"32"},"t_uint64":{"encoding":"inplace","label":"uint64","numberOfBytes":"8"}}},"userdoc":{"kind":"user","methods":{},"version":1}}}}