{
	"data": {
		"bytecode": {
			"linkReferences": {},
			"object": "608060405234801561000f575f80fd5b506040516137953803806137958339818101604052810190610031919061024c565b806040518060400160405280600481526020017f4555524b000000000000000000000000000000000000000000000000000000008152506100778161011860201b60201c565b505f73ffffffffffffffffffffffffffffffffffffffff168173ffffffffffffffffffffffffffffffffffffffff16036100e8575f6040517f1e4fbdf70000000000000000000000000000000000000000000000000000000081526004016100df9190610286565b60405180910390fd5b6100f78161012b60201b60201c565b505f600360146101000a81548160ff021916908315150217905550506105a8565b806002908161012791906104d9565b5050565b5f60035f9054906101000a900473ffffffffffffffffffffffffffffffffffffffff1690508160035f6101000a81548173ffffffffffffffffffffffffffffffffffffffff021916908373ffffffffffffffffffffffffffffffffffffffff1602179055508173ffffffffffffffffffffffffffffffffffffffff168173ffffffffffffffffffffffffffffffffffffffff167f8be0079c531659141344cd1fd0a4f28419497f9722a3daafe3b4186f6b6457e060405160405180910390a35050565b5f80fd5b5f73ffffffffffffffffffffffffffffffffffffffff82169050919050565b5f61021b826101f2565b9050919050565b61022b81610211565b8114610235575f80fd5b50565b5f8151905061024681610222565b92915050565b5f60208284031215610261576102606101ee565b5b5f61026e84828501610238565b91505092915050565b61028081610211565b82525050565b5f6020820190506102995f830184610277565b92915050565b5f81519050919050565b7f4e487b71000000000000000000000000000000000000000000000000000000005f52604160045260245ffd5b7f4e487b71000000000000000000000000000000000000000000000000000000005f52602260045260245ffd5b5f600282049050600182168061031a57607f821691505b60208210810361032d5761032c6102d6565b5b50919050565b5f819050815f5260205f209050919050565b5f6020601f8301049050919050565b5f82821b905092915050565b5f6008830261038f7fffffffffffffffffffffffffffffffffffffffffffffffffffffffffffffffff82610354565b6103998683610354565b95508019841693508086168417925050509392505050565b5f819050919050565b5f819050919050565b5f6103dd6103d86103d3846103b1565b6103ba565b6103b1565b9050919050565b5f819050919050565b6103f6836103c3565b61040a610402826103e4565b848454610360565b825550505050565b5f90565b61041e610412565b6104298184846103ed565b505050565b5b8181101561044c576104415f82610416565b60018101905061042f565b5050565b601f8211156104915761046281610333565b61046b84610345565b8101602085101561047a578190505b61048e61048685610345565b83018261042e565b50505b505050565b5f82821c905092915050565b5f6104b15f1984600802610496565b1980831691505092915050565b5f6104c983836104a2565b9150826002028217905092915050565b6104e28261029f565b67ffffffffffffffff8111156104fb576104fa6102a9565b5b6105058254610303565b610510828285610450565b5f60209050601f831160018114610541575f841561052f578287015190505b61053985826104be565b8655506105a0565b601f19841661054f86610333565b5f5b8281101561057657848901518255600182019150602085019450602081019050610551565b86831015610593578489015161058f601f8916826104a2565b8355505b6001600288020188555050505b505050505050565b6131e0806105b55f395ff3fe608060405234801561000f575f80fd5b5060043610610129575f3560e01c80636b20c454116100ab578063a22cb4651161006f578063a22cb465146102ef578063e985e9c51461030b578063f242432a1461033b578063f2fde38b14610357578063f5298aca1461037357610129565b80636b20c45414610285578063715018a6146102a1578063731133e9146102ab5780638456cb59146102c75780638da5cb5b146102d157610129565b80632eb2c2d6116100f25780632eb2c2d6146101f55780633f4ba83a146102115780634e1273f41461021b578063527261271461024b5780635c975abb1461026757610129565b8062fdd58e1461012d57806301ffc9a71461015d57806302fe53051461018d5780630e89341c146101a95780631f7fdffa146101d9575b5f80fd5b61014760048036038101906101429190611fc2565b61038f565b604051610154919061200f565b60405180910390f35b6101776004803603810190610172919061207d565b6103e4565b60405161018491906120c2565b60405180910390f35b6101a760048036038101906101a29190612217565b6104c5565b005b6101c360048036038101906101be919061225e565b6104d9565b6040516101d091906122e9565b60405180910390f35b6101f360048036038101906101ee919061246b565b61056b565b005b61020f600480360381019061020a9190612523565b61057d565b005b610219610624565b005b610235600480360381019061023091906126ae565b610636565b60405161024291906127db565b60405180910390f35b610265600480360381019061026091906127fb565b61073d565b005b61026f610a2b565b60405161027c91906120c2565b60405180910390f35b61029f600480360381019061029a9190612897565b610a41565b005b6102a9610aed565b005b6102c560048036038101906102c0919061291f565b610b00565b005b6102cf610b12565b005b6102d9610b24565b6040516102e691906129ae565b60405180910390f35b610309600480360381019061030491906129f1565b610b4c565b005b61032560048036038101906103209190612a2f565b610b62565b60405161033291906120c2565b60405180910390f35b61035560048036038101906103509190612a6d565b610bf0565b005b610371600480360381019061036c9190612b00565b610c97565b005b61038d60048036038101906103889190612b2b565b610d1b565b005b5f805f8381526020019081526020015f205f8473ffffffffffffffffffffffffffffffffffffffff1673ffffffffffffffffffffffffffffffffffffffff1681526020019081526020015f2054905092915050565b5f7fd9b67a26000000000000000000000000000000000000000000000000000000007bffffffffffffffffffffffffffffffffffffffffffffffffffffffff1916827bffffffffffffffffffffffffffffffffffffffffffffffffffffffff191614806104ae57507f0e89341c000000000000000000000000000000000000000000000000000000007bffffffffffffffffffffffffffffffffffffffffffffffffffffffff1916827bffffffffffffffffffffffffffffffffffffffffffffffffffffffff1916145b806104be57506104bd82610dc7565b5b9050919050565b6104cd610e30565b6104d681610eb7565b50565b6060600280546104e890612ba8565b80601f016020809104026020016040519081016040528092919081815260200182805461051490612ba8565b801561055f5780601f106105365761010080835404028352916020019161055f565b820191905f5260205f20905b81548152906001019060200180831161054257829003601f168201915b50505050509050919050565b61057784848484610eca565b50505050565b5f610586610f4d565b90508073ffffffffffffffffffffffffffffffffffffffff168673ffffffffffffffffffffffffffffffffffffffff16141580156105cb57506105c98682610b62565b155b1561060f5780866040517fe237d922000000000000000000000000000000000000000000000000000000008152600401610606929190612bd8565b60405180910390fd5b61061c8686868686610f54565b505050505050565b61062c610e30565b610634611048565b565b6060815183511461068257815183516040517f5b059991000000000000000000000000000000000000000000000000000000008152600401610679929190612bff565b60405180910390fd5b5f835167ffffffffffffffff81111561069e5761069d6120f3565b5b6040519080825280602002602001820160405280156106cc5781602001602082028036833780820191505090505b5090505f5b8451811015610732576107086106f082876110aa90919063ffffffff16565b61070383876110bd90919063ffffffff16565b61038f565b82828151811061071b5761071a612c26565b5b6020026020010181815250508060010190506106d1565b508091505092915050565b3373ffffffffffffffffffffffffffffffffffffffff166005856040516107649190612c8d565b90815260200160405180910390205f9054906101000a900473ffffffffffffffffffffffffffffffffffffffff1673ffffffffffffffffffffffffffffffffffffffff16146107df576040517ffea5885a00000000000000000000000000000000000000000000000000000000815260040160405180910390fd5b600460065f3373ffffffffffffffffffffffffffffffffffffffff1673ffffffffffffffffffffffffffffffffffffffff1681526020019081526020015f2080549050111561085a576040517fb8a63b4000000000000000000000000000000000000000000000000000000000815260040160405180910390fd5b5f6040518060a0016040528060045f81548092919061087890612cd0565b9190505581526020015f600281111561089457610893612d17565b5b81526020018581526020018481526020018381525090508060065f3373ffffffffffffffffffffffffffffffffffffffff1673ffffffffffffffffffffffffffffffffffffffff1681526020019081526020015f2060065f3373ffffffffffffffffffffffffffffffffffffffff1673ffffffffffffffffffffffffffffffffffffffff1681526020019081526020015f20805490508154811061093b5761093a612c26565b5b905f5260205f2090600502015f820151815f01556020820151816001015f6101000a81548160ff0219169083600281111561097957610978612d17565b5b021790555060408201518160020190816109939190612ee1565b5060608201518160030155608082015181600401559050508060075f835f015181526020019081526020015f205f820151815f01556020820151816001015f6101000a81548160ff021916908360028111156109f2576109f1612d17565b5b02179055506040820151816002019081610a0c9190612ee1565b5060608201518160030155608082015181600401559050505050505050565b5f600360149054906101000a900460ff16905090565b610a49610f4d565b73ffffffffffffffffffffffffffffffffffffffff168373ffffffffffffffffffffffffffffffffffffffff1614158015610a925750610a9083610a8b610f4d565b610b62565b155b15610add57610a9f610f4d565b836040517fe237d922000000000000000000000000000000000000000000000000000000008152600401610ad4929190612bd8565b60405180910390fd5b610ae88383836110d0565b505050565b610af5610e30565b610afe5f611160565b565b610b0c84848484611223565b50505050565b610b1a610e30565b610b226112b8565b565b5f60035f9054906101000a900473ffffffffffffffffffffffffffffffffffffffff16905090565b610b5e610b57610f4d565b838361131b565b5050565b5f60015f8473ffffffffffffffffffffffffffffffffffffffff1673ffffffffffffffffffffffffffffffffffffffff1681526020019081526020015f205f8373ffffffffffffffffffffffffffffffffffffffff1673ffffffffffffffffffffffffffffffffffffffff1681526020019081526020015f205f9054906101000a900460ff16905092915050565b5f610bf9610f4d565b90508073ffffffffffffffffffffffffffffffffffffffff168673ffffffffffffffffffffffffffffffffffffffff1614158015610c3e5750610c3c8682610b62565b155b15610c825780866040517fe237d922000000000000000000000000000000000000000000000000000000008152600401610c79929190612bd8565b60405180910390fd5b610c8f8686868686611484565b505050505050565b610c9f610e30565b5f73ffffffffffffffffffffffffffffffffffffffff168173ffffffffffffffffffffffffffffffffffffffff1603610d0f575f6040517f1e4fbdf7000000000000000000000000000000000000000000000000000000008152600401610d0691906129ae565b60405180910390fd5b610d1881611160565b50565b610d23610f4d565b73ffffffffffffffffffffffffffffffffffffffff168373ffffffffffffffffffffffffffffffffffffffff1614158015610d6c5750610d6a83610d65610f4d565b610b62565b155b15610db757610d79610f4d565b836040517fe237d922000000000000000000000000000000000000000000000000000000008152600401610dae929190612bd8565b60405180910390fd5b610dc283838361158a565b505050565b5f7f01ffc9a7000000000000000000000000000000000000000000000000000000007bffffffffffffffffffffffffffffffffffffffffffffffffffffffff1916827bffffffffffffffffffffffffffffffffffffffffffffffffffffffff1916149050919050565b610e38610f4d565b73ffffffffffffffffffffffffffffffffffffffff16610e56610b24565b73ffffffffffffffffffffffffffffffffffffffff1614610eb557610e79610f4d565b6040517f118cdaa7000000000000000000000000000000000000000000000000000000008152600401610eac91906129ae565b60405180910390fd5b565b8060029081610ec69190612ee1565b5050565b5f73ffffffffffffffffffffffffffffffffffffffff168473ffffffffffffffffffffffffffffffffffffffff1603610f3a575f6040517f57f447ce000000000000000000000000000000000000000000000000000000008152600401610f3191906129ae565b60405180910390fd5b610f475f8585858561162c565b50505050565b5f33905090565b5f73ffffffffffffffffffffffffffffffffffffffff168473ffffffffffffffffffffffffffffffffffffffff1603610fc4575f6040517f57f447ce000000000000000000000000000000000000000000000000000000008152600401610fbb91906129ae565b60405180910390fd5b5f73ffffffffffffffffffffffffffffffffffffffff168573ffffffffffffffffffffffffffffffffffffffff1603611034575f6040517f01a8351400000000000000000000000000000000000000000000000000000000815260040161102b91906129ae565b60405180910390fd5b611041858585858561162c565b5050505050565b6110506116d8565b5f600360146101000a81548160ff0219169083151502179055507f5db9ee0a495bf2e6ff9c91a7834c1ba4fdd244a5e8aa4e537bd38aeae4b073aa611093610f4d565b6040516110a091906129ae565b60405180910390a1565b5f60208202602084010151905092915050565b5f60208202602084010151905092915050565b5f73ffffffffffffffffffffffffffffffffffffffff168373ffffffffffffffffffffffffffffffffffffffff1603611140575f6040517f01a8351400000000000000000000000000000000000000000000000000000000815260040161113791906129ae565b60405180910390fd5b61115b835f848460405180602001604052805f81525061162c565b505050565b5f60035f9054906101000a900473ffffffffffffffffffffffffffffffffffffffff1690508160035f6101000a81548173ffffffffffffffffffffffffffffffffffffffff021916908373ffffffffffffffffffffffffffffffffffffffff1602179055508173ffffffffffffffffffffffffffffffffffffffff168173ffffffffffffffffffffffffffffffffffffffff167f8be0079c531659141344cd1fd0a4f28419497f9722a3daafe3b4186f6b6457e060405160405180910390a35050565b5f73ffffffffffffffffffffffffffffffffffffffff168473ffffffffffffffffffffffffffffffffffffffff1603611293575f6040517f57f447ce00000000000000000000000000000000000000000000000000000000815260040161128a91906129ae565b60405180910390fd5b5f8061129f8585611718565b915091506112b05f8784848761162c565b505050505050565b6112c0611748565b6001600360146101000a81548160ff0219169083151502179055507f62e78cea01bee320cd4e420270b5ea74000d11b0c9f74754ebdbfc544b05a258611304610f4d565b60405161131191906129ae565b60405180910390a1565b5f73ffffffffffffffffffffffffffffffffffffffff168273ffffffffffffffffffffffffffffffffffffffff160361138b575f6040517fced3e10000000000000000000000000000000000000000000000000000000000815260040161138291906129ae565b60405180910390fd5b8060015f8573ffffffffffffffffffffffffffffffffffffffff1673ffffffffffffffffffffffffffffffffffffffff1681526020019081526020015f205f8473ffffffffffffffffffffffffffffffffffffffff1673ffffffffffffffffffffffffffffffffffffffff1681526020019081526020015f205f6101000a81548160ff0219169083151502179055508173ffffffffffffffffffffffffffffffffffffffff168373ffffffffffffffffffffffffffffffffffffffff167f17307eab39ab6107e8899845ad3d59bd9653f200f220920489ca2b5937696c318360405161147791906120c2565b60405180910390a3505050565b5f73ffffffffffffffffffffffffffffffffffffffff168473ffffffffffffffffffffffffffffffffffffffff16036114f4575f6040517f57f447ce0000000000000000000000000000000000000000000000000000000081526004016114eb91906129ae565b60405180910390fd5b5f73ffffffffffffffffffffffffffffffffffffffff168573ffffffffffffffffffffffffffffffffffffffff1603611564575f6040517f01a8351400000000000000000000000000000000000000000000000000000000815260040161155b91906129ae565b60405180910390fd5b5f806115708585611718565b91509150611581878784848761162c565b50505050505050565b5f73ffffffffffffffffffffffffffffffffffffffff168373ffffffffffffffffffffffffffffffffffffffff16036115fa575f6040517f01a835140000000000000000000000000000000000000000000000000000000081526004016115f191906129ae565b60405180910390fd5b5f806116068484611718565b91509150611625855f848460405180602001604052805f81525061162c565b5050505050565b61163885858585611789565b5f73ffffffffffffffffffffffffffffffffffffffff168473ffffffffffffffffffffffffffffffffffffffff16146116d1575f611674610f4d565b905060018451036116c0575f6116935f866110bd90919063ffffffff16565b90505f6116a95f866110bd90919063ffffffff16565b90506116b983898985858961181c565b50506116cf565b6116ce8187878787876119cb565b5b505b5050505050565b6116e0610a2b565b611716576040517f8dfc202b00000000000000000000000000000000000000000000000000000000815260040160405180910390fd5b565b60608060405191506001825283602083015260408201905060018152826020820152604081016040529250929050565b611750610a2b565b15611787576040517fd93c066500000000000000000000000000000000000000000000000000000000815260040160405180910390fd5b565b5f5b8251811015611809573460075f8584815181106117ab576117aa612c26565b5b602002602001015181526020019081526020015f206004015411156117fc576040517fe2f844a000000000000000000000000000000000000000000000000000000000815260040160405180910390fd5b808060010191505061178b565b5061181684848484611b7a565b50505050565b5f8473ffffffffffffffffffffffffffffffffffffffff163b11156119c3578373ffffffffffffffffffffffffffffffffffffffff1663f23a6e6187878686866040518663ffffffff1660e01b815260040161187c959493929190613002565b6020604051808303815f875af19250505080156118b757506040513d601f19601f820116820180604052508101906118b4919061306e565b60015b611938573d805f81146118e5576040519150601f19603f3d011682016040523d82523d5f602084013e6118ea565b606091505b505f81510361193057846040517f57f447ce00000000000000000000000000000000000000000000000000000000815260040161192791906129ae565b60405180910390fd5b805181602001fd5b63f23a6e6160e01b7bffffffffffffffffffffffffffffffffffffffffffffffffffffffff1916817bffffffffffffffffffffffffffffffffffffffffffffffffffffffff1916146119c157846040517f57f447ce0000000000000000000000000000000000000000000000000000000081526004016119b891906129ae565b60405180910390fd5b505b505050505050565b5f8473ffffffffffffffffffffffffffffffffffffffff163b1115611b72578373ffffffffffffffffffffffffffffffffffffffff1663bc197c8187878686866040518663ffffffff1660e01b8152600401611a2b959493929190613099565b6020604051808303815f875af1925050508015611a6657506040513d601f19601f82011682018060405250810190611a63919061306e565b60015b611ae7573d805f8114611a94576040519150601f19603f3d011682016040523d82523d5f602084013e611a99565b606091505b505f815103611adf57846040517f57f447ce000000000000000000000000000000000000000000000000000000008152600401611ad691906129ae565b60405180910390fd5b805181602001fd5b63bc197c8160e01b7bffffffffffffffffffffffffffffffffffffffffffffffffffffffff1916817bffffffffffffffffffffffffffffffffffffffffffffffffffffffff191614611b7057846040517f57f447ce000000000000000000000000000000000000000000000000000000008152600401611b6791906129ae565b60405180910390fd5b505b505050505050565b611b82611748565b611b8e84848484611b94565b50505050565b8051825114611bde57815181516040517f5b059991000000000000000000000000000000000000000000000000000000008152600401611bd5929190612bff565b60405180910390fd5b5f611be7610f4d565b90505f5b8351811015611de3575f611c0882866110bd90919063ffffffff16565b90505f611c1e83866110bd90919063ffffffff16565b90505f73ffffffffffffffffffffffffffffffffffffffff168873ffffffffffffffffffffffffffffffffffffffff1614611d41575f805f8481526020019081526020015f205f8a73ffffffffffffffffffffffffffffffffffffffff1673ffffffffffffffffffffffffffffffffffffffff1681526020019081526020015f2054905081811015611ced57888183856040517f03dee4c5000000000000000000000000000000000000000000000000000000008152600401611ce494939291906130ff565b60405180910390fd5b8181035f808581526020019081526020015f205f8b73ffffffffffffffffffffffffffffffffffffffff1673ffffffffffffffffffffffffffffffffffffffff1681526020019081526020015f2081905550505b5f73ffffffffffffffffffffffffffffffffffffffff168773ffffffffffffffffffffffffffffffffffffffff1614611dd657805f808481526020019081526020015f205f8973ffffffffffffffffffffffffffffffffffffffff1673ffffffffffffffffffffffffffffffffffffffff1681526020019081526020015f205f828254611dce9190613142565b925050819055505b5050806001019050611beb565b506001835103611e9e575f611e015f856110bd90919063ffffffff16565b90505f611e175f856110bd90919063ffffffff16565b90508573ffffffffffffffffffffffffffffffffffffffff168773ffffffffffffffffffffffffffffffffffffffff168473ffffffffffffffffffffffffffffffffffffffff167fc3d58168c5ae7397731d063d5bbf3d657854427343f4c083240f7aacaa2d0f628585604051611e8f929190612bff565b60405180910390a45050611f1d565b8373ffffffffffffffffffffffffffffffffffffffff168573ffffffffffffffffffffffffffffffffffffffff168273ffffffffffffffffffffffffffffffffffffffff167f4a39dc06d4c0dbc64b70af90fd698a233a518aa5d07e595d983b8c0526c8f7fb8686604051611f14929190613175565b60405180910390a45b5050505050565b5f604051905090565b5f80fd5b5f80fd5b5f73ffffffffffffffffffffffffffffffffffffffff82169050919050565b5f611f5e82611f35565b9050919050565b611f6e81611f54565b8114611f78575f80fd5b50565b5f81359050611f8981611f65565b92915050565b5f819050919050565b611fa181611f8f565b8114611fab575f80fd5b50565b5f81359050611fbc81611f98565b92915050565b5f8060408385031215611fd857611fd7611f2d565b5b5f611fe585828601611f7b565b9250506020611ff685828601611fae565b9150509250929050565b61200981611f8f565b82525050565b5f6020820190506120225f830184612000565b92915050565b5f7fffffffff0000000000000000000000000000000000000000000000000000000082169050919050565b61205c81612028565b8114612066575f80fd5b50565b5f8135905061207781612053565b92915050565b5f6020828403121561209257612091611f2d565b5b5f61209f84828501612069565b91505092915050565b5f8115159050919050565b6120bc816120a8565b82525050565b5f6020820190506120d55f8301846120b3565b92915050565b5f80fd5b5f80fd5b5f601f19601f8301169050919050565b7f4e487b71000000000000000000000000000000000000000000000000000000005f52604160045260245ffd5b612129826120e3565b810181811067ffffffffffffffff82111715612148576121476120f3565b5b80604052505050565b5f61215a611f24565b90506121668282612120565b919050565b5f67ffffffffffffffff821115612185576121846120f3565b5b61218e826120e3565b9050602081019050919050565b828183375f83830152505050565b5f6121bb6121b68461216b565b612151565b9050828152602081018484840111156121d7576121d66120df565b5b6121e284828561219b565b509392505050565b5f82601f8301126121fe576121fd6120db565b5b813561220e8482602086016121a9565b91505092915050565b5f6020828403121561222c5761222b611f2d565b5b5f82013567ffffffffffffffff81111561224957612248611f31565b5b612255848285016121ea565b91505092915050565b5f6020828403121561227357612272611f2d565b5b5f61228084828501611fae565b91505092915050565b5f81519050919050565b5f82825260208201905092915050565b8281835e5f83830152505050565b5f6122bb82612289565b6122c58185612293565b93506122d58185602086016122a3565b6122de816120e3565b840191505092915050565b5f6020820190508181035f83015261230181846122b1565b905092915050565b5f67ffffffffffffffff821115612323576123226120f3565b5b602082029050602081019050919050565b5f80fd5b5f61234a61234584612309565b612151565b9050808382526020820190506020840283018581111561236d5761236c612334565b5b835b8181101561239657806123828882611fae565b84526020840193505060208101905061236f565b5050509392505050565b5f82601f8301126123b4576123b36120db565b5b81356123c4848260208601612338565b91505092915050565b5f67ffffffffffffffff8211156123e7576123e66120f3565b5b6123f0826120e3565b9050602081019050919050565b5f61240f61240a846123cd565b612151565b90508281526020810184848401111561242b5761242a6120df565b5b61243684828561219b565b509392505050565b5f82601f830112612452576124516120db565b5b81356124628482602086016123fd565b91505092915050565b5f805f806080858703121561248357612482611f2d565b5b5f61249087828801611f7b565b945050602085013567ffffffffffffffff8111156124b1576124b0611f31565b5b6124bd878288016123a0565b935050604085013567ffffffffffffffff8111156124de576124dd611f31565b5b6124ea878288016123a0565b925050606085013567ffffffffffffffff81111561250b5761250a611f31565b5b6125178782880161243e565b91505092959194509250565b5f805f805f60a0868803121561253c5761253b611f2d565b5b5f61254988828901611f7b565b955050602061255a88828901611f7b565b945050604086013567ffffffffffffffff81111561257b5761257a611f31565b5b612587888289016123a0565b935050606086013567ffffffffffffffff8111156125a8576125a7611f31565b5b6125b4888289016123a0565b925050608086013567ffffffffffffffff8111156125d5576125d4611f31565b5b6125e18882890161243e565b9150509295509295909350565b5f67ffffffffffffffff821115612608576126076120f3565b5b602082029050602081019050919050565b5f61262b612626846125ee565b612151565b9050808382526020820190506020840283018581111561264e5761264d612334565b5b835b8181101561267757806126638882611f7b565b845260208401935050602081019050612650565b5050509392505050565b5f82601f830112612695576126946120db565b5b81356126a5848260208601612619565b91505092915050565b5f80604083850312156126c4576126c3611f2d565b5b5f83013567ffffffffffffffff8111156126e1576126e0611f31565b5b6126ed85828601612681565b925050602083013567ffffffffffffffff81111561270e5761270d611f31565b5b61271a858286016123a0565b9150509250929050565b5f81519050919050565b5f82825260208201905092915050565b5f819050602082019050919050565b61275681611f8f565b82525050565b5f612767838361274d565b60208301905092915050565b5f602082019050919050565b5f61278982612724565b612793818561272e565b935061279e8361273e565b805f5b838110156127ce5781516127b5888261275c565b97506127c083612773565b9250506001810190506127a1565b5085935050505092915050565b5f6020820190508181035f8301526127f3818461277f565b905092915050565b5f805f806080858703121561281357612812611f2d565b5b5f85013567ffffffffffffffff8111156128305761282f611f31565b5b61283c878288016121ea565b945050602085013567ffffffffffffffff81111561285d5761285c611f31565b5b612869878288016121ea565b935050604061287a87828801611fae565b925050606061288b87828801611fae565b91505092959194509250565b5f805f606084860312156128ae576128ad611f2d565b5b5f6128bb86828701611f7b565b935050602084013567ffffffffffffffff8111156128dc576128db611f31565b5b6128e8868287016123a0565b925050604084013567ffffffffffffffff81111561290957612908611f31565b5b612915868287016123a0565b9150509250925092565b5f805f806080858703121561293757612936611f2d565b5b5f61294487828801611f7b565b945050602061295587828801611fae565b935050604061296687828801611fae565b925050606085013567ffffffffffffffff81111561298757612986611f31565b5b6129938782880161243e565b91505092959194509250565b6129a881611f54565b82525050565b5f6020820190506129c15f83018461299f565b92915050565b6129d0816120a8565b81146129da575f80fd5b50565b5f813590506129eb816129c7565b92915050565b5f8060408385031215612a0757612a06611f2d565b5b5f612a1485828601611f7b565b9250506020612a25858286016129dd565b9150509250929050565b5f8060408385031215612a4557612a44611f2d565b5b5f612a5285828601611f7b565b9250506020612a6385828601611f7b565b9150509250929050565b5f805f805f60a08688031215612a8657612a85611f2d565b5b5f612a9388828901611f7b565b9550506020612aa488828901611f7b565b9450506040612ab588828901611fae565b9350506060612ac688828901611fae565b925050608086013567ffffffffffffffff811115612ae757612ae6611f31565b5b612af38882890161243e565b9150509295509295909350565b5f60208284031215612b1557612b14611f2d565b5b5f612b2284828501611f7b565b91505092915050565b5f805f60608486031215612b4257612b41611f2d565b5b5f612b4f86828701611f7b565b9350506020612b6086828701611fae565b9250506040612b7186828701611fae565b9150509250925092565b7f4e487b71000000000000000000000000000000000000000000000000000000005f52602260045260245ffd5b5f6002820490506001821680612bbf57607f821691505b602082108103612bd257612bd1612b7b565b5b50919050565b5f604082019050612beb5f83018561299f565b612bf8602083018461299f565b9392505050565b5f604082019050612c125f830185612000565b612c1f6020830184612000565b9392505050565b7f4e487b71000000000000000000000000000000000000000000000000000000005f52603260045260245ffd5b5f81905092915050565b5f612c6782612289565b612c718185612c53565b9350612c818185602086016122a3565b80840191505092915050565b5f612c988284612c5d565b915081905092915050565b7f4e487b71000000000000000000000000000000000000000000000000000000005f52601160045260245ffd5b5f612cda82611f8f565b91507fffffffffffffffffffffffffffffffffffffffffffffffffffffffffffffffff8203612d0c57612d0b612ca3565b5b600182019050919050565b7f4e487b71000000000000000000000000000000000000000000000000000000005f52602160045260245ffd5b5f819050815f5260205f209050919050565b5f6020601f8301049050919050565b5f82821b905092915050565b5f60088302612da07fffffffffffffffffffffffffffffffffffffffffffffffffffffffffffffffff82612d65565b612daa8683612d65565b95508019841693508086168417925050509392505050565b5f819050919050565b5f612de5612de0612ddb84611f8f565b612dc2565b611f8f565b9050919050565b5f819050919050565b612dfe83612dcb565b612e12612e0a82612dec565b848454612d71565b825550505050565b5f90565b612e26612e1a565b612e31818484612df5565b505050565b5b81811015612e5457612e495f82612e1e565b600181019050612e37565b5050565b601f821115612e9957612e6a81612d44565b612e7384612d56565b81016020851015612e82578190505b612e96612e8e85612d56565b830182612e36565b50505b505050565b5f82821c905092915050565b5f612eb95f1984600802612e9e565b1980831691505092915050565b5f612ed18383612eaa565b9150826002028217905092915050565b612eea82612289565b67ffffffffffffffff811115612f0357612f026120f3565b5b612f0d8254612ba8565b612f18828285612e58565b5f60209050601f831160018114612f49575f8415612f37578287015190505b612f418582612ec6565b865550612fa8565b601f198416612f5786612d44565b5f5b82811015612f7e57848901518255600182019150602085019450602081019050612f59565b86831015612f9b5784890151612f97601f891682612eaa565b8355505b6001600288020188555050505b505050505050565b5f81519050919050565b5f82825260208201905092915050565b5f612fd482612fb0565b612fde8185612fba565b9350612fee8185602086016122a3565b612ff7816120e3565b840191505092915050565b5f60a0820190506130155f83018861299f565b613022602083018761299f565b61302f6040830186612000565b61303c6060830185612000565b818103608083015261304e8184612fca565b90509695505050505050565b5f8151905061306881612053565b92915050565b5f6020828403121561308357613082611f2d565b5b5f6130908482850161305a565b91505092915050565b5f60a0820190506130ac5f83018861299f565b6130b9602083018761299f565b81810360408301526130cb818661277f565b905081810360608301526130df818561277f565b905081810360808301526130f38184612fca565b90509695505050505050565b5f6080820190506131125f83018761299f565b61311f6020830186612000565b61312c6040830185612000565b6131396060830184612000565b95945050505050565b5f61314c82611f8f565b915061315783611f8f565b925082820190508082111561316f5761316e612ca3565b5b92915050565b5f6040820190508181035f83015261318d818561277f565b905081810360208301526131a1818461277f565b9050939250505056fea264697066735822122068c94a8af881040b4e11dee9c9e87285deefebd385da13258dc875e6df0b4cdd64736f6c63430008190033",
			"opcodes": "PUSH1 0x80 PUSH1 0x40 MSTORE CALLVALUE DUP1 ISZERO PUSH2 0xF JUMPI PUSH0 DUP1 REVERT JUMPDEST POP PUSH1 0x40 MLOAD PUSH2 0x3795 CODESIZE SUB DUP1 PUSH2 0x3795 DUP4 CODECOPY DUP2 DUP2 ADD PUSH1 0x40 MSTORE DUP2 ADD SWAP1 PUSH2 0x31 SWAP2 SWAP1 PUSH2 0x24C JUMP JUMPDEST DUP1 PUSH1 0x40 MLOAD DUP1 PUSH1 0x40 ADD PUSH1 0x40 MSTORE DUP1 PUSH1 0x4 DUP2 MSTORE PUSH1 0x20 ADD PUSH32 0x4555524B00000000000000000000000000000000000000000000000000000000 DUP2 MSTORE POP PUSH2 0x77 DUP2 PUSH2 0x118 PUSH1 0x20 SHL PUSH1 0x20 SHR JUMP JUMPDEST POP PUSH0 PUSH20 0xFFFFFFFFFFFFFFFFFFFFFFFFFFFFFFFFFFFFFFFF AND DUP2 PUSH20 0xFFFFFFFFFFFFFFFFFFFFFFFFFFFFFFFFFFFFFFFF AND SUB PUSH2 0xE8 JUMPI PUSH0 PUSH1 0x40 MLOAD PUSH32 0x1E4FBDF700000000000000000000000000000000000000000000000000000000 DUP2 MSTORE PUSH1 0x4 ADD PUSH2 0xDF SWAP2 SWAP1 PUSH2 0x286 JUMP JUMPDEST PUSH1 0x40 MLOAD DUP1 SWAP2 SUB SWAP1 REVERT JUMPDEST PUSH2 0xF7 DUP2 PUSH2 0x12B PUSH1 0x20 SHL PUSH1 0x20 SHR JUMP JUMPDEST POP PUSH0 PUSH1 0x3 PUSH1 0x14 PUSH2 0x100 EXP DUP2 SLOAD DUP2 PUSH1 0xFF MUL NOT AND SWAP1 DUP4 ISZERO ISZERO MUL OR SWAP1 SSTORE POP POP PUSH2 0x5A8 JUMP JUMPDEST DUP1 PUSH1 0x2 SWAP1 DUP2 PUSH2 0x127 SWAP2 SWAP1 PUSH2 0x4D9 JUMP JUMPDEST POP POP JUMP JUMPDEST PUSH0 PUSH1 0x3 PUSH0 SWAP1 SLOAD SWAP1 PUSH2 0x100 EXP SWAP1 DIV PUSH20 0xFFFFFFFFFFFFFFFFFFFFFFFFFFFFFFFFFFFFFFFF AND SWAP1 POP DUP2 PUSH1 0x3 PUSH0 PUSH2 0x100 EXP DUP2 SLOAD DUP2 PUSH20 0xFFFFFFFFFFFFFFFFFFFFFFFFFFFFFFFFFFFFFFFF MUL NOT AND SWAP1 DUP4 PUSH20 0xFFFFFFFFFFFFFFFFFFFFFFFFFFFFFFFFFFFFFFFF AND MUL OR SWAP1 SSTORE POP DUP2 PUSH20 0xFFFFFFFFFFFFFFFFFFFFFFFFFFFFFFFFFFFFFFFF AND DUP2 PUSH20 0xFFFFFFFFFFFFFFFFFFFFFFFFFFFFFFFFFFFFFFFF AND PUSH32 0x8BE0079C531659141344CD1FD0A4F28419497F9722A3DAAFE3B4186F6B6457E0 PUSH1 0x40 MLOAD PUSH1 0x40 MLOAD DUP1 SWAP2 SUB SWAP1 LOG3 POP POP JUMP JUMPDEST PUSH0 DUP1 REVERT JUMPDEST PUSH0 PUSH20 0xFFFFFFFFFFFFFFFFFFFFFFFFFFFFFFFFFFFFFFFF DUP3 AND SWAP1 POP SWAP2 SWAP1 POP JUMP JUMPDEST PUSH0 PUSH2 0x21B DUP3 PUSH2 0x1F2 JUMP JUMPDEST SWAP1 POP SWAP2 SWAP1 POP JUMP JUMPDEST PUSH2 0x22B DUP2 PUSH2 0x211 JUMP JUMPDEST DUP2 EQ PUSH2 0x235 JUMPI PUSH0 DUP1 REVERT JUMPDEST POP JUMP JUMPDEST PUSH0 DUP2 MLOAD SWAP1 POP PUSH2 0x246 DUP2 PUSH2 0x222 JUMP JUMPDEST SWAP3 SWAP2 POP POP JUMP JUMPDEST PUSH0 PUSH1 0x20 DUP3 DUP5 SUB SLT ISZERO PUSH2 0x261 JUMPI PUSH2 0x260 PUSH2 0x1EE JUMP JUMPDEST JUMPDEST PUSH0 PUSH2 0x26E DUP5 DUP3 DUP6 ADD PUSH2 0x238 JUMP JUMPDEST SWAP2 POP POP SWAP3 SWAP2 POP POP JUMP JUMPDEST PUSH2 0x280 DUP2 PUSH2 0x211 JUMP JUMPDEST DUP3 MSTORE POP POP JUMP JUMPDEST PUSH0 PUSH1 0x20 DUP3 ADD SWAP1 POP PUSH2 0x299 PUSH0 DUP4 ADD DUP5 PUSH2 0x277 JUMP JUMPDEST SWAP3 SWAP2 POP POP JUMP JUMPDEST PUSH0 DUP2 MLOAD SWAP1 POP SWAP2 SWAP1 POP JUMP JUMPDEST PUSH32 0x4E487B7100000000000000000000000000000000000000000000000000000000 PUSH0 MSTORE PUSH1 0x41 PUSH1 0x4 MSTORE PUSH1 0x24 PUSH0 REVERT JUMPDEST PUSH32 0x4E487B7100000000000000000000000000000000000000000000000000000000 PUSH0 MSTORE PUSH1 0x22 PUSH1 0x4 MSTORE PUSH1 0x24 PUSH0 REVERT JUMPDEST PUSH0 PUSH1 0x2 DUP3 DIV SWAP1 POP PUSH1 0x1 DUP3 AND DUP1 PUSH2 0x31A JUMPI PUSH1 0x7F DUP3 AND SWAP2 POP JUMPDEST PUSH1 0x20 DUP3 LT DUP2 SUB PUSH2 0x32D JUMPI PUSH2 0x32C PUSH2 0x2D6 JUMP JUMPDEST JUMPDEST POP SWAP2 SWAP1 POP JUMP JUMPDEST PUSH0 DUP2 SWAP1 POP DUP2 PUSH0 MSTORE PUSH1 0x20 PUSH0 KECCAK256 SWAP1 POP SWAP2 SWAP1 POP JUMP JUMPDEST PUSH0 PUSH1 0x20 PUSH1 0x1F DUP4 ADD DIV SWAP1 POP SWAP2 SWAP1 POP JUMP JUMPDEST PUSH0 DUP3 DUP3 SHL SWAP1 POP SWAP3 SWAP2 POP POP JUMP JUMPDEST PUSH0 PUSH1 0x8 DUP4 MUL PUSH2 0x38F PUSH32 0xFFFFFFFFFFFFFFFFFFFFFFFFFFFFFFFFFFFFFFFFFFFFFFFFFFFFFFFFFFFFFFFF DUP3 PUSH2 0x354 JUMP JUMPDEST PUSH2 0x399 DUP7 DUP4 PUSH2 0x354 JUMP JUMPDEST SWAP6 POP DUP1 NOT DUP5 AND SWAP4 POP DUP1 DUP7 AND DUP5 OR SWAP3 POP POP POP SWAP4 SWAP3 POP POP POP JUMP JUMPDEST PUSH0 DUP2 SWAP1 POP SWAP2 SWAP1 POP JUMP JUMPDEST PUSH0 DUP2 SWAP1 POP SWAP2 SWAP1 POP JUMP JUMPDEST PUSH0 PUSH2 0x3DD PUSH2 0x3D8 PUSH2 0x3D3 DUP5 PUSH2 0x3B1 JUMP JUMPDEST PUSH2 0x3BA JUMP JUMPDEST PUSH2 0x3B1 JUMP JUMPDEST SWAP1 POP SWAP2 SWAP1 POP JUMP JUMPDEST PUSH0 DUP2 SWAP1 POP SWAP2 SWAP1 POP JUMP JUMPDEST PUSH2 0x3F6 DUP4 PUSH2 0x3C3 JUMP JUMPDEST PUSH2 0x40A PUSH2 0x402 DUP3 PUSH2 0x3E4 JUMP JUMPDEST DUP5 DUP5 SLOAD PUSH2 0x360 JUMP JUMPDEST DUP3 SSTORE POP POP POP POP JUMP JUMPDEST PUSH0 SWAP1 JUMP JUMPDEST PUSH2 0x41E PUSH2 0x412 JUMP JUMPDEST PUSH2 0x429 DUP2 DUP5 DUP5 PUSH2 0x3ED JUMP JUMPDEST POP POP POP JUMP JUMPDEST JUMPDEST DUP2 DUP2 LT ISZERO PUSH2 0x44C JUMPI PUSH2 0x441 PUSH0 DUP3 PUSH2 0x416 JUMP JUMPDEST PUSH1 0x1 DUP2 ADD SWAP1 POP PUSH2 0x42F JUMP JUMPDEST POP POP JUMP JUMPDEST PUSH1 0x1F DUP3 GT ISZERO PUSH2 0x491 JUMPI PUSH2 0x462 DUP2 PUSH2 0x333 JUMP JUMPDEST PUSH2 0x46B DUP5 PUSH2 0x345 JUMP JUMPDEST DUP2 ADD PUSH1 0x20 DUP6 LT ISZERO PUSH2 0x47A JUMPI DUP2 SWAP1 POP JUMPDEST PUSH2 0x48E PUSH2 0x486 DUP6 PUSH2 0x345 JUMP JUMPDEST DUP4 ADD DUP3 PUSH2 0x42E JUMP JUMPDEST POP POP JUMPDEST POP POP POP JUMP JUMPDEST PUSH0 DUP3 DUP3 SHR SWAP1 POP SWAP3 SWAP2 POP POP JUMP JUMPDEST PUSH0 PUSH2 0x4B1 PUSH0 NOT DUP5 PUSH1 0x8 MUL PUSH2 0x496 JUMP JUMPDEST NOT DUP1 DUP4 AND SWAP2 POP POP SWAP3 SWAP2 POP POP JUMP JUMPDEST PUSH0 PUSH2 0x4C9 DUP4 DUP4 PUSH2 0x4A2 JUMP JUMPDEST SWAP2 POP DUP3 PUSH1 0x2 MUL DUP3 OR SWAP1 POP SWAP3 SWAP2 POP POP JUMP JUMPDEST PUSH2 0x4E2 DUP3 PUSH2 0x29F JUMP JUMPDEST PUSH8 0xFFFFFFFFFFFFFFFF DUP2 GT ISZERO PUSH2 0x4FB JUMPI PUSH2 0x4FA PUSH2 0x2A9 JUMP JUMPDEST JUMPDEST PUSH2 0x505 DUP3 SLOAD PUSH2 0x303 JUMP JUMPDEST PUSH2 0x510 DUP3 DUP3 DUP6 PUSH2 0x450 JUMP JUMPDEST PUSH0 PUSH1 0x20 SWAP1 POP PUSH1 0x1F DUP4 GT PUSH1 0x1 DUP2 EQ PUSH2 0x541 JUMPI PUSH0 DUP5 ISZERO PUSH2 0x52F JUMPI DUP3 DUP8 ADD MLOAD SWAP1 POP JUMPDEST PUSH2 0x539 DUP6 DUP3 PUSH2 0x4BE JUMP JUMPDEST DUP7 SSTORE POP PUSH2 0x5A0 JUMP JUMPDEST PUSH1 0x1F NOT DUP5 AND PUSH2 0x54F DUP7 PUSH2 0x333 JUMP JUMPDEST PUSH0 JUMPDEST DUP3 DUP2 LT ISZERO PUSH2 0x576 JUMPI DUP5 DUP10 ADD MLOAD DUP3 SSTORE PUSH1 0x1 DUP3 ADD SWAP2 POP PUSH1 0x20 DUP6 ADD SWAP5 POP PUSH1 0x20 DUP2 ADD SWAP1 POP PUSH2 0x551 JUMP JUMPDEST DUP7 DUP4 LT ISZERO PUSH2 0x593 JUMPI DUP5 DUP10 ADD MLOAD PUSH2 0x58F PUSH1 0x1F DUP10 AND DUP3 PUSH2 0x4A2 JUMP JUMPDEST DUP4 SSTORE POP JUMPDEST PUSH1 0x1 PUSH1 0x2 DUP9 MUL ADD DUP9 SSTORE POP POP POP JUMPDEST POP POP POP POP POP POP JUMP JUMPDEST PUSH2 0x31E0 DUP1 PUSH2 0x5B5 PUSH0 CODECOPY PUSH0 RETURN INVALID PUSH1 0x80 PUSH1 0x40 MSTORE CALLVALUE DUP1 ISZERO PUSH2 0xF JUMPI PUSH0 DUP1 REVERT JUMPDEST POP PUSH1 0x4 CALLDATASIZE LT PUSH2 0x129 JUMPI PUSH0 CALLDATALOAD PUSH1 0xE0 SHR DUP1 PUSH4 0x6B20C454 GT PUSH2 0xAB JUMPI DUP1 PUSH4 0xA22CB465 GT PUSH2 0x6F JUMPI DUP1 PUSH4 0xA22CB465 EQ PUSH2 0x2EF JUMPI DUP1 PUSH4 0xE985E9C5 EQ PUSH2 0x30B JUMPI DUP1 PUSH4 0xF242432A EQ PUSH2 0x33B JUMPI DUP1 PUSH4 0xF2FDE38B EQ PUSH2 0x357 JUMPI DUP1 PUSH4 0xF5298ACA EQ PUSH2 0x373 JUMPI PUSH2 0x129 JUMP JUMPDEST DUP1 PUSH4 0x6B20C454 EQ PUSH2 0x285 JUMPI DUP1 PUSH4 0x715018A6 EQ PUSH2 0x2A1 JUMPI DUP1 PUSH4 0x731133E9 EQ PUSH2 0x2AB JUMPI DUP1 PUSH4 0x8456CB59 EQ PUSH2 0x2C7 JUMPI DUP1 PUSH4 0x8DA5CB5B EQ PUSH2 0x2D1 JUMPI PUSH2 0x129 JUMP JUMPDEST DUP1 PUSH4 0x2EB2C2D6 GT PUSH2 0xF2 JUMPI DUP1 PUSH4 0x2EB2C2D6 EQ PUSH2 0x1F5 JUMPI DUP1 PUSH4 0x3F4BA83A EQ PUSH2 0x211 JUMPI DUP1 PUSH4 0x4E1273F4 EQ PUSH2 0x21B JUMPI DUP1 PUSH4 0x52726127 EQ PUSH2 0x24B JUMPI DUP1 PUSH4 0x5C975ABB EQ PUSH2 0x267 JUMPI PUSH2 0x129 JUMP JUMPDEST DUP1 PUSH3 0xFDD58E EQ PUSH2 0x12D JUMPI DUP1 PUSH4 0x1FFC9A7 EQ PUSH2 0x15D JUMPI DUP1 PUSH4 0x2FE5305 EQ PUSH2 0x18D JUMPI DUP1 PUSH4 0xE89341C EQ PUSH2 0x1A9 JUMPI DUP1 PUSH4 0x1F7FDFFA EQ PUSH2 0x1D9 JUMPI JUMPDEST PUSH0 DUP1 REVERT JUMPDEST PUSH2 0x147 PUSH1 0x4 DUP1 CALLDATASIZE SUB DUP2 ADD SWAP1 PUSH2 0x142 SWAP2 SWAP1 PUSH2 0x1FC2 JUMP JUMPDEST PUSH2 0x38F JUMP JUMPDEST PUSH1 0x40 MLOAD PUSH2 0x154 SWAP2 SWAP1 PUSH2 0x200F JUMP JUMPDEST PUSH1 0x40 MLOAD DUP1 SWAP2 SUB SWAP1 RETURN JUMPDEST PUSH2 0x177 PUSH1 0x4 DUP1 CALLDATASIZE SUB DUP2 ADD SWAP1 PUSH2 0x172 SWAP2 SWAP1 PUSH2 0x207D JUMP JUMPDEST PUSH2 0x3E4 JUMP JUMPDEST PUSH1 0x40 MLOAD PUSH2 0x184 SWAP2 SWAP1 PUSH2 0x20C2 JUMP JUMPDEST PUSH1 0x40 MLOAD DUP1 SWAP2 SUB SWAP1 RETURN JUMPDEST PUSH2 0x1A7 PUSH1 0x4 DUP1 CALLDATASIZE SUB DUP2 ADD SWAP1 PUSH2 0x1A2 SWAP2 SWAP1 PUSH2 0x2217 JUMP JUMPDEST PUSH2 0x4C5 JUMP JUMPDEST STOP JUMPDEST PUSH2 0x1C3 PUSH1 0x4 DUP1 CALLDATASIZE SUB DUP2 ADD SWAP1 PUSH2 0x1BE SWAP2 SWAP1 PUSH2 0x225E JUMP JUMPDEST PUSH2 0x4D9 JUMP JUMPDEST PUSH1 0x40 MLOAD PUSH2 0x1D0 SWAP2 SWAP1 PUSH2 0x22E9 JUMP JUMPDEST PUSH1 0x40 MLOAD DUP1 SWAP2 SUB SWAP1 RETURN JUMPDEST PUSH2 0x1F3 PUSH1 0x4 DUP1 CALLDATASIZE SUB DUP2 ADD SWAP1 PUSH2 0x1EE SWAP2 SWAP1 PUSH2 0x246B JUMP JUMPDEST PUSH2 0x56B JUMP JUMPDEST STOP JUMPDEST PUSH2 0x20F PUSH1 0x4 DUP1 CALLDATASIZE SUB DUP2 ADD SWAP1 PUSH2 0x20A SWAP2 SWAP1 PUSH2 0x2523 JUMP JUMPDEST PUSH2 0x57D JUMP JUMPDEST STOP JUMPDEST PUSH2 0x219 PUSH2 0x624 JUMP JUMPDEST STOP JUMPDEST PUSH2 0x235 PUSH1 0x4 DUP1 CALLDATASIZE SUB DUP2 ADD SWAP1 PUSH2 0x230 SWAP2 SWAP1 PUSH2 0x26AE JUMP JUMPDEST PUSH2 0x636 JUMP JUMPDEST PUSH1 0x40 MLOAD PUSH2 0x242 SWAP2 SWAP1 PUSH2 0x27DB JUMP JUMPDEST PUSH1 0x40 MLOAD DUP1 SWAP2 SUB SWAP1 RETURN JUMPDEST PUSH2 0x265 PUSH1 0x4 DUP1 CALLDATASIZE SUB DUP2 ADD SWAP1 PUSH2 0x260 SWAP2 SWAP1 PUSH2 0x27FB JUMP JUMPDEST PUSH2 0x73D JUMP JUMPDEST STOP JUMPDEST PUSH2 0x26F PUSH2 0xA2B JUMP JUMPDEST PUSH1 0x40 MLOAD PUSH2 0x27C SWAP2 SWAP1 PUSH2 0x20C2 JUMP JUMPDEST PUSH1 0x40 MLOAD DUP1 SWAP2 SUB SWAP1 RETURN JUMPDEST PUSH2 0x29F PUSH1 0x4 DUP1 CALLDATASIZE SUB DUP2 ADD SWAP1 PUSH2 0x29A SWAP2 SWAP1 PUSH2 0x2897 JUMP JUMPDEST PUSH2 0xA41 JUMP JUMPDEST STOP JUMPDEST PUSH2 0x2A9 PUSH2 0xAED JUMP JUMPDEST STOP JUMPDEST PUSH2 0x2C5 PUSH1 0x4 DUP1 CALLDATASIZE SUB DUP2 ADD SWAP1 PUSH2 0x2C0 SWAP2 SWAP1 PUSH2 0x291F JUMP JUMPDEST PUSH2 0xB00 JUMP JUMPDEST STOP JUMPDEST PUSH2 0x2CF PUSH2 0xB12 JUMP JUMPDEST STOP JUMPDEST PUSH2 0x2D9 PUSH2 0xB24 JUMP JUMPDEST PUSH1 0x40 MLOAD PUSH2 0x2E6 SWAP2 SWAP1 PUSH2 0x29AE JUMP JUMPDEST PUSH1 0x40 MLOAD DUP1 SWAP2 SUB SWAP1 RETURN JUMPDEST PUSH2 0x309 PUSH1 0x4 DUP1 CALLDATASIZE SUB DUP2 ADD SWAP1 PUSH2 0x304 SWAP2 SWAP1 PUSH2 0x29F1 JUMP JUMPDEST PUSH2 0xB4C JUMP JUMPDEST STOP JUMPDEST PUSH2 0x325 PUSH1 0x4 DUP1 CALLDATASIZE SUB DUP2 ADD SWAP1 PUSH2 0x320 SWAP2 SWAP1 PUSH2 0x2A2F JUMP JUMPDEST PUSH2 0xB62 JUMP JUMPDEST PUSH1 0x40 MLOAD PUSH2 0x332 SWAP2 SWAP1 PUSH2 0x20C2 JUMP JUMPDEST PUSH1 0x40 MLOAD DUP1 SWAP2 SUB SWAP1 RETURN JUMPDEST PUSH2 0x355 PUSH1 0x4 DUP1 CALLDATASIZE SUB DUP2 ADD SWAP1 PUSH2 0x350 SWAP2 SWAP1 PUSH2 0x2A6D JUMP JUMPDEST PUSH2 0xBF0 JUMP JUMPDEST STOP JUMPDEST PUSH2 0x371 PUSH1 0x4 DUP1 CALLDATASIZE SUB DUP2 ADD SWAP1 PUSH2 0x36C SWAP2 SWAP1 PUSH2 0x2B00 JUMP JUMPDEST PUSH2 0xC97 JUMP JUMPDEST STOP JUMPDEST PUSH2 0x38D PUSH1 0x4 DUP1 CALLDATASIZE SUB DUP2 ADD SWAP1 PUSH2 0x388 SWAP2 SWAP1 PUSH2 0x2B2B JUMP JUMPDEST PUSH2 0xD1B JUMP JUMPDEST STOP JUMPDEST PUSH0 DUP1 PUSH0 DUP4 DUP2 MSTORE PUSH1 0x20 ADD SWAP1 DUP2 MSTORE PUSH1 0x20 ADD PUSH0 KECCAK256 PUSH0 DUP5 PUSH20 0xFFFFFFFFFFFFFFFFFFFFFFFFFFFFFFFFFFFFFFFF AND PUSH20 0xFFFFFFFFFFFFFFFFFFFFFFFFFFFFFFFFFFFFFFFF AND DUP2 MSTORE PUSH1 0x20 ADD SWAP1 DUP2 MSTORE PUSH1 0x20 ADD PUSH0 KECCAK256 SLOAD SWAP1 POP SWAP3 SWAP2 POP POP JUMP JUMPDEST PUSH0 PUSH32 0xD9B67A2600000000000000000000000000000000000000000000000000000000 PUSH28 0xFFFFFFFFFFFFFFFFFFFFFFFFFFFFFFFFFFFFFFFFFFFFFFFFFFFFFFFF NOT AND DUP3 PUSH28 0xFFFFFFFFFFFFFFFFFFFFFFFFFFFFFFFFFFFFFFFFFFFFFFFFFFFFFFFF NOT AND EQ DUP1 PUSH2 0x4AE JUMPI POP PUSH32 0xE89341C00000000000000000000000000000000000000000000000000000000 PUSH28 0xFFFFFFFFFFFFFFFFFFFFFFFFFFFFFFFFFFFFFFFFFFFFFFFFFFFFFFFF NOT AND DUP3 PUSH28 0xFFFFFFFFFFFFFFFFFFFFFFFFFFFFFFFFFFFFFFFFFFFFFFFFFFFFFFFF NOT AND EQ JUMPDEST DUP1 PUSH2 0x4BE JUMPI POP PUSH2 0x4BD DUP3 PUSH2 0xDC7 JUMP JUMPDEST JUMPDEST SWAP1 POP SWAP2 SWAP1 POP JUMP JUMPDEST PUSH2 0x4CD PUSH2 0xE30 JUMP JUMPDEST PUSH2 0x4D6 DUP2 PUSH2 0xEB7 JUMP JUMPDEST POP JUMP JUMPDEST PUSH1 0x60 PUSH1 0x2 DUP1 SLOAD PUSH2 0x4E8 SWAP1 PUSH2 0x2BA8 JUMP JUMPDEST DUP1 PUSH1 0x1F ADD PUSH1 0x20 DUP1 SWAP2 DIV MUL PUSH1 0x20 ADD PUSH1 0x40 MLOAD SWAP1 DUP2 ADD PUSH1 0x40 MSTORE DUP1 SWAP3 SWAP2 SWAP1 DUP2 DUP2 MSTORE PUSH1 0x20 ADD DUP3 DUP1 SLOAD PUSH2 0x514 SWAP1 PUSH2 0x2BA8 JUMP JUMPDEST DUP1 ISZERO PUSH2 0x55F JUMPI DUP1 PUSH1 0x1F LT PUSH2 0x536 JUMPI PUSH2 0x100 DUP1 DUP4 SLOAD DIV MUL DUP4 MSTORE SWAP2 PUSH1 0x20 ADD SWAP2 PUSH2 0x55F JUMP JUMPDEST DUP3 ADD SWAP2 SWAP1 PUSH0 MSTORE PUSH1 0x20 PUSH0 KECCAK256 SWAP1 JUMPDEST DUP2 SLOAD DUP2 MSTORE SWAP1 PUSH1 0x1 ADD SWAP1 PUSH1 0x20 ADD DUP1 DUP4 GT PUSH2 0x542 JUMPI DUP3 SWAP1 SUB PUSH1 0x1F AND DUP3 ADD SWAP2 JUMPDEST POP POP POP POP POP SWAP1 POP SWAP2 SWAP1 POP JUMP JUMPDEST PUSH2 0x577 DUP5 DUP5 DUP5 DUP5 PUSH2 0xECA JUMP JUMPDEST POP POP POP POP JUMP JUMPDEST PUSH0 PUSH2 0x586 PUSH2 0xF4D JUMP JUMPDEST SWAP1 POP DUP1 PUSH20 0xFFFFFFFFFFFFFFFFFFFFFFFFFFFFFFFFFFFFFFFF AND DUP7 PUSH20 0xFFFFFFFFFFFFFFFFFFFFFFFFFFFFFFFFFFFFFFFF AND EQ ISZERO DUP1 ISZERO PUSH2 0x5CB JUMPI POP PUSH2 0x5C9 DUP7 DUP3 PUSH2 0xB62 JUMP JUMPDEST ISZERO JUMPDEST ISZERO PUSH2 0x60F JUMPI DUP1 DUP7 PUSH1 0x40 MLOAD PUSH32 0xE237D92200000000000000000000000000000000000000000000000000000000 DUP2 MSTORE PUSH1 0x4 ADD PUSH2 0x606 SWAP3 SWAP2 SWAP1 PUSH2 0x2BD8 JUMP JUMPDEST PUSH1 0x40 MLOAD DUP1 SWAP2 SUB SWAP1 REVERT JUMPDEST PUSH2 0x61C DUP7 DUP7 DUP7 DUP7 DUP7 PUSH2 0xF54 JUMP JUMPDEST POP POP POP POP POP POP JUMP JUMPDEST PUSH2 0x62C PUSH2 0xE30 JUMP JUMPDEST PUSH2 0x634 PUSH2 0x1048 JUMP JUMPDEST JUMP JUMPDEST PUSH1 0x60 DUP2 MLOAD DUP4 MLOAD EQ PUSH2 0x682 JUMPI DUP2 MLOAD DUP4 MLOAD PUSH1 0x40 MLOAD PUSH32 0x5B05999100000000000000000000000000000000000000000000000000000000 DUP2 MSTORE PUSH1 0x4 ADD PUSH2 0x679 SWAP3 SWAP2 SWAP1 PUSH2 0x2BFF JUMP JUMPDEST PUSH1 0x40 MLOAD DUP1 SWAP2 SUB SWAP1 REVERT JUMPDEST PUSH0 DUP4 MLOAD PUSH8 0xFFFFFFFFFFFFFFFF DUP2 GT ISZERO PUSH2 0x69E JUMPI PUSH2 0x69D PUSH2 0x20F3 JUMP JUMPDEST JUMPDEST PUSH1 0x40 MLOAD SWAP1 DUP1 DUP3 MSTORE DUP1 PUSH1 0x20 MUL PUSH1 0x20 ADD DUP3 ADD PUSH1 0x40 MSTORE DUP1 ISZERO PUSH2 0x6CC JUMPI DUP2 PUSH1 0x20 ADD PUSH1 0x20 DUP3 MUL DUP1 CALLDATASIZE DUP4 CALLDATACOPY DUP1 DUP3 ADD SWAP2 POP POP SWAP1 POP JUMPDEST POP SWAP1 POP PUSH0 JUMPDEST DUP5 MLOAD DUP2 LT ISZERO PUSH2 0x732 JUMPI PUSH2 0x708 PUSH2 0x6F0 DUP3 DUP8 PUSH2 0x10AA SWAP1 SWAP2 SWAP1 PUSH4 0xFFFFFFFF AND JUMP JUMPDEST PUSH2 0x703 DUP4 DUP8 PUSH2 0x10BD SWAP1 SWAP2 SWAP1 PUSH4 0xFFFFFFFF AND JUMP JUMPDEST PUSH2 0x38F JUMP JUMPDEST DUP3 DUP3 DUP2 MLOAD DUP2 LT PUSH2 0x71B JUMPI PUSH2 0x71A PUSH2 0x2C26 JUMP JUMPDEST JUMPDEST PUSH1 0x20 MUL PUSH1 0x20 ADD ADD DUP2 DUP2 MSTORE POP POP DUP1 PUSH1 0x1 ADD SWAP1 POP PUSH2 0x6D1 JUMP JUMPDEST POP DUP1 SWAP2 POP POP SWAP3 SWAP2 POP POP JUMP JUMPDEST CALLER PUSH20 0xFFFFFFFFFFFFFFFFFFFFFFFFFFFFFFFFFFFFFFFF AND PUSH1 0x5 DUP6 PUSH1 0x40 MLOAD PUSH2 0x764 SWAP2 SWAP1 PUSH2 0x2C8D JUMP JUMPDEST SWAP1 DUP2 MSTORE PUSH1 0x20 ADD PUSH1 0x40 MLOAD DUP1 SWAP2 SUB SWAP1 KECCAK256 PUSH0 SWAP1 SLOAD SWAP1 PUSH2 0x100 EXP SWAP1 DIV PUSH20 0xFFFFFFFFFFFFFFFFFFFFFFFFFFFFFFFFFFFFFFFF AND PUSH20 0xFFFFFFFFFFFFFFFFFFFFFFFFFFFFFFFFFFFFFFFF AND EQ PUSH2 0x7DF JUMPI PUSH1 0x40 MLOAD PUSH32 0xFEA5885A00000000000000000000000000000000000000000000000000000000 DUP2 MSTORE PUSH1 0x4 ADD PUSH1 0x40 MLOAD DUP1 SWAP2 SUB SWAP1 REVERT JUMPDEST PUSH1 0x4 PUSH1 0x6 PUSH0 CALLER PUSH20 0xFFFFFFFFFFFFFFFFFFFFFFFFFFFFFFFFFFFFFFFF AND PUSH20 0xFFFFFFFFFFFFFFFFFFFFFFFFFFFFFFFFFFFFFFFF AND DUP2 MSTORE PUSH1 0x20 ADD SWAP1 DUP2 MSTORE PUSH1 0x20 ADD PUSH0 KECCAK256 DUP1 SLOAD SWAP1 POP GT ISZERO PUSH2 0x85A JUMPI PUSH1 0x40 MLOAD PUSH32 0xB8A63B4000000000000000000000000000000000000000000000000000000000 DUP2 MSTORE PUSH1 0x4 ADD PUSH1 0x40 MLOAD DUP1 SWAP2 SUB SWAP1 REVERT JUMPDEST PUSH0 PUSH1 0x40 MLOAD DUP1 PUSH1 0xA0 ADD PUSH1 0x40 MSTORE DUP1 PUSH1 0x4 PUSH0 DUP2 SLOAD DUP1 SWAP3 SWAP2 SWAP1 PUSH2 0x878 SWAP1 PUSH2 0x2CD0 JUMP JUMPDEST SWAP2 SWAP1 POP SSTORE DUP2 MSTORE PUSH1 0x20 ADD PUSH0 PUSH1 0x2 DUP2 GT ISZERO PUSH2 0x894 JUMPI PUSH2 0x893 PUSH2 0x2D17 JUMP JUMPDEST JUMPDEST DUP2 MSTORE PUSH1 0x20 ADD DUP6 DUP2 MSTORE PUSH1 0x20 ADD DUP5 DUP2 MSTORE PUSH1 0x20 ADD DUP4 DUP2 MSTORE POP SWAP1 POP DUP1 PUSH1 0x6 PUSH0 CALLER PUSH20 0xFFFFFFFFFFFFFFFFFFFFFFFFFFFFFFFFFFFFFFFF AND PUSH20 0xFFFFFFFFFFFFFFFFFFFFFFFFFFFFFFFFFFFFFFFF AND DUP2 MSTORE PUSH1 0x20 ADD SWAP1 DUP2 MSTORE PUSH1 0x20 ADD PUSH0 KECCAK256 PUSH1 0x6 PUSH0 CALLER PUSH20 0xFFFFFFFFFFFFFFFFFFFFFFFFFFFFFFFFFFFFFFFF AND PUSH20 0xFFFFFFFFFFFFFFFFFFFFFFFFFFFFFFFFFFFFFFFF AND DUP2 MSTORE PUSH1 0x20 ADD SWAP1 DUP2 MSTORE PUSH1 0x20 ADD PUSH0 KECCAK256 DUP1 SLOAD SWAP1 POP DUP2 SLOAD DUP2 LT PUSH2 0x93B JUMPI PUSH2 0x93A PUSH2 0x2C26 JUMP JUMPDEST JUMPDEST SWAP1 PUSH0 MSTORE PUSH1 0x20 PUSH0 KECCAK256 SWAP1 PUSH1 0x5 MUL ADD PUSH0 DUP3 ADD MLOAD DUP2 PUSH0 ADD SSTORE PUSH1 0x20 DUP3 ADD MLOAD DUP2 PUSH1 0x1 ADD PUSH0 PUSH2 0x100 EXP DUP2 SLOAD DUP2 PUSH1 0xFF MUL NOT AND SWAP1 DUP4 PUSH1 0x2 DUP2 GT ISZERO PUSH2 0x979 JUMPI PUSH2 0x978 PUSH2 0x2D17 JUMP JUMPDEST JUMPDEST MUL OR SWAP1 SSTORE POP PUSH1 0x40 DUP3 ADD MLOAD DUP2 PUSH1 0x2 ADD SWAP1 DUP2 PUSH2 0x993 SWAP2 SWAP1 PUSH2 0x2EE1 JUMP JUMPDEST POP PUSH1 0x60 DUP3 ADD MLOAD DUP2 PUSH1 0x3 ADD SSTORE PUSH1 0x80 DUP3 ADD MLOAD DUP2 PUSH1 0x4 ADD SSTORE SWAP1 POP POP DUP1 PUSH1 0x7 PUSH0 DUP4 PUSH0 ADD MLOAD DUP2 MSTORE PUSH1 0x20 ADD SWAP1 DUP2 MSTORE PUSH1 0x20 ADD PUSH0 KECCAK256 PUSH0 DUP3 ADD MLOAD DUP2 PUSH0 ADD SSTORE PUSH1 0x20 DUP3 ADD MLOAD DUP2 PUSH1 0x1 ADD PUSH0 PUSH2 0x100 EXP DUP2 SLOAD DUP2 PUSH1 0xFF MUL NOT AND SWAP1 DUP4 PUSH1 0x2 DUP2 GT ISZERO PUSH2 0x9F2 JUMPI PUSH2 0x9F1 PUSH2 0x2D17 JUMP JUMPDEST JUMPDEST MUL OR SWAP1 SSTORE POP PUSH1 0x40 DUP3 ADD MLOAD DUP2 PUSH1 0x2 ADD SWAP1 DUP2 PUSH2 0xA0C SWAP2 SWAP1 PUSH2 0x2EE1 JUMP JUMPDEST POP PUSH1 0x60 DUP3 ADD MLOAD DUP2 PUSH1 0x3 ADD SSTORE PUSH1 0x80 DUP3 ADD MLOAD DUP2 PUSH1 0x4 ADD SSTORE SWAP1 POP POP POP POP POP POP POP JUMP JUMPDEST PUSH0 PUSH1 0x3 PUSH1 0x14 SWAP1 SLOAD SWAP1 PUSH2 0x100 EXP SWAP1 DIV PUSH1 0xFF AND SWAP1 POP SWAP1 JUMP JUMPDEST PUSH2 0xA49 PUSH2 0xF4D JUMP JUMPDEST PUSH20 0xFFFFFFFFFFFFFFFFFFFFFFFFFFFFFFFFFFFFFFFF AND DUP4 PUSH20 0xFFFFFFFFFFFFFFFFFFFFFFFFFFFFFFFFFFFFFFFF AND EQ ISZERO DUP1 ISZERO PUSH2 0xA92 JUMPI POP PUSH2 0xA90 DUP4 PUSH2 0xA8B PUSH2 0xF4D JUMP JUMPDEST PUSH2 0xB62 JUMP JUMPDEST ISZERO JUMPDEST ISZERO PUSH2 0xADD JUMPI PUSH2 0xA9F PUSH2 0xF4D JUMP JUMPDEST DUP4 PUSH1 0x40 MLOAD PUSH32 0xE237D92200000000000000000000000000000000000000000000000000000000 DUP2 MSTORE PUSH1 0x4 ADD PUSH2 0xAD4 SWAP3 SWAP2 SWAP1 PUSH2 0x2BD8 JUMP JUMPDEST PUSH1 0x40 MLOAD DUP1 SWAP2 SUB SWAP1 REVERT JUMPDEST PUSH2 0xAE8 DUP4 DUP4 DUP4 PUSH2 0x10D0 JUMP JUMPDEST POP POP POP JUMP JUMPDEST PUSH2 0xAF5 PUSH2 0xE30 JUMP JUMPDEST PUSH2 0xAFE PUSH0 PUSH2 0x1160 JUMP JUMPDEST JUMP JUMPDEST PUSH2 0xB0C DUP5 DUP5 DUP5 DUP5 PUSH2 0x1223 JUMP JUMPDEST POP POP POP POP JUMP JUMPDEST PUSH2 0xB1A PUSH2 0xE30 JUMP JUMPDEST PUSH2 0xB22 PUSH2 0x12B8 JUMP JUMPDEST JUMP JUMPDEST PUSH0 PUSH1 0x3 PUSH0 SWAP1 SLOAD SWAP1 PUSH2 0x100 EXP SWAP1 DIV PUSH20 0xFFFFFFFFFFFFFFFFFFFFFFFFFFFFFFFFFFFFFFFF AND SWAP1 POP SWAP1 JUMP JUMPDEST PUSH2 0xB5E PUSH2 0xB57 PUSH2 0xF4D JUMP JUMPDEST DUP4 DUP4 PUSH2 0x131B JUMP JUMPDEST POP POP JUMP JUMPDEST PUSH0 PUSH1 0x1 PUSH0 DUP5 PUSH20 0xFFFFFFFFFFFFFFFFFFFFFFFFFFFFFFFFFFFFFFFF AND PUSH20 0xFFFFFFFFFFFFFFFFFFFFFFFFFFFFFFFFFFFFFFFF AND DUP2 MSTORE PUSH1 0x20 ADD SWAP1 DUP2 MSTORE PUSH1 0x20 ADD PUSH0 KECCAK256 PUSH0 DUP4 PUSH20 0xFFFFFFFFFFFFFFFFFFFFFFFFFFFFFFFFFFFFFFFF AND PUSH20 0xFFFFFFFFFFFFFFFFFFFFFFFFFFFFFFFFFFFFFFFF AND DUP2 MSTORE PUSH1 0x20 ADD SWAP1 DUP2 MSTORE PUSH1 0x20 ADD PUSH0 KECCAK256 PUSH0 SWAP1 SLOAD SWAP1 PUSH2 0x100 EXP SWAP1 DIV PUSH1 0xFF AND SWAP1 POP SWAP3 SWAP2 POP POP JUMP JUMPDEST PUSH0 PUSH2 0xBF9 PUSH2 0xF4D JUMP JUMPDEST SWAP1 POP DUP1 PUSH20 0xFFFFFFFFFFFFFFFFFFFFFFFFFFFFFFFFFFFFFFFF AND DUP7 PUSH20 0xFFFFFFFFFFFFFFFFFFFFFFFFFFFFFFFFFFFFFFFF AND EQ ISZERO DUP1 ISZERO PUSH2 0xC3E JUMPI POP PUSH2 0xC3C DUP7 DUP3 PUSH2 0xB62 JUMP JUMPDEST ISZERO JUMPDEST ISZERO PUSH2 0xC82 JUMPI DUP1 DUP7 PUSH1 0x40 MLOAD PUSH32 0xE237D92200000000000000000000000000000000000000000000000000000000 DUP2 MSTORE PUSH1 0x4 ADD PUSH2 0xC79 SWAP3 SWAP2 SWAP1 PUSH2 0x2BD8 JUMP JUMPDEST PUSH1 0x40 MLOAD DUP1 SWAP2 SUB SWAP1 REVERT JUMPDEST PUSH2 0xC8F DUP7 DUP7 DUP7 DUP7 DUP7 PUSH2 0x1484 JUMP JUMPDEST POP POP POP POP POP POP JUMP JUMPDEST PUSH2 0xC9F PUSH2 0xE30 JUMP JUMPDEST PUSH0 PUSH20 0xFFFFFFFFFFFFFFFFFFFFFFFFFFFFFFFFFFFFFFFF AND DUP2 PUSH20 0xFFFFFFFFFFFFFFFFFFFFFFFFFFFFFFFFFFFFFFFF AND SUB PUSH2 0xD0F JUMPI PUSH0 PUSH1 0x40 MLOAD PUSH32 0x1E4FBDF700000000000000000000000000000000000000000000000000000000 DUP2 MSTORE PUSH1 0x4 ADD PUSH2 0xD06 SWAP2 SWAP1 PUSH2 0x29AE JUMP JUMPDEST PUSH1 0x40 MLOAD DUP1 SWAP2 SUB SWAP1 REVERT JUMPDEST PUSH2 0xD18 DUP2 PUSH2 0x1160 JUMP JUMPDEST POP JUMP JUMPDEST PUSH2 0xD23 PUSH2 0xF4D JUMP JUMPDEST PUSH20 0xFFFFFFFFFFFFFFFFFFFFFFFFFFFFFFFFFFFFFFFF AND DUP4 PUSH20 0xFFFFFFFFFFFFFFFFFFFFFFFFFFFFFFFFFFFFFFFF AND EQ ISZERO DUP1 ISZERO PUSH2 0xD6C JUMPI POP PUSH2 0xD6A DUP4 PUSH2 0xD65 PUSH2 0xF4D JUMP JUMPDEST PUSH2 0xB62 JUMP JUMPDEST ISZERO JUMPDEST ISZERO PUSH2 0xDB7 JUMPI PUSH2 0xD79 PUSH2 0xF4D JUMP JUMPDEST DUP4 PUSH1 0x40 MLOAD PUSH32 0xE237D92200000000000000000000000000000000000000000000000000000000 DUP2 MSTORE PUSH1 0x4 ADD PUSH2 0xDAE SWAP3 SWAP2 SWAP1 PUSH2 0x2BD8 JUMP JUMPDEST PUSH1 0x40 MLOAD DUP1 SWAP2 SUB SWAP1 REVERT JUMPDEST PUSH2 0xDC2 DUP4 DUP4 DUP4 PUSH2 0x158A JUMP JUMPDEST POP POP POP JUMP JUMPDEST PUSH0 PUSH32 0x1FFC9A700000000000000000000000000000000000000000000000000000000 PUSH28 0xFFFFFFFFFFFFFFFFFFFFFFFFFFFFFFFFFFFFFFFFFFFFFFFFFFFFFFFF NOT AND DUP3 PUSH28 0xFFFFFFFFFFFFFFFFFFFFFFFFFFFFFFFFFFFFFFFFFFFFFFFFFFFFFFFF NOT AND EQ SWAP1 POP SWAP2 SWAP1 POP JUMP JUMPDEST PUSH2 0xE38 PUSH2 0xF4D JUMP JUMPDEST PUSH20 0xFFFFFFFFFFFFFFFFFFFFFFFFFFFFFFFFFFFFFFFF AND PUSH2 0xE56 PUSH2 0xB24 JUMP JUMPDEST PUSH20 0xFFFFFFFFFFFFFFFFFFFFFFFFFFFFFFFFFFFFFFFF AND EQ PUSH2 0xEB5 JUMPI PUSH2 0xE79 PUSH2 0xF4D JUMP JUMPDEST PUSH1 0x40 MLOAD PUSH32 0x118CDAA700000000000000000000000000000000000000000000000000000000 DUP2 MSTORE PUSH1 0x4 ADD PUSH2 0xEAC SWAP2 SWAP1 PUSH2 0x29AE JUMP JUMPDEST PUSH1 0x40 MLOAD DUP1 SWAP2 SUB SWAP1 REVERT JUMPDEST JUMP JUMPDEST DUP1 PUSH1 0x2 SWAP1 DUP2 PUSH2 0xEC6 SWAP2 SWAP1 PUSH2 0x2EE1 JUMP JUMPDEST POP POP JUMP JUMPDEST PUSH0 PUSH20 0xFFFFFFFFFFFFFFFFFFFFFFFFFFFFFFFFFFFFFFFF AND DUP5 PUSH20 0xFFFFFFFFFFFFFFFFFFFFFFFFFFFFFFFFFFFFFFFF AND SUB PUSH2 0xF3A JUMPI PUSH0 PUSH1 0x40 MLOAD PUSH32 0x57F447CE00000000000000000000000000000000000000000000000000000000 DUP2 MSTORE PUSH1 0x4 ADD PUSH2 0xF31 SWAP2 SWAP1 PUSH2 0x29AE JUMP JUMPDEST PUSH1 0x40 MLOAD DUP1 SWAP2 SUB SWAP1 REVERT JUMPDEST PUSH2 0xF47 PUSH0 DUP6 DUP6 DUP6 DUP6 PUSH2 0x162C JUMP JUMPDEST POP POP POP POP JUMP JUMPDEST PUSH0 CALLER SWAP1 POP SWAP1 JUMP JUMPDEST PUSH0 PUSH20 0xFFFFFFFFFFFFFFFFFFFFFFFFFFFFFFFFFFFFFFFF AND DUP5 PUSH20 0xFFFFFFFFFFFFFFFFFFFFFFFFFFFFFFFFFFFFFFFF AND SUB PUSH2 0xFC4 JUMPI PUSH0 PUSH1 0x40 MLOAD PUSH32 0x57F447CE00000000000000000000000000000000000000000000000000000000 DUP2 MSTORE PUSH1 0x4 ADD PUSH2 0xFBB SWAP2 SWAP1 PUSH2 0x29AE JUMP JUMPDEST PUSH1 0x40 MLOAD DUP1 SWAP2 SUB SWAP1 REVERT JUMPDEST PUSH0 PUSH20 0xFFFFFFFFFFFFFFFFFFFFFFFFFFFFFFFFFFFFFFFF AND DUP6 PUSH20 0xFFFFFFFFFFFFFFFFFFFFFFFFFFFFFFFFFFFFFFFF AND SUB PUSH2 0x1034 JUMPI PUSH0 PUSH1 0x40 MLOAD PUSH32 0x1A8351400000000000000000000000000000000000000000000000000000000 DUP2 MSTORE PUSH1 0x4 ADD PUSH2 0x102B SWAP2 SWAP1 PUSH2 0x29AE JUMP JUMPDEST PUSH1 0x40 MLOAD DUP1 SWAP2 SUB SWAP1 REVERT JUMPDEST PUSH2 0x1041 DUP6 DUP6 DUP6 DUP6 DUP6 PUSH2 0x162C JUMP JUMPDEST POP POP POP POP POP JUMP JUMPDEST PUSH2 0x1050 PUSH2 0x16D8 JUMP JUMPDEST PUSH0 PUSH1 0x3 PUSH1 0x14 PUSH2 0x100 EXP DUP2 SLOAD DUP2 PUSH1 0xFF MUL NOT AND SWAP1 DUP4 ISZERO ISZERO MUL OR SWAP1 SSTORE POP PUSH32 0x5DB9EE0A495BF2E6FF9C91A7834C1BA4FDD244A5E8AA4E537BD38AEAE4B073AA PUSH2 0x1093 PUSH2 0xF4D JUMP JUMPDEST PUSH1 0x40 MLOAD PUSH2 0x10A0 SWAP2 SWAP1 PUSH2 0x29AE JUMP JUMPDEST PUSH1 0x40 MLOAD DUP1 SWAP2 SUB SWAP1 LOG1 JUMP JUMPDEST PUSH0 PUSH1 0x20 DUP3 MUL PUSH1 0x20 DUP5 ADD ADD MLOAD SWAP1 POP SWAP3 SWAP2 POP POP JUMP JUMPDEST PUSH0 PUSH1 0x20 DUP3 MUL PUSH1 0x20 DUP5 ADD ADD MLOAD SWAP1 POP SWAP3 SWAP2 POP POP JUMP JUMPDEST PUSH0 PUSH20 0xFFFFFFFFFFFFFFFFFFFFFFFFFFFFFFFFFFFFFFFF AND DUP4 PUSH20 0xFFFFFFFFFFFFFFFFFFFFFFFFFFFFFFFFFFFFFFFF AND SUB PUSH2 0x1140 JUMPI PUSH0 PUSH1 0x40 MLOAD PUSH32 0x1A8351400000000000000000000000000000000000000000000000000000000 DUP2 MSTORE PUSH1 0x4 ADD PUSH2 0x1137 SWAP2 SWAP1 PUSH2 0x29AE JUMP JUMPDEST PUSH1 0x40 MLOAD DUP1 SWAP2 SUB SWAP1 REVERT JUMPDEST PUSH2 0x115B DUP4 PUSH0 DUP5 DUP5 PUSH1 0x40 MLOAD DUP1 PUSH1 0x20 ADD PUSH1 0x40 MSTORE DUP1 PUSH0 DUP2 MSTORE POP PUSH2 0x162C JUMP JUMPDEST POP POP POP JUMP JUMPDEST PUSH0 PUSH1 0x3 PUSH0 SWAP1 SLOAD SWAP1 PUSH2 0x100 EXP SWAP1 DIV PUSH20 0xFFFFFFFFFFFFFFFFFFFFFFFFFFFFFFFFFFFFFFFF AND SWAP1 POP DUP2 PUSH1 0x3 PUSH0 PUSH2 0x100 EXP DUP2 SLOAD DUP2 PUSH20 0xFFFFFFFFFFFFFFFFFFFFFFFFFFFFFFFFFFFFFFFF MUL NOT AND SWAP1 DUP4 PUSH20 0xFFFFFFFFFFFFFFFFFFFFFFFFFFFFFFFFFFFFFFFF AND MUL OR SWAP1 SSTORE POP DUP2 PUSH20 0xFFFFFFFFFFFFFFFFFFFFFFFFFFFFFFFFFFFFFFFF AND DUP2 PUSH20 0xFFFFFFFFFFFFFFFFFFFFFFFFFFFFFFFFFFFFFFFF AND PUSH32 0x8BE0079C531659141344CD1FD0A4F28419497F9722A3DAAFE3B4186F6B6457E0 PUSH1 0x40 MLOAD PUSH1 0x40 MLOAD DUP1 SWAP2 SUB SWAP1 LOG3 POP POP JUMP JUMPDEST PUSH0 PUSH20 0xFFFFFFFFFFFFFFFFFFFFFFFFFFFFFFFFFFFFFFFF AND DUP5 PUSH20 0xFFFFFFFFFFFFFFFFFFFFFFFFFFFFFFFFFFFFFFFF AND SUB PUSH2 0x1293 JUMPI PUSH0 PUSH1 0x40 MLOAD PUSH32 0x57F447CE00000000000000000000000000000000000000000000000000000000 DUP2 MSTORE PUSH1 0x4 ADD PUSH2 0x128A SWAP2 SWAP1 PUSH2 0x29AE JUMP JUMPDEST PUSH1 0x40 MLOAD DUP1 SWAP2 SUB SWAP1 REVERT JUMPDEST PUSH0 DUP1 PUSH2 0x129F DUP6 DUP6 PUSH2 0x1718 JUMP JUMPDEST SWAP2 POP SWAP2 POP PUSH2 0x12B0 PUSH0 DUP8 DUP5 DUP5 DUP8 PUSH2 0x162C JUMP JUMPDEST POP POP POP POP POP POP JUMP JUMPDEST PUSH2 0x12C0 PUSH2 0x1748 JUMP JUMPDEST PUSH1 0x1 PUSH1 0x3 PUSH1 0x14 PUSH2 0x100 EXP DUP2 SLOAD DUP2 PUSH1 0xFF MUL NOT AND SWAP1 DUP4 ISZERO ISZERO MUL OR SWAP1 SSTORE POP PUSH32 0x62E78CEA01BEE320CD4E420270B5EA74000D11B0C9F74754EBDBFC544B05A258 PUSH2 0x1304 PUSH2 0xF4D JUMP JUMPDEST PUSH1 0x40 MLOAD PUSH2 0x1311 SWAP2 SWAP1 PUSH2 0x29AE JUMP JUMPDEST PUSH1 0x40 MLOAD DUP1 SWAP2 SUB SWAP1 LOG1 JUMP JUMPDEST PUSH0 PUSH20 0xFFFFFFFFFFFFFFFFFFFFFFFFFFFFFFFFFFFFFFFF AND DUP3 PUSH20 0xFFFFFFFFFFFFFFFFFFFFFFFFFFFFFFFFFFFFFFFF AND SUB PUSH2 0x138B JUMPI PUSH0 PUSH1 0x40 MLOAD PUSH32 0xCED3E10000000000000000000000000000000000000000000000000000000000 DUP2 MSTORE PUSH1 0x4 ADD PUSH2 0x1382 SWAP2 SWAP1 PUSH2 0x29AE JUMP JUMPDEST PUSH1 0x40 MLOAD DUP1 SWAP2 SUB SWAP1 REVERT JUMPDEST DUP1 PUSH1 0x1 PUSH0 DUP6 PUSH20 0xFFFFFFFFFFFFFFFFFFFFFFFFFFFFFFFFFFFFFFFF AND PUSH20 0xFFFFFFFFFFFFFFFFFFFFFFFFFFFFFFFFFFFFFFFF AND DUP2 MSTORE PUSH1 0x20 ADD SWAP1 DUP2 MSTORE PUSH1 0x20 ADD PUSH0 KECCAK256 PUSH0 DUP5 PUSH20 0xFFFFFFFFFFFFFFFFFFFFFFFFFFFFFFFFFFFFFFFF AND PUSH20 0xFFFFFFFFFFFFFFFFFFFFFFFFFFFFFFFFFFFFFFFF AND DUP2 MSTORE PUSH1 0x20 ADD SWAP1 DUP2 MSTORE PUSH1 0x20 ADD PUSH0 KECCAK256 PUSH0 PUSH2 0x100 EXP DUP2 SLOAD DUP2 PUSH1 0xFF MUL NOT AND SWAP1 DUP4 ISZERO ISZERO MUL OR SWAP1 SSTORE POP DUP2 PUSH20 0xFFFFFFFFFFFFFFFFFFFFFFFFFFFFFFFFFFFFFFFF AND DUP4 PUSH20 0xFFFFFFFFFFFFFFFFFFFFFFFFFFFFFFFFFFFFFFFF AND PUSH32 0x17307EAB39AB6107E8899845AD3D59BD9653F200F220920489CA2B5937696C31 DUP4 PUSH1 0x40 MLOAD PUSH2 0x1477 SWAP2 SWAP1 PUSH2 0x20C2 JUMP JUMPDEST PUSH1 0x40 MLOAD DUP1 SWAP2 SUB SWAP1 LOG3 POP POP POP JUMP JUMPDEST PUSH0 PUSH20 0xFFFFFFFFFFFFFFFFFFFFFFFFFFFFFFFFFFFFFFFF AND DUP5 PUSH20 0xFFFFFFFFFFFFFFFFFFFFFFFFFFFFFFFFFFFFFFFF AND SUB PUSH2 0x14F4 JUMPI PUSH0 PUSH1 0x40 MLOAD PUSH32 0x57F447CE00000000000000000000000000000000000000000000000000000000 DUP2 MSTORE PUSH1 0x4 ADD PUSH2 0x14EB SWAP2 SWAP1 PUSH2 0x29AE JUMP JUMPDEST PUSH1 0x40 MLOAD DUP1 SWAP2 SUB SWAP1 REVERT JUMPDEST PUSH0 PUSH20 0xFFFFFFFFFFFFFFFFFFFFFFFFFFFFFFFFFFFFFFFF AND DUP6 PUSH20 0xFFFFFFFFFFFFFFFFFFFFFFFFFFFFFFFFFFFFFFFF AND SUB PUSH2 0x1564 JUMPI PUSH0 PUSH1 0x40 MLOAD PUSH32 0x1A8351400000000000000000000000000000000000000000000000000000000 DUP2 MSTORE PUSH1 0x4 ADD PUSH2 0x155B SWAP2 SWAP1 PUSH2 0x29AE JUMP JUMPDEST PUSH1 0x40 MLOAD DUP1 SWAP2 SUB SWAP1 REVERT JUMPDEST PUSH0 DUP1 PUSH2 0x1570 DUP6 DUP6 PUSH2 0x1718 JUMP JUMPDEST SWAP2 POP SWAP2 POP PUSH2 0x1581 DUP8 DUP8 DUP5 DUP5 DUP8 PUSH2 0x162C JUMP JUMPDEST POP POP POP POP POP POP POP JUMP JUMPDEST PUSH0 PUSH20 0xFFFFFFFFFFFFFFFFFFFFFFFFFFFFFFFFFFFFFFFF AND DUP4 PUSH20 0xFFFFFFFFFFFFFFFFFFFFFFFFFFFFFFFFFFFFFFFF AND SUB PUSH2 0x15FA JUMPI PUSH0 PUSH1 0x40 MLOAD PUSH32 0x1A8351400000000000000000000000000000000000000000000000000000000 DUP2 MSTORE PUSH1 0x4 ADD PUSH2 0x15F1 SWAP2 SWAP1 PUSH2 0x29AE JUMP JUMPDEST PUSH1 0x40 MLOAD DUP1 SWAP2 SUB SWAP1 REVERT JUMPDEST PUSH0 DUP1 PUSH2 0x1606 DUP5 DUP5 PUSH2 0x1718 JUMP JUMPDEST SWAP2 POP SWAP2 POP PUSH2 0x1625 DUP6 PUSH0 DUP5 DUP5 PUSH1 0x40 MLOAD DUP1 PUSH1 0x20 ADD PUSH1 0x40 MSTORE DUP1 PUSH0 DUP2 MSTORE POP PUSH2 0x162C JUMP JUMPDEST POP POP POP POP POP JUMP JUMPDEST PUSH2 0x1638 DUP6 DUP6 DUP6 DUP6 PUSH2 0x1789 JUMP JUMPDEST PUSH0 PUSH20 0xFFFFFFFFFFFFFFFFFFFFFFFFFFFFFFFFFFFFFFFF AND DUP5 PUSH20 0xFFFFFFFFFFFFFFFFFFFFFFFFFFFFFFFFFFFFFFFF AND EQ PUSH2 0x16D1 JUMPI PUSH0 PUSH2 0x1674 PUSH2 0xF4D JUMP JUMPDEST SWAP1 POP PUSH1 0x1 DUP5 MLOAD SUB PUSH2 0x16C0 JUMPI PUSH0 PUSH2 0x1693 PUSH0 DUP7 PUSH2 0x10BD SWAP1 SWAP2 SWAP1 PUSH4 0xFFFFFFFF AND JUMP JUMPDEST SWAP1 POP PUSH0 PUSH2 0x16A9 PUSH0 DUP7 PUSH2 0x10BD SWAP1 SWAP2 SWAP1 PUSH4 0xFFFFFFFF AND JUMP JUMPDEST SWAP1 POP PUSH2 0x16B9 DUP4 DUP10 DUP10 DUP6 DUP6 DUP10 PUSH2 0x181C JUMP JUMPDEST POP POP PUSH2 0x16CF JUMP JUMPDEST PUSH2 0x16CE DUP2 DUP8 DUP8 DUP8 DUP8 DUP8 PUSH2 0x19CB JUMP JUMPDEST JUMPDEST POP JUMPDEST POP POP POP POP POP JUMP JUMPDEST PUSH2 0x16E0 PUSH2 0xA2B JUMP JUMPDEST PUSH2 0x1716 JUMPI PUSH1 0x40 MLOAD PUSH32 0x8DFC202B00000000000000000000000000000000000000000000000000000000 DUP2 MSTORE PUSH1 0x4 ADD PUSH1 0x40 MLOAD DUP1 SWAP2 SUB SWAP1 REVERT JUMPDEST JUMP JUMPDEST PUSH1 0x60 DUP1 PUSH1 0x40 MLOAD SWAP2 POP PUSH1 0x1 DUP3 MSTORE DUP4 PUSH1 0x20 DUP4 ADD MSTORE PUSH1 0x40 DUP3 ADD SWAP1 POP PUSH1 0x1 DUP2 MSTORE DUP3 PUSH1 0x20 DUP3 ADD MSTORE PUSH1 0x40 DUP2 ADD PUSH1 0x40 MSTORE SWAP3 POP SWAP3 SWAP1 POP JUMP JUMPDEST PUSH2 0x1750 PUSH2 0xA2B JUMP JUMPDEST ISZERO PUSH2 0x1787 JUMPI PUSH1 0x40 MLOAD PUSH32 0xD93C066500000000000000000000000000000000000000000000000000000000 DUP2 MSTORE PUSH1 0x4 ADD PUSH1 0x40 MLOAD DUP1 SWAP2 SUB SWAP1 REVERT JUMPDEST JUMP JUMPDEST PUSH0 JUMPDEST DUP3 MLOAD DUP2 LT ISZERO PUSH2 0x1809 JUMPI CALLVALUE PUSH1 0x7 PUSH0 DUP6 DUP5 DUP2 MLOAD DUP2 LT PUSH2 0x17AB JUMPI PUSH2 0x17AA PUSH2 0x2C26 JUMP JUMPDEST JUMPDEST PUSH1 0x20 MUL PUSH1 0x20 ADD ADD MLOAD DUP2 MSTORE PUSH1 0x20 ADD SWAP1 DUP2 MSTORE PUSH1 0x20 ADD PUSH0 KECCAK256 PUSH1 0x4 ADD SLOAD GT ISZERO PUSH2 0x17FC JUMPI PUSH1 0x40 MLOAD PUSH32 0xE2F844A000000000000000000000000000000000000000000000000000000000 DUP2 MSTORE PUSH1 0x4 ADD PUSH1 0x40 MLOAD DUP1 SWAP2 SUB SWAP1 REVERT JUMPDEST DUP1 DUP1 PUSH1 0x1 ADD SWAP2 POP POP PUSH2 0x178B JUMP JUMPDEST POP PUSH2 0x1816 DUP5 DUP5 DUP5 DUP5 PUSH2 0x1B7A JUMP JUMPDEST POP POP POP POP JUMP JUMPDEST PUSH0 DUP5 PUSH20 0xFFFFFFFFFFFFFFFFFFFFFFFFFFFFFFFFFFFFFFFF AND EXTCODESIZE GT ISZERO PUSH2 0x19C3 JUMPI DUP4 PUSH20 0xFFFFFFFFFFFFFFFFFFFFFFFFFFFFFFFFFFFFFFFF AND PUSH4 0xF23A6E61 DUP8 DUP8 DUP7 DUP7 DUP7 PUSH1 0x40 MLOAD DUP7 PUSH4 0xFFFFFFFF AND PUSH1 0xE0 SHL DUP2 MSTORE PUSH1 0x4 ADD PUSH2 0x187C SWAP6 SWAP5 SWAP4 SWAP3 SWAP2 SWAP1 PUSH2 0x3002 JUMP JUMPDEST PUSH1 0x20 PUSH1 0x40 MLOAD DUP1 DUP4 SUB DUP2 PUSH0 DUP8 GAS CALL SWAP3 POP POP POP DUP1 ISZERO PUSH2 0x18B7 JUMPI POP PUSH1 0x40 MLOAD RETURNDATASIZE PUSH1 0x1F NOT PUSH1 0x1F DUP3 ADD AND DUP3 ADD DUP1 PUSH1 0x40 MSTORE POP DUP2 ADD SWAP1 PUSH2 0x18B4 SWAP2 SWAP1 PUSH2 0x306E JUMP JUMPDEST PUSH1 0x1 JUMPDEST PUSH2 0x1938 JUMPI RETURNDATASIZE DUP1 PUSH0 DUP2 EQ PUSH2 0x18E5 JUMPI PUSH1 0x40 MLOAD SWAP2 POP PUSH1 0x1F NOT PUSH1 0x3F RETURNDATASIZE ADD AND DUP3 ADD PUSH1 0x40 MSTORE RETURNDATASIZE DUP3 MSTORE RETURNDATASIZE PUSH0 PUSH1 0x20 DUP5 ADD RETURNDATACOPY PUSH2 0x18EA JUMP JUMPDEST PUSH1 0x60 SWAP2 POP JUMPDEST POP PUSH0 DUP2 MLOAD SUB PUSH2 0x1930 JUMPI DUP5 PUSH1 0x40 MLOAD PUSH32 0x57F447CE00000000000000000000000000000000000000000000000000000000 DUP2 MSTORE PUSH1 0x4 ADD PUSH2 0x1927 SWAP2 SWAP1 PUSH2 0x29AE JUMP JUMPDEST PUSH1 0x40 MLOAD DUP1 SWAP2 SUB SWAP1 REVERT JUMPDEST DUP1 MLOAD DUP2 PUSH1 0x20 ADD REVERT JUMPDEST PUSH4 0xF23A6E61 PUSH1 0xE0 SHL PUSH28 0xFFFFFFFFFFFFFFFFFFFFFFFFFFFFFFFFFFFFFFFFFFFFFFFFFFFFFFFF NOT AND DUP2 PUSH28 0xFFFFFFFFFFFFFFFFFFFFFFFFFFFFFFFFFFFFFFFFFFFFFFFFFFFFFFFF NOT AND EQ PUSH2 0x19C1 JUMPI DUP5 PUSH1 0x40 MLOAD PUSH32 0x57F447CE00000000000000000000000000000000000000000000000000000000 DUP2 MSTORE PUSH1 0x4 ADD PUSH2 0x19B8 SWAP2 SWAP1 PUSH2 0x29AE JUMP JUMPDEST PUSH1 0x40 MLOAD DUP1 SWAP2 SUB SWAP1 REVERT JUMPDEST POP JUMPDEST POP POP POP POP POP POP JUMP JUMPDEST PUSH0 DUP5 PUSH20 0xFFFFFFFFFFFFFFFFFFFFFFFFFFFFFFFFFFFFFFFF AND EXTCODESIZE GT ISZERO PUSH2 0x1B72 JUMPI DUP4 PUSH20 0xFFFFFFFFFFFFFFFFFFFFFFFFFFFFFFFFFFFFFFFF AND PUSH4 0xBC197C81 DUP8 DUP8 DUP7 DUP7 DUP7 PUSH1 0x40 MLOAD DUP7 PUSH4 0xFFFFFFFF AND PUSH1 0xE0 SHL DUP2 MSTORE PUSH1 0x4 ADD PUSH2 0x1A2B SWAP6 SWAP5 SWAP4 SWAP3 SWAP2 SWAP1 PUSH2 0x3099 JUMP JUMPDEST PUSH1 0x20 PUSH1 0x40 MLOAD DUP1 DUP4 SUB DUP2 PUSH0 DUP8 GAS CALL SWAP3 POP POP POP DUP1 ISZERO PUSH2 0x1A66 JUMPI POP PUSH1 0x40 MLOAD RETURNDATASIZE PUSH1 0x1F NOT PUSH1 0x1F DUP3 ADD AND DUP3 ADD DUP1 PUSH1 0x40 MSTORE POP DUP2 ADD SWAP1 PUSH2 0x1A63 SWAP2 SWAP1 PUSH2 0x306E JUMP JUMPDEST PUSH1 0x1 JUMPDEST PUSH2 0x1AE7 JUMPI RETURNDATASIZE DUP1 PUSH0 DUP2 EQ PUSH2 0x1A94 JUMPI PUSH1 0x40 MLOAD SWAP2 POP PUSH1 0x1F NOT PUSH1 0x3F RETURNDATASIZE ADD AND DUP3 ADD PUSH1 0x40 MSTORE RETURNDATASIZE DUP3 MSTORE RETURNDATASIZE PUSH0 PUSH1 0x20 DUP5 ADD RETURNDATACOPY PUSH2 0x1A99 JUMP JUMPDEST PUSH1 0x60 SWAP2 POP JUMPDEST POP PUSH0 DUP2 MLOAD SUB PUSH2 0x1ADF JUMPI DUP5 PUSH1 0x40 MLOAD PUSH32 0x57F447CE00000000000000000000000000000000000000000000000000000000 DUP2 MSTORE PUSH1 0x4 ADD PUSH2 0x1AD6 SWAP2 SWAP1 PUSH2 0x29AE JUMP JUMPDEST PUSH1 0x40 MLOAD DUP1 SWAP2 SUB SWAP1 REVERT JUMPDEST DUP1 MLOAD DUP2 PUSH1 0x20 ADD REVERT JUMPDEST PUSH4 0xBC197C81 PUSH1 0xE0 SHL PUSH28 0xFFFFFFFFFFFFFFFFFFFFFFFFFFFFFFFFFFFFFFFFFFFFFFFFFFFFFFFF NOT AND DUP2 PUSH28 0xFFFFFFFFFFFFFFFFFFFFFFFFFFFFFFFFFFFFFFFFFFFFFFFFFFFFFFFF NOT AND EQ PUSH2 0x1B70 JUMPI DUP5 PUSH1 0x40 MLOAD PUSH32 0x57F447CE00000000000000000000000000000000000000000000000000000000 DUP2 MSTORE PUSH1 0x4 ADD PUSH2 0x1B67 SWAP2 SWAP1 PUSH2 0x29AE JUMP JUMPDEST PUSH1 0x40 MLOAD DUP1 SWAP2 SUB SWAP1 REVERT JUMPDEST POP JUMPDEST POP POP POP POP POP POP JUMP JUMPDEST PUSH2 0x1B82 PUSH2 0x1748 JUMP JUMPDEST PUSH2 0x1B8E DUP5 DUP5 DUP5 DUP5 PUSH2 0x1B94 JUMP JUMPDEST POP POP POP POP JUMP JUMPDEST DUP1 MLOAD DUP3 MLOAD EQ PUSH2 0x1BDE JUMPI DUP2 MLOAD DUP2 MLOAD PUSH1 0x40 MLOAD PUSH32 0x5B05999100000000000000000000000000000000000000000000000000000000 DUP2 MSTORE PUSH1 0x4 ADD PUSH2 0x1BD5 SWAP3 SWAP2 SWAP1 PUSH2 0x2BFF JUMP JUMPDEST PUSH1 0x40 MLOAD DUP1 SWAP2 SUB SWAP1 REVERT JUMPDEST PUSH0 PUSH2 0x1BE7 PUSH2 0xF4D JUMP JUMPDEST SWAP1 POP PUSH0 JUMPDEST DUP4 MLOAD DUP2 LT ISZERO PUSH2 0x1DE3 JUMPI PUSH0 PUSH2 0x1C08 DUP3 DUP7 PUSH2 0x10BD SWAP1 SWAP2 SWAP1 PUSH4 0xFFFFFFFF AND JUMP JUMPDEST SWAP1 POP PUSH0 PUSH2 0x1C1E DUP4 DUP7 PUSH2 0x10BD SWAP1 SWAP2 SWAP1 PUSH4 0xFFFFFFFF AND JUMP JUMPDEST SWAP1 POP PUSH0 PUSH20 0xFFFFFFFFFFFFFFFFFFFFFFFFFFFFFFFFFFFFFFFF AND DUP9 PUSH20 0xFFFFFFFFFFFFFFFFFFFFFFFFFFFFFFFFFFFFFFFF AND EQ PUSH2 0x1D41 JUMPI PUSH0 DUP1 PUSH0 DUP5 DUP2 MSTORE PUSH1 0x20 ADD SWAP1 DUP2 MSTORE PUSH1 0x20 ADD PUSH0 KECCAK256 PUSH0 DUP11 PUSH20 0xFFFFFFFFFFFFFFFFFFFFFFFFFFFFFFFFFFFFFFFF AND PUSH20 0xFFFFFFFFFFFFFFFFFFFFFFFFFFFFFFFFFFFFFFFF AND DUP2 MSTORE PUSH1 0x20 ADD SWAP1 DUP2 MSTORE PUSH1 0x20 ADD PUSH0 KECCAK256 SLOAD SWAP1 POP DUP2 DUP2 LT ISZERO PUSH2 0x1CED JUMPI DUP9 DUP2 DUP4 DUP6 PUSH1 0x40 MLOAD PUSH32 0x3DEE4C500000000000000000000000000000000000000000000000000000000 DUP2 MSTORE PUSH1 0x4 ADD PUSH2 0x1CE4 SWAP5 SWAP4 SWAP3 SWAP2 SWAP1 PUSH2 0x30FF JUMP JUMPDEST PUSH1 0x40 MLOAD DUP1 SWAP2 SUB SWAP1 REVERT JUMPDEST DUP2 DUP2 SUB PUSH0 DUP1 DUP6 DUP2 MSTORE PUSH1 0x20 ADD SWAP1 DUP2 MSTORE PUSH1 0x20 ADD PUSH0 KECCAK256 PUSH0 DUP12 PUSH20 0xFFFFFFFFFFFFFFFFFFFFFFFFFFFFFFFFFFFFFFFF AND PUSH20 0xFFFFFFFFFFFFFFFFFFFFFFFFFFFFFFFFFFFFFFFF AND DUP2 MSTORE PUSH1 0x20 ADD SWAP1 DUP2 MSTORE PUSH1 0x20 ADD PUSH0 KECCAK256 DUP2 SWAP1 SSTORE POP POP JUMPDEST PUSH0 PUSH20 0xFFFFFFFFFFFFFFFFFFFFFFFFFFFFFFFFFFFFFFFF AND DUP8 PUSH20 0xFFFFFFFFFFFFFFFFFFFFFFFFFFFFFFFFFFFFFFFF AND EQ PUSH2 0x1DD6 JUMPI DUP1 PUSH0 DUP1 DUP5 DUP2 MSTORE PUSH1 0x20 ADD SWAP1 DUP2 MSTORE PUSH1 0x20 ADD PUSH0 KECCAK256 PUSH0 DUP10 PUSH20 0xFFFFFFFFFFFFFFFFFFFFFFFFFFFFFFFFFFFFFFFF AND PUSH20 0xFFFFFFFFFFFFFFFFFFFFFFFFFFFFFFFFFFFFFFFF AND DUP2 MSTORE PUSH1 0x20 ADD SWAP1 DUP2 MSTORE PUSH1 0x20 ADD PUSH0 KECCAK256 PUSH0 DUP3 DUP3 SLOAD PUSH2 0x1DCE SWAP2 SWAP1 PUSH2 0x3142 JUMP JUMPDEST SWAP3 POP POP DUP2 SWAP1 SSTORE POP JUMPDEST POP POP DUP1 PUSH1 0x1 ADD SWAP1 POP PUSH2 0x1BEB JUMP JUMPDEST POP PUSH1 0x1 DUP4 MLOAD SUB PUSH2 0x1E9E JUMPI PUSH0 PUSH2 0x1E01 PUSH0 DUP6 PUSH2 0x10BD SWAP1 SWAP2 SWAP1 PUSH4 0xFFFFFFFF AND JUMP JUMPDEST SWAP1 POP PUSH0 PUSH2 0x1E17 PUSH0 DUP6 PUSH2 0x10BD SWAP1 SWAP2 SWAP1 PUSH4 0xFFFFFFFF AND JUMP JUMPDEST SWAP1 POP DUP6 PUSH20 0xFFFFFFFFFFFFFFFFFFFFFFFFFFFFFFFFFFFFFFFF AND DUP8 PUSH20 0xFFFFFFFFFFFFFFFFFFFFFFFFFFFFFFFFFFFFFFFF AND DUP5 PUSH20 0xFFFFFFFFFFFFFFFFFFFFFFFFFFFFFFFFFFFFFFFF AND PUSH32 0xC3D58168C5AE7397731D063D5BBF3D657854427343F4C083240F7AACAA2D0F62 DUP6 DUP6 PUSH1 0x40 MLOAD PUSH2 0x1E8F SWAP3 SWAP2 SWAP1 PUSH2 0x2BFF JUMP JUMPDEST PUSH1 0x40 MLOAD DUP1 SWAP2 SUB SWAP1 LOG4 POP POP PUSH2 0x1F1D JUMP JUMPDEST DUP4 PUSH20 0xFFFFFFFFFFFFFFFFFFFFFFFFFFFFFFFFFFFFFFFF AND DUP6 PUSH20 0xFFFFFFFFFFFFFFFFFFFFFFFFFFFFFFFFFFFFFFFF AND DUP3 PUSH20 0xFFFFFFFFFFFFFFFFFFFFFFFFFFFFFFFFFFFFFFFF AND PUSH32 0x4A39DC06D4C0DBC64B70AF90FD698A233A518AA5D07E595D983B8C0526C8F7FB DUP7 DUP7 PUSH1 0x40 MLOAD PUSH2 0x1F14 SWAP3 SWAP2 SWAP1 PUSH2 0x3175 JUMP JUMPDEST PUSH1 0x40 MLOAD DUP1 SWAP2 SUB SWAP1 LOG4 JUMPDEST POP POP POP POP POP JUMP JUMPDEST PUSH0 PUSH1 0x40 MLOAD SWAP1 POP SWAP1 JUMP JUMPDEST PUSH0 DUP1 REVERT JUMPDEST PUSH0 DUP1 REVERT JUMPDEST PUSH0 PUSH20 0xFFFFFFFFFFFFFFFFFFFFFFFFFFFFFFFFFFFFFFFF DUP3 AND SWAP1 POP SWAP2 SWAP1 POP JUMP JUMPDEST PUSH0 PUSH2 0x1F5E DUP3 PUSH2 0x1F35 JUMP JUMPDEST SWAP1 POP SWAP2 SWAP1 POP JUMP JUMPDEST PUSH2 0x1F6E DUP2 PUSH2 0x1F54 JUMP JUMPDEST DUP2 EQ PUSH2 0x1F78 JUMPI PUSH0 DUP1 REVERT JUMPDEST POP JUMP JUMPDEST PUSH0 DUP2 CALLDATALOAD SWAP1 POP PUSH2 0x1F89 DUP2 PUSH2 0x1F65 JUMP JUMPDEST SWAP3 SWAP2 POP POP JUMP JUMPDEST PUSH0 DUP2 SWAP1 POP SWAP2 SWAP1 POP JUMP JUMPDEST PUSH2 0x1FA1 DUP2 PUSH2 0x1F8F JUMP JUMPDEST DUP2 EQ PUSH2 0x1FAB JUMPI PUSH0 DUP1 REVERT JUMPDEST POP JUMP JUMPDEST PUSH0 DUP2 CALLDATALOAD SWAP1 POP PUSH2 0x1FBC DUP2 PUSH2 0x1F98 JUMP JUMPDEST SWAP3 SWAP2 POP POP JUMP JUMPDEST PUSH0 DUP1 PUSH1 0x40 DUP4 DUP6 SUB SLT ISZERO PUSH2 0x1FD8 JUMPI PUSH2 0x1FD7 PUSH2 0x1F2D JUMP JUMPDEST JUMPDEST PUSH0 PUSH2 0x1FE5 DUP6 DUP3 DUP7 ADD PUSH2 0x1F7B JUMP JUMPDEST SWAP3 POP POP PUSH1 0x20 PUSH2 0x1FF6 DUP6 DUP3 DUP7 ADD PUSH2 0x1FAE JUMP JUMPDEST SWAP2 POP POP SWAP3 POP SWAP3 SWAP1 POP JUMP JUMPDEST PUSH2 0x2009 DUP2 PUSH2 0x1F8F JUMP JUMPDEST DUP3 MSTORE POP POP JUMP JUMPDEST PUSH0 PUSH1 0x20 DUP3 ADD SWAP1 POP PUSH2 0x2022 PUSH0 DUP4 ADD DUP5 PUSH2 0x2000 JUMP JUMPDEST SWAP3 SWAP2 POP POP JUMP JUMPDEST PUSH0 PUSH32 0xFFFFFFFF00000000000000000000000000000000000000000000000000000000 DUP3 AND SWAP1 POP SWAP2 SWAP1 POP JUMP JUMPDEST PUSH2 0x205C DUP2 PUSH2 0x2028 JUMP JUMPDEST DUP2 EQ PUSH2 0x2066 JUMPI PUSH0 DUP1 REVERT JUMPDEST POP JUMP JUMPDEST PUSH0 DUP2 CALLDATALOAD SWAP1 POP PUSH2 0x2077 DUP2 PUSH2 0x2053 JUMP JUMPDEST SWAP3 SWAP2 POP POP JUMP JUMPDEST PUSH0 PUSH1 0x20 DUP3 DUP5 SUB SLT ISZERO PUSH2 0x2092 JUMPI PUSH2 0x2091 PUSH2 0x1F2D JUMP JUMPDEST JUMPDEST PUSH0 PUSH2 0x209F DUP5 DUP3 DUP6 ADD PUSH2 0x2069 JUMP JUMPDEST SWAP2 POP POP SWAP3 SWAP2 POP POP JUMP JUMPDEST PUSH0 DUP2 ISZERO ISZERO SWAP1 POP SWAP2 SWAP1 POP JUMP JUMPDEST PUSH2 0x20BC DUP2 PUSH2 0x20A8 JUMP JUMPDEST DUP3 MSTORE POP POP JUMP JUMPDEST PUSH0 PUSH1 0x20 DUP3 ADD SWAP1 POP PUSH2 0x20D5 PUSH0 DUP4 ADD DUP5 PUSH2 0x20B3 JUMP JUMPDEST SWAP3 SWAP2 POP POP JUMP JUMPDEST PUSH0 DUP1 REVERT JUMPDEST PUSH0 DUP1 REVERT JUMPDEST PUSH0 PUSH1 0x1F NOT PUSH1 0x1F DUP4 ADD AND SWAP1 POP SWAP2 SWAP1 POP JUMP JUMPDEST PUSH32 0x4E487B7100000000000000000000000000000000000000000000000000000000 PUSH0 MSTORE PUSH1 0x41 PUSH1 0x4 MSTORE PUSH1 0x24 PUSH0 REVERT JUMPDEST PUSH2 0x2129 DUP3 PUSH2 0x20E3 JUMP JUMPDEST DUP2 ADD DUP2 DUP2 LT PUSH8 0xFFFFFFFFFFFFFFFF DUP3 GT OR ISZERO PUSH2 0x2148 JUMPI PUSH2 0x2147 PUSH2 0x20F3 JUMP JUMPDEST JUMPDEST DUP1 PUSH1 0x40 MSTORE POP POP POP JUMP JUMPDEST PUSH0 PUSH2 0x215A PUSH2 0x1F24 JUMP JUMPDEST SWAP1 POP PUSH2 0x2166 DUP3 DUP3 PUSH2 0x2120 JUMP JUMPDEST SWAP2 SWAP1 POP JUMP JUMPDEST PUSH0 PUSH8 0xFFFFFFFFFFFFFFFF DUP3 GT ISZERO PUSH2 0x2185 JUMPI PUSH2 0x2184 PUSH2 0x20F3 JUMP JUMPDEST JUMPDEST PUSH2 0x218E DUP3 PUSH2 0x20E3 JUMP JUMPDEST SWAP1 POP PUSH1 0x20 DUP2 ADD SWAP1 POP SWAP2 SWAP1 POP JUMP JUMPDEST DUP3 DUP2 DUP4 CALLDATACOPY PUSH0 DUP4 DUP4 ADD MSTORE POP POP POP JUMP JUMPDEST PUSH0 PUSH2 0x21BB PUSH2 0x21B6 DUP5 PUSH2 0x216B JUMP JUMPDEST PUSH2 0x2151 JUMP JUMPDEST SWAP1 POP DUP3 DUP2 MSTORE PUSH1 0x20 DUP2 ADD DUP5 DUP5 DUP5 ADD GT ISZERO PUSH2 0x21D7 JUMPI PUSH2 0x21D6 PUSH2 0x20DF JUMP JUMPDEST JUMPDEST PUSH2 0x21E2 DUP5 DUP3 DUP6 PUSH2 0x219B JUMP JUMPDEST POP SWAP4 SWAP3 POP POP POP JUMP JUMPDEST PUSH0 DUP3 PUSH1 0x1F DUP4 ADD SLT PUSH2 0x21FE JUMPI PUSH2 0x21FD PUSH2 0x20DB JUMP JUMPDEST JUMPDEST DUP2 CALLDATALOAD PUSH2 0x220E DUP5 DUP3 PUSH1 0x20 DUP7 ADD PUSH2 0x21A9 JUMP JUMPDEST SWAP2 POP POP SWAP3 SWAP2 POP POP JUMP JUMPDEST PUSH0 PUSH1 0x20 DUP3 DUP5 SUB SLT ISZERO PUSH2 0x222C JUMPI PUSH2 0x222B PUSH2 0x1F2D JUMP JUMPDEST JUMPDEST PUSH0 DUP3 ADD CALLDATALOAD PUSH8 0xFFFFFFFFFFFFFFFF DUP2 GT ISZERO PUSH2 0x2249 JUMPI PUSH2 0x2248 PUSH2 0x1F31 JUMP JUMPDEST JUMPDEST PUSH2 0x2255 DUP5 DUP3 DUP6 ADD PUSH2 0x21EA JUMP JUMPDEST SWAP2 POP POP SWAP3 SWAP2 POP POP JUMP JUMPDEST PUSH0 PUSH1 0x20 DUP3 DUP5 SUB SLT ISZERO PUSH2 0x2273 JUMPI PUSH2 0x2272 PUSH2 0x1F2D JUMP JUMPDEST JUMPDEST PUSH0 PUSH2 0x2280 DUP5 DUP3 DUP6 ADD PUSH2 0x1FAE JUMP JUMPDEST SWAP2 POP POP SWAP3 SWAP2 POP POP JUMP JUMPDEST PUSH0 DUP2 MLOAD SWAP1 POP SWAP2 SWAP1 POP JUMP JUMPDEST PUSH0 DUP3 DUP3 MSTORE PUSH1 0x20 DUP3 ADD SWAP1 POP SWAP3 SWAP2 POP POP JUMP JUMPDEST DUP3 DUP2 DUP4 MCOPY PUSH0 DUP4 DUP4 ADD MSTORE POP POP POP JUMP JUMPDEST PUSH0 PUSH2 0x22BB DUP3 PUSH2 0x2289 JUMP JUMPDEST PUSH2 0x22C5 DUP2 DUP6 PUSH2 0x2293 JUMP JUMPDEST SWAP4 POP PUSH2 0x22D5 DUP2 DUP6 PUSH1 0x20 DUP7 ADD PUSH2 0x22A3 JUMP JUMPDEST PUSH2 0x22DE DUP2 PUSH2 0x20E3 JUMP JUMPDEST DUP5 ADD SWAP2 POP POP SWAP3 SWAP2 POP POP JUMP JUMPDEST PUSH0 PUSH1 0x20 DUP3 ADD SWAP1 POP DUP2 DUP2 SUB PUSH0 DUP4 ADD MSTORE PUSH2 0x2301 DUP2 DUP5 PUSH2 0x22B1 JUMP JUMPDEST SWAP1 POP SWAP3 SWAP2 POP POP JUMP JUMPDEST PUSH0 PUSH8 0xFFFFFFFFFFFFFFFF DUP3 GT ISZERO PUSH2 0x2323 JUMPI PUSH2 0x2322 PUSH2 0x20F3 JUMP JUMPDEST JUMPDEST PUSH1 0x20 DUP3 MUL SWAP1 POP PUSH1 0x20 DUP2 ADD SWAP1 POP SWAP2 SWAP1 POP JUMP JUMPDEST PUSH0 DUP1 REVERT JUMPDEST PUSH0 PUSH2 0x234A PUSH2 0x2345 DUP5 PUSH2 0x2309 JUMP JUMPDEST PUSH2 0x2151 JUMP JUMPDEST SWAP1 POP DUP1 DUP4 DUP3 MSTORE PUSH1 0x20 DUP3 ADD SWAP1 POP PUSH1 0x20 DUP5 MUL DUP4 ADD DUP6 DUP2 GT ISZERO PUSH2 0x236D JUMPI PUSH2 0x236C PUSH2 0x2334 JUMP JUMPDEST JUMPDEST DUP4 JUMPDEST DUP2 DUP2 LT ISZERO PUSH2 0x2396 JUMPI DUP1 PUSH2 0x2382 DUP9 DUP3 PUSH2 0x1FAE JUMP JUMPDEST DUP5 MSTORE PUSH1 0x20 DUP5 ADD SWAP4 POP POP PUSH1 0x20 DUP2 ADD SWAP1 POP PUSH2 0x236F JUMP JUMPDEST POP POP POP SWAP4 SWAP3 POP POP POP JUMP JUMPDEST PUSH0 DUP3 PUSH1 0x1F DUP4 ADD SLT PUSH2 0x23B4 JUMPI PUSH2 0x23B3 PUSH2 0x20DB JUMP JUMPDEST JUMPDEST DUP2 CALLDATALOAD PUSH2 0x23C4 DUP5 DUP3 PUSH1 0x20 DUP7 ADD PUSH2 0x2338 JUMP JUMPDEST SWAP2 POP POP SWAP3 SWAP2 POP POP JUMP JUMPDEST PUSH0 PUSH8 0xFFFFFFFFFFFFFFFF DUP3 GT ISZERO PUSH2 0x23E7 JUMPI PUSH2 0x23E6 PUSH2 0x20F3 JUMP JUMPDEST JUMPDEST PUSH2 0x23F0 DUP3 PUSH2 0x20E3 JUMP JUMPDEST SWAP1 POP PUSH1 0x20 DUP2 ADD SWAP1 POP SWAP2 SWAP1 POP JUMP JUMPDEST PUSH0 PUSH2 0x240F PUSH2 0x240A DUP5 PUSH2 0x23CD JUMP JUMPDEST PUSH2 0x2151 JUMP JUMPDEST SWAP1 POP DUP3 DUP2 MSTORE PUSH1 0x20 DUP2 ADD DUP5 DUP5 DUP5 ADD GT ISZERO PUSH2 0x242B JUMPI PUSH2 0x242A PUSH2 0x20DF JUMP JUMPDEST JUMPDEST PUSH2 0x2436 DUP5 DUP3 DUP6 PUSH2 0x219B JUMP JUMPDEST POP SWAP4 SWAP3 POP POP POP JUMP JUMPDEST PUSH0 DUP3 PUSH1 0x1F DUP4 ADD SLT PUSH2 0x2452 JUMPI PUSH2 0x2451 PUSH2 0x20DB JUMP JUMPDEST JUMPDEST DUP2 CALLDATALOAD PUSH2 0x2462 DUP5 DUP3 PUSH1 0x20 DUP7 ADD PUSH2 0x23FD JUMP JUMPDEST SWAP2 POP POP SWAP3 SWAP2 POP POP JUMP JUMPDEST PUSH0 DUP1 PUSH0 DUP1 PUSH1 0x80 DUP6 DUP8 SUB SLT ISZERO PUSH2 0x2483 JUMPI PUSH2 0x2482 PUSH2 0x1F2D JUMP JUMPDEST JUMPDEST PUSH0 PUSH2 0x2490 DUP8 DUP3 DUP9 ADD PUSH2 0x1F7B JUMP JUMPDEST SWAP5 POP POP PUSH1 0x20 DUP6 ADD CALLDATALOAD PUSH8 0xFFFFFFFFFFFFFFFF DUP2 GT ISZERO PUSH2 0x24B1 JUMPI PUSH2 0x24B0 PUSH2 0x1F31 JUMP JUMPDEST JUMPDEST PUSH2 0x24BD DUP8 DUP3 DUP9 ADD PUSH2 0x23A0 JUMP JUMPDEST SWAP4 POP POP PUSH1 0x40 DUP6 ADD CALLDATALOAD PUSH8 0xFFFFFFFFFFFFFFFF DUP2 GT ISZERO PUSH2 0x24DE JUMPI PUSH2 0x24DD PUSH2 0x1F31 JUMP JUMPDEST JUMPDEST PUSH2 0x24EA DUP8 DUP3 DUP9 ADD PUSH2 0x23A0 JUMP JUMPDEST SWAP3 POP POP PUSH1 0x60 DUP6 ADD CALLDATALOAD PUSH8 0xFFFFFFFFFFFFFFFF DUP2 GT ISZERO PUSH2 0x250B JUMPI PUSH2 0x250A PUSH2 0x1F31 JUMP JUMPDEST JUMPDEST PUSH2 0x2517 DUP8 DUP3 DUP9 ADD PUSH2 0x243E JUMP JUMPDEST SWAP2 POP POP SWAP3 SWAP6 SWAP2 SWAP5 POP SWAP3 POP JUMP JUMPDEST PUSH0 DUP1 PUSH0 DUP1 PUSH0 PUSH1 0xA0 DUP7 DUP9 SUB SLT ISZERO PUSH2 0x253C JUMPI PUSH2 0x253B PUSH2 0x1F2D JUMP JUMPDEST JUMPDEST PUSH0 PUSH2 0x2549 DUP9 DUP3 DUP10 ADD PUSH2 0x1F7B JUMP JUMPDEST SWAP6 POP POP PUSH1 0x20 PUSH2 0x255A DUP9 DUP3 DUP10 ADD PUSH2 0x1F7B JUMP JUMPDEST SWAP5 POP POP PUSH1 0x40 DUP7 ADD CALLDATALOAD PUSH8 0xFFFFFFFFFFFFFFFF DUP2 GT ISZERO PUSH2 0x257B JUMPI PUSH2 0x257A PUSH2 0x1F31 JUMP JUMPDEST JUMPDEST PUSH2 0x2587 DUP9 DUP3 DUP10 ADD PUSH2 0x23A0 JUMP JUMPDEST SWAP4 POP POP PUSH1 0x60 DUP7 ADD CALLDATALOAD PUSH8 0xFFFFFFFFFFFFFFFF DUP2 GT ISZERO PUSH2 0x25A8 JUMPI PUSH2 0x25A7 PUSH2 0x1F31 JUMP JUMPDEST JUMPDEST PUSH2 0x25B4 DUP9 DUP3 DUP10 ADD PUSH2 0x23A0 JUMP JUMPDEST SWAP3 POP POP PUSH1 0x80 DUP7 ADD CALLDATALOAD PUSH8 0xFFFFFFFFFFFFFFFF DUP2 GT ISZERO PUSH2 0x25D5 JUMPI PUSH2 0x25D4 PUSH2 0x1F31 JUMP JUMPDEST JUMPDEST PUSH2 0x25E1 DUP9 DUP3 DUP10 ADD PUSH2 0x243E JUMP JUMPDEST SWAP2 POP POP SWAP3 SWAP6 POP SWAP3 SWAP6 SWAP1 SWAP4 POP JUMP JUMPDEST PUSH0 PUSH8 0xFFFFFFFFFFFFFFFF DUP3 GT ISZERO PUSH2 0x2608 JUMPI PUSH2 0x2607 PUSH2 0x20F3 JUMP JUMPDEST JUMPDEST PUSH1 0x20 DUP3 MUL SWAP1 POP PUSH1 0x20 DUP2 ADD SWAP1 POP SWAP2 SWAP1 POP JUMP JUMPDEST PUSH0 PUSH2 0x262B PUSH2 0x2626 DUP5 PUSH2 0x25EE JUMP JUMPDEST PUSH2 0x2151 JUMP JUMPDEST SWAP1 POP DUP1 DUP4 DUP3 MSTORE PUSH1 0x20 DUP3 ADD SWAP1 POP PUSH1 0x20 DUP5 MUL DUP4 ADD DUP6 DUP2 GT ISZERO PUSH2 0x264E JUMPI PUSH2 0x264D PUSH2 0x2334 JUMP JUMPDEST JUMPDEST DUP4 JUMPDEST DUP2 DUP2 LT ISZERO PUSH2 0x2677 JUMPI DUP1 PUSH2 0x2663 DUP9 DUP3 PUSH2 0x1F7B JUMP JUMPDEST DUP5 MSTORE PUSH1 0x20 DUP5 ADD SWAP4 POP POP PUSH1 0x20 DUP2 ADD SWAP1 POP PUSH2 0x2650 JUMP JUMPDEST POP POP POP SWAP4 SWAP3 POP POP POP JUMP JUMPDEST PUSH0 DUP3 PUSH1 0x1F DUP4 ADD SLT PUSH2 0x2695 JUMPI PUSH2 0x2694 PUSH2 0x20DB JUMP JUMPDEST JUMPDEST DUP2 CALLDATALOAD PUSH2 0x26A5 DUP5 DUP3 PUSH1 0x20 DUP7 ADD PUSH2 0x2619 JUMP JUMPDEST SWAP2 POP POP SWAP3 SWAP2 POP POP JUMP JUMPDEST PUSH0 DUP1 PUSH1 0x40 DUP4 DUP6 SUB SLT ISZERO PUSH2 0x26C4 JUMPI PUSH2 0x26C3 PUSH2 0x1F2D JUMP JUMPDEST JUMPDEST PUSH0 DUP4 ADD CALLDATALOAD PUSH8 0xFFFFFFFFFFFFFFFF DUP2 GT ISZERO PUSH2 0x26E1 JUMPI PUSH2 0x26E0 PUSH2 0x1F31 JUMP JUMPDEST JUMPDEST PUSH2 0x26ED DUP6 DUP3 DUP7 ADD PUSH2 0x2681 JUMP JUMPDEST SWAP3 POP POP PUSH1 0x20 DUP4 ADD CALLDATALOAD PUSH8 0xFFFFFFFFFFFFFFFF DUP2 GT ISZERO PUSH2 0x270E JUMPI PUSH2 0x270D PUSH2 0x1F31 JUMP JUMPDEST JUMPDEST PUSH2 0x271A DUP6 DUP3 DUP7 ADD PUSH2 0x23A0 JUMP JUMPDEST SWAP2 POP POP SWAP3 POP SWAP3 SWAP1 POP JUMP JUMPDEST PUSH0 DUP2 MLOAD SWAP1 POP SWAP2 SWAP1 POP JUMP JUMPDEST PUSH0 DUP3 DUP3 MSTORE PUSH1 0x20 DUP3 ADD SWAP1 POP SWAP3 SWAP2 POP POP JUMP JUMPDEST PUSH0 DUP2 SWAP1 POP PUSH1 0x20 DUP3 ADD SWAP1 POP SWAP2 SWAP1 POP JUMP JUMPDEST PUSH2 0x2756 DUP2 PUSH2 0x1F8F JUMP JUMPDEST DUP3 MSTORE POP POP JUMP JUMPDEST PUSH0 PUSH2 0x2767 DUP4 DUP4 PUSH2 0x274D JUMP JUMPDEST PUSH1 0x20 DUP4 ADD SWAP1 POP SWAP3 SWAP2 POP POP JUMP JUMPDEST PUSH0 PUSH1 0x20 DUP3 ADD SWAP1 POP SWAP2 SWAP1 POP JUMP JUMPDEST PUSH0 PUSH2 0x2789 DUP3 PUSH2 0x2724 JUMP JUMPDEST PUSH2 0x2793 DUP2 DUP6 PUSH2 0x272E JUMP JUMPDEST SWAP4 POP PUSH2 0x279E DUP4 PUSH2 0x273E JUMP JUMPDEST DUP1 PUSH0 JUMPDEST DUP4 DUP2 LT ISZERO PUSH2 0x27CE JUMPI DUP2 MLOAD PUSH2 0x27B5 DUP9 DUP3 PUSH2 0x275C JUMP JUMPDEST SWAP8 POP PUSH2 0x27C0 DUP4 PUSH2 0x2773 JUMP JUMPDEST SWAP3 POP POP PUSH1 0x1 DUP2 ADD SWAP1 POP PUSH2 0x27A1 JUMP JUMPDEST POP DUP6 SWAP4 POP POP POP POP SWAP3 SWAP2 POP POP JUMP JUMPDEST PUSH0 PUSH1 0x20 DUP3 ADD SWAP1 POP DUP2 DUP2 SUB PUSH0 DUP4 ADD MSTORE PUSH2 0x27F3 DUP2 DUP5 PUSH2 0x277F JUMP JUMPDEST SWAP1 POP SWAP3 SWAP2 POP POP JUMP JUMPDEST PUSH0 DUP1 PUSH0 DUP1 PUSH1 0x80 DUP6 DUP8 SUB SLT ISZERO PUSH2 0x2813 JUMPI PUSH2 0x2812 PUSH2 0x1F2D JUMP JUMPDEST JUMPDEST PUSH0 DUP6 ADD CALLDATALOAD PUSH8 0xFFFFFFFFFFFFFFFF DUP2 GT ISZERO PUSH2 0x2830 JUMPI PUSH2 0x282F PUSH2 0x1F31 JUMP JUMPDEST JUMPDEST PUSH2 0x283C DUP8 DUP3 DUP9 ADD PUSH2 0x21EA JUMP JUMPDEST SWAP5 POP POP PUSH1 0x20 DUP6 ADD CALLDATALOAD PUSH8 0xFFFFFFFFFFFFFFFF DUP2 GT ISZERO PUSH2 0x285D JUMPI PUSH2 0x285C PUSH2 0x1F31 JUMP JUMPDEST JUMPDEST PUSH2 0x2869 DUP8 DUP3 DUP9 ADD PUSH2 0x21EA JUMP JUMPDEST SWAP4 POP POP PUSH1 0x40 PUSH2 0x287A DUP8 DUP3 DUP9 ADD PUSH2 0x1FAE JUMP JUMPDEST SWAP3 POP POP PUSH1 0x60 PUSH2 0x288B DUP8 DUP3 DUP9 ADD PUSH2 0x1FAE JUMP JUMPDEST SWAP2 POP POP SWAP3 SWAP6 SWAP2 SWAP5 POP SWAP3 POP JUMP JUMPDEST PUSH0 DUP1 PUSH0 PUSH1 0x60 DUP5 DUP7 SUB SLT ISZERO PUSH2 0x28AE JUMPI PUSH2 0x28AD PUSH2 0x1F2D JUMP JUMPDEST JUMPDEST PUSH0 PUSH2 0x28BB DUP7 DUP3 DUP8 ADD PUSH2 0x1F7B JUMP JUMPDEST SWAP4 POP POP PUSH1 0x20 DUP5 ADD CALLDATALOAD PUSH8 0xFFFFFFFFFFFFFFFF DUP2 GT ISZERO PUSH2 0x28DC JUMPI PUSH2 0x28DB PUSH2 0x1F31 JUMP JUMPDEST JUMPDEST PUSH2 0x28E8 DUP7 DUP3 DUP8 ADD PUSH2 0x23A0 JUMP JUMPDEST SWAP3 POP POP PUSH1 0x40 DUP5 ADD CALLDATALOAD PUSH8 0xFFFFFFFFFFFFFFFF DUP2 GT ISZERO PUSH2 0x2909 JUMPI PUSH2 0x2908 PUSH2 0x1F31 JUMP JUMPDEST JUMPDEST PUSH2 0x2915 DUP7 DUP3 DUP8 ADD PUSH2 0x23A0 JUMP JUMPDEST SWAP2 POP POP SWAP3 POP SWAP3 POP SWAP3 JUMP JUMPDEST PUSH0 DUP1 PUSH0 DUP1 PUSH1 0x80 DUP6 DUP8 SUB SLT ISZERO PUSH2 0x2937 JUMPI PUSH2 0x2936 PUSH2 0x1F2D JUMP JUMPDEST JUMPDEST PUSH0 PUSH2 0x2944 DUP8 DUP3 DUP9 ADD PUSH2 0x1F7B JUMP JUMPDEST SWAP5 POP POP PUSH1 0x20 PUSH2 0x2955 DUP8 DUP3 DUP9 ADD PUSH2 0x1FAE JUMP JUMPDEST SWAP4 POP POP PUSH1 0x40 PUSH2 0x2966 DUP8 DUP3 DUP9 ADD PUSH2 0x1FAE JUMP JUMPDEST SWAP3 POP POP PUSH1 0x60 DUP6 ADD CALLDATALOAD PUSH8 0xFFFFFFFFFFFFFFFF DUP2 GT ISZERO PUSH2 0x2987 JUMPI PUSH2 0x2986 PUSH2 0x1F31 JUMP JUMPDEST JUMPDEST PUSH2 0x2993 DUP8 DUP3 DUP9 ADD PUSH2 0x243E JUMP JUMPDEST SWAP2 POP POP SWAP3 SWAP6 SWAP2 SWAP5 POP SWAP3 POP JUMP JUMPDEST PUSH2 0x29A8 DUP2 PUSH2 0x1F54 JUMP JUMPDEST DUP3 MSTORE POP POP JUMP JUMPDEST PUSH0 PUSH1 0x20 DUP3 ADD SWAP1 POP PUSH2 0x29C1 PUSH0 DUP4 ADD DUP5 PUSH2 0x299F JUMP JUMPDEST SWAP3 SWAP2 POP POP JUMP JUMPDEST PUSH2 0x29D0 DUP2 PUSH2 0x20A8 JUMP JUMPDEST DUP2 EQ PUSH2 0x29DA JUMPI PUSH0 DUP1 REVERT JUMPDEST POP JUMP JUMPDEST PUSH0 DUP2 CALLDATALOAD SWAP1 POP PUSH2 0x29EB DUP2 PUSH2 0x29C7 JUMP JUMPDEST SWAP3 SWAP2 POP POP JUMP JUMPDEST PUSH0 DUP1 PUSH1 0x40 DUP4 DUP6 SUB SLT ISZERO PUSH2 0x2A07 JUMPI PUSH2 0x2A06 PUSH2 0x1F2D JUMP JUMPDEST JUMPDEST PUSH0 PUSH2 0x2A14 DUP6 DUP3 DUP7 ADD PUSH2 0x1F7B JUMP JUMPDEST SWAP3 POP POP PUSH1 0x20 PUSH2 0x2A25 DUP6 DUP3 DUP7 ADD PUSH2 0x29DD JUMP JUMPDEST SWAP2 POP POP SWAP3 POP SWAP3 SWAP1 POP JUMP JUMPDEST PUSH0 DUP1 PUSH1 0x40 DUP4 DUP6 SUB SLT ISZERO PUSH2 0x2A45 JUMPI PUSH2 0x2A44 PUSH2 0x1F2D JUMP JUMPDEST JUMPDEST PUSH0 PUSH2 0x2A52 DUP6 DUP3 DUP7 ADD PUSH2 0x1F7B JUMP JUMPDEST SWAP3 POP POP PUSH1 0x20 PUSH2 0x2A63 DUP6 DUP3 DUP7 ADD PUSH2 0x1F7B JUMP JUMPDEST SWAP2 POP POP SWAP3 POP SWAP3 SWAP1 POP JUMP JUMPDEST PUSH0 DUP1 PUSH0 DUP1 PUSH0 PUSH1 0xA0 DUP7 DUP9 SUB SLT ISZERO PUSH2 0x2A86 JUMPI PUSH2 0x2A85 PUSH2 0x1F2D JUMP JUMPDEST JUMPDEST PUSH0 PUSH2 0x2A93 DUP9 DUP3 DUP10 ADD PUSH2 0x1F7B JUMP JUMPDEST SWAP6 POP POP PUSH1 0x20 PUSH2 0x2AA4 DUP9 DUP3 DUP10 ADD PUSH2 0x1F7B JUMP JUMPDEST SWAP5 POP POP PUSH1 0x40 PUSH2 0x2AB5 DUP9 DUP3 DUP10 ADD PUSH2 0x1FAE JUMP JUMPDEST SWAP4 POP POP PUSH1 0x60 PUSH2 0x2AC6 DUP9 DUP3 DUP10 ADD PUSH2 0x1FAE JUMP JUMPDEST SWAP3 POP POP PUSH1 0x80 DUP7 ADD CALLDATALOAD PUSH8 0xFFFFFFFFFFFFFFFF DUP2 GT ISZERO PUSH2 0x2AE7 JUMPI PUSH2 0x2AE6 PUSH2 0x1F31 JUMP JUMPDEST JUMPDEST PUSH2 0x2AF3 DUP9 DUP3 DUP10 ADD PUSH2 0x243E JUMP JUMPDEST SWAP2 POP POP SWAP3 SWAP6 POP SWAP3 SWAP6 SWAP1 SWAP4 POP JUMP JUMPDEST PUSH0 PUSH1 0x20 DUP3 DUP5 SUB SLT ISZERO PUSH2 0x2B15 JUMPI PUSH2 0x2B14 PUSH2 0x1F2D JUMP JUMPDEST JUMPDEST PUSH0 PUSH2 0x2B22 DUP5 DUP3 DUP6 ADD PUSH2 0x1F7B JUMP JUMPDEST SWAP2 POP POP SWAP3 SWAP2 POP POP JUMP JUMPDEST PUSH0 DUP1 PUSH0 PUSH1 0x60 DUP5 DUP7 SUB SLT ISZERO PUSH2 0x2B42 JUMPI PUSH2 0x2B41 PUSH2 0x1F2D JUMP JUMPDEST JUMPDEST PUSH0 PUSH2 0x2B4F DUP7 DUP3 DUP8 ADD PUSH2 0x1F7B JUMP JUMPDEST SWAP4 POP POP PUSH1 0x20 PUSH2 0x2B60 DUP7 DUP3 DUP8 ADD PUSH2 0x1FAE JUMP JUMPDEST SWAP3 POP POP PUSH1 0x40 PUSH2 0x2B71 DUP7 DUP3 DUP8 ADD PUSH2 0x1FAE JUMP JUMPDEST SWAP2 POP POP SWAP3 POP SWAP3 POP SWAP3 JUMP JUMPDEST PUSH32 0x4E487B7100000000000000000000000000000000000000000000000000000000 PUSH0 MSTORE PUSH1 0x22 PUSH1 0x4 MSTORE PUSH1 0x24 PUSH0 REVERT JUMPDEST PUSH0 PUSH1 0x2 DUP3 DIV SWAP1 POP PUSH1 0x1 DUP3 AND DUP1 PUSH2 0x2BBF JUMPI PUSH1 0x7F DUP3 AND SWAP2 POP JUMPDEST PUSH1 0x20 DUP3 LT DUP2 SUB PUSH2 0x2BD2 JUMPI PUSH2 0x2BD1 PUSH2 0x2B7B JUMP JUMPDEST JUMPDEST POP SWAP2 SWAP1 POP JUMP JUMPDEST PUSH0 PUSH1 0x40 DUP3 ADD SWAP1 POP PUSH2 0x2BEB PUSH0 DUP4 ADD DUP6 PUSH2 0x299F JUMP JUMPDEST PUSH2 0x2BF8 PUSH1 0x20 DUP4 ADD DUP5 PUSH2 0x299F JUMP JUMPDEST SWAP4 SWAP3 POP POP POP JUMP JUMPDEST PUSH0 PUSH1 0x40 DUP3 ADD SWAP1 POP PUSH2 0x2C12 PUSH0 DUP4 ADD DUP6 PUSH2 0x2000 JUMP JUMPDEST PUSH2 0x2C1F PUSH1 0x20 DUP4 ADD DUP5 PUSH2 0x2000 JUMP JUMPDEST SWAP4 SWAP3 POP POP POP JUMP JUMPDEST PUSH32 0x4E487B7100000000000000000000000000000000000000000000000000000000 PUSH0 MSTORE PUSH1 0x32 PUSH1 0x4 MSTORE PUSH1 0x24 PUSH0 REVERT JUMPDEST PUSH0 DUP2 SWAP1 POP SWAP3 SWAP2 POP POP JUMP JUMPDEST PUSH0 PUSH2 0x2C67 DUP3 PUSH2 0x2289 JUMP JUMPDEST PUSH2 0x2C71 DUP2 DUP6 PUSH2 0x2C53 JUMP JUMPDEST SWAP4 POP PUSH2 0x2C81 DUP2 DUP6 PUSH1 0x20 DUP7 ADD PUSH2 0x22A3 JUMP JUMPDEST DUP1 DUP5 ADD SWAP2 POP POP SWAP3 SWAP2 POP POP JUMP JUMPDEST PUSH0 PUSH2 0x2C98 DUP3 DUP5 PUSH2 0x2C5D JUMP JUMPDEST SWAP2 POP DUP2 SWAP1 POP SWAP3 SWAP2 POP POP JUMP JUMPDEST PUSH32 0x4E487B7100000000000000000000000000000000000000000000000000000000 PUSH0 MSTORE PUSH1 0x11 PUSH1 0x4 MSTORE PUSH1 0x24 PUSH0 REVERT JUMPDEST PUSH0 PUSH2 0x2CDA DUP3 PUSH2 0x1F8F JUMP JUMPDEST SWAP2 POP PUSH32 0xFFFFFFFFFFFFFFFFFFFFFFFFFFFFFFFFFFFFFFFFFFFFFFFFFFFFFFFFFFFFFFFF DUP3 SUB PUSH2 0x2D0C JUMPI PUSH2 0x2D0B PUSH2 0x2CA3 JUMP JUMPDEST JUMPDEST PUSH1 0x1 DUP3 ADD SWAP1 POP SWAP2 SWAP1 POP JUMP JUMPDEST PUSH32 0x4E487B7100000000000000000000000000000000000000000000000000000000 PUSH0 MSTORE PUSH1 0x21 PUSH1 0x4 MSTORE PUSH1 0x24 PUSH0 REVERT JUMPDEST PUSH0 DUP2 SWAP1 POP DUP2 PUSH0 MSTORE PUSH1 0x20 PUSH0 KECCAK256 SWAP1 POP SWAP2 SWAP1 POP JUMP JUMPDEST PUSH0 PUSH1 0x20 PUSH1 0x1F DUP4 ADD DIV SWAP1 POP SWAP2 SWAP1 POP JUMP JUMPDEST PUSH0 DUP3 DUP3 SHL SWAP1 POP SWAP3 SWAP2 POP POP JUMP JUMPDEST PUSH0 PUSH1 0x8 DUP4 MUL PUSH2 0x2DA0 PUSH32 0xFFFFFFFFFFFFFFFFFFFFFFFFFFFFFFFFFFFFFFFFFFFFFFFFFFFFFFFFFFFFFFFF DUP3 PUSH2 0x2D65 JUMP JUMPDEST PUSH2 0x2DAA DUP7 DUP4 PUSH2 0x2D65 JUMP JUMPDEST SWAP6 POP DUP1 NOT DUP5 AND SWAP4 POP DUP1 DUP7 AND DUP5 OR SWAP3 POP POP POP SWAP4 SWAP3 POP POP POP JUMP JUMPDEST PUSH0 DUP2 SWAP1 POP SWAP2 SWAP1 POP JUMP JUMPDEST PUSH0 PUSH2 0x2DE5 PUSH2 0x2DE0 PUSH2 0x2DDB DUP5 PUSH2 0x1F8F JUMP JUMPDEST PUSH2 0x2DC2 JUMP JUMPDEST PUSH2 0x1F8F JUMP JUMPDEST SWAP1 POP SWAP2 SWAP1 POP JUMP JUMPDEST PUSH0 DUP2 SWAP1 POP SWAP2 SWAP1 POP JUMP JUMPDEST PUSH2 0x2DFE DUP4 PUSH2 0x2DCB JUMP JUMPDEST PUSH2 0x2E12 PUSH2 0x2E0A DUP3 PUSH2 0x2DEC JUMP JUMPDEST DUP5 DUP5 SLOAD PUSH2 0x2D71 JUMP JUMPDEST DUP3 SSTORE POP POP POP POP JUMP JUMPDEST PUSH0 SWAP1 JUMP JUMPDEST PUSH2 0x2E26 PUSH2 0x2E1A JUMP JUMPDEST PUSH2 0x2E31 DUP2 DUP5 DUP5 PUSH2 0x2DF5 JUMP JUMPDEST POP POP POP JUMP JUMPDEST JUMPDEST DUP2 DUP2 LT ISZERO PUSH2 0x2E54 JUMPI PUSH2 0x2E49 PUSH0 DUP3 PUSH2 0x2E1E JUMP JUMPDEST PUSH1 0x1 DUP2 ADD SWAP1 POP PUSH2 0x2E37 JUMP JUMPDEST POP POP JUMP JUMPDEST PUSH1 0x1F DUP3 GT ISZERO PUSH2 0x2E99 JUMPI PUSH2 0x2E6A DUP2 PUSH2 0x2D44 JUMP JUMPDEST PUSH2 0x2E73 DUP5 PUSH2 0x2D56 JUMP JUMPDEST DUP2 ADD PUSH1 0x20 DUP6 LT ISZERO PUSH2 0x2E82 JUMPI DUP2 SWAP1 POP JUMPDEST PUSH2 0x2E96 PUSH2 0x2E8E DUP6 PUSH2 0x2D56 JUMP JUMPDEST DUP4 ADD DUP3 PUSH2 0x2E36 JUMP JUMPDEST POP POP JUMPDEST POP POP POP JUMP JUMPDEST PUSH0 DUP3 DUP3 SHR SWAP1 POP SWAP3 SWAP2 POP POP JUMP JUMPDEST PUSH0 PUSH2 0x2EB9 PUSH0 NOT DUP5 PUSH1 0x8 MUL PUSH2 0x2E9E JUMP JUMPDEST NOT DUP1 DUP4 AND SWAP2 POP POP SWAP3 SWAP2 POP POP JUMP JUMPDEST PUSH0 PUSH2 0x2ED1 DUP4 DUP4 PUSH2 0x2EAA JUMP JUMPDEST SWAP2 POP DUP3 PUSH1 0x2 MUL DUP3 OR SWAP1 POP SWAP3 SWAP2 POP POP JUMP JUMPDEST PUSH2 0x2EEA DUP3 PUSH2 0x2289 JUMP JUMPDEST PUSH8 0xFFFFFFFFFFFFFFFF DUP2 GT ISZERO PUSH2 0x2F03 JUMPI PUSH2 0x2F02 PUSH2 0x20F3 JUMP JUMPDEST JUMPDEST PUSH2 0x2F0D DUP3 SLOAD PUSH2 0x2BA8 JUMP JUMPDEST PUSH2 0x2F18 DUP3 DUP3 DUP6 PUSH2 0x2E58 JUMP JUMPDEST PUSH0 PUSH1 0x20 SWAP1 POP PUSH1 0x1F DUP4 GT PUSH1 0x1 DUP2 EQ PUSH2 0x2F49 JUMPI PUSH0 DUP5 ISZERO PUSH2 0x2F37 JUMPI DUP3 DUP8 ADD MLOAD SWAP1 POP JUMPDEST PUSH2 0x2F41 DUP6 DUP3 PUSH2 0x2EC6 JUMP JUMPDEST DUP7 SSTORE POP PUSH2 0x2FA8 JUMP JUMPDEST PUSH1 0x1F NOT DUP5 AND PUSH2 0x2F57 DUP7 PUSH2 0x2D44 JUMP JUMPDEST PUSH0 JUMPDEST DUP3 DUP2 LT ISZERO PUSH2 0x2F7E JUMPI DUP5 DUP10 ADD MLOAD DUP3 SSTORE PUSH1 0x1 DUP3 ADD SWAP2 POP PUSH1 0x20 DUP6 ADD SWAP5 POP PUSH1 0x20 DUP2 ADD SWAP1 POP PUSH2 0x2F59 JUMP JUMPDEST DUP7 DUP4 LT ISZERO PUSH2 0x2F9B JUMPI DUP5 DUP10 ADD MLOAD PUSH2 0x2F97 PUSH1 0x1F DUP10 AND DUP3 PUSH2 0x2EAA JUMP JUMPDEST DUP4 SSTORE POP JUMPDEST PUSH1 0x1 PUSH1 0x2 DUP9 MUL ADD DUP9 SSTORE POP POP POP JUMPDEST POP POP POP POP POP POP JUMP JUMPDEST PUSH0 DUP2 MLOAD SWAP1 POP SWAP2 SWAP1 POP JUMP JUMPDEST PUSH0 DUP3 DUP3 MSTORE PUSH1 0x20 DUP3 ADD SWAP1 POP SWAP3 SWAP2 POP POP JUMP JUMPDEST PUSH0 PUSH2 0x2FD4 DUP3 PUSH2 0x2FB0 JUMP JUMPDEST PUSH2 0x2FDE DUP2 DUP6 PUSH2 0x2FBA JUMP JUMPDEST SWAP4 POP PUSH2 0x2FEE DUP2 DUP6 PUSH1 0x20 DUP7 ADD PUSH2 0x22A3 JUMP JUMPDEST PUSH2 0x2FF7 DUP2 PUSH2 0x20E3 JUMP JUMPDEST DUP5 ADD SWAP2 POP POP SWAP3 SWAP2 POP POP JUMP JUMPDEST PUSH0 PUSH1 0xA0 DUP3 ADD SWAP1 POP PUSH2 0x3015 PUSH0 DUP4 ADD DUP9 PUSH2 0x299F JUMP JUMPDEST PUSH2 0x3022 PUSH1 0x20 DUP4 ADD DUP8 PUSH2 0x299F JUMP JUMPDEST PUSH2 0x302F PUSH1 0x40 DUP4 ADD DUP7 PUSH2 0x2000 JUMP JUMPDEST PUSH2 0x303C PUSH1 0x60 DUP4 ADD DUP6 PUSH2 0x2000 JUMP JUMPDEST DUP2 DUP2 SUB PUSH1 0x80 DUP4 ADD MSTORE PUSH2 0x304E DUP2 DUP5 PUSH2 0x2FCA JUMP JUMPDEST SWAP1 POP SWAP7 SWAP6 POP POP POP POP POP POP JUMP JUMPDEST PUSH0 DUP2 MLOAD SWAP1 POP PUSH2 0x3068 DUP2 PUSH2 0x2053 JUMP JUMPDEST SWAP3 SWAP2 POP POP JUMP JUMPDEST PUSH0 PUSH1 0x20 DUP3 DUP5 SUB SLT ISZERO PUSH2 0x3083 JUMPI PUSH2 0x3082 PUSH2 0x1F2D JUMP JUMPDEST JUMPDEST PUSH0 PUSH2 0x3090 DUP5 DUP3 DUP6 ADD PUSH2 0x305A JUMP JUMPDEST SWAP2 POP POP SWAP3 SWAP2 POP POP JUMP JUMPDEST PUSH0 PUSH1 0xA0 DUP3 ADD SWAP1 POP PUSH2 0x30AC PUSH0 DUP4 ADD DUP9 PUSH2 0x299F JUMP JUMPDEST PUSH2 0x30B9 PUSH1 0x20 DUP4 ADD DUP8 PUSH2 0x299F JUMP JUMPDEST DUP2 DUP2 SUB PUSH1 0x40 DUP4 ADD MSTORE PUSH2 0x30CB DUP2 DUP7 PUSH2 0x277F JUMP JUMPDEST SWAP1 POP DUP2 DUP2 SUB PUSH1 0x60 DUP4 ADD MSTORE PUSH2 0x30DF DUP2 DUP6 PUSH2 0x277F JUMP JUMPDEST SWAP1 POP DUP2 DUP2 SUB PUSH1 0x80 DUP4 ADD MSTORE PUSH2 0x30F3 DUP2 DUP5 PUSH2 0x2FCA JUMP JUMPDEST SWAP1 POP SWAP7 SWAP6 POP POP POP POP POP POP JUMP JUMPDEST PUSH0 PUSH1 0x80 DUP3 ADD SWAP1 POP PUSH2 0x3112 PUSH0 DUP4 ADD DUP8 PUSH2 0x299F JUMP JUMPDEST PUSH2 0x311F PUSH1 0x20 DUP4 ADD DUP7 PUSH2 0x2000 JUMP JUMPDEST PUSH2 0x312C PUSH1 0x40 DUP4 ADD DUP6 PUSH2 0x2000 JUMP JUMPDEST PUSH2 0x3139 PUSH1 0x60 DUP4 ADD DUP5 PUSH2 0x2000 JUMP JUMPDEST SWAP6 SWAP5 POP POP POP POP POP JUMP JUMPDEST PUSH0 PUSH2 0x314C DUP3 PUSH2 0x1F8F JUMP JUMPDEST SWAP2 POP PUSH2 0x3157 DUP4 PUSH2 0x1F8F JUMP JUMPDEST SWAP3 POP DUP3 DUP3 ADD SWAP1 POP DUP1 DUP3 GT ISZERO PUSH2 0x316F JUMPI PUSH2 0x316E PUSH2 0x2CA3 JUMP JUMPDEST JUMPDEST SWAP3 SWAP2 POP POP JUMP JUMPDEST PUSH0 PUSH1 0x40 DUP3 ADD SWAP1 POP DUP2 DUP2 SUB PUSH0 DUP4 ADD MSTORE PUSH2 0x318D DUP2 DUP6 PUSH2 0x277F JUMP JUMPDEST SWAP1 POP DUP2 DUP2 SUB PUSH1 0x20 DUP4 ADD MSTORE PUSH2 0x31A1 DUP2 DUP5 PUSH2 0x277F JUMP JUMPDEST SWAP1 POP SWAP4 SWAP3 POP POP POP JUMP INVALID LOG2 PUSH5 0x6970667358 0x22 SLT KECCAK256 PUSH9 0xC94A8AF881040B4E11 0xDE 0xE9 0xC9 0xE8 PUSH19 0x85DEEFEBD385DA13258DC875E6DF0B4CDD6473 PUSH16 0x6C634300081900330000000000000000 "
		},
		"gasEstimates": {
			"creation": {
				"codeDepositCost": "2553600",
				"executionCost": "infinite",
				"totalCost": "infinite"
			},
			"external": {
				"balanceOf(address,uint256)": "infinite",
				"balanceOfBatch(address[],uint256[])": "infinite",
				"burn(address,uint256,uint256)": "infinite",
				"burnBatch(address,uint256[],uint256[])": "infinite",
				"createResearch(string,string,uint256,uint256)": "infinite",
				"isApprovedForAll(address,address)": "infinite",
				"mint(address,uint256,uint256,bytes)": "infinite",
				"mintBatch(address,uint256[],uint256[],bytes)": "infinite",
				"owner()": "2626",
				"pause()": "infinite",
				"paused()": "2635",
				"renounceOwnership()": "infinite",
				"safeBatchTransferFrom(address,address,uint256[],uint256[],bytes)": "infinite",
				"safeTransferFrom(address,address,uint256,uint256,bytes)": "infinite",
				"setApprovalForAll(address,bool)": "infinite",
				"setURI(string)": "infinite",
				"supportsInterface(bytes4)": "809",
				"transferOwnership(address)": "infinite",
				"unpause()": "infinite",
				"uri(uint256)": "infinite"
			},
			"internal": {
				"_update(address,address,uint256[] memory,uint256[] memory)": "infinite"
			}
		},
		"methodIdentifiers": {
			"balanceOf(address,uint256)": "00fdd58e",
			"balanceOfBatch(address[],uint256[])": "4e1273f4",
			"burn(address,uint256,uint256)": "f5298aca",
			"burnBatch(address,uint256[],uint256[])": "6b20c454",
			"createResearch(string,string,uint256,uint256)": "52726127",
			"isApprovedForAll(address,address)": "e985e9c5",
			"mint(address,uint256,uint256,bytes)": "731133e9",
			"mintBatch(address,uint256[],uint256[],bytes)": "1f7fdffa",
			"owner()": "8da5cb5b",
			"pause()": "8456cb59",
			"paused()": "5c975abb",
			"renounceOwnership()": "715018a6",
			"safeBatchTransferFrom(address,address,uint256[],uint256[],bytes)": "2eb2c2d6",
			"safeTransferFrom(address,address,uint256,uint256,bytes)": "f242432a",
			"setApprovalForAll(address,bool)": "a22cb465",
			"setURI(string)": "02fe5305",
			"supportsInterface(bytes4)": "01ffc9a7",
			"transferOwnership(address)": "f2fde38b",
			"unpause()": "3f4ba83a",
			"uri(uint256)": "0e89341c"
		}
	},
	"abi": [
		{
			"inputs": [
				{
					"internalType": "address",
					"name": "initialOwner",
					"type": "address"
				}
			],
			"stateMutability": "nonpayable",
			"type": "constructor"
		},
		{
			"inputs": [
				{
					"internalType": "address",
					"name": "sender",
					"type": "address"
				},
				{
					"internalType": "uint256",
					"name": "balance",
					"type": "uint256"
				},
				{
					"internalType": "uint256",
					"name": "needed",
					"type": "uint256"
				},
				{
					"internalType": "uint256",
					"name": "tokenId",
					"type": "uint256"
				}
			],
			"name": "ERC1155InsufficientBalance",
			"type": "error"
		},
		{
			"inputs": [
				{
					"internalType": "address",
					"name": "approver",
					"type": "address"
				}
			],
			"name": "ERC1155InvalidApprover",
			"type": "error"
		},
		{
			"inputs": [
				{
					"internalType": "uint256",
					"name": "idsLength",
					"type": "uint256"
				},
				{
					"internalType": "uint256",
					"name": "valuesLength",
					"type": "uint256"
				}
			],
			"name": "ERC1155InvalidArrayLength",
			"type": "error"
		},
		{
			"inputs": [
				{
					"internalType": "address",
					"name": "operator",
					"type": "address"
				}
			],
			"name": "ERC1155InvalidOperator",
			"type": "error"
		},
		{
			"inputs": [
				{
					"internalType": "address",
					"name": "receiver",
					"type": "address"
				}
			],
			"name": "ERC1155InvalidReceiver",
			"type": "error"
		},
		{
			"inputs": [
				{
					"internalType": "address",
					"name": "sender",
					"type": "address"
				}
			],
			"name": "ERC1155InvalidSender",
			"type": "error"
		},
		{
			"inputs": [
				{
					"internalType": "address",
					"name": "operator",
					"type": "address"
				},
				{
					"internalType": "address",
					"name": "owner",
					"type": "address"
				}
			],
			"name": "ERC1155MissingApprovalForAll",
			"type": "error"
		},
		{
			"inputs": [],
			"name": "EnforcedPause",
			"type": "error"
		},
		{
			"inputs": [],
			"name": "ExpectedPause",
			"type": "error"
		},
		{
			"inputs": [],
			"name": "NotAuthenticated",
			"type": "error"
		},
		{
			"inputs": [],
			"name": "NotEnoughValue",
			"type": "error"
		},
		{
			"inputs": [
				{
					"internalType": "address",
					"name": "owner",
					"type": "address"
				}
			],
			"name": "OwnableInvalidOwner",
			"type": "error"
		},
		{
			"inputs": [
				{
					"internalType": "address",
					"name": "account",
					"type": "address"
				}
			],
			"name": "OwnableUnauthorizedAccount",
			"type": "error"
		},
		{
			"inputs": [],
			"name": "ResearchCap",
			"type": "error"
		},
		{
			"anonymous": false,
			"inputs": [
				{
					"indexed": true,
					"internalType": "address",
					"name": "account",
					"type": "address"
				},
				{
					"indexed": true,
					"internalType": "address",
					"name": "operator",
					"type": "address"
				},
				{
					"indexed": false,
					"internalType": "bool",
					"name": "approved",
					"type": "bool"
				}
			],
			"name": "ApprovalForAll",
			"type": "event"
		},
		{
			"anonymous": false,
			"inputs": [
				{
					"indexed": true,
					"internalType": "address",
					"name": "previousOwner",
					"type": "address"
				},
				{
					"indexed": true,
					"internalType": "address",
					"name": "newOwner",
					"type": "address"
				}
			],
			"name": "OwnershipTransferred",
			"type": "event"
		},
		{
			"anonymous": false,
			"inputs": [
				{
					"indexed": false,
					"internalType": "address",
					"name": "account",
					"type": "address"
				}
			],
			"name": "Paused",
			"type": "event"
		},
		{
			"anonymous": false,
			"inputs": [
				{
					"indexed": true,
					"internalType": "address",
					"name": "operator",
					"type": "address"
				},
				{
					"indexed": true,
					"internalType": "address",
					"name": "from",
					"type": "address"
				},
				{
					"indexed": true,
					"internalType": "address",
					"name": "to",
					"type": "address"
				},
				{
					"indexed": false,
					"internalType": "uint256[]",
					"name": "ids",
					"type": "uint256[]"
				},
				{
					"indexed": false,
					"internalType": "uint256[]",
					"name": "values",
					"type": "uint256[]"
				}
			],
			"name": "TransferBatch",
			"type": "event"
		},
		{
			"anonymous": false,
			"inputs": [
				{
					"indexed": true,
					"internalType": "address",
					"name": "operator",
					"type": "address"
				},
				{
					"indexed": true,
					"internalType": "address",
					"name": "from",
					"type": "address"
				},
				{
					"indexed": true,
					"internalType": "address",
					"name": "to",
					"type": "address"
				},
				{
					"indexed": false,
					"internalType": "uint256",
					"name": "id",
					"type": "uint256"
				},
				{
					"indexed": false,
					"internalType": "uint256",
					"name": "value",
					"type": "uint256"
				}
			],
			"name": "TransferSingle",
			"type": "event"
		},
		{
			"anonymous": false,
			"inputs": [
				{
					"indexed": false,
					"internalType": "string",
					"name": "value",
					"type": "string"
				},
				{
					"indexed": true,
					"internalType": "uint256",
					"name": "id",
					"type": "uint256"
				}
			],
			"name": "URI",
			"type": "event"
		},
		{
			"anonymous": false,
			"inputs": [
				{
					"indexed": false,
					"internalType": "address",
					"name": "account",
					"type": "address"
				}
			],
			"name": "Unpaused",
			"type": "event"
		},
		{
			"inputs": [
				{
					"internalType": "address",
					"name": "account",
					"type": "address"
				},
				{
					"internalType": "uint256",
					"name": "id",
					"type": "uint256"
				}
			],
			"name": "balanceOf",
			"outputs": [
				{
					"internalType": "uint256",
					"name": "",
					"type": "uint256"
				}
			],
			"stateMutability": "view",
			"type": "function"
		},
		{
			"inputs": [
				{
					"internalType": "address[]",
					"name": "accounts",
					"type": "address[]"
				},
				{
					"internalType": "uint256[]",
					"name": "ids",
					"type": "uint256[]"
				}
			],
			"name": "balanceOfBatch",
			"outputs": [
				{
					"internalType": "uint256[]",
					"name": "",
					"type": "uint256[]"
				}
			],
			"stateMutability": "view",
			"type": "function"
		},
		{
			"inputs": [
				{
					"internalType": "address",
					"name": "account",
					"type": "address"
				},
				{
					"internalType": "uint256",
					"name": "id",
					"type": "uint256"
				},
				{
					"internalType": "uint256",
					"name": "value",
					"type": "uint256"
				}
			],
			"name": "burn",
			"outputs": [],
			"stateMutability": "nonpayable",
			"type": "function"
		},
		{
			"inputs": [
				{
					"internalType": "address",
					"name": "account",
					"type": "address"
				},
				{
					"internalType": "uint256[]",
					"name": "ids",
					"type": "uint256[]"
				},
				{
					"internalType": "uint256[]",
					"name": "values",
					"type": "uint256[]"
				}
			],
			"name": "burnBatch",
			"outputs": [],
			"stateMutability": "nonpayable",
			"type": "function"
		},
		{
			"inputs": [
				{
					"internalType": "string",
					"name": "authentication",
					"type": "string"
				},
				{
					"internalType": "string",
					"name": "repo",
					"type": "string"
				},
				{
					"internalType": "uint256",
					"name": "invest",
					"type": "uint256"
				},
				{
					"internalType": "uint256",
					"name": "articlePrice",
					"type": "uint256"
				}
			],
			"name": "createResearch",
			"outputs": [],
			"stateMutability": "nonpayable",
			"type": "function"
		},
		{
			"inputs": [
				{
					"internalType": "address",
					"name": "account",
					"type": "address"
				},
				{
					"internalType": "address",
					"name": "operator",
					"type": "address"
				}
			],
			"name": "isApprovedForAll",
			"outputs": [
				{
					"internalType": "bool",
					"name": "",
					"type": "bool"
				}
			],
			"stateMutability": "view",
			"type": "function"
		},
		{
			"inputs": [
				{
					"internalType": "address",
					"name": "account",
					"type": "address"
				},
				{
					"internalType": "uint256",
					"name": "id",
					"type": "uint256"
				},
				{
					"internalType": "uint256",
					"name": "amount",
					"type": "uint256"
				},
				{
					"internalType": "bytes",
					"name": "data",
					"type": "bytes"
				}
			],
			"name": "mint",
			"outputs": [],
			"stateMutability": "nonpayable",
			"type": "function"
		},
		{
			"inputs": [
				{
					"internalType": "address",
					"name": "to",
					"type": "address"
				},
				{
					"internalType": "uint256[]",
					"name": "ids",
					"type": "uint256[]"
				},
				{
					"internalType": "uint256[]",
					"name": "amounts",
					"type": "uint256[]"
				},
				{
					"internalType": "bytes",
					"name": "data",
					"type": "bytes"
				}
			],
			"name": "mintBatch",
			"outputs": [],
			"stateMutability": "nonpayable",
			"type": "function"
		},
		{
			"inputs": [],
			"name": "owner",
			"outputs": [
				{
					"internalType": "address",
					"name": "",
					"type": "address"
				}
			],
			"stateMutability": "view",
			"type": "function"
		},
		{
			"inputs": [],
			"name": "pause",
			"outputs": [],
			"stateMutability": "nonpayable",
			"type": "function"
		},
		{
			"inputs": [],
			"name": "paused",
			"outputs": [
				{
					"internalType": "bool",
					"name": "",
					"type": "bool"
				}
			],
			"stateMutability": "view",
			"type": "function"
		},
		{
			"inputs": [],
			"name": "renounceOwnership",
			"outputs": [],
			"stateMutability": "nonpayable",
			"type": "function"
		},
		{
			"inputs": [
				{
					"internalType": "address",
					"name": "from",
					"type": "address"
				},
				{
					"internalType": "address",
					"name": "to",
					"type": "address"
				},
				{
					"internalType": "uint256[]",
					"name": "ids",
					"type": "uint256[]"
				},
				{
					"internalType": "uint256[]",
					"name": "values",
					"type": "uint256[]"
				},
				{
					"internalType": "bytes",
					"name": "data",
					"type": "bytes"
				}
			],
			"name": "safeBatchTransferFrom",
			"outputs": [],
			"stateMutability": "nonpayable",
			"type": "function"
		},
		{
			"inputs": [
				{
					"internalType": "address",
					"name": "from",
					"type": "address"
				},
				{
					"internalType": "address",
					"name": "to",
					"type": "address"
				},
				{
					"internalType": "uint256",
					"name": "id",
					"type": "uint256"
				},
				{
					"internalType": "uint256",
					"name": "value",
					"type": "uint256"
				},
				{
					"internalType": "bytes",
					"name": "data",
					"type": "bytes"
				}
			],
			"name": "safeTransferFrom",
			"outputs": [],
			"stateMutability": "nonpayable",
			"type": "function"
		},
		{
			"inputs": [
				{
					"internalType": "address",
					"name": "operator",
					"type": "address"
				},
				{
					"internalType": "bool",
					"name": "approved",
					"type": "bool"
				}
			],
			"name": "setApprovalForAll",
			"outputs": [],
			"stateMutability": "nonpayable",
			"type": "function"
		},
		{
			"inputs": [
				{
					"internalType": "string",
					"name": "newuri",
					"type": "string"
				}
			],
			"name": "setURI",
			"outputs": [],
			"stateMutability": "nonpayable",
			"type": "function"
		},
		{
			"inputs": [
				{
					"internalType": "bytes4",
					"name": "interfaceId",
					"type": "bytes4"
				}
			],
			"name": "supportsInterface",
			"outputs": [
				{
					"internalType": "bool",
					"name": "",
					"type": "bool"
				}
			],
			"stateMutability": "view",
			"type": "function"
		},
		{
			"inputs": [
				{
					"internalType": "address",
					"name": "newOwner",
					"type": "address"
				}
			],
			"name": "transferOwnership",
			"outputs": [],
			"stateMutability": "nonpayable",
			"type": "function"
		},
		{
			"inputs": [],
			"name": "unpause",
			"outputs": [],
			"stateMutability": "nonpayable",
			"type": "function"
		},
		{
			"inputs": [
				{
					"internalType": "uint256",
					"name": "",
					"type": "uint256"
				}
			],
			"name": "uri",
			"outputs": [
				{
					"internalType": "string",
					"name": "",
					"type": "string"
				}
			],
			"stateMutability": "view",
			"type": "function"
		}
	]
}