{
	"data": {
		"bytecode": {
			"linkReferences": {},
			"object": "60806040526001600455348015610014575f80fd5b50336040518060400160405280600481526020017f4555524b0000000000000000000000000000000000000000000000000000000081525061005b816100fb60201b60201c565b505f73ffffffffffffffffffffffffffffffffffffffff168173ffffffffffffffffffffffffffffffffffffffff16036100cc575f6040517f1e4fbdf70000000000000000000000000000000000000000000000000000000081526004016100c39190610210565b60405180910390fd5b6100db8161010e60201b60201c565b505f600360146101000a81548160ff021916908315150217905550610532565b806002908161010a9190610463565b5050565b5f60035f9054906101000a900473ffffffffffffffffffffffffffffffffffffffff1690508160035f6101000a81548173ffffffffffffffffffffffffffffffffffffffff021916908373ffffffffffffffffffffffffffffffffffffffff1602179055508173ffffffffffffffffffffffffffffffffffffffff168173ffffffffffffffffffffffffffffffffffffffff167f8be0079c531659141344cd1fd0a4f28419497f9722a3daafe3b4186f6b6457e060405160405180910390a35050565b5f73ffffffffffffffffffffffffffffffffffffffff82169050919050565b5f6101fa826101d1565b9050919050565b61020a816101f0565b82525050565b5f6020820190506102235f830184610201565b92915050565b5f81519050919050565b7f4e487b71000000000000000000000000000000000000000000000000000000005f52604160045260245ffd5b7f4e487b71000000000000000000000000000000000000000000000000000000005f52602260045260245ffd5b5f60028204905060018216806102a457607f821691505b6020821081036102b7576102b6610260565b5b50919050565b5f819050815f5260205f209050919050565b5f6020601f8301049050919050565b5f82821b905092915050565b5f600883026103197fffffffffffffffffffffffffffffffffffffffffffffffffffffffffffffffff826102de565b61032386836102de565b95508019841693508086168417925050509392505050565b5f819050919050565b5f819050919050565b5f61036761036261035d8461033b565b610344565b61033b565b9050919050565b5f819050919050565b6103808361034d565b61039461038c8261036e565b8484546102ea565b825550505050565b5f90565b6103a861039c565b6103b3818484610377565b505050565b5b818110156103d6576103cb5f826103a0565b6001810190506103b9565b5050565b601f82111561041b576103ec816102bd565b6103f5846102cf565b81016020851015610404578190505b610418610410856102cf565b8301826103b8565b50505b505050565b5f82821c905092915050565b5f61043b5f1984600802610420565b1980831691505092915050565b5f610453838361042c565b9150826002028217905092915050565b61046c82610229565b67ffffffffffffffff81111561048557610484610233565b5b61048f825461028d565b61049a8282856103da565b5f60209050601f8311600181146104cb575f84156104b9578287015190505b6104c38582610448565b86555061052a565b601f1984166104d9866102bd565b5f5b82811015610500578489015182556001820191506020850194506020810190506104db565b8683101561051d5784890151610519601f89168261042c565b8355505b6001600288020188555050505b505050505050565b613c858061053f5f395ff3fe60806040526004361061017f575f3560e01c80635f2b4ad3116100d0578063a22cb46511610089578063e985e9c511610063578063e985e9c514610561578063f242432a1461059d578063f2fde38b146105c5578063f5298aca146105ed5761017f565b8063a22cb465146104b9578063bfc0ee28146104e1578063c2a756ca1461051d5761017f565b80635f2b4ad3146103ef5780636b20c4541461041f578063715018a61461044757806374396a291461045d5780638456cb59146104795780638da5cb5b1461048f5761017f565b80631f919e8d1161013d5780633f4ba83a116101175780633f4ba83a146103375780634e1273f41461034d57806350abac5d146103895780635c975abb146103c55761017f565b80631f919e8d146102bf5780632795c1cf146102e75780632eb2c2d61461030f5761017f565b8062fdd58e14610183578063013054c2146101bf57806301ffc9a7146101db57806302fe53051461021757806308f3e3711461023f5780630e89341c14610283575b5f80fd5b34801561018e575f80fd5b506101a960048036038101906101a4919061296b565b610615565b6040516101b691906129b8565b60405180910390f35b6101d960048036038101906101d491906129d1565b61066a565b005b3480156101e6575f80fd5b5061020160048036038101906101fc9190612a51565b6107f0565b60405161020e9190612a96565b60405180910390f35b348015610222575f80fd5b5061023d60048036038101906102389190612beb565b6108d1565b005b34801561024a575f80fd5b506102656004803603810190610260919061296b565b6108e5565b60405161027a99989796959493929190612cb4565b60405180910390f35b34801561028e575f80fd5b506102a960048036038101906102a491906129d1565b610974565b6040516102b69190612d9f565b60405180910390f35b3480156102ca575f80fd5b506102e560048036038101906102e09190612beb565b610a06565b005b3480156102f2575f80fd5b5061030d60048036038101906103089190612dbf565b610a65565b005b34801561031a575f80fd5b5061033560048036038101906103309190612fd0565b610e2d565b005b348015610342575f80fd5b5061034b610ed4565b005b348015610358575f80fd5b50610373600480360381019061036e919061315b565b610ee6565b6040516103809190613288565b60405180910390f35b348015610394575f80fd5b506103af60048036038101906103aa91906129d1565b610fed565b6040516103bc91906132a8565b60405180910390f35b3480156103d0575f80fd5b506103d961101d565b6040516103e69190612a96565b60405180910390f35b610409600480360381019061040491906129d1565b611033565b6040516104169190612d9f565b60405180910390f35b34801561042a575f80fd5b50610445600480360381019061044091906132c1565b61126f565b005b348015610452575f80fd5b5061045b61131b565b005b61047760048036038101906104729190613349565b61132e565b005b348015610484575f80fd5b5061048d6114f0565b005b34801561049a575f80fd5b506104a3611502565b6040516104b091906132a8565b60405180910390f35b3480156104c4575f80fd5b506104df60048036038101906104da91906133b1565b61152a565b005b3480156104ec575f80fd5b5061050760048036038101906105029190612beb565b611540565b60405161051491906132a8565b60405180910390f35b348015610528575f80fd5b50610543600480360381019061053e91906129d1565b611588565b60405161055899989796959493929190612cb4565b60405180910390f35b34801561056c575f80fd5b50610587600480360381019061058291906133ef565b6115fd565b6040516105949190612a96565b60405180910390f35b3480156105a8575f80fd5b506105c360048036038101906105be919061342d565b61168b565b005b3480156105d0575f80fd5b506105eb60048036038101906105e691906134c0565b611732565b005b3480156105f8575f80fd5b50610613600480360381019061060e91906134eb565b6117b6565b005b5f805f8381526020019081526020015f205f8473ffffffffffffffffffffffffffffffffffffffff1673ffffffffffffffffffffffffffffffffffffffff1681526020019081526020015f2054905092915050565b5f60075f8381526020019081526020015f20905060028081111561069157610690612c32565b5b816001015f9054906101000a900460ff1660028111156106b4576106b3612c32565b5b146106eb576040517f4eb60de700000000000000000000000000000000000000000000000000000000815260040160405180910390fd5b5f6106f63384610615565b90505f8103610731576040517f7b7b36da00000000000000000000000000000000000000000000000000000000815260040160405180910390fd5b61073c3384836117b6565b5f3373ffffffffffffffffffffffffffffffffffffffff168284600401546107649190613568565b604051610770906135d6565b5f6040518083038185875af1925050503d805f81146107aa576040519150601f19603f3d011682016040523d82523d5f602084013e6107af565b606091505b50509050806107ea576040517ff499da2000000000000000000000000000000000000000000000000000000000815260040160405180910390fd5b50505050565b5f7fd9b67a26000000000000000000000000000000000000000000000000000000007bffffffffffffffffffffffffffffffffffffffffffffffffffffffff1916827bffffffffffffffffffffffffffffffffffffffffffffffffffffffff191614806108ba57507f0e89341c000000000000000000000000000000000000000000000000000000007bffffffffffffffffffffffffffffffffffffffffffffffffffffffff1916827bffffffffffffffffffffffffffffffffffffffffffffffffffffffff1916145b806108ca57506108c982611862565b5b9050919050565b6108d96118cb565b6108e281611952565b50565b6006602052815f5260405f2081815481106108fe575f80fd5b905f5260205f2090600902015f9150915050805f015490806001015f9054906101000a900460ff1690806002015490806003015490806004015490806005015490806006015490806007015490806008015f9054906101000a900473ffffffffffffffffffffffffffffffffffffffff16905089565b60606002805461098390613617565b80601f01602080910402602001604051908101604052809291908181526020018280546109af90613617565b80156109fa5780601f106109d1576101008083540402835291602001916109fa565b820191905f5260205f20905b8154815290600101906020018083116109dd57829003601f168201915b50505050509050919050565b33600582604051610a179190613681565b90815260200160405180910390205f6101000a81548173ffffffffffffffffffffffffffffffffffffffff021916908373ffffffffffffffffffffffffffffffffffffffff16021790555050565b3373ffffffffffffffffffffffffffffffffffffffff16600586604051610a8c9190613681565b90815260200160405180910390205f9054906101000a900473ffffffffffffffffffffffffffffffffffffffff1673ffffffffffffffffffffffffffffffffffffffff1614610b07576040517ffea5885a00000000000000000000000000000000000000000000000000000000815260040160405180910390fd5b600460065f3373ffffffffffffffffffffffffffffffffffffffff1673ffffffffffffffffffffffffffffffffffffffff1681526020019081526020015f20805490501115610b82576040517fb8a63b4000000000000000000000000000000000000000000000000000000000815260040160405180910390fd5b5f60405180610120016040528060045f815480929190610ba190613697565b9190505581526020015f6002811115610bbd57610bbc612c32565b5b81526020018581526020018481526020016305f5e10086610bde919061370b565b81526020018381526020015f81526020015f81526020013373ffffffffffffffffffffffffffffffffffffffff1681525090508460095f835f015181526020019081526020015f209081610c3291906138d8565b5060065f3373ffffffffffffffffffffffffffffffffffffffff1673ffffffffffffffffffffffffffffffffffffffff1681526020019081526020015f2081908060018154018082558091505060019003905f5260205f2090600902015f909190919091505f820151815f01556020820151816001015f6101000a81548160ff02191690836002811115610cc957610cc8612c32565b5b021790555060408201518160020155606082015181600301556080820151816004015560a0820151816005015560c0820151816006015560e08201518160070155610100820151816008015f6101000a81548173ffffffffffffffffffffffffffffffffffffffff021916908373ffffffffffffffffffffffffffffffffffffffff16021790555050508060075f835f015181526020019081526020015f205f820151815f01556020820151816001015f6101000a81548160ff02191690836002811115610d9a57610d99612c32565b5b021790555060408201518160020155606082015181600301556080820151816004015560a0820151816005015560c0820151816006015560e08201518160070155610100820151816008015f6101000a81548173ffffffffffffffffffffffffffffffffffffffff021916908373ffffffffffffffffffffffffffffffffffffffff160217905550905050505050505050565b5f610e36611965565b90508073ffffffffffffffffffffffffffffffffffffffff168673ffffffffffffffffffffffffffffffffffffffff1614158015610e7b5750610e7986826115fd565b155b15610ebf5780866040517fe237d922000000000000000000000000000000000000000000000000000000008152600401610eb69291906139a7565b60405180910390fd5b610ecc868686868661196c565b505050505050565b610edc6118cb565b610ee4611a60565b565b60608151835114610f3257815183516040517f5b059991000000000000000000000000000000000000000000000000000000008152600401610f299291906139ce565b60405180910390fd5b5f835167ffffffffffffffff811115610f4e57610f4d612ac7565b5b604051908082528060200260200182016040528015610f7c5781602001602082028036833780820191505090505b5090505f5b8451811015610fe257610fb8610fa08287611ac290919063ffffffff16565b610fb38387611ad590919063ffffffff16565b610615565b828281518110610fcb57610fca6139f5565b5b602002602001018181525050806001019050610f81565b508091505092915050565b6008602052805f5260405f205f915054906101000a900473ffffffffffffffffffffffffffffffffffffffff1681565b5f600360149054906101000a900460ff16905090565b60605f60075f8481526020019081526020015f2090508060030154341015611087576040517fe2f844a000000000000000000000000000000000000000000000000000000000815260040160405180910390fd5b60648160050154611098919061370b565b60016110a49190613a22565b816003015f8282546110b69190613568565b9250508190555034816007015f8282546110d09190613a22565b9250508190555080600201548160070154106111cf576002816001015f6101000a81548160ff0219169083600281111561110d5761110c612c32565b5b02179055505f81600301819055505f3373ffffffffffffffffffffffffffffffffffffffff16826002015483600701546111479190613a55565b604051611153906135d6565b5f6040518083038185875af1925050503d805f811461118d576040519150601f19603f3d011682016040523d82523d5f602084013e611192565b606091505b50509050806111cd576040517ff499da2000000000000000000000000000000000000000000000000000000000815260040160405180910390fd5b505b60095f8481526020019081526020015f2080546111eb90613617565b80601f016020809104026020016040519081016040528092919081815260200182805461121790613617565b80156112625780601f1061123957610100808354040283529160200191611262565b820191905f5260205f20905b81548152906001019060200180831161124557829003601f168201915b5050505050915050919050565b611277611965565b73ffffffffffffffffffffffffffffffffffffffff168373ffffffffffffffffffffffffffffffffffffffff16141580156112c057506112be836112b9611965565b6115fd565b155b1561130b576112cd611965565b836040517fe237d9220000000000000000000000000000000000000000000000000000000081526004016113029291906139a7565b60405180910390fd5b611316838383611ae8565b505050565b6113236118cb565b61132c5f611b78565b565b8060075f8481526020019081526020015f206004015461134e9190613568565b341015611387576040517fe2f844a000000000000000000000000000000000000000000000000000000000815260040160405180910390fd5b5f60075f8481526020019081526020015f2090506113b533848460405180602001604052805f815250611c3b565b34816006015f8282546113c89190613a22565b925050819055505f60085f8581526020019081526020015f205f9054906101000a900473ffffffffffffffffffffffffffffffffffffffff1673ffffffffffffffffffffffffffffffffffffffff1634604051611424906135d6565b5f6040518083038185875af1925050503d805f811461145e576040519150601f19603f3d011682016040523d82523d5f602084013e611463565b606091505b505090508061149e576040517ff499da2000000000000000000000000000000000000000000000000000000000815260040160405180910390fd5b81600201548260060154106114ea57600160075f8681526020019081526020015f206001015f6101000a81548160ff021916908360028111156114e4576114e3612c32565b5b02179055505b50505050565b6114f86118cb565b611500611c4d565b565b5f60035f9054906101000a900473ffffffffffffffffffffffffffffffffffffffff16905090565b61153c611535611965565b8383611cb0565b5050565b6005818051602081018201805184825260208301602085012081835280955050505050505f915054906101000a900473ffffffffffffffffffffffffffffffffffffffff1681565b6007602052805f5260405f205f91509050805f015490806001015f9054906101000a900460ff1690806002015490806003015490806004015490806005015490806006015490806007015490806008015f9054906101000a900473ffffffffffffffffffffffffffffffffffffffff16905089565b5f60015f8473ffffffffffffffffffffffffffffffffffffffff1673ffffffffffffffffffffffffffffffffffffffff1681526020019081526020015f205f8373ffffffffffffffffffffffffffffffffffffffff1673ffffffffffffffffffffffffffffffffffffffff1681526020019081526020015f205f9054906101000a900460ff16905092915050565b5f611694611965565b90508073ffffffffffffffffffffffffffffffffffffffff168673ffffffffffffffffffffffffffffffffffffffff16141580156116d957506116d786826115fd565b155b1561171d5780866040517fe237d9220000000000000000000000000000000000000000000000000000000081526004016117149291906139a7565b60405180910390fd5b61172a8686868686611e19565b505050505050565b61173a6118cb565b5f73ffffffffffffffffffffffffffffffffffffffff168173ffffffffffffffffffffffffffffffffffffffff16036117aa575f6040517f1e4fbdf70000000000000000000000000000000000000000000000000000000081526004016117a191906132a8565b60405180910390fd5b6117b381611b78565b50565b6117be611965565b73ffffffffffffffffffffffffffffffffffffffff168373ffffffffffffffffffffffffffffffffffffffff1614158015611807575061180583611800611965565b6115fd565b155b1561185257611814611965565b836040517fe237d9220000000000000000000000000000000000000000000000000000000081526004016118499291906139a7565b60405180910390fd5b61185d838383611f1f565b505050565b5f7f01ffc9a7000000000000000000000000000000000000000000000000000000007bffffffffffffffffffffffffffffffffffffffffffffffffffffffff1916827bffffffffffffffffffffffffffffffffffffffffffffffffffffffff1916149050919050565b6118d3611965565b73ffffffffffffffffffffffffffffffffffffffff166118f1611502565b73ffffffffffffffffffffffffffffffffffffffff161461195057611914611965565b6040517f118cdaa700000000000000000000000000000000000000000000000000000000815260040161194791906132a8565b60405180910390fd5b565b806002908161196191906138d8565b5050565b5f33905090565b5f73ffffffffffffffffffffffffffffffffffffffff168473ffffffffffffffffffffffffffffffffffffffff16036119dc575f6040517f57f447ce0000000000000000000000000000000000000000000000000000000081526004016119d391906132a8565b60405180910390fd5b5f73ffffffffffffffffffffffffffffffffffffffff168573ffffffffffffffffffffffffffffffffffffffff1603611a4c575f6040517f01a83514000000000000000000000000000000000000000000000000000000008152600401611a4391906132a8565b60405180910390fd5b611a598585858585611fc1565b5050505050565b611a6861206d565b5f600360146101000a81548160ff0219169083151502179055507f5db9ee0a495bf2e6ff9c91a7834c1ba4fdd244a5e8aa4e537bd38aeae4b073aa611aab611965565b604051611ab891906132a8565b60405180910390a1565b5f60208202602084010151905092915050565b5f60208202602084010151905092915050565b5f73ffffffffffffffffffffffffffffffffffffffff168373ffffffffffffffffffffffffffffffffffffffff1603611b58575f6040517f01a83514000000000000000000000000000000000000000000000000000000008152600401611b4f91906132a8565b60405180910390fd5b611b73835f848460405180602001604052805f815250611fc1565b505050565b5f60035f9054906101000a900473ffffffffffffffffffffffffffffffffffffffff1690508160035f6101000a81548173ffffffffffffffffffffffffffffffffffffffff021916908373ffffffffffffffffffffffffffffffffffffffff1602179055508173ffffffffffffffffffffffffffffffffffffffff168173ffffffffffffffffffffffffffffffffffffffff167f8be0079c531659141344cd1fd0a4f28419497f9722a3daafe3b4186f6b6457e060405160405180910390a35050565b611c47848484846120ad565b50505050565b611c55612142565b6001600360146101000a81548160ff0219169083151502179055507f62e78cea01bee320cd4e420270b5ea74000d11b0c9f74754ebdbfc544b05a258611c99611965565b604051611ca691906132a8565b60405180910390a1565b5f73ffffffffffffffffffffffffffffffffffffffff168273ffffffffffffffffffffffffffffffffffffffff1603611d20575f6040517fced3e100000000000000000000000000000000000000000000000000000000008152600401611d1791906132a8565b60405180910390fd5b8060015f8573ffffffffffffffffffffffffffffffffffffffff1673ffffffffffffffffffffffffffffffffffffffff1681526020019081526020015f205f8473ffffffffffffffffffffffffffffffffffffffff1673ffffffffffffffffffffffffffffffffffffffff1681526020019081526020015f205f6101000a81548160ff0219169083151502179055508173ffffffffffffffffffffffffffffffffffffffff168373ffffffffffffffffffffffffffffffffffffffff167f17307eab39ab6107e8899845ad3d59bd9653f200f220920489ca2b5937696c3183604051611e0c9190612a96565b60405180910390a3505050565b5f73ffffffffffffffffffffffffffffffffffffffff168473ffffffffffffffffffffffffffffffffffffffff1603611e89575f6040517f57f447ce000000000000000000000000000000000000000000000000000000008152600401611e8091906132a8565b60405180910390fd5b5f73ffffffffffffffffffffffffffffffffffffffff168573ffffffffffffffffffffffffffffffffffffffff1603611ef9575f6040517f01a83514000000000000000000000000000000000000000000000000000000008152600401611ef091906132a8565b60405180910390fd5b5f80611f058585612183565b91509150611f168787848487611fc1565b50505050505050565b5f73ffffffffffffffffffffffffffffffffffffffff168373ffffffffffffffffffffffffffffffffffffffff1603611f8f575f6040517f01a83514000000000000000000000000000000000000000000000000000000008152600401611f8691906132a8565b60405180910390fd5b5f80611f9b8484612183565b91509150611fba855f848460405180602001604052805f815250611fc1565b5050505050565b611fcd858585856121b3565b5f73ffffffffffffffffffffffffffffffffffffffff168473ffffffffffffffffffffffffffffffffffffffff1614612066575f612009611965565b90506001845103612055575f6120285f86611ad590919063ffffffff16565b90505f61203e5f86611ad590919063ffffffff16565b905061204e8389898585896121c5565b5050612064565b612063818787878787612374565b5b505b5050505050565b61207561101d565b6120ab576040517f8dfc202b00000000000000000000000000000000000000000000000000000000815260040160405180910390fd5b565b5f73ffffffffffffffffffffffffffffffffffffffff168473ffffffffffffffffffffffffffffffffffffffff160361211d575f6040517f57f447ce00000000000000000000000000000000000000000000000000000000815260040161211491906132a8565b60405180910390fd5b5f806121298585612183565b9150915061213a5f87848487611fc1565b505050505050565b61214a61101d565b15612181576040517fd93c066500000000000000000000000000000000000000000000000000000000815260040160405180910390fd5b565b60608060405191506001825283602083015260408201905060018152826020820152604081016040529250929050565b6121bf84848484612523565b50505050565b5f8473ffffffffffffffffffffffffffffffffffffffff163b111561236c578373ffffffffffffffffffffffffffffffffffffffff1663f23a6e6187878686866040518663ffffffff1660e01b8152600401612225959493929190613ada565b6020604051808303815f875af192505050801561226057506040513d601f19601f8201168201806040525081019061225d9190613b46565b60015b6122e1573d805f811461228e576040519150601f19603f3d011682016040523d82523d5f602084013e612293565b606091505b505f8151036122d957846040517f57f447ce0000000000000000000000000000000000000000000000000000000081526004016122d091906132a8565b60405180910390fd5b805181602001fd5b63f23a6e6160e01b7bffffffffffffffffffffffffffffffffffffffffffffffffffffffff1916817bffffffffffffffffffffffffffffffffffffffffffffffffffffffff19161461236a57846040517f57f447ce00000000000000000000000000000000000000000000000000000000815260040161236191906132a8565b60405180910390fd5b505b505050505050565b5f8473ffffffffffffffffffffffffffffffffffffffff163b111561251b578373ffffffffffffffffffffffffffffffffffffffff1663bc197c8187878686866040518663ffffffff1660e01b81526004016123d4959493929190613b71565b6020604051808303815f875af192505050801561240f57506040513d601f19601f8201168201806040525081019061240c9190613b46565b60015b612490573d805f811461243d576040519150601f19603f3d011682016040523d82523d5f602084013e612442565b606091505b505f81510361248857846040517f57f447ce00000000000000000000000000000000000000000000000000000000815260040161247f91906132a8565b60405180910390fd5b805181602001fd5b63bc197c8160e01b7bffffffffffffffffffffffffffffffffffffffffffffffffffffffff1916817bffffffffffffffffffffffffffffffffffffffffffffffffffffffff19161461251957846040517f57f447ce00000000000000000000000000000000000000000000000000000000815260040161251091906132a8565b60405180910390fd5b505b505050505050565b61252b612142565b6125378484848461253d565b50505050565b805182511461258757815181516040517f5b05999100000000000000000000000000000000000000000000000000000000815260040161257e9291906139ce565b60405180910390fd5b5f612590611965565b90505f5b835181101561278c575f6125b18286611ad590919063ffffffff16565b90505f6125c78386611ad590919063ffffffff16565b90505f73ffffffffffffffffffffffffffffffffffffffff168873ffffffffffffffffffffffffffffffffffffffff16146126ea575f805f8481526020019081526020015f205f8a73ffffffffffffffffffffffffffffffffffffffff1673ffffffffffffffffffffffffffffffffffffffff1681526020019081526020015f205490508181101561269657888183856040517f03dee4c500000000000000000000000000000000000000000000000000000000815260040161268d9493929190613bd7565b60405180910390fd5b8181035f808581526020019081526020015f205f8b73ffffffffffffffffffffffffffffffffffffffff1673ffffffffffffffffffffffffffffffffffffffff1681526020019081526020015f2081905550505b5f73ffffffffffffffffffffffffffffffffffffffff168773ffffffffffffffffffffffffffffffffffffffff161461277f57805f808481526020019081526020015f205f8973ffffffffffffffffffffffffffffffffffffffff1673ffffffffffffffffffffffffffffffffffffffff1681526020019081526020015f205f8282546127779190613a22565b925050819055505b5050806001019050612594565b506001835103612847575f6127aa5f85611ad590919063ffffffff16565b90505f6127c05f85611ad590919063ffffffff16565b90508573ffffffffffffffffffffffffffffffffffffffff168773ffffffffffffffffffffffffffffffffffffffff168473ffffffffffffffffffffffffffffffffffffffff167fc3d58168c5ae7397731d063d5bbf3d657854427343f4c083240f7aacaa2d0f6285856040516128389291906139ce565b60405180910390a450506128c6565b8373ffffffffffffffffffffffffffffffffffffffff168573ffffffffffffffffffffffffffffffffffffffff168273ffffffffffffffffffffffffffffffffffffffff167f4a39dc06d4c0dbc64b70af90fd698a233a518aa5d07e595d983b8c0526c8f7fb86866040516128bd929190613c1a565b60405180910390a45b5050505050565b5f604051905090565b5f80fd5b5f80fd5b5f73ffffffffffffffffffffffffffffffffffffffff82169050919050565b5f612907826128de565b9050919050565b612917816128fd565b8114612921575f80fd5b50565b5f813590506129328161290e565b92915050565b5f819050919050565b61294a81612938565b8114612954575f80fd5b50565b5f8135905061296581612941565b92915050565b5f8060408385031215612981576129806128d6565b5b5f61298e85828601612924565b925050602061299f85828601612957565b9150509250929050565b6129b281612938565b82525050565b5f6020820190506129cb5f8301846129a9565b92915050565b5f602082840312156129e6576129e56128d6565b5b5f6129f384828501612957565b91505092915050565b5f7fffffffff0000000000000000000000000000000000000000000000000000000082169050919050565b612a30816129fc565b8114612a3a575f80fd5b50565b5f81359050612a4b81612a27565b92915050565b5f60208284031215612a6657612a656128d6565b5b5f612a7384828501612a3d565b91505092915050565b5f8115159050919050565b612a9081612a7c565b82525050565b5f602082019050612aa95f830184612a87565b92915050565b5f80fd5b5f80fd5b5f601f19601f8301169050919050565b7f4e487b71000000000000000000000000000000000000000000000000000000005f52604160045260245ffd5b612afd82612ab7565b810181811067ffffffffffffffff82111715612b1c57612b1b612ac7565b5b80604052505050565b5f612b2e6128cd565b9050612b3a8282612af4565b919050565b5f67ffffffffffffffff821115612b5957612b58612ac7565b5b612b6282612ab7565b9050602081019050919050565b828183375f83830152505050565b5f612b8f612b8a84612b3f565b612b25565b905082815260208101848484011115612bab57612baa612ab3565b5b612bb6848285612b6f565b509392505050565b5f82601f830112612bd257612bd1612aaf565b5b8135612be2848260208601612b7d565b91505092915050565b5f60208284031215612c0057612bff6128d6565b5b5f82013567ffffffffffffffff811115612c1d57612c1c6128da565b5b612c2984828501612bbe565b91505092915050565b7f4e487b71000000000000000000000000000000000000000000000000000000005f52602160045260245ffd5b60038110612c7057612c6f612c32565b5b50565b5f819050612c8082612c5f565b919050565b5f612c8f82612c73565b9050919050565b612c9f81612c85565b82525050565b612cae816128fd565b82525050565b5f61012082019050612cc85f83018c6129a9565b612cd5602083018b612c96565b612ce2604083018a6129a9565b612cef60608301896129a9565b612cfc60808301886129a9565b612d0960a08301876129a9565b612d1660c08301866129a9565b612d2360e08301856129a9565b612d31610100830184612ca5565b9a9950505050505050505050565b5f81519050919050565b5f82825260208201905092915050565b8281835e5f83830152505050565b5f612d7182612d3f565b612d7b8185612d49565b9350612d8b818560208601612d59565b612d9481612ab7565b840191505092915050565b5f6020820190508181035f830152612db78184612d67565b905092915050565b5f805f805f60a08688031215612dd857612dd76128d6565b5b5f86013567ffffffffffffffff811115612df557612df46128da565b5b612e0188828901612bbe565b955050602086013567ffffffffffffffff811115612e2257612e216128da565b5b612e2e88828901612bbe565b9450506040612e3f88828901612957565b9350506060612e5088828901612957565b9250506080612e6188828901612957565b9150509295509295909350565b5f67ffffffffffffffff821115612e8857612e87612ac7565b5b602082029050602081019050919050565b5f80fd5b5f612eaf612eaa84612e6e565b612b25565b90508083825260208201905060208402830185811115612ed257612ed1612e99565b5b835b81811015612efb5780612ee78882612957565b845260208401935050602081019050612ed4565b5050509392505050565b5f82601f830112612f1957612f18612aaf565b5b8135612f29848260208601612e9d565b91505092915050565b5f67ffffffffffffffff821115612f4c57612f4b612ac7565b5b612f5582612ab7565b9050602081019050919050565b5f612f74612f6f84612f32565b612b25565b905082815260208101848484011115612f9057612f8f612ab3565b5b612f9b848285612b6f565b509392505050565b5f82601f830112612fb757612fb6612aaf565b5b8135612fc7848260208601612f62565b91505092915050565b5f805f805f60a08688031215612fe957612fe86128d6565b5b5f612ff688828901612924565b955050602061300788828901612924565b945050604086013567ffffffffffffffff811115613028576130276128da565b5b61303488828901612f05565b935050606086013567ffffffffffffffff811115613055576130546128da565b5b61306188828901612f05565b925050608086013567ffffffffffffffff811115613082576130816128da565b5b61308e88828901612fa3565b9150509295509295909350565b5f67ffffffffffffffff8211156130b5576130b4612ac7565b5b602082029050602081019050919050565b5f6130d86130d38461309b565b612b25565b905080838252602082019050602084028301858111156130fb576130fa612e99565b5b835b8181101561312457806131108882612924565b8452602084019350506020810190506130fd565b5050509392505050565b5f82601f83011261314257613141612aaf565b5b81356131528482602086016130c6565b91505092915050565b5f8060408385031215613171576131706128d6565b5b5f83013567ffffffffffffffff81111561318e5761318d6128da565b5b61319a8582860161312e565b925050602083013567ffffffffffffffff8111156131bb576131ba6128da565b5b6131c785828601612f05565b9150509250929050565b5f81519050919050565b5f82825260208201905092915050565b5f819050602082019050919050565b61320381612938565b82525050565b5f61321483836131fa565b60208301905092915050565b5f602082019050919050565b5f613236826131d1565b61324081856131db565b935061324b836131eb565b805f5b8381101561327b5781516132628882613209565b975061326d83613220565b92505060018101905061324e565b5085935050505092915050565b5f6020820190508181035f8301526132a0818461322c565b905092915050565b5f6020820190506132bb5f830184612ca5565b92915050565b5f805f606084860312156132d8576132d76128d6565b5b5f6132e586828701612924565b935050602084013567ffffffffffffffff811115613306576133056128da565b5b61331286828701612f05565b925050604084013567ffffffffffffffff811115613333576133326128da565b5b61333f86828701612f05565b9150509250925092565b5f806040838503121561335f5761335e6128d6565b5b5f61336c85828601612957565b925050602061337d85828601612957565b9150509250929050565b61339081612a7c565b811461339a575f80fd5b50565b5f813590506133ab81613387565b92915050565b5f80604083850312156133c7576133c66128d6565b5b5f6133d485828601612924565b92505060206133e58582860161339d565b9150509250929050565b5f8060408385031215613405576134046128d6565b5b5f61341285828601612924565b925050602061342385828601612924565b9150509250929050565b5f805f805f60a08688031215613446576134456128d6565b5b5f61345388828901612924565b955050602061346488828901612924565b945050604061347588828901612957565b935050606061348688828901612957565b925050608086013567ffffffffffffffff8111156134a7576134a66128da565b5b6134b388828901612fa3565b9150509295509295909350565b5f602082840312156134d5576134d46128d6565b5b5f6134e284828501612924565b91505092915050565b5f805f60608486031215613502576135016128d6565b5b5f61350f86828701612924565b935050602061352086828701612957565b925050604061353186828701612957565b9150509250925092565b7f4e487b71000000000000000000000000000000000000000000000000000000005f52601160045260245ffd5b5f61357282612938565b915061357d83612938565b925082820261358b81612938565b915082820484148315176135a2576135a161353b565b5b5092915050565b5f81905092915050565b50565b5f6135c15f836135a9565b91506135cc826135b3565b5f82019050919050565b5f6135e0826135b6565b9150819050919050565b7f4e487b71000000000000000000000000000000000000000000000000000000005f52602260045260245ffd5b5f600282049050600182168061362e57607f821691505b602082108103613641576136406135ea565b5b50919050565b5f81905092915050565b5f61365b82612d3f565b6136658185613647565b9350613675818560208601612d59565b80840191505092915050565b5f61368c8284613651565b915081905092915050565b5f6136a182612938565b91507fffffffffffffffffffffffffffffffffffffffffffffffffffffffffffffffff82036136d3576136d261353b565b5b600182019050919050565b7f4e487b71000000000000000000000000000000000000000000000000000000005f52601260045260245ffd5b5f61371582612938565b915061372083612938565b9250826137305761372f6136de565b5b828204905092915050565b5f819050815f5260205f209050919050565b5f6020601f8301049050919050565b5f82821b905092915050565b5f600883026137977fffffffffffffffffffffffffffffffffffffffffffffffffffffffffffffffff8261375c565b6137a1868361375c565b95508019841693508086168417925050509392505050565b5f819050919050565b5f6137dc6137d76137d284612938565b6137b9565b612938565b9050919050565b5f819050919050565b6137f5836137c2565b613809613801826137e3565b848454613768565b825550505050565b5f90565b61381d613811565b6138288184846137ec565b505050565b5b8181101561384b576138405f82613815565b60018101905061382e565b5050565b601f821115613890576138618161373b565b61386a8461374d565b81016020851015613879578190505b61388d6138858561374d565b83018261382d565b50505b505050565b5f82821c905092915050565b5f6138b05f1984600802613895565b1980831691505092915050565b5f6138c883836138a1565b9150826002028217905092915050565b6138e182612d3f565b67ffffffffffffffff8111156138fa576138f9612ac7565b5b6139048254613617565b61390f82828561384f565b5f60209050601f831160018114613940575f841561392e578287015190505b61393885826138bd565b86555061399f565b601f19841661394e8661373b565b5f5b8281101561397557848901518255600182019150602085019450602081019050613950565b86831015613992578489015161398e601f8916826138a1565b8355505b6001600288020188555050505b505050505050565b5f6040820190506139ba5f830185612ca5565b6139c76020830184612ca5565b9392505050565b5f6040820190506139e15f8301856129a9565b6139ee60208301846129a9565b9392505050565b7f4e487b71000000000000000000000000000000000000000000000000000000005f52603260045260245ffd5b5f613a2c82612938565b9150613a3783612938565b9250828201905080821115613a4f57613a4e61353b565b5b92915050565b5f613a5f82612938565b9150613a6a83612938565b9250828203905081811115613a8257613a8161353b565b5b92915050565b5f81519050919050565b5f82825260208201905092915050565b5f613aac82613a88565b613ab68185613a92565b9350613ac6818560208601612d59565b613acf81612ab7565b840191505092915050565b5f60a082019050613aed5f830188612ca5565b613afa6020830187612ca5565b613b0760408301866129a9565b613b1460608301856129a9565b8181036080830152613b268184613aa2565b90509695505050505050565b5f81519050613b4081612a27565b92915050565b5f60208284031215613b5b57613b5a6128d6565b5b5f613b6884828501613b32565b91505092915050565b5f60a082019050613b845f830188612ca5565b613b916020830187612ca5565b8181036040830152613ba3818661322c565b90508181036060830152613bb7818561322c565b90508181036080830152613bcb8184613aa2565b90509695505050505050565b5f608082019050613bea5f830187612ca5565b613bf760208301866129a9565b613c0460408301856129a9565b613c1160608301846129a9565b95945050505050565b5f6040820190508181035f830152613c32818561322c565b90508181036020830152613c46818461322c565b9050939250505056fea2646970667358221220f4dd88ad1553c078cc14202fb473de2dd80c8392670756eb0a079f1ec381f5b664736f6c63430008190033",
			"opcodes": "PUSH1 0x80 PUSH1 0x40 MSTORE PUSH1 0x1 PUSH1 0x4 SSTORE CALLVALUE DUP1 ISZERO PUSH2 0x14 JUMPI PUSH0 DUP1 REVERT JUMPDEST POP CALLER PUSH1 0x40 MLOAD DUP1 PUSH1 0x40 ADD PUSH1 0x40 MSTORE DUP1 PUSH1 0x4 DUP2 MSTORE PUSH1 0x20 ADD PUSH32 0x4555524B00000000000000000000000000000000000000000000000000000000 DUP2 MSTORE POP PUSH2 0x5B DUP2 PUSH2 0xFB PUSH1 0x20 SHL PUSH1 0x20 SHR JUMP JUMPDEST POP PUSH0 PUSH20 0xFFFFFFFFFFFFFFFFFFFFFFFFFFFFFFFFFFFFFFFF AND DUP2 PUSH20 0xFFFFFFFFFFFFFFFFFFFFFFFFFFFFFFFFFFFFFFFF AND SUB PUSH2 0xCC JUMPI PUSH0 PUSH1 0x40 MLOAD PUSH32 0x1E4FBDF700000000000000000000000000000000000000000000000000000000 DUP2 MSTORE PUSH1 0x4 ADD PUSH2 0xC3 SWAP2 SWAP1 PUSH2 0x210 JUMP JUMPDEST PUSH1 0x40 MLOAD DUP1 SWAP2 SUB SWAP1 REVERT JUMPDEST PUSH2 0xDB DUP2 PUSH2 0x10E PUSH1 0x20 SHL PUSH1 0x20 SHR JUMP JUMPDEST POP PUSH0 PUSH1 0x3 PUSH1 0x14 PUSH2 0x100 EXP DUP2 SLOAD DUP2 PUSH1 0xFF MUL NOT AND SWAP1 DUP4 ISZERO ISZERO MUL OR SWAP1 SSTORE POP PUSH2 0x532 JUMP JUMPDEST DUP1 PUSH1 0x2 SWAP1 DUP2 PUSH2 0x10A SWAP2 SWAP1 PUSH2 0x463 JUMP JUMPDEST POP POP JUMP JUMPDEST PUSH0 PUSH1 0x3 PUSH0 SWAP1 SLOAD SWAP1 PUSH2 0x100 EXP SWAP1 DIV PUSH20 0xFFFFFFFFFFFFFFFFFFFFFFFFFFFFFFFFFFFFFFFF AND SWAP1 POP DUP2 PUSH1 0x3 PUSH0 PUSH2 0x100 EXP DUP2 SLOAD DUP2 PUSH20 0xFFFFFFFFFFFFFFFFFFFFFFFFFFFFFFFFFFFFFFFF MUL NOT AND SWAP1 DUP4 PUSH20 0xFFFFFFFFFFFFFFFFFFFFFFFFFFFFFFFFFFFFFFFF AND MUL OR SWAP1 SSTORE POP DUP2 PUSH20 0xFFFFFFFFFFFFFFFFFFFFFFFFFFFFFFFFFFFFFFFF AND DUP2 PUSH20 0xFFFFFFFFFFFFFFFFFFFFFFFFFFFFFFFFFFFFFFFF AND PUSH32 0x8BE0079C531659141344CD1FD0A4F28419497F9722A3DAAFE3B4186F6B6457E0 PUSH1 0x40 MLOAD PUSH1 0x40 MLOAD DUP1 SWAP2 SUB SWAP1 LOG3 POP POP JUMP JUMPDEST PUSH0 PUSH20 0xFFFFFFFFFFFFFFFFFFFFFFFFFFFFFFFFFFFFFFFF DUP3 AND SWAP1 POP SWAP2 SWAP1 POP JUMP JUMPDEST PUSH0 PUSH2 0x1FA DUP3 PUSH2 0x1D1 JUMP JUMPDEST SWAP1 POP SWAP2 SWAP1 POP JUMP JUMPDEST PUSH2 0x20A DUP2 PUSH2 0x1F0 JUMP JUMPDEST DUP3 MSTORE POP POP JUMP JUMPDEST PUSH0 PUSH1 0x20 DUP3 ADD SWAP1 POP PUSH2 0x223 PUSH0 DUP4 ADD DUP5 PUSH2 0x201 JUMP JUMPDEST SWAP3 SWAP2 POP POP JUMP JUMPDEST PUSH0 DUP2 MLOAD SWAP1 POP SWAP2 SWAP1 POP JUMP JUMPDEST PUSH32 0x4E487B7100000000000000000000000000000000000000000000000000000000 PUSH0 MSTORE PUSH1 0x41 PUSH1 0x4 MSTORE PUSH1 0x24 PUSH0 REVERT JUMPDEST PUSH32 0x4E487B7100000000000000000000000000000000000000000000000000000000 PUSH0 MSTORE PUSH1 0x22 PUSH1 0x4 MSTORE PUSH1 0x24 PUSH0 REVERT JUMPDEST PUSH0 PUSH1 0x2 DUP3 DIV SWAP1 POP PUSH1 0x1 DUP3 AND DUP1 PUSH2 0x2A4 JUMPI PUSH1 0x7F DUP3 AND SWAP2 POP JUMPDEST PUSH1 0x20 DUP3 LT DUP2 SUB PUSH2 0x2B7 JUMPI PUSH2 0x2B6 PUSH2 0x260 JUMP JUMPDEST JUMPDEST POP SWAP2 SWAP1 POP JUMP JUMPDEST PUSH0 DUP2 SWAP1 POP DUP2 PUSH0 MSTORE PUSH1 0x20 PUSH0 KECCAK256 SWAP1 POP SWAP2 SWAP1 POP JUMP JUMPDEST PUSH0 PUSH1 0x20 PUSH1 0x1F DUP4 ADD DIV SWAP1 POP SWAP2 SWAP1 POP JUMP JUMPDEST PUSH0 DUP3 DUP3 SHL SWAP1 POP SWAP3 SWAP2 POP POP JUMP JUMPDEST PUSH0 PUSH1 0x8 DUP4 MUL PUSH2 0x319 PUSH32 0xFFFFFFFFFFFFFFFFFFFFFFFFFFFFFFFFFFFFFFFFFFFFFFFFFFFFFFFFFFFFFFFF DUP3 PUSH2 0x2DE JUMP JUMPDEST PUSH2 0x323 DUP7 DUP4 PUSH2 0x2DE JUMP JUMPDEST SWAP6 POP DUP1 NOT DUP5 AND SWAP4 POP DUP1 DUP7 AND DUP5 OR SWAP3 POP POP POP SWAP4 SWAP3 POP POP POP JUMP JUMPDEST PUSH0 DUP2 SWAP1 POP SWAP2 SWAP1 POP JUMP JUMPDEST PUSH0 DUP2 SWAP1 POP SWAP2 SWAP1 POP JUMP JUMPDEST PUSH0 PUSH2 0x367 PUSH2 0x362 PUSH2 0x35D DUP5 PUSH2 0x33B JUMP JUMPDEST PUSH2 0x344 JUMP JUMPDEST PUSH2 0x33B JUMP JUMPDEST SWAP1 POP SWAP2 SWAP1 POP JUMP JUMPDEST PUSH0 DUP2 SWAP1 POP SWAP2 SWAP1 POP JUMP JUMPDEST PUSH2 0x380 DUP4 PUSH2 0x34D JUMP JUMPDEST PUSH2 0x394 PUSH2 0x38C DUP3 PUSH2 0x36E JUMP JUMPDEST DUP5 DUP5 SLOAD PUSH2 0x2EA JUMP JUMPDEST DUP3 SSTORE POP POP POP POP JUMP JUMPDEST PUSH0 SWAP1 JUMP JUMPDEST PUSH2 0x3A8 PUSH2 0x39C JUMP JUMPDEST PUSH2 0x3B3 DUP2 DUP5 DUP5 PUSH2 0x377 JUMP JUMPDEST POP POP POP JUMP JUMPDEST JUMPDEST DUP2 DUP2 LT ISZERO PUSH2 0x3D6 JUMPI PUSH2 0x3CB PUSH0 DUP3 PUSH2 0x3A0 JUMP JUMPDEST PUSH1 0x1 DUP2 ADD SWAP1 POP PUSH2 0x3B9 JUMP JUMPDEST POP POP JUMP JUMPDEST PUSH1 0x1F DUP3 GT ISZERO PUSH2 0x41B JUMPI PUSH2 0x3EC DUP2 PUSH2 0x2BD JUMP JUMPDEST PUSH2 0x3F5 DUP5 PUSH2 0x2CF JUMP JUMPDEST DUP2 ADD PUSH1 0x20 DUP6 LT ISZERO PUSH2 0x404 JUMPI DUP2 SWAP1 POP JUMPDEST PUSH2 0x418 PUSH2 0x410 DUP6 PUSH2 0x2CF JUMP JUMPDEST DUP4 ADD DUP3 PUSH2 0x3B8 JUMP JUMPDEST POP POP JUMPDEST POP POP POP JUMP JUMPDEST PUSH0 DUP3 DUP3 SHR SWAP1 POP SWAP3 SWAP2 POP POP JUMP JUMPDEST PUSH0 PUSH2 0x43B PUSH0 NOT DUP5 PUSH1 0x8 MUL PUSH2 0x420 JUMP JUMPDEST NOT DUP1 DUP4 AND SWAP2 POP POP SWAP3 SWAP2 POP POP JUMP JUMPDEST PUSH0 PUSH2 0x453 DUP4 DUP4 PUSH2 0x42C JUMP JUMPDEST SWAP2 POP DUP3 PUSH1 0x2 MUL DUP3 OR SWAP1 POP SWAP3 SWAP2 POP POP JUMP JUMPDEST PUSH2 0x46C DUP3 PUSH2 0x229 JUMP JUMPDEST PUSH8 0xFFFFFFFFFFFFFFFF DUP2 GT ISZERO PUSH2 0x485 JUMPI PUSH2 0x484 PUSH2 0x233 JUMP JUMPDEST JUMPDEST PUSH2 0x48F DUP3 SLOAD PUSH2 0x28D JUMP JUMPDEST PUSH2 0x49A DUP3 DUP3 DUP6 PUSH2 0x3DA JUMP JUMPDEST PUSH0 PUSH1 0x20 SWAP1 POP PUSH1 0x1F DUP4 GT PUSH1 0x1 DUP2 EQ PUSH2 0x4CB JUMPI PUSH0 DUP5 ISZERO PUSH2 0x4B9 JUMPI DUP3 DUP8 ADD MLOAD SWAP1 POP JUMPDEST PUSH2 0x4C3 DUP6 DUP3 PUSH2 0x448 JUMP JUMPDEST DUP7 SSTORE POP PUSH2 0x52A JUMP JUMPDEST PUSH1 0x1F NOT DUP5 AND PUSH2 0x4D9 DUP7 PUSH2 0x2BD JUMP JUMPDEST PUSH0 JUMPDEST DUP3 DUP2 LT ISZERO PUSH2 0x500 JUMPI DUP5 DUP10 ADD MLOAD DUP3 SSTORE PUSH1 0x1 DUP3 ADD SWAP2 POP PUSH1 0x20 DUP6 ADD SWAP5 POP PUSH1 0x20 DUP2 ADD SWAP1 POP PUSH2 0x4DB JUMP JUMPDEST DUP7 DUP4 LT ISZERO PUSH2 0x51D JUMPI DUP5 DUP10 ADD MLOAD PUSH2 0x519 PUSH1 0x1F DUP10 AND DUP3 PUSH2 0x42C JUMP JUMPDEST DUP4 SSTORE POP JUMPDEST PUSH1 0x1 PUSH1 0x2 DUP9 MUL ADD DUP9 SSTORE POP POP POP JUMPDEST POP POP POP POP POP POP JUMP JUMPDEST PUSH2 0x3C85 DUP1 PUSH2 0x53F PUSH0 CODECOPY PUSH0 RETURN INVALID PUSH1 0x80 PUSH1 0x40 MSTORE PUSH1 0x4 CALLDATASIZE LT PUSH2 0x17F JUMPI PUSH0 CALLDATALOAD PUSH1 0xE0 SHR DUP1 PUSH4 0x5F2B4AD3 GT PUSH2 0xD0 JUMPI DUP1 PUSH4 0xA22CB465 GT PUSH2 0x89 JUMPI DUP1 PUSH4 0xE985E9C5 GT PUSH2 0x63 JUMPI DUP1 PUSH4 0xE985E9C5 EQ PUSH2 0x561 JUMPI DUP1 PUSH4 0xF242432A EQ PUSH2 0x59D JUMPI DUP1 PUSH4 0xF2FDE38B EQ PUSH2 0x5C5 JUMPI DUP1 PUSH4 0xF5298ACA EQ PUSH2 0x5ED JUMPI PUSH2 0x17F JUMP JUMPDEST DUP1 PUSH4 0xA22CB465 EQ PUSH2 0x4B9 JUMPI DUP1 PUSH4 0xBFC0EE28 EQ PUSH2 0x4E1 JUMPI DUP1 PUSH4 0xC2A756CA EQ PUSH2 0x51D JUMPI PUSH2 0x17F JUMP JUMPDEST DUP1 PUSH4 0x5F2B4AD3 EQ PUSH2 0x3EF JUMPI DUP1 PUSH4 0x6B20C454 EQ PUSH2 0x41F JUMPI DUP1 PUSH4 0x715018A6 EQ PUSH2 0x447 JUMPI DUP1 PUSH4 0x74396A29 EQ PUSH2 0x45D JUMPI DUP1 PUSH4 0x8456CB59 EQ PUSH2 0x479 JUMPI DUP1 PUSH4 0x8DA5CB5B EQ PUSH2 0x48F JUMPI PUSH2 0x17F JUMP JUMPDEST DUP1 PUSH4 0x1F919E8D GT PUSH2 0x13D JUMPI DUP1 PUSH4 0x3F4BA83A GT PUSH2 0x117 JUMPI DUP1 PUSH4 0x3F4BA83A EQ PUSH2 0x337 JUMPI DUP1 PUSH4 0x4E1273F4 EQ PUSH2 0x34D JUMPI DUP1 PUSH4 0x50ABAC5D EQ PUSH2 0x389 JUMPI DUP1 PUSH4 0x5C975ABB EQ PUSH2 0x3C5 JUMPI PUSH2 0x17F JUMP JUMPDEST DUP1 PUSH4 0x1F919E8D EQ PUSH2 0x2BF JUMPI DUP1 PUSH4 0x2795C1CF EQ PUSH2 0x2E7 JUMPI DUP1 PUSH4 0x2EB2C2D6 EQ PUSH2 0x30F JUMPI PUSH2 0x17F JUMP JUMPDEST DUP1 PUSH3 0xFDD58E EQ PUSH2 0x183 JUMPI DUP1 PUSH4 0x13054C2 EQ PUSH2 0x1BF JUMPI DUP1 PUSH4 0x1FFC9A7 EQ PUSH2 0x1DB JUMPI DUP1 PUSH4 0x2FE5305 EQ PUSH2 0x217 JUMPI DUP1 PUSH4 0x8F3E371 EQ PUSH2 0x23F JUMPI DUP1 PUSH4 0xE89341C EQ PUSH2 0x283 JUMPI JUMPDEST PUSH0 DUP1 REVERT JUMPDEST CALLVALUE DUP1 ISZERO PUSH2 0x18E JUMPI PUSH0 DUP1 REVERT JUMPDEST POP PUSH2 0x1A9 PUSH1 0x4 DUP1 CALLDATASIZE SUB DUP2 ADD SWAP1 PUSH2 0x1A4 SWAP2 SWAP1 PUSH2 0x296B JUMP JUMPDEST PUSH2 0x615 JUMP JUMPDEST PUSH1 0x40 MLOAD PUSH2 0x1B6 SWAP2 SWAP1 PUSH2 0x29B8 JUMP JUMPDEST PUSH1 0x40 MLOAD DUP1 SWAP2 SUB SWAP1 RETURN JUMPDEST PUSH2 0x1D9 PUSH1 0x4 DUP1 CALLDATASIZE SUB DUP2 ADD SWAP1 PUSH2 0x1D4 SWAP2 SWAP1 PUSH2 0x29D1 JUMP JUMPDEST PUSH2 0x66A JUMP JUMPDEST STOP JUMPDEST CALLVALUE DUP1 ISZERO PUSH2 0x1E6 JUMPI PUSH0 DUP1 REVERT JUMPDEST POP PUSH2 0x201 PUSH1 0x4 DUP1 CALLDATASIZE SUB DUP2 ADD SWAP1 PUSH2 0x1FC SWAP2 SWAP1 PUSH2 0x2A51 JUMP JUMPDEST PUSH2 0x7F0 JUMP JUMPDEST PUSH1 0x40 MLOAD PUSH2 0x20E SWAP2 SWAP1 PUSH2 0x2A96 JUMP JUMPDEST PUSH1 0x40 MLOAD DUP1 SWAP2 SUB SWAP1 RETURN JUMPDEST CALLVALUE DUP1 ISZERO PUSH2 0x222 JUMPI PUSH0 DUP1 REVERT JUMPDEST POP PUSH2 0x23D PUSH1 0x4 DUP1 CALLDATASIZE SUB DUP2 ADD SWAP1 PUSH2 0x238 SWAP2 SWAP1 PUSH2 0x2BEB JUMP JUMPDEST PUSH2 0x8D1 JUMP JUMPDEST STOP JUMPDEST CALLVALUE DUP1 ISZERO PUSH2 0x24A JUMPI PUSH0 DUP1 REVERT JUMPDEST POP PUSH2 0x265 PUSH1 0x4 DUP1 CALLDATASIZE SUB DUP2 ADD SWAP1 PUSH2 0x260 SWAP2 SWAP1 PUSH2 0x296B JUMP JUMPDEST PUSH2 0x8E5 JUMP JUMPDEST PUSH1 0x40 MLOAD PUSH2 0x27A SWAP10 SWAP9 SWAP8 SWAP7 SWAP6 SWAP5 SWAP4 SWAP3 SWAP2 SWAP1 PUSH2 0x2CB4 JUMP JUMPDEST PUSH1 0x40 MLOAD DUP1 SWAP2 SUB SWAP1 RETURN JUMPDEST CALLVALUE DUP1 ISZERO PUSH2 0x28E JUMPI PUSH0 DUP1 REVERT JUMPDEST POP PUSH2 0x2A9 PUSH1 0x4 DUP1 CALLDATASIZE SUB DUP2 ADD SWAP1 PUSH2 0x2A4 SWAP2 SWAP1 PUSH2 0x29D1 JUMP JUMPDEST PUSH2 0x974 JUMP JUMPDEST PUSH1 0x40 MLOAD PUSH2 0x2B6 SWAP2 SWAP1 PUSH2 0x2D9F JUMP JUMPDEST PUSH1 0x40 MLOAD DUP1 SWAP2 SUB SWAP1 RETURN JUMPDEST CALLVALUE DUP1 ISZERO PUSH2 0x2CA JUMPI PUSH0 DUP1 REVERT JUMPDEST POP PUSH2 0x2E5 PUSH1 0x4 DUP1 CALLDATASIZE SUB DUP2 ADD SWAP1 PUSH2 0x2E0 SWAP2 SWAP1 PUSH2 0x2BEB JUMP JUMPDEST PUSH2 0xA06 JUMP JUMPDEST STOP JUMPDEST CALLVALUE DUP1 ISZERO PUSH2 0x2F2 JUMPI PUSH0 DUP1 REVERT JUMPDEST POP PUSH2 0x30D PUSH1 0x4 DUP1 CALLDATASIZE SUB DUP2 ADD SWAP1 PUSH2 0x308 SWAP2 SWAP1 PUSH2 0x2DBF JUMP JUMPDEST PUSH2 0xA65 JUMP JUMPDEST STOP JUMPDEST CALLVALUE DUP1 ISZERO PUSH2 0x31A JUMPI PUSH0 DUP1 REVERT JUMPDEST POP PUSH2 0x335 PUSH1 0x4 DUP1 CALLDATASIZE SUB DUP2 ADD SWAP1 PUSH2 0x330 SWAP2 SWAP1 PUSH2 0x2FD0 JUMP JUMPDEST PUSH2 0xE2D JUMP JUMPDEST STOP JUMPDEST CALLVALUE DUP1 ISZERO PUSH2 0x342 JUMPI PUSH0 DUP1 REVERT JUMPDEST POP PUSH2 0x34B PUSH2 0xED4 JUMP JUMPDEST STOP JUMPDEST CALLVALUE DUP1 ISZERO PUSH2 0x358 JUMPI PUSH0 DUP1 REVERT JUMPDEST POP PUSH2 0x373 PUSH1 0x4 DUP1 CALLDATASIZE SUB DUP2 ADD SWAP1 PUSH2 0x36E SWAP2 SWAP1 PUSH2 0x315B JUMP JUMPDEST PUSH2 0xEE6 JUMP JUMPDEST PUSH1 0x40 MLOAD PUSH2 0x380 SWAP2 SWAP1 PUSH2 0x3288 JUMP JUMPDEST PUSH1 0x40 MLOAD DUP1 SWAP2 SUB SWAP1 RETURN JUMPDEST CALLVALUE DUP1 ISZERO PUSH2 0x394 JUMPI PUSH0 DUP1 REVERT JUMPDEST POP PUSH2 0x3AF PUSH1 0x4 DUP1 CALLDATASIZE SUB DUP2 ADD SWAP1 PUSH2 0x3AA SWAP2 SWAP1 PUSH2 0x29D1 JUMP JUMPDEST PUSH2 0xFED JUMP JUMPDEST PUSH1 0x40 MLOAD PUSH2 0x3BC SWAP2 SWAP1 PUSH2 0x32A8 JUMP JUMPDEST PUSH1 0x40 MLOAD DUP1 SWAP2 SUB SWAP1 RETURN JUMPDEST CALLVALUE DUP1 ISZERO PUSH2 0x3D0 JUMPI PUSH0 DUP1 REVERT JUMPDEST POP PUSH2 0x3D9 PUSH2 0x101D JUMP JUMPDEST PUSH1 0x40 MLOAD PUSH2 0x3E6 SWAP2 SWAP1 PUSH2 0x2A96 JUMP JUMPDEST PUSH1 0x40 MLOAD DUP1 SWAP2 SUB SWAP1 RETURN JUMPDEST PUSH2 0x409 PUSH1 0x4 DUP1 CALLDATASIZE SUB DUP2 ADD SWAP1 PUSH2 0x404 SWAP2 SWAP1 PUSH2 0x29D1 JUMP JUMPDEST PUSH2 0x1033 JUMP JUMPDEST PUSH1 0x40 MLOAD PUSH2 0x416 SWAP2 SWAP1 PUSH2 0x2D9F JUMP JUMPDEST PUSH1 0x40 MLOAD DUP1 SWAP2 SUB SWAP1 RETURN JUMPDEST CALLVALUE DUP1 ISZERO PUSH2 0x42A JUMPI PUSH0 DUP1 REVERT JUMPDEST POP PUSH2 0x445 PUSH1 0x4 DUP1 CALLDATASIZE SUB DUP2 ADD SWAP1 PUSH2 0x440 SWAP2 SWAP1 PUSH2 0x32C1 JUMP JUMPDEST PUSH2 0x126F JUMP JUMPDEST STOP JUMPDEST CALLVALUE DUP1 ISZERO PUSH2 0x452 JUMPI PUSH0 DUP1 REVERT JUMPDEST POP PUSH2 0x45B PUSH2 0x131B JUMP JUMPDEST STOP JUMPDEST PUSH2 0x477 PUSH1 0x4 DUP1 CALLDATASIZE SUB DUP2 ADD SWAP1 PUSH2 0x472 SWAP2 SWAP1 PUSH2 0x3349 JUMP JUMPDEST PUSH2 0x132E JUMP JUMPDEST STOP JUMPDEST CALLVALUE DUP1 ISZERO PUSH2 0x484 JUMPI PUSH0 DUP1 REVERT JUMPDEST POP PUSH2 0x48D PUSH2 0x14F0 JUMP JUMPDEST STOP JUMPDEST CALLVALUE DUP1 ISZERO PUSH2 0x49A JUMPI PUSH0 DUP1 REVERT JUMPDEST POP PUSH2 0x4A3 PUSH2 0x1502 JUMP JUMPDEST PUSH1 0x40 MLOAD PUSH2 0x4B0 SWAP2 SWAP1 PUSH2 0x32A8 JUMP JUMPDEST PUSH1 0x40 MLOAD DUP1 SWAP2 SUB SWAP1 RETURN JUMPDEST CALLVALUE DUP1 ISZERO PUSH2 0x4C4 JUMPI PUSH0 DUP1 REVERT JUMPDEST POP PUSH2 0x4DF PUSH1 0x4 DUP1 CALLDATASIZE SUB DUP2 ADD SWAP1 PUSH2 0x4DA SWAP2 SWAP1 PUSH2 0x33B1 JUMP JUMPDEST PUSH2 0x152A JUMP JUMPDEST STOP JUMPDEST CALLVALUE DUP1 ISZERO PUSH2 0x4EC JUMPI PUSH0 DUP1 REVERT JUMPDEST POP PUSH2 0x507 PUSH1 0x4 DUP1 CALLDATASIZE SUB DUP2 ADD SWAP1 PUSH2 0x502 SWAP2 SWAP1 PUSH2 0x2BEB JUMP JUMPDEST PUSH2 0x1540 JUMP JUMPDEST PUSH1 0x40 MLOAD PUSH2 0x514 SWAP2 SWAP1 PUSH2 0x32A8 JUMP JUMPDEST PUSH1 0x40 MLOAD DUP1 SWAP2 SUB SWAP1 RETURN JUMPDEST CALLVALUE DUP1 ISZERO PUSH2 0x528 JUMPI PUSH0 DUP1 REVERT JUMPDEST POP PUSH2 0x543 PUSH1 0x4 DUP1 CALLDATASIZE SUB DUP2 ADD SWAP1 PUSH2 0x53E SWAP2 SWAP1 PUSH2 0x29D1 JUMP JUMPDEST PUSH2 0x1588 JUMP JUMPDEST PUSH1 0x40 MLOAD PUSH2 0x558 SWAP10 SWAP9 SWAP8 SWAP7 SWAP6 SWAP5 SWAP4 SWAP3 SWAP2 SWAP1 PUSH2 0x2CB4 JUMP JUMPDEST PUSH1 0x40 MLOAD DUP1 SWAP2 SUB SWAP1 RETURN JUMPDEST CALLVALUE DUP1 ISZERO PUSH2 0x56C JUMPI PUSH0 DUP1 REVERT JUMPDEST POP PUSH2 0x587 PUSH1 0x4 DUP1 CALLDATASIZE SUB DUP2 ADD SWAP1 PUSH2 0x582 SWAP2 SWAP1 PUSH2 0x33EF JUMP JUMPDEST PUSH2 0x15FD JUMP JUMPDEST PUSH1 0x40 MLOAD PUSH2 0x594 SWAP2 SWAP1 PUSH2 0x2A96 JUMP JUMPDEST PUSH1 0x40 MLOAD DUP1 SWAP2 SUB SWAP1 RETURN JUMPDEST CALLVALUE DUP1 ISZERO PUSH2 0x5A8 JUMPI PUSH0 DUP1 REVERT JUMPDEST POP PUSH2 0x5C3 PUSH1 0x4 DUP1 CALLDATASIZE SUB DUP2 ADD SWAP1 PUSH2 0x5BE SWAP2 SWAP1 PUSH2 0x342D JUMP JUMPDEST PUSH2 0x168B JUMP JUMPDEST STOP JUMPDEST CALLVALUE DUP1 ISZERO PUSH2 0x5D0 JUMPI PUSH0 DUP1 REVERT JUMPDEST POP PUSH2 0x5EB PUSH1 0x4 DUP1 CALLDATASIZE SUB DUP2 ADD SWAP1 PUSH2 0x5E6 SWAP2 SWAP1 PUSH2 0x34C0 JUMP JUMPDEST PUSH2 0x1732 JUMP JUMPDEST STOP JUMPDEST CALLVALUE DUP1 ISZERO PUSH2 0x5F8 JUMPI PUSH0 DUP1 REVERT JUMPDEST POP PUSH2 0x613 PUSH1 0x4 DUP1 CALLDATASIZE SUB DUP2 ADD SWAP1 PUSH2 0x60E SWAP2 SWAP1 PUSH2 0x34EB JUMP JUMPDEST PUSH2 0x17B6 JUMP JUMPDEST STOP JUMPDEST PUSH0 DUP1 PUSH0 DUP4 DUP2 MSTORE PUSH1 0x20 ADD SWAP1 DUP2 MSTORE PUSH1 0x20 ADD PUSH0 KECCAK256 PUSH0 DUP5 PUSH20 0xFFFFFFFFFFFFFFFFFFFFFFFFFFFFFFFFFFFFFFFF AND PUSH20 0xFFFFFFFFFFFFFFFFFFFFFFFFFFFFFFFFFFFFFFFF AND DUP2 MSTORE PUSH1 0x20 ADD SWAP1 DUP2 MSTORE PUSH1 0x20 ADD PUSH0 KECCAK256 SLOAD SWAP1 POP SWAP3 SWAP2 POP POP JUMP JUMPDEST PUSH0 PUSH1 0x7 PUSH0 DUP4 DUP2 MSTORE PUSH1 0x20 ADD SWAP1 DUP2 MSTORE PUSH1 0x20 ADD PUSH0 KECCAK256 SWAP1 POP PUSH1 0x2 DUP1 DUP2 GT ISZERO PUSH2 0x691 JUMPI PUSH2 0x690 PUSH2 0x2C32 JUMP JUMPDEST JUMPDEST DUP2 PUSH1 0x1 ADD PUSH0 SWAP1 SLOAD SWAP1 PUSH2 0x100 EXP SWAP1 DIV PUSH1 0xFF AND PUSH1 0x2 DUP2 GT ISZERO PUSH2 0x6B4 JUMPI PUSH2 0x6B3 PUSH2 0x2C32 JUMP JUMPDEST JUMPDEST EQ PUSH2 0x6EB JUMPI PUSH1 0x40 MLOAD PUSH32 0x4EB60DE700000000000000000000000000000000000000000000000000000000 DUP2 MSTORE PUSH1 0x4 ADD PUSH1 0x40 MLOAD DUP1 SWAP2 SUB SWAP1 REVERT JUMPDEST PUSH0 PUSH2 0x6F6 CALLER DUP5 PUSH2 0x615 JUMP JUMPDEST SWAP1 POP PUSH0 DUP2 SUB PUSH2 0x731 JUMPI PUSH1 0x40 MLOAD PUSH32 0x7B7B36DA00000000000000000000000000000000000000000000000000000000 DUP2 MSTORE PUSH1 0x4 ADD PUSH1 0x40 MLOAD DUP1 SWAP2 SUB SWAP1 REVERT JUMPDEST PUSH2 0x73C CALLER DUP5 DUP4 PUSH2 0x17B6 JUMP JUMPDEST PUSH0 CALLER PUSH20 0xFFFFFFFFFFFFFFFFFFFFFFFFFFFFFFFFFFFFFFFF AND DUP3 DUP5 PUSH1 0x4 ADD SLOAD PUSH2 0x764 SWAP2 SWAP1 PUSH2 0x3568 JUMP JUMPDEST PUSH1 0x40 MLOAD PUSH2 0x770 SWAP1 PUSH2 0x35D6 JUMP JUMPDEST PUSH0 PUSH1 0x40 MLOAD DUP1 DUP4 SUB DUP2 DUP6 DUP8 GAS CALL SWAP3 POP POP POP RETURNDATASIZE DUP1 PUSH0 DUP2 EQ PUSH2 0x7AA JUMPI PUSH1 0x40 MLOAD SWAP2 POP PUSH1 0x1F NOT PUSH1 0x3F RETURNDATASIZE ADD AND DUP3 ADD PUSH1 0x40 MSTORE RETURNDATASIZE DUP3 MSTORE RETURNDATASIZE PUSH0 PUSH1 0x20 DUP5 ADD RETURNDATACOPY PUSH2 0x7AF JUMP JUMPDEST PUSH1 0x60 SWAP2 POP JUMPDEST POP POP SWAP1 POP DUP1 PUSH2 0x7EA JUMPI PUSH1 0x40 MLOAD PUSH32 0xF499DA2000000000000000000000000000000000000000000000000000000000 DUP2 MSTORE PUSH1 0x4 ADD PUSH1 0x40 MLOAD DUP1 SWAP2 SUB SWAP1 REVERT JUMPDEST POP POP POP POP JUMP JUMPDEST PUSH0 PUSH32 0xD9B67A2600000000000000000000000000000000000000000000000000000000 PUSH28 0xFFFFFFFFFFFFFFFFFFFFFFFFFFFFFFFFFFFFFFFFFFFFFFFFFFFFFFFF NOT AND DUP3 PUSH28 0xFFFFFFFFFFFFFFFFFFFFFFFFFFFFFFFFFFFFFFFFFFFFFFFFFFFFFFFF NOT AND EQ DUP1 PUSH2 0x8BA JUMPI POP PUSH32 0xE89341C00000000000000000000000000000000000000000000000000000000 PUSH28 0xFFFFFFFFFFFFFFFFFFFFFFFFFFFFFFFFFFFFFFFFFFFFFFFFFFFFFFFF NOT AND DUP3 PUSH28 0xFFFFFFFFFFFFFFFFFFFFFFFFFFFFFFFFFFFFFFFFFFFFFFFFFFFFFFFF NOT AND EQ JUMPDEST DUP1 PUSH2 0x8CA JUMPI POP PUSH2 0x8C9 DUP3 PUSH2 0x1862 JUMP JUMPDEST JUMPDEST SWAP1 POP SWAP2 SWAP1 POP JUMP JUMPDEST PUSH2 0x8D9 PUSH2 0x18CB JUMP JUMPDEST PUSH2 0x8E2 DUP2 PUSH2 0x1952 JUMP JUMPDEST POP JUMP JUMPDEST PUSH1 0x6 PUSH1 0x20 MSTORE DUP2 PUSH0 MSTORE PUSH1 0x40 PUSH0 KECCAK256 DUP2 DUP2 SLOAD DUP2 LT PUSH2 0x8FE JUMPI PUSH0 DUP1 REVERT JUMPDEST SWAP1 PUSH0 MSTORE PUSH1 0x20 PUSH0 KECCAK256 SWAP1 PUSH1 0x9 MUL ADD PUSH0 SWAP2 POP SWAP2 POP POP DUP1 PUSH0 ADD SLOAD SWAP1 DUP1 PUSH1 0x1 ADD PUSH0 SWAP1 SLOAD SWAP1 PUSH2 0x100 EXP SWAP1 DIV PUSH1 0xFF AND SWAP1 DUP1 PUSH1 0x2 ADD SLOAD SWAP1 DUP1 PUSH1 0x3 ADD SLOAD SWAP1 DUP1 PUSH1 0x4 ADD SLOAD SWAP1 DUP1 PUSH1 0x5 ADD SLOAD SWAP1 DUP1 PUSH1 0x6 ADD SLOAD SWAP1 DUP1 PUSH1 0x7 ADD SLOAD SWAP1 DUP1 PUSH1 0x8 ADD PUSH0 SWAP1 SLOAD SWAP1 PUSH2 0x100 EXP SWAP1 DIV PUSH20 0xFFFFFFFFFFFFFFFFFFFFFFFFFFFFFFFFFFFFFFFF AND SWAP1 POP DUP10 JUMP JUMPDEST PUSH1 0x60 PUSH1 0x2 DUP1 SLOAD PUSH2 0x983 SWAP1 PUSH2 0x3617 JUMP JUMPDEST DUP1 PUSH1 0x1F ADD PUSH1 0x20 DUP1 SWAP2 DIV MUL PUSH1 0x20 ADD PUSH1 0x40 MLOAD SWAP1 DUP2 ADD PUSH1 0x40 MSTORE DUP1 SWAP3 SWAP2 SWAP1 DUP2 DUP2 MSTORE PUSH1 0x20 ADD DUP3 DUP1 SLOAD PUSH2 0x9AF SWAP1 PUSH2 0x3617 JUMP JUMPDEST DUP1 ISZERO PUSH2 0x9FA JUMPI DUP1 PUSH1 0x1F LT PUSH2 0x9D1 JUMPI PUSH2 0x100 DUP1 DUP4 SLOAD DIV MUL DUP4 MSTORE SWAP2 PUSH1 0x20 ADD SWAP2 PUSH2 0x9FA JUMP JUMPDEST DUP3 ADD SWAP2 SWAP1 PUSH0 MSTORE PUSH1 0x20 PUSH0 KECCAK256 SWAP1 JUMPDEST DUP2 SLOAD DUP2 MSTORE SWAP1 PUSH1 0x1 ADD SWAP1 PUSH1 0x20 ADD DUP1 DUP4 GT PUSH2 0x9DD JUMPI DUP3 SWAP1 SUB PUSH1 0x1F AND DUP3 ADD SWAP2 JUMPDEST POP POP POP POP POP SWAP1 POP SWAP2 SWAP1 POP JUMP JUMPDEST CALLER PUSH1 0x5 DUP3 PUSH1 0x40 MLOAD PUSH2 0xA17 SWAP2 SWAP1 PUSH2 0x3681 JUMP JUMPDEST SWAP1 DUP2 MSTORE PUSH1 0x20 ADD PUSH1 0x40 MLOAD DUP1 SWAP2 SUB SWAP1 KECCAK256 PUSH0 PUSH2 0x100 EXP DUP2 SLOAD DUP2 PUSH20 0xFFFFFFFFFFFFFFFFFFFFFFFFFFFFFFFFFFFFFFFF MUL NOT AND SWAP1 DUP4 PUSH20 0xFFFFFFFFFFFFFFFFFFFFFFFFFFFFFFFFFFFFFFFF AND MUL OR SWAP1 SSTORE POP POP JUMP JUMPDEST CALLER PUSH20 0xFFFFFFFFFFFFFFFFFFFFFFFFFFFFFFFFFFFFFFFF AND PUSH1 0x5 DUP7 PUSH1 0x40 MLOAD PUSH2 0xA8C SWAP2 SWAP1 PUSH2 0x3681 JUMP JUMPDEST SWAP1 DUP2 MSTORE PUSH1 0x20 ADD PUSH1 0x40 MLOAD DUP1 SWAP2 SUB SWAP1 KECCAK256 PUSH0 SWAP1 SLOAD SWAP1 PUSH2 0x100 EXP SWAP1 DIV PUSH20 0xFFFFFFFFFFFFFFFFFFFFFFFFFFFFFFFFFFFFFFFF AND PUSH20 0xFFFFFFFFFFFFFFFFFFFFFFFFFFFFFFFFFFFFFFFF AND EQ PUSH2 0xB07 JUMPI PUSH1 0x40 MLOAD PUSH32 0xFEA5885A00000000000000000000000000000000000000000000000000000000 DUP2 MSTORE PUSH1 0x4 ADD PUSH1 0x40 MLOAD DUP1 SWAP2 SUB SWAP1 REVERT JUMPDEST PUSH1 0x4 PUSH1 0x6 PUSH0 CALLER PUSH20 0xFFFFFFFFFFFFFFFFFFFFFFFFFFFFFFFFFFFFFFFF AND PUSH20 0xFFFFFFFFFFFFFFFFFFFFFFFFFFFFFFFFFFFFFFFF AND DUP2 MSTORE PUSH1 0x20 ADD SWAP1 DUP2 MSTORE PUSH1 0x20 ADD PUSH0 KECCAK256 DUP1 SLOAD SWAP1 POP GT ISZERO PUSH2 0xB82 JUMPI PUSH1 0x40 MLOAD PUSH32 0xB8A63B4000000000000000000000000000000000000000000000000000000000 DUP2 MSTORE PUSH1 0x4 ADD PUSH1 0x40 MLOAD DUP1 SWAP2 SUB SWAP1 REVERT JUMPDEST PUSH0 PUSH1 0x40 MLOAD DUP1 PUSH2 0x120 ADD PUSH1 0x40 MSTORE DUP1 PUSH1 0x4 PUSH0 DUP2 SLOAD DUP1 SWAP3 SWAP2 SWAP1 PUSH2 0xBA1 SWAP1 PUSH2 0x3697 JUMP JUMPDEST SWAP2 SWAP1 POP SSTORE DUP2 MSTORE PUSH1 0x20 ADD PUSH0 PUSH1 0x2 DUP2 GT ISZERO PUSH2 0xBBD JUMPI PUSH2 0xBBC PUSH2 0x2C32 JUMP JUMPDEST JUMPDEST DUP2 MSTORE PUSH1 0x20 ADD DUP6 DUP2 MSTORE PUSH1 0x20 ADD DUP5 DUP2 MSTORE PUSH1 0x20 ADD PUSH4 0x5F5E100 DUP7 PUSH2 0xBDE SWAP2 SWAP1 PUSH2 0x370B JUMP JUMPDEST DUP2 MSTORE PUSH1 0x20 ADD DUP4 DUP2 MSTORE PUSH1 0x20 ADD PUSH0 DUP2 MSTORE PUSH1 0x20 ADD PUSH0 DUP2 MSTORE PUSH1 0x20 ADD CALLER PUSH20 0xFFFFFFFFFFFFFFFFFFFFFFFFFFFFFFFFFFFFFFFF AND DUP2 MSTORE POP SWAP1 POP DUP5 PUSH1 0x9 PUSH0 DUP4 PUSH0 ADD MLOAD DUP2 MSTORE PUSH1 0x20 ADD SWAP1 DUP2 MSTORE PUSH1 0x20 ADD PUSH0 KECCAK256 SWAP1 DUP2 PUSH2 0xC32 SWAP2 SWAP1 PUSH2 0x38D8 JUMP JUMPDEST POP PUSH1 0x6 PUSH0 CALLER PUSH20 0xFFFFFFFFFFFFFFFFFFFFFFFFFFFFFFFFFFFFFFFF AND PUSH20 0xFFFFFFFFFFFFFFFFFFFFFFFFFFFFFFFFFFFFFFFF AND DUP2 MSTORE PUSH1 0x20 ADD SWAP1 DUP2 MSTORE PUSH1 0x20 ADD PUSH0 KECCAK256 DUP2 SWAP1 DUP1 PUSH1 0x1 DUP2 SLOAD ADD DUP1 DUP3 SSTORE DUP1 SWAP2 POP POP PUSH1 0x1 SWAP1 SUB SWAP1 PUSH0 MSTORE PUSH1 0x20 PUSH0 KECCAK256 SWAP1 PUSH1 0x9 MUL ADD PUSH0 SWAP1 SWAP2 SWAP1 SWAP2 SWAP1 SWAP2 POP PUSH0 DUP3 ADD MLOAD DUP2 PUSH0 ADD SSTORE PUSH1 0x20 DUP3 ADD MLOAD DUP2 PUSH1 0x1 ADD PUSH0 PUSH2 0x100 EXP DUP2 SLOAD DUP2 PUSH1 0xFF MUL NOT AND SWAP1 DUP4 PUSH1 0x2 DUP2 GT ISZERO PUSH2 0xCC9 JUMPI PUSH2 0xCC8 PUSH2 0x2C32 JUMP JUMPDEST JUMPDEST MUL OR SWAP1 SSTORE POP PUSH1 0x40 DUP3 ADD MLOAD DUP2 PUSH1 0x2 ADD SSTORE PUSH1 0x60 DUP3 ADD MLOAD DUP2 PUSH1 0x3 ADD SSTORE PUSH1 0x80 DUP3 ADD MLOAD DUP2 PUSH1 0x4 ADD SSTORE PUSH1 0xA0 DUP3 ADD MLOAD DUP2 PUSH1 0x5 ADD SSTORE PUSH1 0xC0 DUP3 ADD MLOAD DUP2 PUSH1 0x6 ADD SSTORE PUSH1 0xE0 DUP3 ADD MLOAD DUP2 PUSH1 0x7 ADD SSTORE PUSH2 0x100 DUP3 ADD MLOAD DUP2 PUSH1 0x8 ADD PUSH0 PUSH2 0x100 EXP DUP2 SLOAD DUP2 PUSH20 0xFFFFFFFFFFFFFFFFFFFFFFFFFFFFFFFFFFFFFFFF MUL NOT AND SWAP1 DUP4 PUSH20 0xFFFFFFFFFFFFFFFFFFFFFFFFFFFFFFFFFFFFFFFF AND MUL OR SWAP1 SSTORE POP POP POP DUP1 PUSH1 0x7 PUSH0 DUP4 PUSH0 ADD MLOAD DUP2 MSTORE PUSH1 0x20 ADD SWAP1 DUP2 MSTORE PUSH1 0x20 ADD PUSH0 KECCAK256 PUSH0 DUP3 ADD MLOAD DUP2 PUSH0 ADD SSTORE PUSH1 0x20 DUP3 ADD MLOAD DUP2 PUSH1 0x1 ADD PUSH0 PUSH2 0x100 EXP DUP2 SLOAD DUP2 PUSH1 0xFF MUL NOT AND SWAP1 DUP4 PUSH1 0x2 DUP2 GT ISZERO PUSH2 0xD9A JUMPI PUSH2 0xD99 PUSH2 0x2C32 JUMP JUMPDEST JUMPDEST MUL OR SWAP1 SSTORE POP PUSH1 0x40 DUP3 ADD MLOAD DUP2 PUSH1 0x2 ADD SSTORE PUSH1 0x60 DUP3 ADD MLOAD DUP2 PUSH1 0x3 ADD SSTORE PUSH1 0x80 DUP3 ADD MLOAD DUP2 PUSH1 0x4 ADD SSTORE PUSH1 0xA0 DUP3 ADD MLOAD DUP2 PUSH1 0x5 ADD SSTORE PUSH1 0xC0 DUP3 ADD MLOAD DUP2 PUSH1 0x6 ADD SSTORE PUSH1 0xE0 DUP3 ADD MLOAD DUP2 PUSH1 0x7 ADD SSTORE PUSH2 0x100 DUP3 ADD MLOAD DUP2 PUSH1 0x8 ADD PUSH0 PUSH2 0x100 EXP DUP2 SLOAD DUP2 PUSH20 0xFFFFFFFFFFFFFFFFFFFFFFFFFFFFFFFFFFFFFFFF MUL NOT AND SWAP1 DUP4 PUSH20 0xFFFFFFFFFFFFFFFFFFFFFFFFFFFFFFFFFFFFFFFF AND MUL OR SWAP1 SSTORE POP SWAP1 POP POP POP POP POP POP POP POP JUMP JUMPDEST PUSH0 PUSH2 0xE36 PUSH2 0x1965 JUMP JUMPDEST SWAP1 POP DUP1 PUSH20 0xFFFFFFFFFFFFFFFFFFFFFFFFFFFFFFFFFFFFFFFF AND DUP7 PUSH20 0xFFFFFFFFFFFFFFFFFFFFFFFFFFFFFFFFFFFFFFFF AND EQ ISZERO DUP1 ISZERO PUSH2 0xE7B JUMPI POP PUSH2 0xE79 DUP7 DUP3 PUSH2 0x15FD JUMP JUMPDEST ISZERO JUMPDEST ISZERO PUSH2 0xEBF JUMPI DUP1 DUP7 PUSH1 0x40 MLOAD PUSH32 0xE237D92200000000000000000000000000000000000000000000000000000000 DUP2 MSTORE PUSH1 0x4 ADD PUSH2 0xEB6 SWAP3 SWAP2 SWAP1 PUSH2 0x39A7 JUMP JUMPDEST PUSH1 0x40 MLOAD DUP1 SWAP2 SUB SWAP1 REVERT JUMPDEST PUSH2 0xECC DUP7 DUP7 DUP7 DUP7 DUP7 PUSH2 0x196C JUMP JUMPDEST POP POP POP POP POP POP JUMP JUMPDEST PUSH2 0xEDC PUSH2 0x18CB JUMP JUMPDEST PUSH2 0xEE4 PUSH2 0x1A60 JUMP JUMPDEST JUMP JUMPDEST PUSH1 0x60 DUP2 MLOAD DUP4 MLOAD EQ PUSH2 0xF32 JUMPI DUP2 MLOAD DUP4 MLOAD PUSH1 0x40 MLOAD PUSH32 0x5B05999100000000000000000000000000000000000000000000000000000000 DUP2 MSTORE PUSH1 0x4 ADD PUSH2 0xF29 SWAP3 SWAP2 SWAP1 PUSH2 0x39CE JUMP JUMPDEST PUSH1 0x40 MLOAD DUP1 SWAP2 SUB SWAP1 REVERT JUMPDEST PUSH0 DUP4 MLOAD PUSH8 0xFFFFFFFFFFFFFFFF DUP2 GT ISZERO PUSH2 0xF4E JUMPI PUSH2 0xF4D PUSH2 0x2AC7 JUMP JUMPDEST JUMPDEST PUSH1 0x40 MLOAD SWAP1 DUP1 DUP3 MSTORE DUP1 PUSH1 0x20 MUL PUSH1 0x20 ADD DUP3 ADD PUSH1 0x40 MSTORE DUP1 ISZERO PUSH2 0xF7C JUMPI DUP2 PUSH1 0x20 ADD PUSH1 0x20 DUP3 MUL DUP1 CALLDATASIZE DUP4 CALLDATACOPY DUP1 DUP3 ADD SWAP2 POP POP SWAP1 POP JUMPDEST POP SWAP1 POP PUSH0 JUMPDEST DUP5 MLOAD DUP2 LT ISZERO PUSH2 0xFE2 JUMPI PUSH2 0xFB8 PUSH2 0xFA0 DUP3 DUP8 PUSH2 0x1AC2 SWAP1 SWAP2 SWAP1 PUSH4 0xFFFFFFFF AND JUMP JUMPDEST PUSH2 0xFB3 DUP4 DUP8 PUSH2 0x1AD5 SWAP1 SWAP2 SWAP1 PUSH4 0xFFFFFFFF AND JUMP JUMPDEST PUSH2 0x615 JUMP JUMPDEST DUP3 DUP3 DUP2 MLOAD DUP2 LT PUSH2 0xFCB JUMPI PUSH2 0xFCA PUSH2 0x39F5 JUMP JUMPDEST JUMPDEST PUSH1 0x20 MUL PUSH1 0x20 ADD ADD DUP2 DUP2 MSTORE POP POP DUP1 PUSH1 0x1 ADD SWAP1 POP PUSH2 0xF81 JUMP JUMPDEST POP DUP1 SWAP2 POP POP SWAP3 SWAP2 POP POP JUMP JUMPDEST PUSH1 0x8 PUSH1 0x20 MSTORE DUP1 PUSH0 MSTORE PUSH1 0x40 PUSH0 KECCAK256 PUSH0 SWAP2 POP SLOAD SWAP1 PUSH2 0x100 EXP SWAP1 DIV PUSH20 0xFFFFFFFFFFFFFFFFFFFFFFFFFFFFFFFFFFFFFFFF AND DUP2 JUMP JUMPDEST PUSH0 PUSH1 0x3 PUSH1 0x14 SWAP1 SLOAD SWAP1 PUSH2 0x100 EXP SWAP1 DIV PUSH1 0xFF AND SWAP1 POP SWAP1 JUMP JUMPDEST PUSH1 0x60 PUSH0 PUSH1 0x7 PUSH0 DUP5 DUP2 MSTORE PUSH1 0x20 ADD SWAP1 DUP2 MSTORE PUSH1 0x20 ADD PUSH0 KECCAK256 SWAP1 POP DUP1 PUSH1 0x3 ADD SLOAD CALLVALUE LT ISZERO PUSH2 0x1087 JUMPI PUSH1 0x40 MLOAD PUSH32 0xE2F844A000000000000000000000000000000000000000000000000000000000 DUP2 MSTORE PUSH1 0x4 ADD PUSH1 0x40 MLOAD DUP1 SWAP2 SUB SWAP1 REVERT JUMPDEST PUSH1 0x64 DUP2 PUSH1 0x5 ADD SLOAD PUSH2 0x1098 SWAP2 SWAP1 PUSH2 0x370B JUMP JUMPDEST PUSH1 0x1 PUSH2 0x10A4 SWAP2 SWAP1 PUSH2 0x3A22 JUMP JUMPDEST DUP2 PUSH1 0x3 ADD PUSH0 DUP3 DUP3 SLOAD PUSH2 0x10B6 SWAP2 SWAP1 PUSH2 0x3568 JUMP JUMPDEST SWAP3 POP POP DUP2 SWAP1 SSTORE POP CALLVALUE DUP2 PUSH1 0x7 ADD PUSH0 DUP3 DUP3 SLOAD PUSH2 0x10D0 SWAP2 SWAP1 PUSH2 0x3A22 JUMP JUMPDEST SWAP3 POP POP DUP2 SWAP1 SSTORE POP DUP1 PUSH1 0x2 ADD SLOAD DUP2 PUSH1 0x7 ADD SLOAD LT PUSH2 0x11CF JUMPI PUSH1 0x2 DUP2 PUSH1 0x1 ADD PUSH0 PUSH2 0x100 EXP DUP2 SLOAD DUP2 PUSH1 0xFF MUL NOT AND SWAP1 DUP4 PUSH1 0x2 DUP2 GT ISZERO PUSH2 0x110D JUMPI PUSH2 0x110C PUSH2 0x2C32 JUMP JUMPDEST JUMPDEST MUL OR SWAP1 SSTORE POP PUSH0 DUP2 PUSH1 0x3 ADD DUP2 SWAP1 SSTORE POP PUSH0 CALLER PUSH20 0xFFFFFFFFFFFFFFFFFFFFFFFFFFFFFFFFFFFFFFFF AND DUP3 PUSH1 0x2 ADD SLOAD DUP4 PUSH1 0x7 ADD SLOAD PUSH2 0x1147 SWAP2 SWAP1 PUSH2 0x3A55 JUMP JUMPDEST PUSH1 0x40 MLOAD PUSH2 0x1153 SWAP1 PUSH2 0x35D6 JUMP JUMPDEST PUSH0 PUSH1 0x40 MLOAD DUP1 DUP4 SUB DUP2 DUP6 DUP8 GAS CALL SWAP3 POP POP POP RETURNDATASIZE DUP1 PUSH0 DUP2 EQ PUSH2 0x118D JUMPI PUSH1 0x40 MLOAD SWAP2 POP PUSH1 0x1F NOT PUSH1 0x3F RETURNDATASIZE ADD AND DUP3 ADD PUSH1 0x40 MSTORE RETURNDATASIZE DUP3 MSTORE RETURNDATASIZE PUSH0 PUSH1 0x20 DUP5 ADD RETURNDATACOPY PUSH2 0x1192 JUMP JUMPDEST PUSH1 0x60 SWAP2 POP JUMPDEST POP POP SWAP1 POP DUP1 PUSH2 0x11CD JUMPI PUSH1 0x40 MLOAD PUSH32 0xF499DA2000000000000000000000000000000000000000000000000000000000 DUP2 MSTORE PUSH1 0x4 ADD PUSH1 0x40 MLOAD DUP1 SWAP2 SUB SWAP1 REVERT JUMPDEST POP JUMPDEST PUSH1 0x9 PUSH0 DUP5 DUP2 MSTORE PUSH1 0x20 ADD SWAP1 DUP2 MSTORE PUSH1 0x20 ADD PUSH0 KECCAK256 DUP1 SLOAD PUSH2 0x11EB SWAP1 PUSH2 0x3617 JUMP JUMPDEST DUP1 PUSH1 0x1F ADD PUSH1 0x20 DUP1 SWAP2 DIV MUL PUSH1 0x20 ADD PUSH1 0x40 MLOAD SWAP1 DUP2 ADD PUSH1 0x40 MSTORE DUP1 SWAP3 SWAP2 SWAP1 DUP2 DUP2 MSTORE PUSH1 0x20 ADD DUP3 DUP1 SLOAD PUSH2 0x1217 SWAP1 PUSH2 0x3617 JUMP JUMPDEST DUP1 ISZERO PUSH2 0x1262 JUMPI DUP1 PUSH1 0x1F LT PUSH2 0x1239 JUMPI PUSH2 0x100 DUP1 DUP4 SLOAD DIV MUL DUP4 MSTORE SWAP2 PUSH1 0x20 ADD SWAP2 PUSH2 0x1262 JUMP JUMPDEST DUP3 ADD SWAP2 SWAP1 PUSH0 MSTORE PUSH1 0x20 PUSH0 KECCAK256 SWAP1 JUMPDEST DUP2 SLOAD DUP2 MSTORE SWAP1 PUSH1 0x1 ADD SWAP1 PUSH1 0x20 ADD DUP1 DUP4 GT PUSH2 0x1245 JUMPI DUP3 SWAP1 SUB PUSH1 0x1F AND DUP3 ADD SWAP2 JUMPDEST POP POP POP POP POP SWAP2 POP POP SWAP2 SWAP1 POP JUMP JUMPDEST PUSH2 0x1277 PUSH2 0x1965 JUMP JUMPDEST PUSH20 0xFFFFFFFFFFFFFFFFFFFFFFFFFFFFFFFFFFFFFFFF AND DUP4 PUSH20 0xFFFFFFFFFFFFFFFFFFFFFFFFFFFFFFFFFFFFFFFF AND EQ ISZERO DUP1 ISZERO PUSH2 0x12C0 JUMPI POP PUSH2 0x12BE DUP4 PUSH2 0x12B9 PUSH2 0x1965 JUMP JUMPDEST PUSH2 0x15FD JUMP JUMPDEST ISZERO JUMPDEST ISZERO PUSH2 0x130B JUMPI PUSH2 0x12CD PUSH2 0x1965 JUMP JUMPDEST DUP4 PUSH1 0x40 MLOAD PUSH32 0xE237D92200000000000000000000000000000000000000000000000000000000 DUP2 MSTORE PUSH1 0x4 ADD PUSH2 0x1302 SWAP3 SWAP2 SWAP1 PUSH2 0x39A7 JUMP JUMPDEST PUSH1 0x40 MLOAD DUP1 SWAP2 SUB SWAP1 REVERT JUMPDEST PUSH2 0x1316 DUP4 DUP4 DUP4 PUSH2 0x1AE8 JUMP JUMPDEST POP POP POP JUMP JUMPDEST PUSH2 0x1323 PUSH2 0x18CB JUMP JUMPDEST PUSH2 0x132C PUSH0 PUSH2 0x1B78 JUMP JUMPDEST JUMP JUMPDEST DUP1 PUSH1 0x7 PUSH0 DUP5 DUP2 MSTORE PUSH1 0x20 ADD SWAP1 DUP2 MSTORE PUSH1 0x20 ADD PUSH0 KECCAK256 PUSH1 0x4 ADD SLOAD PUSH2 0x134E SWAP2 SWAP1 PUSH2 0x3568 JUMP JUMPDEST CALLVALUE LT ISZERO PUSH2 0x1387 JUMPI PUSH1 0x40 MLOAD PUSH32 0xE2F844A000000000000000000000000000000000000000000000000000000000 DUP2 MSTORE PUSH1 0x4 ADD PUSH1 0x40 MLOAD DUP1 SWAP2 SUB SWAP1 REVERT JUMPDEST PUSH0 PUSH1 0x7 PUSH0 DUP5 DUP2 MSTORE PUSH1 0x20 ADD SWAP1 DUP2 MSTORE PUSH1 0x20 ADD PUSH0 KECCAK256 SWAP1 POP PUSH2 0x13B5 CALLER DUP5 DUP5 PUSH1 0x40 MLOAD DUP1 PUSH1 0x20 ADD PUSH1 0x40 MSTORE DUP1 PUSH0 DUP2 MSTORE POP PUSH2 0x1C3B JUMP JUMPDEST CALLVALUE DUP2 PUSH1 0x6 ADD PUSH0 DUP3 DUP3 SLOAD PUSH2 0x13C8 SWAP2 SWAP1 PUSH2 0x3A22 JUMP JUMPDEST SWAP3 POP POP DUP2 SWAP1 SSTORE POP PUSH0 PUSH1 0x8 PUSH0 DUP6 DUP2 MSTORE PUSH1 0x20 ADD SWAP1 DUP2 MSTORE PUSH1 0x20 ADD PUSH0 KECCAK256 PUSH0 SWAP1 SLOAD SWAP1 PUSH2 0x100 EXP SWAP1 DIV PUSH20 0xFFFFFFFFFFFFFFFFFFFFFFFFFFFFFFFFFFFFFFFF AND PUSH20 0xFFFFFFFFFFFFFFFFFFFFFFFFFFFFFFFFFFFFFFFF AND CALLVALUE PUSH1 0x40 MLOAD PUSH2 0x1424 SWAP1 PUSH2 0x35D6 JUMP JUMPDEST PUSH0 PUSH1 0x40 MLOAD DUP1 DUP4 SUB DUP2 DUP6 DUP8 GAS CALL SWAP3 POP POP POP RETURNDATASIZE DUP1 PUSH0 DUP2 EQ PUSH2 0x145E JUMPI PUSH1 0x40 MLOAD SWAP2 POP PUSH1 0x1F NOT PUSH1 0x3F RETURNDATASIZE ADD AND DUP3 ADD PUSH1 0x40 MSTORE RETURNDATASIZE DUP3 MSTORE RETURNDATASIZE PUSH0 PUSH1 0x20 DUP5 ADD RETURNDATACOPY PUSH2 0x1463 JUMP JUMPDEST PUSH1 0x60 SWAP2 POP JUMPDEST POP POP SWAP1 POP DUP1 PUSH2 0x149E JUMPI PUSH1 0x40 MLOAD PUSH32 0xF499DA2000000000000000000000000000000000000000000000000000000000 DUP2 MSTORE PUSH1 0x4 ADD PUSH1 0x40 MLOAD DUP1 SWAP2 SUB SWAP1 REVERT JUMPDEST DUP2 PUSH1 0x2 ADD SLOAD DUP3 PUSH1 0x6 ADD SLOAD LT PUSH2 0x14EA JUMPI PUSH1 0x1 PUSH1 0x7 PUSH0 DUP7 DUP2 MSTORE PUSH1 0x20 ADD SWAP1 DUP2 MSTORE PUSH1 0x20 ADD PUSH0 KECCAK256 PUSH1 0x1 ADD PUSH0 PUSH2 0x100 EXP DUP2 SLOAD DUP2 PUSH1 0xFF MUL NOT AND SWAP1 DUP4 PUSH1 0x2 DUP2 GT ISZERO PUSH2 0x14E4 JUMPI PUSH2 0x14E3 PUSH2 0x2C32 JUMP JUMPDEST JUMPDEST MUL OR SWAP1 SSTORE POP JUMPDEST POP POP POP POP JUMP JUMPDEST PUSH2 0x14F8 PUSH2 0x18CB JUMP JUMPDEST PUSH2 0x1500 PUSH2 0x1C4D JUMP JUMPDEST JUMP JUMPDEST PUSH0 PUSH1 0x3 PUSH0 SWAP1 SLOAD SWAP1 PUSH2 0x100 EXP SWAP1 DIV PUSH20 0xFFFFFFFFFFFFFFFFFFFFFFFFFFFFFFFFFFFFFFFF AND SWAP1 POP SWAP1 JUMP JUMPDEST PUSH2 0x153C PUSH2 0x1535 PUSH2 0x1965 JUMP JUMPDEST DUP4 DUP4 PUSH2 0x1CB0 JUMP JUMPDEST POP POP JUMP JUMPDEST PUSH1 0x5 DUP2 DUP1 MLOAD PUSH1 0x20 DUP2 ADD DUP3 ADD DUP1 MLOAD DUP5 DUP3 MSTORE PUSH1 0x20 DUP4 ADD PUSH1 0x20 DUP6 ADD KECCAK256 DUP2 DUP4 MSTORE DUP1 SWAP6 POP POP POP POP POP POP PUSH0 SWAP2 POP SLOAD SWAP1 PUSH2 0x100 EXP SWAP1 DIV PUSH20 0xFFFFFFFFFFFFFFFFFFFFFFFFFFFFFFFFFFFFFFFF AND DUP2 JUMP JUMPDEST PUSH1 0x7 PUSH1 0x20 MSTORE DUP1 PUSH0 MSTORE PUSH1 0x40 PUSH0 KECCAK256 PUSH0 SWAP2 POP SWAP1 POP DUP1 PUSH0 ADD SLOAD SWAP1 DUP1 PUSH1 0x1 ADD PUSH0 SWAP1 SLOAD SWAP1 PUSH2 0x100 EXP SWAP1 DIV PUSH1 0xFF AND SWAP1 DUP1 PUSH1 0x2 ADD SLOAD SWAP1 DUP1 PUSH1 0x3 ADD SLOAD SWAP1 DUP1 PUSH1 0x4 ADD SLOAD SWAP1 DUP1 PUSH1 0x5 ADD SLOAD SWAP1 DUP1 PUSH1 0x6 ADD SLOAD SWAP1 DUP1 PUSH1 0x7 ADD SLOAD SWAP1 DUP1 PUSH1 0x8 ADD PUSH0 SWAP1 SLOAD SWAP1 PUSH2 0x100 EXP SWAP1 DIV PUSH20 0xFFFFFFFFFFFFFFFFFFFFFFFFFFFFFFFFFFFFFFFF AND SWAP1 POP DUP10 JUMP JUMPDEST PUSH0 PUSH1 0x1 PUSH0 DUP5 PUSH20 0xFFFFFFFFFFFFFFFFFFFFFFFFFFFFFFFFFFFFFFFF AND PUSH20 0xFFFFFFFFFFFFFFFFFFFFFFFFFFFFFFFFFFFFFFFF AND DUP2 MSTORE PUSH1 0x20 ADD SWAP1 DUP2 MSTORE PUSH1 0x20 ADD PUSH0 KECCAK256 PUSH0 DUP4 PUSH20 0xFFFFFFFFFFFFFFFFFFFFFFFFFFFFFFFFFFFFFFFF AND PUSH20 0xFFFFFFFFFFFFFFFFFFFFFFFFFFFFFFFFFFFFFFFF AND DUP2 MSTORE PUSH1 0x20 ADD SWAP1 DUP2 MSTORE PUSH1 0x20 ADD PUSH0 KECCAK256 PUSH0 SWAP1 SLOAD SWAP1 PUSH2 0x100 EXP SWAP1 DIV PUSH1 0xFF AND SWAP1 POP SWAP3 SWAP2 POP POP JUMP JUMPDEST PUSH0 PUSH2 0x1694 PUSH2 0x1965 JUMP JUMPDEST SWAP1 POP DUP1 PUSH20 0xFFFFFFFFFFFFFFFFFFFFFFFFFFFFFFFFFFFFFFFF AND DUP7 PUSH20 0xFFFFFFFFFFFFFFFFFFFFFFFFFFFFFFFFFFFFFFFF AND EQ ISZERO DUP1 ISZERO PUSH2 0x16D9 JUMPI POP PUSH2 0x16D7 DUP7 DUP3 PUSH2 0x15FD JUMP JUMPDEST ISZERO JUMPDEST ISZERO PUSH2 0x171D JUMPI DUP1 DUP7 PUSH1 0x40 MLOAD PUSH32 0xE237D92200000000000000000000000000000000000000000000000000000000 DUP2 MSTORE PUSH1 0x4 ADD PUSH2 0x1714 SWAP3 SWAP2 SWAP1 PUSH2 0x39A7 JUMP JUMPDEST PUSH1 0x40 MLOAD DUP1 SWAP2 SUB SWAP1 REVERT JUMPDEST PUSH2 0x172A DUP7 DUP7 DUP7 DUP7 DUP7 PUSH2 0x1E19 JUMP JUMPDEST POP POP POP POP POP POP JUMP JUMPDEST PUSH2 0x173A PUSH2 0x18CB JUMP JUMPDEST PUSH0 PUSH20 0xFFFFFFFFFFFFFFFFFFFFFFFFFFFFFFFFFFFFFFFF AND DUP2 PUSH20 0xFFFFFFFFFFFFFFFFFFFFFFFFFFFFFFFFFFFFFFFF AND SUB PUSH2 0x17AA JUMPI PUSH0 PUSH1 0x40 MLOAD PUSH32 0x1E4FBDF700000000000000000000000000000000000000000000000000000000 DUP2 MSTORE PUSH1 0x4 ADD PUSH2 0x17A1 SWAP2 SWAP1 PUSH2 0x32A8 JUMP JUMPDEST PUSH1 0x40 MLOAD DUP1 SWAP2 SUB SWAP1 REVERT JUMPDEST PUSH2 0x17B3 DUP2 PUSH2 0x1B78 JUMP JUMPDEST POP JUMP JUMPDEST PUSH2 0x17BE PUSH2 0x1965 JUMP JUMPDEST PUSH20 0xFFFFFFFFFFFFFFFFFFFFFFFFFFFFFFFFFFFFFFFF AND DUP4 PUSH20 0xFFFFFFFFFFFFFFFFFFFFFFFFFFFFFFFFFFFFFFFF AND EQ ISZERO DUP1 ISZERO PUSH2 0x1807 JUMPI POP PUSH2 0x1805 DUP4 PUSH2 0x1800 PUSH2 0x1965 JUMP JUMPDEST PUSH2 0x15FD JUMP JUMPDEST ISZERO JUMPDEST ISZERO PUSH2 0x1852 JUMPI PUSH2 0x1814 PUSH2 0x1965 JUMP JUMPDEST DUP4 PUSH1 0x40 MLOAD PUSH32 0xE237D92200000000000000000000000000000000000000000000000000000000 DUP2 MSTORE PUSH1 0x4 ADD PUSH2 0x1849 SWAP3 SWAP2 SWAP1 PUSH2 0x39A7 JUMP JUMPDEST PUSH1 0x40 MLOAD DUP1 SWAP2 SUB SWAP1 REVERT JUMPDEST PUSH2 0x185D DUP4 DUP4 DUP4 PUSH2 0x1F1F JUMP JUMPDEST POP POP POP JUMP JUMPDEST PUSH0 PUSH32 0x1FFC9A700000000000000000000000000000000000000000000000000000000 PUSH28 0xFFFFFFFFFFFFFFFFFFFFFFFFFFFFFFFFFFFFFFFFFFFFFFFFFFFFFFFF NOT AND DUP3 PUSH28 0xFFFFFFFFFFFFFFFFFFFFFFFFFFFFFFFFFFFFFFFFFFFFFFFFFFFFFFFF NOT AND EQ SWAP1 POP SWAP2 SWAP1 POP JUMP JUMPDEST PUSH2 0x18D3 PUSH2 0x1965 JUMP JUMPDEST PUSH20 0xFFFFFFFFFFFFFFFFFFFFFFFFFFFFFFFFFFFFFFFF AND PUSH2 0x18F1 PUSH2 0x1502 JUMP JUMPDEST PUSH20 0xFFFFFFFFFFFFFFFFFFFFFFFFFFFFFFFFFFFFFFFF AND EQ PUSH2 0x1950 JUMPI PUSH2 0x1914 PUSH2 0x1965 JUMP JUMPDEST PUSH1 0x40 MLOAD PUSH32 0x118CDAA700000000000000000000000000000000000000000000000000000000 DUP2 MSTORE PUSH1 0x4 ADD PUSH2 0x1947 SWAP2 SWAP1 PUSH2 0x32A8 JUMP JUMPDEST PUSH1 0x40 MLOAD DUP1 SWAP2 SUB SWAP1 REVERT JUMPDEST JUMP JUMPDEST DUP1 PUSH1 0x2 SWAP1 DUP2 PUSH2 0x1961 SWAP2 SWAP1 PUSH2 0x38D8 JUMP JUMPDEST POP POP JUMP JUMPDEST PUSH0 CALLER SWAP1 POP SWAP1 JUMP JUMPDEST PUSH0 PUSH20 0xFFFFFFFFFFFFFFFFFFFFFFFFFFFFFFFFFFFFFFFF AND DUP5 PUSH20 0xFFFFFFFFFFFFFFFFFFFFFFFFFFFFFFFFFFFFFFFF AND SUB PUSH2 0x19DC JUMPI PUSH0 PUSH1 0x40 MLOAD PUSH32 0x57F447CE00000000000000000000000000000000000000000000000000000000 DUP2 MSTORE PUSH1 0x4 ADD PUSH2 0x19D3 SWAP2 SWAP1 PUSH2 0x32A8 JUMP JUMPDEST PUSH1 0x40 MLOAD DUP1 SWAP2 SUB SWAP1 REVERT JUMPDEST PUSH0 PUSH20 0xFFFFFFFFFFFFFFFFFFFFFFFFFFFFFFFFFFFFFFFF AND DUP6 PUSH20 0xFFFFFFFFFFFFFFFFFFFFFFFFFFFFFFFFFFFFFFFF AND SUB PUSH2 0x1A4C JUMPI PUSH0 PUSH1 0x40 MLOAD PUSH32 0x1A8351400000000000000000000000000000000000000000000000000000000 DUP2 MSTORE PUSH1 0x4 ADD PUSH2 0x1A43 SWAP2 SWAP1 PUSH2 0x32A8 JUMP JUMPDEST PUSH1 0x40 MLOAD DUP1 SWAP2 SUB SWAP1 REVERT JUMPDEST PUSH2 0x1A59 DUP6 DUP6 DUP6 DUP6 DUP6 PUSH2 0x1FC1 JUMP JUMPDEST POP POP POP POP POP JUMP JUMPDEST PUSH2 0x1A68 PUSH2 0x206D JUMP JUMPDEST PUSH0 PUSH1 0x3 PUSH1 0x14 PUSH2 0x100 EXP DUP2 SLOAD DUP2 PUSH1 0xFF MUL NOT AND SWAP1 DUP4 ISZERO ISZERO MUL OR SWAP1 SSTORE POP PUSH32 0x5DB9EE0A495BF2E6FF9C91A7834C1BA4FDD244A5E8AA4E537BD38AEAE4B073AA PUSH2 0x1AAB PUSH2 0x1965 JUMP JUMPDEST PUSH1 0x40 MLOAD PUSH2 0x1AB8 SWAP2 SWAP1 PUSH2 0x32A8 JUMP JUMPDEST PUSH1 0x40 MLOAD DUP1 SWAP2 SUB SWAP1 LOG1 JUMP JUMPDEST PUSH0 PUSH1 0x20 DUP3 MUL PUSH1 0x20 DUP5 ADD ADD MLOAD SWAP1 POP SWAP3 SWAP2 POP POP JUMP JUMPDEST PUSH0 PUSH1 0x20 DUP3 MUL PUSH1 0x20 DUP5 ADD ADD MLOAD SWAP1 POP SWAP3 SWAP2 POP POP JUMP JUMPDEST PUSH0 PUSH20 0xFFFFFFFFFFFFFFFFFFFFFFFFFFFFFFFFFFFFFFFF AND DUP4 PUSH20 0xFFFFFFFFFFFFFFFFFFFFFFFFFFFFFFFFFFFFFFFF AND SUB PUSH2 0x1B58 JUMPI PUSH0 PUSH1 0x40 MLOAD PUSH32 0x1A8351400000000000000000000000000000000000000000000000000000000 DUP2 MSTORE PUSH1 0x4 ADD PUSH2 0x1B4F SWAP2 SWAP1 PUSH2 0x32A8 JUMP JUMPDEST PUSH1 0x40 MLOAD DUP1 SWAP2 SUB SWAP1 REVERT JUMPDEST PUSH2 0x1B73 DUP4 PUSH0 DUP5 DUP5 PUSH1 0x40 MLOAD DUP1 PUSH1 0x20 ADD PUSH1 0x40 MSTORE DUP1 PUSH0 DUP2 MSTORE POP PUSH2 0x1FC1 JUMP JUMPDEST POP POP POP JUMP JUMPDEST PUSH0 PUSH1 0x3 PUSH0 SWAP1 SLOAD SWAP1 PUSH2 0x100 EXP SWAP1 DIV PUSH20 0xFFFFFFFFFFFFFFFFFFFFFFFFFFFFFFFFFFFFFFFF AND SWAP1 POP DUP2 PUSH1 0x3 PUSH0 PUSH2 0x100 EXP DUP2 SLOAD DUP2 PUSH20 0xFFFFFFFFFFFFFFFFFFFFFFFFFFFFFFFFFFFFFFFF MUL NOT AND SWAP1 DUP4 PUSH20 0xFFFFFFFFFFFFFFFFFFFFFFFFFFFFFFFFFFFFFFFF AND MUL OR SWAP1 SSTORE POP DUP2 PUSH20 0xFFFFFFFFFFFFFFFFFFFFFFFFFFFFFFFFFFFFFFFF AND DUP2 PUSH20 0xFFFFFFFFFFFFFFFFFFFFFFFFFFFFFFFFFFFFFFFF AND PUSH32 0x8BE0079C531659141344CD1FD0A4F28419497F9722A3DAAFE3B4186F6B6457E0 PUSH1 0x40 MLOAD PUSH1 0x40 MLOAD DUP1 SWAP2 SUB SWAP1 LOG3 POP POP JUMP JUMPDEST PUSH2 0x1C47 DUP5 DUP5 DUP5 DUP5 PUSH2 0x20AD JUMP JUMPDEST POP POP POP POP JUMP JUMPDEST PUSH2 0x1C55 PUSH2 0x2142 JUMP JUMPDEST PUSH1 0x1 PUSH1 0x3 PUSH1 0x14 PUSH2 0x100 EXP DUP2 SLOAD DUP2 PUSH1 0xFF MUL NOT AND SWAP1 DUP4 ISZERO ISZERO MUL OR SWAP1 SSTORE POP PUSH32 0x62E78CEA01BEE320CD4E420270B5EA74000D11B0C9F74754EBDBFC544B05A258 PUSH2 0x1C99 PUSH2 0x1965 JUMP JUMPDEST PUSH1 0x40 MLOAD PUSH2 0x1CA6 SWAP2 SWAP1 PUSH2 0x32A8 JUMP JUMPDEST PUSH1 0x40 MLOAD DUP1 SWAP2 SUB SWAP1 LOG1 JUMP JUMPDEST PUSH0 PUSH20 0xFFFFFFFFFFFFFFFFFFFFFFFFFFFFFFFFFFFFFFFF AND DUP3 PUSH20 0xFFFFFFFFFFFFFFFFFFFFFFFFFFFFFFFFFFFFFFFF AND SUB PUSH2 0x1D20 JUMPI PUSH0 PUSH1 0x40 MLOAD PUSH32 0xCED3E10000000000000000000000000000000000000000000000000000000000 DUP2 MSTORE PUSH1 0x4 ADD PUSH2 0x1D17 SWAP2 SWAP1 PUSH2 0x32A8 JUMP JUMPDEST PUSH1 0x40 MLOAD DUP1 SWAP2 SUB SWAP1 REVERT JUMPDEST DUP1 PUSH1 0x1 PUSH0 DUP6 PUSH20 0xFFFFFFFFFFFFFFFFFFFFFFFFFFFFFFFFFFFFFFFF AND PUSH20 0xFFFFFFFFFFFFFFFFFFFFFFFFFFFFFFFFFFFFFFFF AND DUP2 MSTORE PUSH1 0x20 ADD SWAP1 DUP2 MSTORE PUSH1 0x20 ADD PUSH0 KECCAK256 PUSH0 DUP5 PUSH20 0xFFFFFFFFFFFFFFFFFFFFFFFFFFFFFFFFFFFFFFFF AND PUSH20 0xFFFFFFFFFFFFFFFFFFFFFFFFFFFFFFFFFFFFFFFF AND DUP2 MSTORE PUSH1 0x20 ADD SWAP1 DUP2 MSTORE PUSH1 0x20 ADD PUSH0 KECCAK256 PUSH0 PUSH2 0x100 EXP DUP2 SLOAD DUP2 PUSH1 0xFF MUL NOT AND SWAP1 DUP4 ISZERO ISZERO MUL OR SWAP1 SSTORE POP DUP2 PUSH20 0xFFFFFFFFFFFFFFFFFFFFFFFFFFFFFFFFFFFFFFFF AND DUP4 PUSH20 0xFFFFFFFFFFFFFFFFFFFFFFFFFFFFFFFFFFFFFFFF AND PUSH32 0x17307EAB39AB6107E8899845AD3D59BD9653F200F220920489CA2B5937696C31 DUP4 PUSH1 0x40 MLOAD PUSH2 0x1E0C SWAP2 SWAP1 PUSH2 0x2A96 JUMP JUMPDEST PUSH1 0x40 MLOAD DUP1 SWAP2 SUB SWAP1 LOG3 POP POP POP JUMP JUMPDEST PUSH0 PUSH20 0xFFFFFFFFFFFFFFFFFFFFFFFFFFFFFFFFFFFFFFFF AND DUP5 PUSH20 0xFFFFFFFFFFFFFFFFFFFFFFFFFFFFFFFFFFFFFFFF AND SUB PUSH2 0x1E89 JUMPI PUSH0 PUSH1 0x40 MLOAD PUSH32 0x57F447CE00000000000000000000000000000000000000000000000000000000 DUP2 MSTORE PUSH1 0x4 ADD PUSH2 0x1E80 SWAP2 SWAP1 PUSH2 0x32A8 JUMP JUMPDEST PUSH1 0x40 MLOAD DUP1 SWAP2 SUB SWAP1 REVERT JUMPDEST PUSH0 PUSH20 0xFFFFFFFFFFFFFFFFFFFFFFFFFFFFFFFFFFFFFFFF AND DUP6 PUSH20 0xFFFFFFFFFFFFFFFFFFFFFFFFFFFFFFFFFFFFFFFF AND SUB PUSH2 0x1EF9 JUMPI PUSH0 PUSH1 0x40 MLOAD PUSH32 0x1A8351400000000000000000000000000000000000000000000000000000000 DUP2 MSTORE PUSH1 0x4 ADD PUSH2 0x1EF0 SWAP2 SWAP1 PUSH2 0x32A8 JUMP JUMPDEST PUSH1 0x40 MLOAD DUP1 SWAP2 SUB SWAP1 REVERT JUMPDEST PUSH0 DUP1 PUSH2 0x1F05 DUP6 DUP6 PUSH2 0x2183 JUMP JUMPDEST SWAP2 POP SWAP2 POP PUSH2 0x1F16 DUP8 DUP8 DUP5 DUP5 DUP8 PUSH2 0x1FC1 JUMP JUMPDEST POP POP POP POP POP POP POP JUMP JUMPDEST PUSH0 PUSH20 0xFFFFFFFFFFFFFFFFFFFFFFFFFFFFFFFFFFFFFFFF AND DUP4 PUSH20 0xFFFFFFFFFFFFFFFFFFFFFFFFFFFFFFFFFFFFFFFF AND SUB PUSH2 0x1F8F JUMPI PUSH0 PUSH1 0x40 MLOAD PUSH32 0x1A8351400000000000000000000000000000000000000000000000000000000 DUP2 MSTORE PUSH1 0x4 ADD PUSH2 0x1F86 SWAP2 SWAP1 PUSH2 0x32A8 JUMP JUMPDEST PUSH1 0x40 MLOAD DUP1 SWAP2 SUB SWAP1 REVERT JUMPDEST PUSH0 DUP1 PUSH2 0x1F9B DUP5 DUP5 PUSH2 0x2183 JUMP JUMPDEST SWAP2 POP SWAP2 POP PUSH2 0x1FBA DUP6 PUSH0 DUP5 DUP5 PUSH1 0x40 MLOAD DUP1 PUSH1 0x20 ADD PUSH1 0x40 MSTORE DUP1 PUSH0 DUP2 MSTORE POP PUSH2 0x1FC1 JUMP JUMPDEST POP POP POP POP POP JUMP JUMPDEST PUSH2 0x1FCD DUP6 DUP6 DUP6 DUP6 PUSH2 0x21B3 JUMP JUMPDEST PUSH0 PUSH20 0xFFFFFFFFFFFFFFFFFFFFFFFFFFFFFFFFFFFFFFFF AND DUP5 PUSH20 0xFFFFFFFFFFFFFFFFFFFFFFFFFFFFFFFFFFFFFFFF AND EQ PUSH2 0x2066 JUMPI PUSH0 PUSH2 0x2009 PUSH2 0x1965 JUMP JUMPDEST SWAP1 POP PUSH1 0x1 DUP5 MLOAD SUB PUSH2 0x2055 JUMPI PUSH0 PUSH2 0x2028 PUSH0 DUP7 PUSH2 0x1AD5 SWAP1 SWAP2 SWAP1 PUSH4 0xFFFFFFFF AND JUMP JUMPDEST SWAP1 POP PUSH0 PUSH2 0x203E PUSH0 DUP7 PUSH2 0x1AD5 SWAP1 SWAP2 SWAP1 PUSH4 0xFFFFFFFF AND JUMP JUMPDEST SWAP1 POP PUSH2 0x204E DUP4 DUP10 DUP10 DUP6 DUP6 DUP10 PUSH2 0x21C5 JUMP JUMPDEST POP POP PUSH2 0x2064 JUMP JUMPDEST PUSH2 0x2063 DUP2 DUP8 DUP8 DUP8 DUP8 DUP8 PUSH2 0x2374 JUMP JUMPDEST JUMPDEST POP JUMPDEST POP POP POP POP POP JUMP JUMPDEST PUSH2 0x2075 PUSH2 0x101D JUMP JUMPDEST PUSH2 0x20AB JUMPI PUSH1 0x40 MLOAD PUSH32 0x8DFC202B00000000000000000000000000000000000000000000000000000000 DUP2 MSTORE PUSH1 0x4 ADD PUSH1 0x40 MLOAD DUP1 SWAP2 SUB SWAP1 REVERT JUMPDEST JUMP JUMPDEST PUSH0 PUSH20 0xFFFFFFFFFFFFFFFFFFFFFFFFFFFFFFFFFFFFFFFF AND DUP5 PUSH20 0xFFFFFFFFFFFFFFFFFFFFFFFFFFFFFFFFFFFFFFFF AND SUB PUSH2 0x211D JUMPI PUSH0 PUSH1 0x40 MLOAD PUSH32 0x57F447CE00000000000000000000000000000000000000000000000000000000 DUP2 MSTORE PUSH1 0x4 ADD PUSH2 0x2114 SWAP2 SWAP1 PUSH2 0x32A8 JUMP JUMPDEST PUSH1 0x40 MLOAD DUP1 SWAP2 SUB SWAP1 REVERT JUMPDEST PUSH0 DUP1 PUSH2 0x2129 DUP6 DUP6 PUSH2 0x2183 JUMP JUMPDEST SWAP2 POP SWAP2 POP PUSH2 0x213A PUSH0 DUP8 DUP5 DUP5 DUP8 PUSH2 0x1FC1 JUMP JUMPDEST POP POP POP POP POP POP JUMP JUMPDEST PUSH2 0x214A PUSH2 0x101D JUMP JUMPDEST ISZERO PUSH2 0x2181 JUMPI PUSH1 0x40 MLOAD PUSH32 0xD93C066500000000000000000000000000000000000000000000000000000000 DUP2 MSTORE PUSH1 0x4 ADD PUSH1 0x40 MLOAD DUP1 SWAP2 SUB SWAP1 REVERT JUMPDEST JUMP JUMPDEST PUSH1 0x60 DUP1 PUSH1 0x40 MLOAD SWAP2 POP PUSH1 0x1 DUP3 MSTORE DUP4 PUSH1 0x20 DUP4 ADD MSTORE PUSH1 0x40 DUP3 ADD SWAP1 POP PUSH1 0x1 DUP2 MSTORE DUP3 PUSH1 0x20 DUP3 ADD MSTORE PUSH1 0x40 DUP2 ADD PUSH1 0x40 MSTORE SWAP3 POP SWAP3 SWAP1 POP JUMP JUMPDEST PUSH2 0x21BF DUP5 DUP5 DUP5 DUP5 PUSH2 0x2523 JUMP JUMPDEST POP POP POP POP JUMP JUMPDEST PUSH0 DUP5 PUSH20 0xFFFFFFFFFFFFFFFFFFFFFFFFFFFFFFFFFFFFFFFF AND EXTCODESIZE GT ISZERO PUSH2 0x236C JUMPI DUP4 PUSH20 0xFFFFFFFFFFFFFFFFFFFFFFFFFFFFFFFFFFFFFFFF AND PUSH4 0xF23A6E61 DUP8 DUP8 DUP7 DUP7 DUP7 PUSH1 0x40 MLOAD DUP7 PUSH4 0xFFFFFFFF AND PUSH1 0xE0 SHL DUP2 MSTORE PUSH1 0x4 ADD PUSH2 0x2225 SWAP6 SWAP5 SWAP4 SWAP3 SWAP2 SWAP1 PUSH2 0x3ADA JUMP JUMPDEST PUSH1 0x20 PUSH1 0x40 MLOAD DUP1 DUP4 SUB DUP2 PUSH0 DUP8 GAS CALL SWAP3 POP POP POP DUP1 ISZERO PUSH2 0x2260 JUMPI POP PUSH1 0x40 MLOAD RETURNDATASIZE PUSH1 0x1F NOT PUSH1 0x1F DUP3 ADD AND DUP3 ADD DUP1 PUSH1 0x40 MSTORE POP DUP2 ADD SWAP1 PUSH2 0x225D SWAP2 SWAP1 PUSH2 0x3B46 JUMP JUMPDEST PUSH1 0x1 JUMPDEST PUSH2 0x22E1 JUMPI RETURNDATASIZE DUP1 PUSH0 DUP2 EQ PUSH2 0x228E JUMPI PUSH1 0x40 MLOAD SWAP2 POP PUSH1 0x1F NOT PUSH1 0x3F RETURNDATASIZE ADD AND DUP3 ADD PUSH1 0x40 MSTORE RETURNDATASIZE DUP3 MSTORE RETURNDATASIZE PUSH0 PUSH1 0x20 DUP5 ADD RETURNDATACOPY PUSH2 0x2293 JUMP JUMPDEST PUSH1 0x60 SWAP2 POP JUMPDEST POP PUSH0 DUP2 MLOAD SUB PUSH2 0x22D9 JUMPI DUP5 PUSH1 0x40 MLOAD PUSH32 0x57F447CE00000000000000000000000000000000000000000000000000000000 DUP2 MSTORE PUSH1 0x4 ADD PUSH2 0x22D0 SWAP2 SWAP1 PUSH2 0x32A8 JUMP JUMPDEST PUSH1 0x40 MLOAD DUP1 SWAP2 SUB SWAP1 REVERT JUMPDEST DUP1 MLOAD DUP2 PUSH1 0x20 ADD REVERT JUMPDEST PUSH4 0xF23A6E61 PUSH1 0xE0 SHL PUSH28 0xFFFFFFFFFFFFFFFFFFFFFFFFFFFFFFFFFFFFFFFFFFFFFFFFFFFFFFFF NOT AND DUP2 PUSH28 0xFFFFFFFFFFFFFFFFFFFFFFFFFFFFFFFFFFFFFFFFFFFFFFFFFFFFFFFF NOT AND EQ PUSH2 0x236A JUMPI DUP5 PUSH1 0x40 MLOAD PUSH32 0x57F447CE00000000000000000000000000000000000000000000000000000000 DUP2 MSTORE PUSH1 0x4 ADD PUSH2 0x2361 SWAP2 SWAP1 PUSH2 0x32A8 JUMP JUMPDEST PUSH1 0x40 MLOAD DUP1 SWAP2 SUB SWAP1 REVERT JUMPDEST POP JUMPDEST POP POP POP POP POP POP JUMP JUMPDEST PUSH0 DUP5 PUSH20 0xFFFFFFFFFFFFFFFFFFFFFFFFFFFFFFFFFFFFFFFF AND EXTCODESIZE GT ISZERO PUSH2 0x251B JUMPI DUP4 PUSH20 0xFFFFFFFFFFFFFFFFFFFFFFFFFFFFFFFFFFFFFFFF AND PUSH4 0xBC197C81 DUP8 DUP8 DUP7 DUP7 DUP7 PUSH1 0x40 MLOAD DUP7 PUSH4 0xFFFFFFFF AND PUSH1 0xE0 SHL DUP2 MSTORE PUSH1 0x4 ADD PUSH2 0x23D4 SWAP6 SWAP5 SWAP4 SWAP3 SWAP2 SWAP1 PUSH2 0x3B71 JUMP JUMPDEST PUSH1 0x20 PUSH1 0x40 MLOAD DUP1 DUP4 SUB DUP2 PUSH0 DUP8 GAS CALL SWAP3 POP POP POP DUP1 ISZERO PUSH2 0x240F JUMPI POP PUSH1 0x40 MLOAD RETURNDATASIZE PUSH1 0x1F NOT PUSH1 0x1F DUP3 ADD AND DUP3 ADD DUP1 PUSH1 0x40 MSTORE POP DUP2 ADD SWAP1 PUSH2 0x240C SWAP2 SWAP1 PUSH2 0x3B46 JUMP JUMPDEST PUSH1 0x1 JUMPDEST PUSH2 0x2490 JUMPI RETURNDATASIZE DUP1 PUSH0 DUP2 EQ PUSH2 0x243D JUMPI PUSH1 0x40 MLOAD SWAP2 POP PUSH1 0x1F NOT PUSH1 0x3F RETURNDATASIZE ADD AND DUP3 ADD PUSH1 0x40 MSTORE RETURNDATASIZE DUP3 MSTORE RETURNDATASIZE PUSH0 PUSH1 0x20 DUP5 ADD RETURNDATACOPY PUSH2 0x2442 JUMP JUMPDEST PUSH1 0x60 SWAP2 POP JUMPDEST POP PUSH0 DUP2 MLOAD SUB PUSH2 0x2488 JUMPI DUP5 PUSH1 0x40 MLOAD PUSH32 0x57F447CE00000000000000000000000000000000000000000000000000000000 DUP2 MSTORE PUSH1 0x4 ADD PUSH2 0x247F SWAP2 SWAP1 PUSH2 0x32A8 JUMP JUMPDEST PUSH1 0x40 MLOAD DUP1 SWAP2 SUB SWAP1 REVERT JUMPDEST DUP1 MLOAD DUP2 PUSH1 0x20 ADD REVERT JUMPDEST PUSH4 0xBC197C81 PUSH1 0xE0 SHL PUSH28 0xFFFFFFFFFFFFFFFFFFFFFFFFFFFFFFFFFFFFFFFFFFFFFFFFFFFFFFFF NOT AND DUP2 PUSH28 0xFFFFFFFFFFFFFFFFFFFFFFFFFFFFFFFFFFFFFFFFFFFFFFFFFFFFFFFF NOT AND EQ PUSH2 0x2519 JUMPI DUP5 PUSH1 0x40 MLOAD PUSH32 0x57F447CE00000000000000000000000000000000000000000000000000000000 DUP2 MSTORE PUSH1 0x4 ADD PUSH2 0x2510 SWAP2 SWAP1 PUSH2 0x32A8 JUMP JUMPDEST PUSH1 0x40 MLOAD DUP1 SWAP2 SUB SWAP1 REVERT JUMPDEST POP JUMPDEST POP POP POP POP POP POP JUMP JUMPDEST PUSH2 0x252B PUSH2 0x2142 JUMP JUMPDEST PUSH2 0x2537 DUP5 DUP5 DUP5 DUP5 PUSH2 0x253D JUMP JUMPDEST POP POP POP POP JUMP JUMPDEST DUP1 MLOAD DUP3 MLOAD EQ PUSH2 0x2587 JUMPI DUP2 MLOAD DUP2 MLOAD PUSH1 0x40 MLOAD PUSH32 0x5B05999100000000000000000000000000000000000000000000000000000000 DUP2 MSTORE PUSH1 0x4 ADD PUSH2 0x257E SWAP3 SWAP2 SWAP1 PUSH2 0x39CE JUMP JUMPDEST PUSH1 0x40 MLOAD DUP1 SWAP2 SUB SWAP1 REVERT JUMPDEST PUSH0 PUSH2 0x2590 PUSH2 0x1965 JUMP JUMPDEST SWAP1 POP PUSH0 JUMPDEST DUP4 MLOAD DUP2 LT ISZERO PUSH2 0x278C JUMPI PUSH0 PUSH2 0x25B1 DUP3 DUP7 PUSH2 0x1AD5 SWAP1 SWAP2 SWAP1 PUSH4 0xFFFFFFFF AND JUMP JUMPDEST SWAP1 POP PUSH0 PUSH2 0x25C7 DUP4 DUP7 PUSH2 0x1AD5 SWAP1 SWAP2 SWAP1 PUSH4 0xFFFFFFFF AND JUMP JUMPDEST SWAP1 POP PUSH0 PUSH20 0xFFFFFFFFFFFFFFFFFFFFFFFFFFFFFFFFFFFFFFFF AND DUP9 PUSH20 0xFFFFFFFFFFFFFFFFFFFFFFFFFFFFFFFFFFFFFFFF AND EQ PUSH2 0x26EA JUMPI PUSH0 DUP1 PUSH0 DUP5 DUP2 MSTORE PUSH1 0x20 ADD SWAP1 DUP2 MSTORE PUSH1 0x20 ADD PUSH0 KECCAK256 PUSH0 DUP11 PUSH20 0xFFFFFFFFFFFFFFFFFFFFFFFFFFFFFFFFFFFFFFFF AND PUSH20 0xFFFFFFFFFFFFFFFFFFFFFFFFFFFFFFFFFFFFFFFF AND DUP2 MSTORE PUSH1 0x20 ADD SWAP1 DUP2 MSTORE PUSH1 0x20 ADD PUSH0 KECCAK256 SLOAD SWAP1 POP DUP2 DUP2 LT ISZERO PUSH2 0x2696 JUMPI DUP9 DUP2 DUP4 DUP6 PUSH1 0x40 MLOAD PUSH32 0x3DEE4C500000000000000000000000000000000000000000000000000000000 DUP2 MSTORE PUSH1 0x4 ADD PUSH2 0x268D SWAP5 SWAP4 SWAP3 SWAP2 SWAP1 PUSH2 0x3BD7 JUMP JUMPDEST PUSH1 0x40 MLOAD DUP1 SWAP2 SUB SWAP1 REVERT JUMPDEST DUP2 DUP2 SUB PUSH0 DUP1 DUP6 DUP2 MSTORE PUSH1 0x20 ADD SWAP1 DUP2 MSTORE PUSH1 0x20 ADD PUSH0 KECCAK256 PUSH0 DUP12 PUSH20 0xFFFFFFFFFFFFFFFFFFFFFFFFFFFFFFFFFFFFFFFF AND PUSH20 0xFFFFFFFFFFFFFFFFFFFFFFFFFFFFFFFFFFFFFFFF AND DUP2 MSTORE PUSH1 0x20 ADD SWAP1 DUP2 MSTORE PUSH1 0x20 ADD PUSH0 KECCAK256 DUP2 SWAP1 SSTORE POP POP JUMPDEST PUSH0 PUSH20 0xFFFFFFFFFFFFFFFFFFFFFFFFFFFFFFFFFFFFFFFF AND DUP8 PUSH20 0xFFFFFFFFFFFFFFFFFFFFFFFFFFFFFFFFFFFFFFFF AND EQ PUSH2 0x277F JUMPI DUP1 PUSH0 DUP1 DUP5 DUP2 MSTORE PUSH1 0x20 ADD SWAP1 DUP2 MSTORE PUSH1 0x20 ADD PUSH0 KECCAK256 PUSH0 DUP10 PUSH20 0xFFFFFFFFFFFFFFFFFFFFFFFFFFFFFFFFFFFFFFFF AND PUSH20 0xFFFFFFFFFFFFFFFFFFFFFFFFFFFFFFFFFFFFFFFF AND DUP2 MSTORE PUSH1 0x20 ADD SWAP1 DUP2 MSTORE PUSH1 0x20 ADD PUSH0 KECCAK256 PUSH0 DUP3 DUP3 SLOAD PUSH2 0x2777 SWAP2 SWAP1 PUSH2 0x3A22 JUMP JUMPDEST SWAP3 POP POP DUP2 SWAP1 SSTORE POP JUMPDEST POP POP DUP1 PUSH1 0x1 ADD SWAP1 POP PUSH2 0x2594 JUMP JUMPDEST POP PUSH1 0x1 DUP4 MLOAD SUB PUSH2 0x2847 JUMPI PUSH0 PUSH2 0x27AA PUSH0 DUP6 PUSH2 0x1AD5 SWAP1 SWAP2 SWAP1 PUSH4 0xFFFFFFFF AND JUMP JUMPDEST SWAP1 POP PUSH0 PUSH2 0x27C0 PUSH0 DUP6 PUSH2 0x1AD5 SWAP1 SWAP2 SWAP1 PUSH4 0xFFFFFFFF AND JUMP JUMPDEST SWAP1 POP DUP6 PUSH20 0xFFFFFFFFFFFFFFFFFFFFFFFFFFFFFFFFFFFFFFFF AND DUP8 PUSH20 0xFFFFFFFFFFFFFFFFFFFFFFFFFFFFFFFFFFFFFFFF AND DUP5 PUSH20 0xFFFFFFFFFFFFFFFFFFFFFFFFFFFFFFFFFFFFFFFF AND PUSH32 0xC3D58168C5AE7397731D063D5BBF3D657854427343F4C083240F7AACAA2D0F62 DUP6 DUP6 PUSH1 0x40 MLOAD PUSH2 0x2838 SWAP3 SWAP2 SWAP1 PUSH2 0x39CE JUMP JUMPDEST PUSH1 0x40 MLOAD DUP1 SWAP2 SUB SWAP1 LOG4 POP POP PUSH2 0x28C6 JUMP JUMPDEST DUP4 PUSH20 0xFFFFFFFFFFFFFFFFFFFFFFFFFFFFFFFFFFFFFFFF AND DUP6 PUSH20 0xFFFFFFFFFFFFFFFFFFFFFFFFFFFFFFFFFFFFFFFF AND DUP3 PUSH20 0xFFFFFFFFFFFFFFFFFFFFFFFFFFFFFFFFFFFFFFFF AND PUSH32 0x4A39DC06D4C0DBC64B70AF90FD698A233A518AA5D07E595D983B8C0526C8F7FB DUP7 DUP7 PUSH1 0x40 MLOAD PUSH2 0x28BD SWAP3 SWAP2 SWAP1 PUSH2 0x3C1A JUMP JUMPDEST PUSH1 0x40 MLOAD DUP1 SWAP2 SUB SWAP1 LOG4 JUMPDEST POP POP POP POP POP JUMP JUMPDEST PUSH0 PUSH1 0x40 MLOAD SWAP1 POP SWAP1 JUMP JUMPDEST PUSH0 DUP1 REVERT JUMPDEST PUSH0 DUP1 REVERT JUMPDEST PUSH0 PUSH20 0xFFFFFFFFFFFFFFFFFFFFFFFFFFFFFFFFFFFFFFFF DUP3 AND SWAP1 POP SWAP2 SWAP1 POP JUMP JUMPDEST PUSH0 PUSH2 0x2907 DUP3 PUSH2 0x28DE JUMP JUMPDEST SWAP1 POP SWAP2 SWAP1 POP JUMP JUMPDEST PUSH2 0x2917 DUP2 PUSH2 0x28FD JUMP JUMPDEST DUP2 EQ PUSH2 0x2921 JUMPI PUSH0 DUP1 REVERT JUMPDEST POP JUMP JUMPDEST PUSH0 DUP2 CALLDATALOAD SWAP1 POP PUSH2 0x2932 DUP2 PUSH2 0x290E JUMP JUMPDEST SWAP3 SWAP2 POP POP JUMP JUMPDEST PUSH0 DUP2 SWAP1 POP SWAP2 SWAP1 POP JUMP JUMPDEST PUSH2 0x294A DUP2 PUSH2 0x2938 JUMP JUMPDEST DUP2 EQ PUSH2 0x2954 JUMPI PUSH0 DUP1 REVERT JUMPDEST POP JUMP JUMPDEST PUSH0 DUP2 CALLDATALOAD SWAP1 POP PUSH2 0x2965 DUP2 PUSH2 0x2941 JUMP JUMPDEST SWAP3 SWAP2 POP POP JUMP JUMPDEST PUSH0 DUP1 PUSH1 0x40 DUP4 DUP6 SUB SLT ISZERO PUSH2 0x2981 JUMPI PUSH2 0x2980 PUSH2 0x28D6 JUMP JUMPDEST JUMPDEST PUSH0 PUSH2 0x298E DUP6 DUP3 DUP7 ADD PUSH2 0x2924 JUMP JUMPDEST SWAP3 POP POP PUSH1 0x20 PUSH2 0x299F DUP6 DUP3 DUP7 ADD PUSH2 0x2957 JUMP JUMPDEST SWAP2 POP POP SWAP3 POP SWAP3 SWAP1 POP JUMP JUMPDEST PUSH2 0x29B2 DUP2 PUSH2 0x2938 JUMP JUMPDEST DUP3 MSTORE POP POP JUMP JUMPDEST PUSH0 PUSH1 0x20 DUP3 ADD SWAP1 POP PUSH2 0x29CB PUSH0 DUP4 ADD DUP5 PUSH2 0x29A9 JUMP JUMPDEST SWAP3 SWAP2 POP POP JUMP JUMPDEST PUSH0 PUSH1 0x20 DUP3 DUP5 SUB SLT ISZERO PUSH2 0x29E6 JUMPI PUSH2 0x29E5 PUSH2 0x28D6 JUMP JUMPDEST JUMPDEST PUSH0 PUSH2 0x29F3 DUP5 DUP3 DUP6 ADD PUSH2 0x2957 JUMP JUMPDEST SWAP2 POP POP SWAP3 SWAP2 POP POP JUMP JUMPDEST PUSH0 PUSH32 0xFFFFFFFF00000000000000000000000000000000000000000000000000000000 DUP3 AND SWAP1 POP SWAP2 SWAP1 POP JUMP JUMPDEST PUSH2 0x2A30 DUP2 PUSH2 0x29FC JUMP JUMPDEST DUP2 EQ PUSH2 0x2A3A JUMPI PUSH0 DUP1 REVERT JUMPDEST POP JUMP JUMPDEST PUSH0 DUP2 CALLDATALOAD SWAP1 POP PUSH2 0x2A4B DUP2 PUSH2 0x2A27 JUMP JUMPDEST SWAP3 SWAP2 POP POP JUMP JUMPDEST PUSH0 PUSH1 0x20 DUP3 DUP5 SUB SLT ISZERO PUSH2 0x2A66 JUMPI PUSH2 0x2A65 PUSH2 0x28D6 JUMP JUMPDEST JUMPDEST PUSH0 PUSH2 0x2A73 DUP5 DUP3 DUP6 ADD PUSH2 0x2A3D JUMP JUMPDEST SWAP2 POP POP SWAP3 SWAP2 POP POP JUMP JUMPDEST PUSH0 DUP2 ISZERO ISZERO SWAP1 POP SWAP2 SWAP1 POP JUMP JUMPDEST PUSH2 0x2A90 DUP2 PUSH2 0x2A7C JUMP JUMPDEST DUP3 MSTORE POP POP JUMP JUMPDEST PUSH0 PUSH1 0x20 DUP3 ADD SWAP1 POP PUSH2 0x2AA9 PUSH0 DUP4 ADD DUP5 PUSH2 0x2A87 JUMP JUMPDEST SWAP3 SWAP2 POP POP JUMP JUMPDEST PUSH0 DUP1 REVERT JUMPDEST PUSH0 DUP1 REVERT JUMPDEST PUSH0 PUSH1 0x1F NOT PUSH1 0x1F DUP4 ADD AND SWAP1 POP SWAP2 SWAP1 POP JUMP JUMPDEST PUSH32 0x4E487B7100000000000000000000000000000000000000000000000000000000 PUSH0 MSTORE PUSH1 0x41 PUSH1 0x4 MSTORE PUSH1 0x24 PUSH0 REVERT JUMPDEST PUSH2 0x2AFD DUP3 PUSH2 0x2AB7 JUMP JUMPDEST DUP2 ADD DUP2 DUP2 LT PUSH8 0xFFFFFFFFFFFFFFFF DUP3 GT OR ISZERO PUSH2 0x2B1C JUMPI PUSH2 0x2B1B PUSH2 0x2AC7 JUMP JUMPDEST JUMPDEST DUP1 PUSH1 0x40 MSTORE POP POP POP JUMP JUMPDEST PUSH0 PUSH2 0x2B2E PUSH2 0x28CD JUMP JUMPDEST SWAP1 POP PUSH2 0x2B3A DUP3 DUP3 PUSH2 0x2AF4 JUMP JUMPDEST SWAP2 SWAP1 POP JUMP JUMPDEST PUSH0 PUSH8 0xFFFFFFFFFFFFFFFF DUP3 GT ISZERO PUSH2 0x2B59 JUMPI PUSH2 0x2B58 PUSH2 0x2AC7 JUMP JUMPDEST JUMPDEST PUSH2 0x2B62 DUP3 PUSH2 0x2AB7 JUMP JUMPDEST SWAP1 POP PUSH1 0x20 DUP2 ADD SWAP1 POP SWAP2 SWAP1 POP JUMP JUMPDEST DUP3 DUP2 DUP4 CALLDATACOPY PUSH0 DUP4 DUP4 ADD MSTORE POP POP POP JUMP JUMPDEST PUSH0 PUSH2 0x2B8F PUSH2 0x2B8A DUP5 PUSH2 0x2B3F JUMP JUMPDEST PUSH2 0x2B25 JUMP JUMPDEST SWAP1 POP DUP3 DUP2 MSTORE PUSH1 0x20 DUP2 ADD DUP5 DUP5 DUP5 ADD GT ISZERO PUSH2 0x2BAB JUMPI PUSH2 0x2BAA PUSH2 0x2AB3 JUMP JUMPDEST JUMPDEST PUSH2 0x2BB6 DUP5 DUP3 DUP6 PUSH2 0x2B6F JUMP JUMPDEST POP SWAP4 SWAP3 POP POP POP JUMP JUMPDEST PUSH0 DUP3 PUSH1 0x1F DUP4 ADD SLT PUSH2 0x2BD2 JUMPI PUSH2 0x2BD1 PUSH2 0x2AAF JUMP JUMPDEST JUMPDEST DUP2 CALLDATALOAD PUSH2 0x2BE2 DUP5 DUP3 PUSH1 0x20 DUP7 ADD PUSH2 0x2B7D JUMP JUMPDEST SWAP2 POP POP SWAP3 SWAP2 POP POP JUMP JUMPDEST PUSH0 PUSH1 0x20 DUP3 DUP5 SUB SLT ISZERO PUSH2 0x2C00 JUMPI PUSH2 0x2BFF PUSH2 0x28D6 JUMP JUMPDEST JUMPDEST PUSH0 DUP3 ADD CALLDATALOAD PUSH8 0xFFFFFFFFFFFFFFFF DUP2 GT ISZERO PUSH2 0x2C1D JUMPI PUSH2 0x2C1C PUSH2 0x28DA JUMP JUMPDEST JUMPDEST PUSH2 0x2C29 DUP5 DUP3 DUP6 ADD PUSH2 0x2BBE JUMP JUMPDEST SWAP2 POP POP SWAP3 SWAP2 POP POP JUMP JUMPDEST PUSH32 0x4E487B7100000000000000000000000000000000000000000000000000000000 PUSH0 MSTORE PUSH1 0x21 PUSH1 0x4 MSTORE PUSH1 0x24 PUSH0 REVERT JUMPDEST PUSH1 0x3 DUP2 LT PUSH2 0x2C70 JUMPI PUSH2 0x2C6F PUSH2 0x2C32 JUMP JUMPDEST JUMPDEST POP JUMP JUMPDEST PUSH0 DUP2 SWAP1 POP PUSH2 0x2C80 DUP3 PUSH2 0x2C5F JUMP JUMPDEST SWAP2 SWAP1 POP JUMP JUMPDEST PUSH0 PUSH2 0x2C8F DUP3 PUSH2 0x2C73 JUMP JUMPDEST SWAP1 POP SWAP2 SWAP1 POP JUMP JUMPDEST PUSH2 0x2C9F DUP2 PUSH2 0x2C85 JUMP JUMPDEST DUP3 MSTORE POP POP JUMP JUMPDEST PUSH2 0x2CAE DUP2 PUSH2 0x28FD JUMP JUMPDEST DUP3 MSTORE POP POP JUMP JUMPDEST PUSH0 PUSH2 0x120 DUP3 ADD SWAP1 POP PUSH2 0x2CC8 PUSH0 DUP4 ADD DUP13 PUSH2 0x29A9 JUMP JUMPDEST PUSH2 0x2CD5 PUSH1 0x20 DUP4 ADD DUP12 PUSH2 0x2C96 JUMP JUMPDEST PUSH2 0x2CE2 PUSH1 0x40 DUP4 ADD DUP11 PUSH2 0x29A9 JUMP JUMPDEST PUSH2 0x2CEF PUSH1 0x60 DUP4 ADD DUP10 PUSH2 0x29A9 JUMP JUMPDEST PUSH2 0x2CFC PUSH1 0x80 DUP4 ADD DUP9 PUSH2 0x29A9 JUMP JUMPDEST PUSH2 0x2D09 PUSH1 0xA0 DUP4 ADD DUP8 PUSH2 0x29A9 JUMP JUMPDEST PUSH2 0x2D16 PUSH1 0xC0 DUP4 ADD DUP7 PUSH2 0x29A9 JUMP JUMPDEST PUSH2 0x2D23 PUSH1 0xE0 DUP4 ADD DUP6 PUSH2 0x29A9 JUMP JUMPDEST PUSH2 0x2D31 PUSH2 0x100 DUP4 ADD DUP5 PUSH2 0x2CA5 JUMP JUMPDEST SWAP11 SWAP10 POP POP POP POP POP POP POP POP POP POP JUMP JUMPDEST PUSH0 DUP2 MLOAD SWAP1 POP SWAP2 SWAP1 POP JUMP JUMPDEST PUSH0 DUP3 DUP3 MSTORE PUSH1 0x20 DUP3 ADD SWAP1 POP SWAP3 SWAP2 POP POP JUMP JUMPDEST DUP3 DUP2 DUP4 MCOPY PUSH0 DUP4 DUP4 ADD MSTORE POP POP POP JUMP JUMPDEST PUSH0 PUSH2 0x2D71 DUP3 PUSH2 0x2D3F JUMP JUMPDEST PUSH2 0x2D7B DUP2 DUP6 PUSH2 0x2D49 JUMP JUMPDEST SWAP4 POP PUSH2 0x2D8B DUP2 DUP6 PUSH1 0x20 DUP7 ADD PUSH2 0x2D59 JUMP JUMPDEST PUSH2 0x2D94 DUP2 PUSH2 0x2AB7 JUMP JUMPDEST DUP5 ADD SWAP2 POP POP SWAP3 SWAP2 POP POP JUMP JUMPDEST PUSH0 PUSH1 0x20 DUP3 ADD SWAP1 POP DUP2 DUP2 SUB PUSH0 DUP4 ADD MSTORE PUSH2 0x2DB7 DUP2 DUP5 PUSH2 0x2D67 JUMP JUMPDEST SWAP1 POP SWAP3 SWAP2 POP POP JUMP JUMPDEST PUSH0 DUP1 PUSH0 DUP1 PUSH0 PUSH1 0xA0 DUP7 DUP9 SUB SLT ISZERO PUSH2 0x2DD8 JUMPI PUSH2 0x2DD7 PUSH2 0x28D6 JUMP JUMPDEST JUMPDEST PUSH0 DUP7 ADD CALLDATALOAD PUSH8 0xFFFFFFFFFFFFFFFF DUP2 GT ISZERO PUSH2 0x2DF5 JUMPI PUSH2 0x2DF4 PUSH2 0x28DA JUMP JUMPDEST JUMPDEST PUSH2 0x2E01 DUP9 DUP3 DUP10 ADD PUSH2 0x2BBE JUMP JUMPDEST SWAP6 POP POP PUSH1 0x20 DUP7 ADD CALLDATALOAD PUSH8 0xFFFFFFFFFFFFFFFF DUP2 GT ISZERO PUSH2 0x2E22 JUMPI PUSH2 0x2E21 PUSH2 0x28DA JUMP JUMPDEST JUMPDEST PUSH2 0x2E2E DUP9 DUP3 DUP10 ADD PUSH2 0x2BBE JUMP JUMPDEST SWAP5 POP POP PUSH1 0x40 PUSH2 0x2E3F DUP9 DUP3 DUP10 ADD PUSH2 0x2957 JUMP JUMPDEST SWAP4 POP POP PUSH1 0x60 PUSH2 0x2E50 DUP9 DUP3 DUP10 ADD PUSH2 0x2957 JUMP JUMPDEST SWAP3 POP POP PUSH1 0x80 PUSH2 0x2E61 DUP9 DUP3 DUP10 ADD PUSH2 0x2957 JUMP JUMPDEST SWAP2 POP POP SWAP3 SWAP6 POP SWAP3 SWAP6 SWAP1 SWAP4 POP JUMP JUMPDEST PUSH0 PUSH8 0xFFFFFFFFFFFFFFFF DUP3 GT ISZERO PUSH2 0x2E88 JUMPI PUSH2 0x2E87 PUSH2 0x2AC7 JUMP JUMPDEST JUMPDEST PUSH1 0x20 DUP3 MUL SWAP1 POP PUSH1 0x20 DUP2 ADD SWAP1 POP SWAP2 SWAP1 POP JUMP JUMPDEST PUSH0 DUP1 REVERT JUMPDEST PUSH0 PUSH2 0x2EAF PUSH2 0x2EAA DUP5 PUSH2 0x2E6E JUMP JUMPDEST PUSH2 0x2B25 JUMP JUMPDEST SWAP1 POP DUP1 DUP4 DUP3 MSTORE PUSH1 0x20 DUP3 ADD SWAP1 POP PUSH1 0x20 DUP5 MUL DUP4 ADD DUP6 DUP2 GT ISZERO PUSH2 0x2ED2 JUMPI PUSH2 0x2ED1 PUSH2 0x2E99 JUMP JUMPDEST JUMPDEST DUP4 JUMPDEST DUP2 DUP2 LT ISZERO PUSH2 0x2EFB JUMPI DUP1 PUSH2 0x2EE7 DUP9 DUP3 PUSH2 0x2957 JUMP JUMPDEST DUP5 MSTORE PUSH1 0x20 DUP5 ADD SWAP4 POP POP PUSH1 0x20 DUP2 ADD SWAP1 POP PUSH2 0x2ED4 JUMP JUMPDEST POP POP POP SWAP4 SWAP3 POP POP POP JUMP JUMPDEST PUSH0 DUP3 PUSH1 0x1F DUP4 ADD SLT PUSH2 0x2F19 JUMPI PUSH2 0x2F18 PUSH2 0x2AAF JUMP JUMPDEST JUMPDEST DUP2 CALLDATALOAD PUSH2 0x2F29 DUP5 DUP3 PUSH1 0x20 DUP7 ADD PUSH2 0x2E9D JUMP JUMPDEST SWAP2 POP POP SWAP3 SWAP2 POP POP JUMP JUMPDEST PUSH0 PUSH8 0xFFFFFFFFFFFFFFFF DUP3 GT ISZERO PUSH2 0x2F4C JUMPI PUSH2 0x2F4B PUSH2 0x2AC7 JUMP JUMPDEST JUMPDEST PUSH2 0x2F55 DUP3 PUSH2 0x2AB7 JUMP JUMPDEST SWAP1 POP PUSH1 0x20 DUP2 ADD SWAP1 POP SWAP2 SWAP1 POP JUMP JUMPDEST PUSH0 PUSH2 0x2F74 PUSH2 0x2F6F DUP5 PUSH2 0x2F32 JUMP JUMPDEST PUSH2 0x2B25 JUMP JUMPDEST SWAP1 POP DUP3 DUP2 MSTORE PUSH1 0x20 DUP2 ADD DUP5 DUP5 DUP5 ADD GT ISZERO PUSH2 0x2F90 JUMPI PUSH2 0x2F8F PUSH2 0x2AB3 JUMP JUMPDEST JUMPDEST PUSH2 0x2F9B DUP5 DUP3 DUP6 PUSH2 0x2B6F JUMP JUMPDEST POP SWAP4 SWAP3 POP POP POP JUMP JUMPDEST PUSH0 DUP3 PUSH1 0x1F DUP4 ADD SLT PUSH2 0x2FB7 JUMPI PUSH2 0x2FB6 PUSH2 0x2AAF JUMP JUMPDEST JUMPDEST DUP2 CALLDATALOAD PUSH2 0x2FC7 DUP5 DUP3 PUSH1 0x20 DUP7 ADD PUSH2 0x2F62 JUMP JUMPDEST SWAP2 POP POP SWAP3 SWAP2 POP POP JUMP JUMPDEST PUSH0 DUP1 PUSH0 DUP1 PUSH0 PUSH1 0xA0 DUP7 DUP9 SUB SLT ISZERO PUSH2 0x2FE9 JUMPI PUSH2 0x2FE8 PUSH2 0x28D6 JUMP JUMPDEST JUMPDEST PUSH0 PUSH2 0x2FF6 DUP9 DUP3 DUP10 ADD PUSH2 0x2924 JUMP JUMPDEST SWAP6 POP POP PUSH1 0x20 PUSH2 0x3007 DUP9 DUP3 DUP10 ADD PUSH2 0x2924 JUMP JUMPDEST SWAP5 POP POP PUSH1 0x40 DUP7 ADD CALLDATALOAD PUSH8 0xFFFFFFFFFFFFFFFF DUP2 GT ISZERO PUSH2 0x3028 JUMPI PUSH2 0x3027 PUSH2 0x28DA JUMP JUMPDEST JUMPDEST PUSH2 0x3034 DUP9 DUP3 DUP10 ADD PUSH2 0x2F05 JUMP JUMPDEST SWAP4 POP POP PUSH1 0x60 DUP7 ADD CALLDATALOAD PUSH8 0xFFFFFFFFFFFFFFFF DUP2 GT ISZERO PUSH2 0x3055 JUMPI PUSH2 0x3054 PUSH2 0x28DA JUMP JUMPDEST JUMPDEST PUSH2 0x3061 DUP9 DUP3 DUP10 ADD PUSH2 0x2F05 JUMP JUMPDEST SWAP3 POP POP PUSH1 0x80 DUP7 ADD CALLDATALOAD PUSH8 0xFFFFFFFFFFFFFFFF DUP2 GT ISZERO PUSH2 0x3082 JUMPI PUSH2 0x3081 PUSH2 0x28DA JUMP JUMPDEST JUMPDEST PUSH2 0x308E DUP9 DUP3 DUP10 ADD PUSH2 0x2FA3 JUMP JUMPDEST SWAP2 POP POP SWAP3 SWAP6 POP SWAP3 SWAP6 SWAP1 SWAP4 POP JUMP JUMPDEST PUSH0 PUSH8 0xFFFFFFFFFFFFFFFF DUP3 GT ISZERO PUSH2 0x30B5 JUMPI PUSH2 0x30B4 PUSH2 0x2AC7 JUMP JUMPDEST JUMPDEST PUSH1 0x20 DUP3 MUL SWAP1 POP PUSH1 0x20 DUP2 ADD SWAP1 POP SWAP2 SWAP1 POP JUMP JUMPDEST PUSH0 PUSH2 0x30D8 PUSH2 0x30D3 DUP5 PUSH2 0x309B JUMP JUMPDEST PUSH2 0x2B25 JUMP JUMPDEST SWAP1 POP DUP1 DUP4 DUP3 MSTORE PUSH1 0x20 DUP3 ADD SWAP1 POP PUSH1 0x20 DUP5 MUL DUP4 ADD DUP6 DUP2 GT ISZERO PUSH2 0x30FB JUMPI PUSH2 0x30FA PUSH2 0x2E99 JUMP JUMPDEST JUMPDEST DUP4 JUMPDEST DUP2 DUP2 LT ISZERO PUSH2 0x3124 JUMPI DUP1 PUSH2 0x3110 DUP9 DUP3 PUSH2 0x2924 JUMP JUMPDEST DUP5 MSTORE PUSH1 0x20 DUP5 ADD SWAP4 POP POP PUSH1 0x20 DUP2 ADD SWAP1 POP PUSH2 0x30FD JUMP JUMPDEST POP POP POP SWAP4 SWAP3 POP POP POP JUMP JUMPDEST PUSH0 DUP3 PUSH1 0x1F DUP4 ADD SLT PUSH2 0x3142 JUMPI PUSH2 0x3141 PUSH2 0x2AAF JUMP JUMPDEST JUMPDEST DUP2 CALLDATALOAD PUSH2 0x3152 DUP5 DUP3 PUSH1 0x20 DUP7 ADD PUSH2 0x30C6 JUMP JUMPDEST SWAP2 POP POP SWAP3 SWAP2 POP POP JUMP JUMPDEST PUSH0 DUP1 PUSH1 0x40 DUP4 DUP6 SUB SLT ISZERO PUSH2 0x3171 JUMPI PUSH2 0x3170 PUSH2 0x28D6 JUMP JUMPDEST JUMPDEST PUSH0 DUP4 ADD CALLDATALOAD PUSH8 0xFFFFFFFFFFFFFFFF DUP2 GT ISZERO PUSH2 0x318E JUMPI PUSH2 0x318D PUSH2 0x28DA JUMP JUMPDEST JUMPDEST PUSH2 0x319A DUP6 DUP3 DUP7 ADD PUSH2 0x312E JUMP JUMPDEST SWAP3 POP POP PUSH1 0x20 DUP4 ADD CALLDATALOAD PUSH8 0xFFFFFFFFFFFFFFFF DUP2 GT ISZERO PUSH2 0x31BB JUMPI PUSH2 0x31BA PUSH2 0x28DA JUMP JUMPDEST JUMPDEST PUSH2 0x31C7 DUP6 DUP3 DUP7 ADD PUSH2 0x2F05 JUMP JUMPDEST SWAP2 POP POP SWAP3 POP SWAP3 SWAP1 POP JUMP JUMPDEST PUSH0 DUP2 MLOAD SWAP1 POP SWAP2 SWAP1 POP JUMP JUMPDEST PUSH0 DUP3 DUP3 MSTORE PUSH1 0x20 DUP3 ADD SWAP1 POP SWAP3 SWAP2 POP POP JUMP JUMPDEST PUSH0 DUP2 SWAP1 POP PUSH1 0x20 DUP3 ADD SWAP1 POP SWAP2 SWAP1 POP JUMP JUMPDEST PUSH2 0x3203 DUP2 PUSH2 0x2938 JUMP JUMPDEST DUP3 MSTORE POP POP JUMP JUMPDEST PUSH0 PUSH2 0x3214 DUP4 DUP4 PUSH2 0x31FA JUMP JUMPDEST PUSH1 0x20 DUP4 ADD SWAP1 POP SWAP3 SWAP2 POP POP JUMP JUMPDEST PUSH0 PUSH1 0x20 DUP3 ADD SWAP1 POP SWAP2 SWAP1 POP JUMP JUMPDEST PUSH0 PUSH2 0x3236 DUP3 PUSH2 0x31D1 JUMP JUMPDEST PUSH2 0x3240 DUP2 DUP6 PUSH2 0x31DB JUMP JUMPDEST SWAP4 POP PUSH2 0x324B DUP4 PUSH2 0x31EB JUMP JUMPDEST DUP1 PUSH0 JUMPDEST DUP4 DUP2 LT ISZERO PUSH2 0x327B JUMPI DUP2 MLOAD PUSH2 0x3262 DUP9 DUP3 PUSH2 0x3209 JUMP JUMPDEST SWAP8 POP PUSH2 0x326D DUP4 PUSH2 0x3220 JUMP JUMPDEST SWAP3 POP POP PUSH1 0x1 DUP2 ADD SWAP1 POP PUSH2 0x324E JUMP JUMPDEST POP DUP6 SWAP4 POP POP POP POP SWAP3 SWAP2 POP POP JUMP JUMPDEST PUSH0 PUSH1 0x20 DUP3 ADD SWAP1 POP DUP2 DUP2 SUB PUSH0 DUP4 ADD MSTORE PUSH2 0x32A0 DUP2 DUP5 PUSH2 0x322C JUMP JUMPDEST SWAP1 POP SWAP3 SWAP2 POP POP JUMP JUMPDEST PUSH0 PUSH1 0x20 DUP3 ADD SWAP1 POP PUSH2 0x32BB PUSH0 DUP4 ADD DUP5 PUSH2 0x2CA5 JUMP JUMPDEST SWAP3 SWAP2 POP POP JUMP JUMPDEST PUSH0 DUP1 PUSH0 PUSH1 0x60 DUP5 DUP7 SUB SLT ISZERO PUSH2 0x32D8 JUMPI PUSH2 0x32D7 PUSH2 0x28D6 JUMP JUMPDEST JUMPDEST PUSH0 PUSH2 0x32E5 DUP7 DUP3 DUP8 ADD PUSH2 0x2924 JUMP JUMPDEST SWAP4 POP POP PUSH1 0x20 DUP5 ADD CALLDATALOAD PUSH8 0xFFFFFFFFFFFFFFFF DUP2 GT ISZERO PUSH2 0x3306 JUMPI PUSH2 0x3305 PUSH2 0x28DA JUMP JUMPDEST JUMPDEST PUSH2 0x3312 DUP7 DUP3 DUP8 ADD PUSH2 0x2F05 JUMP JUMPDEST SWAP3 POP POP PUSH1 0x40 DUP5 ADD CALLDATALOAD PUSH8 0xFFFFFFFFFFFFFFFF DUP2 GT ISZERO PUSH2 0x3333 JUMPI PUSH2 0x3332 PUSH2 0x28DA JUMP JUMPDEST JUMPDEST PUSH2 0x333F DUP7 DUP3 DUP8 ADD PUSH2 0x2F05 JUMP JUMPDEST SWAP2 POP POP SWAP3 POP SWAP3 POP SWAP3 JUMP JUMPDEST PUSH0 DUP1 PUSH1 0x40 DUP4 DUP6 SUB SLT ISZERO PUSH2 0x335F JUMPI PUSH2 0x335E PUSH2 0x28D6 JUMP JUMPDEST JUMPDEST PUSH0 PUSH2 0x336C DUP6 DUP3 DUP7 ADD PUSH2 0x2957 JUMP JUMPDEST SWAP3 POP POP PUSH1 0x20 PUSH2 0x337D DUP6 DUP3 DUP7 ADD PUSH2 0x2957 JUMP JUMPDEST SWAP2 POP POP SWAP3 POP SWAP3 SWAP1 POP JUMP JUMPDEST PUSH2 0x3390 DUP2 PUSH2 0x2A7C JUMP JUMPDEST DUP2 EQ PUSH2 0x339A JUMPI PUSH0 DUP1 REVERT JUMPDEST POP JUMP JUMPDEST PUSH0 DUP2 CALLDATALOAD SWAP1 POP PUSH2 0x33AB DUP2 PUSH2 0x3387 JUMP JUMPDEST SWAP3 SWAP2 POP POP JUMP JUMPDEST PUSH0 DUP1 PUSH1 0x40 DUP4 DUP6 SUB SLT ISZERO PUSH2 0x33C7 JUMPI PUSH2 0x33C6 PUSH2 0x28D6 JUMP JUMPDEST JUMPDEST PUSH0 PUSH2 0x33D4 DUP6 DUP3 DUP7 ADD PUSH2 0x2924 JUMP JUMPDEST SWAP3 POP POP PUSH1 0x20 PUSH2 0x33E5 DUP6 DUP3 DUP7 ADD PUSH2 0x339D JUMP JUMPDEST SWAP2 POP POP SWAP3 POP SWAP3 SWAP1 POP JUMP JUMPDEST PUSH0 DUP1 PUSH1 0x40 DUP4 DUP6 SUB SLT ISZERO PUSH2 0x3405 JUMPI PUSH2 0x3404 PUSH2 0x28D6 JUMP JUMPDEST JUMPDEST PUSH0 PUSH2 0x3412 DUP6 DUP3 DUP7 ADD PUSH2 0x2924 JUMP JUMPDEST SWAP3 POP POP PUSH1 0x20 PUSH2 0x3423 DUP6 DUP3 DUP7 ADD PUSH2 0x2924 JUMP JUMPDEST SWAP2 POP POP SWAP3 POP SWAP3 SWAP1 POP JUMP JUMPDEST PUSH0 DUP1 PUSH0 DUP1 PUSH0 PUSH1 0xA0 DUP7 DUP9 SUB SLT ISZERO PUSH2 0x3446 JUMPI PUSH2 0x3445 PUSH2 0x28D6 JUMP JUMPDEST JUMPDEST PUSH0 PUSH2 0x3453 DUP9 DUP3 DUP10 ADD PUSH2 0x2924 JUMP JUMPDEST SWAP6 POP POP PUSH1 0x20 PUSH2 0x3464 DUP9 DUP3 DUP10 ADD PUSH2 0x2924 JUMP JUMPDEST SWAP5 POP POP PUSH1 0x40 PUSH2 0x3475 DUP9 DUP3 DUP10 ADD PUSH2 0x2957 JUMP JUMPDEST SWAP4 POP POP PUSH1 0x60 PUSH2 0x3486 DUP9 DUP3 DUP10 ADD PUSH2 0x2957 JUMP JUMPDEST SWAP3 POP POP PUSH1 0x80 DUP7 ADD CALLDATALOAD PUSH8 0xFFFFFFFFFFFFFFFF DUP2 GT ISZERO PUSH2 0x34A7 JUMPI PUSH2 0x34A6 PUSH2 0x28DA JUMP JUMPDEST JUMPDEST PUSH2 0x34B3 DUP9 DUP3 DUP10 ADD PUSH2 0x2FA3 JUMP JUMPDEST SWAP2 POP POP SWAP3 SWAP6 POP SWAP3 SWAP6 SWAP1 SWAP4 POP JUMP JUMPDEST PUSH0 PUSH1 0x20 DUP3 DUP5 SUB SLT ISZERO PUSH2 0x34D5 JUMPI PUSH2 0x34D4 PUSH2 0x28D6 JUMP JUMPDEST JUMPDEST PUSH0 PUSH2 0x34E2 DUP5 DUP3 DUP6 ADD PUSH2 0x2924 JUMP JUMPDEST SWAP2 POP POP SWAP3 SWAP2 POP POP JUMP JUMPDEST PUSH0 DUP1 PUSH0 PUSH1 0x60 DUP5 DUP7 SUB SLT ISZERO PUSH2 0x3502 JUMPI PUSH2 0x3501 PUSH2 0x28D6 JUMP JUMPDEST JUMPDEST PUSH0 PUSH2 0x350F DUP7 DUP3 DUP8 ADD PUSH2 0x2924 JUMP JUMPDEST SWAP4 POP POP PUSH1 0x20 PUSH2 0x3520 DUP7 DUP3 DUP8 ADD PUSH2 0x2957 JUMP JUMPDEST SWAP3 POP POP PUSH1 0x40 PUSH2 0x3531 DUP7 DUP3 DUP8 ADD PUSH2 0x2957 JUMP JUMPDEST SWAP2 POP POP SWAP3 POP SWAP3 POP SWAP3 JUMP JUMPDEST PUSH32 0x4E487B7100000000000000000000000000000000000000000000000000000000 PUSH0 MSTORE PUSH1 0x11 PUSH1 0x4 MSTORE PUSH1 0x24 PUSH0 REVERT JUMPDEST PUSH0 PUSH2 0x3572 DUP3 PUSH2 0x2938 JUMP JUMPDEST SWAP2 POP PUSH2 0x357D DUP4 PUSH2 0x2938 JUMP JUMPDEST SWAP3 POP DUP3 DUP3 MUL PUSH2 0x358B DUP2 PUSH2 0x2938 JUMP JUMPDEST SWAP2 POP DUP3 DUP3 DIV DUP5 EQ DUP4 ISZERO OR PUSH2 0x35A2 JUMPI PUSH2 0x35A1 PUSH2 0x353B JUMP JUMPDEST JUMPDEST POP SWAP3 SWAP2 POP POP JUMP JUMPDEST PUSH0 DUP2 SWAP1 POP SWAP3 SWAP2 POP POP JUMP JUMPDEST POP JUMP JUMPDEST PUSH0 PUSH2 0x35C1 PUSH0 DUP4 PUSH2 0x35A9 JUMP JUMPDEST SWAP2 POP PUSH2 0x35CC DUP3 PUSH2 0x35B3 JUMP JUMPDEST PUSH0 DUP3 ADD SWAP1 POP SWAP2 SWAP1 POP JUMP JUMPDEST PUSH0 PUSH2 0x35E0 DUP3 PUSH2 0x35B6 JUMP JUMPDEST SWAP2 POP DUP2 SWAP1 POP SWAP2 SWAP1 POP JUMP JUMPDEST PUSH32 0x4E487B7100000000000000000000000000000000000000000000000000000000 PUSH0 MSTORE PUSH1 0x22 PUSH1 0x4 MSTORE PUSH1 0x24 PUSH0 REVERT JUMPDEST PUSH0 PUSH1 0x2 DUP3 DIV SWAP1 POP PUSH1 0x1 DUP3 AND DUP1 PUSH2 0x362E JUMPI PUSH1 0x7F DUP3 AND SWAP2 POP JUMPDEST PUSH1 0x20 DUP3 LT DUP2 SUB PUSH2 0x3641 JUMPI PUSH2 0x3640 PUSH2 0x35EA JUMP JUMPDEST JUMPDEST POP SWAP2 SWAP1 POP JUMP JUMPDEST PUSH0 DUP2 SWAP1 POP SWAP3 SWAP2 POP POP JUMP JUMPDEST PUSH0 PUSH2 0x365B DUP3 PUSH2 0x2D3F JUMP JUMPDEST PUSH2 0x3665 DUP2 DUP6 PUSH2 0x3647 JUMP JUMPDEST SWAP4 POP PUSH2 0x3675 DUP2 DUP6 PUSH1 0x20 DUP7 ADD PUSH2 0x2D59 JUMP JUMPDEST DUP1 DUP5 ADD SWAP2 POP POP SWAP3 SWAP2 POP POP JUMP JUMPDEST PUSH0 PUSH2 0x368C DUP3 DUP5 PUSH2 0x3651 JUMP JUMPDEST SWAP2 POP DUP2 SWAP1 POP SWAP3 SWAP2 POP POP JUMP JUMPDEST PUSH0 PUSH2 0x36A1 DUP3 PUSH2 0x2938 JUMP JUMPDEST SWAP2 POP PUSH32 0xFFFFFFFFFFFFFFFFFFFFFFFFFFFFFFFFFFFFFFFFFFFFFFFFFFFFFFFFFFFFFFFF DUP3 SUB PUSH2 0x36D3 JUMPI PUSH2 0x36D2 PUSH2 0x353B JUMP JUMPDEST JUMPDEST PUSH1 0x1 DUP3 ADD SWAP1 POP SWAP2 SWAP1 POP JUMP JUMPDEST PUSH32 0x4E487B7100000000000000000000000000000000000000000000000000000000 PUSH0 MSTORE PUSH1 0x12 PUSH1 0x4 MSTORE PUSH1 0x24 PUSH0 REVERT JUMPDEST PUSH0 PUSH2 0x3715 DUP3 PUSH2 0x2938 JUMP JUMPDEST SWAP2 POP PUSH2 0x3720 DUP4 PUSH2 0x2938 JUMP JUMPDEST SWAP3 POP DUP3 PUSH2 0x3730 JUMPI PUSH2 0x372F PUSH2 0x36DE JUMP JUMPDEST JUMPDEST DUP3 DUP3 DIV SWAP1 POP SWAP3 SWAP2 POP POP JUMP JUMPDEST PUSH0 DUP2 SWAP1 POP DUP2 PUSH0 MSTORE PUSH1 0x20 PUSH0 KECCAK256 SWAP1 POP SWAP2 SWAP1 POP JUMP JUMPDEST PUSH0 PUSH1 0x20 PUSH1 0x1F DUP4 ADD DIV SWAP1 POP SWAP2 SWAP1 POP JUMP JUMPDEST PUSH0 DUP3 DUP3 SHL SWAP1 POP SWAP3 SWAP2 POP POP JUMP JUMPDEST PUSH0 PUSH1 0x8 DUP4 MUL PUSH2 0x3797 PUSH32 0xFFFFFFFFFFFFFFFFFFFFFFFFFFFFFFFFFFFFFFFFFFFFFFFFFFFFFFFFFFFFFFFF DUP3 PUSH2 0x375C JUMP JUMPDEST PUSH2 0x37A1 DUP7 DUP4 PUSH2 0x375C JUMP JUMPDEST SWAP6 POP DUP1 NOT DUP5 AND SWAP4 POP DUP1 DUP7 AND DUP5 OR SWAP3 POP POP POP SWAP4 SWAP3 POP POP POP JUMP JUMPDEST PUSH0 DUP2 SWAP1 POP SWAP2 SWAP1 POP JUMP JUMPDEST PUSH0 PUSH2 0x37DC PUSH2 0x37D7 PUSH2 0x37D2 DUP5 PUSH2 0x2938 JUMP JUMPDEST PUSH2 0x37B9 JUMP JUMPDEST PUSH2 0x2938 JUMP JUMPDEST SWAP1 POP SWAP2 SWAP1 POP JUMP JUMPDEST PUSH0 DUP2 SWAP1 POP SWAP2 SWAP1 POP JUMP JUMPDEST PUSH2 0x37F5 DUP4 PUSH2 0x37C2 JUMP JUMPDEST PUSH2 0x3809 PUSH2 0x3801 DUP3 PUSH2 0x37E3 JUMP JUMPDEST DUP5 DUP5 SLOAD PUSH2 0x3768 JUMP JUMPDEST DUP3 SSTORE POP POP POP POP JUMP JUMPDEST PUSH0 SWAP1 JUMP JUMPDEST PUSH2 0x381D PUSH2 0x3811 JUMP JUMPDEST PUSH2 0x3828 DUP2 DUP5 DUP5 PUSH2 0x37EC JUMP JUMPDEST POP POP POP JUMP JUMPDEST JUMPDEST DUP2 DUP2 LT ISZERO PUSH2 0x384B JUMPI PUSH2 0x3840 PUSH0 DUP3 PUSH2 0x3815 JUMP JUMPDEST PUSH1 0x1 DUP2 ADD SWAP1 POP PUSH2 0x382E JUMP JUMPDEST POP POP JUMP JUMPDEST PUSH1 0x1F DUP3 GT ISZERO PUSH2 0x3890 JUMPI PUSH2 0x3861 DUP2 PUSH2 0x373B JUMP JUMPDEST PUSH2 0x386A DUP5 PUSH2 0x374D JUMP JUMPDEST DUP2 ADD PUSH1 0x20 DUP6 LT ISZERO PUSH2 0x3879 JUMPI DUP2 SWAP1 POP JUMPDEST PUSH2 0x388D PUSH2 0x3885 DUP6 PUSH2 0x374D JUMP JUMPDEST DUP4 ADD DUP3 PUSH2 0x382D JUMP JUMPDEST POP POP JUMPDEST POP POP POP JUMP JUMPDEST PUSH0 DUP3 DUP3 SHR SWAP1 POP SWAP3 SWAP2 POP POP JUMP JUMPDEST PUSH0 PUSH2 0x38B0 PUSH0 NOT DUP5 PUSH1 0x8 MUL PUSH2 0x3895 JUMP JUMPDEST NOT DUP1 DUP4 AND SWAP2 POP POP SWAP3 SWAP2 POP POP JUMP JUMPDEST PUSH0 PUSH2 0x38C8 DUP4 DUP4 PUSH2 0x38A1 JUMP JUMPDEST SWAP2 POP DUP3 PUSH1 0x2 MUL DUP3 OR SWAP1 POP SWAP3 SWAP2 POP POP JUMP JUMPDEST PUSH2 0x38E1 DUP3 PUSH2 0x2D3F JUMP JUMPDEST PUSH8 0xFFFFFFFFFFFFFFFF DUP2 GT ISZERO PUSH2 0x38FA JUMPI PUSH2 0x38F9 PUSH2 0x2AC7 JUMP JUMPDEST JUMPDEST PUSH2 0x3904 DUP3 SLOAD PUSH2 0x3617 JUMP JUMPDEST PUSH2 0x390F DUP3 DUP3 DUP6 PUSH2 0x384F JUMP JUMPDEST PUSH0 PUSH1 0x20 SWAP1 POP PUSH1 0x1F DUP4 GT PUSH1 0x1 DUP2 EQ PUSH2 0x3940 JUMPI PUSH0 DUP5 ISZERO PUSH2 0x392E JUMPI DUP3 DUP8 ADD MLOAD SWAP1 POP JUMPDEST PUSH2 0x3938 DUP6 DUP3 PUSH2 0x38BD JUMP JUMPDEST DUP7 SSTORE POP PUSH2 0x399F JUMP JUMPDEST PUSH1 0x1F NOT DUP5 AND PUSH2 0x394E DUP7 PUSH2 0x373B JUMP JUMPDEST PUSH0 JUMPDEST DUP3 DUP2 LT ISZERO PUSH2 0x3975 JUMPI DUP5 DUP10 ADD MLOAD DUP3 SSTORE PUSH1 0x1 DUP3 ADD SWAP2 POP PUSH1 0x20 DUP6 ADD SWAP5 POP PUSH1 0x20 DUP2 ADD SWAP1 POP PUSH2 0x3950 JUMP JUMPDEST DUP7 DUP4 LT ISZERO PUSH2 0x3992 JUMPI DUP5 DUP10 ADD MLOAD PUSH2 0x398E PUSH1 0x1F DUP10 AND DUP3 PUSH2 0x38A1 JUMP JUMPDEST DUP4 SSTORE POP JUMPDEST PUSH1 0x1 PUSH1 0x2 DUP9 MUL ADD DUP9 SSTORE POP POP POP JUMPDEST POP POP POP POP POP POP JUMP JUMPDEST PUSH0 PUSH1 0x40 DUP3 ADD SWAP1 POP PUSH2 0x39BA PUSH0 DUP4 ADD DUP6 PUSH2 0x2CA5 JUMP JUMPDEST PUSH2 0x39C7 PUSH1 0x20 DUP4 ADD DUP5 PUSH2 0x2CA5 JUMP JUMPDEST SWAP4 SWAP3 POP POP POP JUMP JUMPDEST PUSH0 PUSH1 0x40 DUP3 ADD SWAP1 POP PUSH2 0x39E1 PUSH0 DUP4 ADD DUP6 PUSH2 0x29A9 JUMP JUMPDEST PUSH2 0x39EE PUSH1 0x20 DUP4 ADD DUP5 PUSH2 0x29A9 JUMP JUMPDEST SWAP4 SWAP3 POP POP POP JUMP JUMPDEST PUSH32 0x4E487B7100000000000000000000000000000000000000000000000000000000 PUSH0 MSTORE PUSH1 0x32 PUSH1 0x4 MSTORE PUSH1 0x24 PUSH0 REVERT JUMPDEST PUSH0 PUSH2 0x3A2C DUP3 PUSH2 0x2938 JUMP JUMPDEST SWAP2 POP PUSH2 0x3A37 DUP4 PUSH2 0x2938 JUMP JUMPDEST SWAP3 POP DUP3 DUP3 ADD SWAP1 POP DUP1 DUP3 GT ISZERO PUSH2 0x3A4F JUMPI PUSH2 0x3A4E PUSH2 0x353B JUMP JUMPDEST JUMPDEST SWAP3 SWAP2 POP POP JUMP JUMPDEST PUSH0 PUSH2 0x3A5F DUP3 PUSH2 0x2938 JUMP JUMPDEST SWAP2 POP PUSH2 0x3A6A DUP4 PUSH2 0x2938 JUMP JUMPDEST SWAP3 POP DUP3 DUP3 SUB SWAP1 POP DUP2 DUP2 GT ISZERO PUSH2 0x3A82 JUMPI PUSH2 0x3A81 PUSH2 0x353B JUMP JUMPDEST JUMPDEST SWAP3 SWAP2 POP POP JUMP JUMPDEST PUSH0 DUP2 MLOAD SWAP1 POP SWAP2 SWAP1 POP JUMP JUMPDEST PUSH0 DUP3 DUP3 MSTORE PUSH1 0x20 DUP3 ADD SWAP1 POP SWAP3 SWAP2 POP POP JUMP JUMPDEST PUSH0 PUSH2 0x3AAC DUP3 PUSH2 0x3A88 JUMP JUMPDEST PUSH2 0x3AB6 DUP2 DUP6 PUSH2 0x3A92 JUMP JUMPDEST SWAP4 POP PUSH2 0x3AC6 DUP2 DUP6 PUSH1 0x20 DUP7 ADD PUSH2 0x2D59 JUMP JUMPDEST PUSH2 0x3ACF DUP2 PUSH2 0x2AB7 JUMP JUMPDEST DUP5 ADD SWAP2 POP POP SWAP3 SWAP2 POP POP JUMP JUMPDEST PUSH0 PUSH1 0xA0 DUP3 ADD SWAP1 POP PUSH2 0x3AED PUSH0 DUP4 ADD DUP9 PUSH2 0x2CA5 JUMP JUMPDEST PUSH2 0x3AFA PUSH1 0x20 DUP4 ADD DUP8 PUSH2 0x2CA5 JUMP JUMPDEST PUSH2 0x3B07 PUSH1 0x40 DUP4 ADD DUP7 PUSH2 0x29A9 JUMP JUMPDEST PUSH2 0x3B14 PUSH1 0x60 DUP4 ADD DUP6 PUSH2 0x29A9 JUMP JUMPDEST DUP2 DUP2 SUB PUSH1 0x80 DUP4 ADD MSTORE PUSH2 0x3B26 DUP2 DUP5 PUSH2 0x3AA2 JUMP JUMPDEST SWAP1 POP SWAP7 SWAP6 POP POP POP POP POP POP JUMP JUMPDEST PUSH0 DUP2 MLOAD SWAP1 POP PUSH2 0x3B40 DUP2 PUSH2 0x2A27 JUMP JUMPDEST SWAP3 SWAP2 POP POP JUMP JUMPDEST PUSH0 PUSH1 0x20 DUP3 DUP5 SUB SLT ISZERO PUSH2 0x3B5B JUMPI PUSH2 0x3B5A PUSH2 0x28D6 JUMP JUMPDEST JUMPDEST PUSH0 PUSH2 0x3B68 DUP5 DUP3 DUP6 ADD PUSH2 0x3B32 JUMP JUMPDEST SWAP2 POP POP SWAP3 SWAP2 POP POP JUMP JUMPDEST PUSH0 PUSH1 0xA0 DUP3 ADD SWAP1 POP PUSH2 0x3B84 PUSH0 DUP4 ADD DUP9 PUSH2 0x2CA5 JUMP JUMPDEST PUSH2 0x3B91 PUSH1 0x20 DUP4 ADD DUP8 PUSH2 0x2CA5 JUMP JUMPDEST DUP2 DUP2 SUB PUSH1 0x40 DUP4 ADD MSTORE PUSH2 0x3BA3 DUP2 DUP7 PUSH2 0x322C JUMP JUMPDEST SWAP1 POP DUP2 DUP2 SUB PUSH1 0x60 DUP4 ADD MSTORE PUSH2 0x3BB7 DUP2 DUP6 PUSH2 0x322C JUMP JUMPDEST SWAP1 POP DUP2 DUP2 SUB PUSH1 0x80 DUP4 ADD MSTORE PUSH2 0x3BCB DUP2 DUP5 PUSH2 0x3AA2 JUMP JUMPDEST SWAP1 POP SWAP7 SWAP6 POP POP POP POP POP POP JUMP JUMPDEST PUSH0 PUSH1 0x80 DUP3 ADD SWAP1 POP PUSH2 0x3BEA PUSH0 DUP4 ADD DUP8 PUSH2 0x2CA5 JUMP JUMPDEST PUSH2 0x3BF7 PUSH1 0x20 DUP4 ADD DUP7 PUSH2 0x29A9 JUMP JUMPDEST PUSH2 0x3C04 PUSH1 0x40 DUP4 ADD DUP6 PUSH2 0x29A9 JUMP JUMPDEST PUSH2 0x3C11 PUSH1 0x60 DUP4 ADD DUP5 PUSH2 0x29A9 JUMP JUMPDEST SWAP6 SWAP5 POP POP POP POP POP JUMP JUMPDEST PUSH0 PUSH1 0x40 DUP3 ADD SWAP1 POP DUP2 DUP2 SUB PUSH0 DUP4 ADD MSTORE PUSH2 0x3C32 DUP2 DUP6 PUSH2 0x322C JUMP JUMPDEST SWAP1 POP DUP2 DUP2 SUB PUSH1 0x20 DUP4 ADD MSTORE PUSH2 0x3C46 DUP2 DUP5 PUSH2 0x322C JUMP JUMPDEST SWAP1 POP SWAP4 SWAP3 POP POP POP JUMP INVALID LOG2 PUSH5 0x6970667358 0x22 SLT KECCAK256 DELEGATECALL 0xDD DUP9 0xAD ISZERO MSTORE8 0xC0 PUSH25 0xCC14202FB473DE2DD80C8392670756EB0A079F1EC381F5B664 PUSH20 0x6F6C634300081900330000000000000000000000 "
		},
		"gasEstimates": {
			"creation": {
				"codeDepositCost": "3098600",
				"executionCost": "infinite",
				"totalCost": "infinite"
			},
			"external": {
				"authenticateUser(string)": "infinite",
				"authenticatedResearchers(string)": "infinite",
				"balanceOf(address,uint256)": "infinite",
				"balanceOfBatch(address[],uint256[])": "infinite",
				"burn(address,uint256,uint256)": "infinite",
				"burnBatch(address,uint256[],uint256[])": "infinite",
				"createResearch(string,string,uint256,uint256,uint256)": "infinite",
				"fundResearch(uint256,uint256)": "infinite",
				"isApprovedForAll(address,address)": "infinite",
				"owner()": "2648",
				"pause()": "infinite",
				"paused()": "2635",
				"readArticle(uint256)": "infinite",
				"redeemToken(uint256)": "infinite",
				"renounceOwnership()": "infinite",
				"researchById(uint256)": "infinite",
				"researchOwner(uint256)": "2916",
				"researchRequest(address,uint256)": "infinite",
				"safeBatchTransferFrom(address,address,uint256[],uint256[],bytes)": "infinite",
				"safeTransferFrom(address,address,uint256,uint256,bytes)": "infinite",
				"setApprovalForAll(address,bool)": "infinite",
				"setURI(string)": "infinite",
				"supportsInterface(bytes4)": "831",
				"transferOwnership(address)": "infinite",
				"unpause()": "infinite",
				"uri(uint256)": "infinite"
			},
			"internal": {
				"_update(address,address,uint256[] memory,uint256[] memory)": "infinite",
				"mint(address,uint256,uint256,bytes memory)": "infinite",
				"mintBatch(address,uint256[] memory,uint256[] memory,bytes memory)": "infinite"
			}
		},
		"methodIdentifiers": {
			"authenticateUser(string)": "1f919e8d",
			"authenticatedResearchers(string)": "bfc0ee28",
			"balanceOf(address,uint256)": "00fdd58e",
			"balanceOfBatch(address[],uint256[])": "4e1273f4",
			"burn(address,uint256,uint256)": "f5298aca",
			"burnBatch(address,uint256[],uint256[])": "6b20c454",
			"createResearch(string,string,uint256,uint256,uint256)": "2795c1cf",
			"fundResearch(uint256,uint256)": "74396a29",
			"isApprovedForAll(address,address)": "e985e9c5",
			"owner()": "8da5cb5b",
			"pause()": "8456cb59",
			"paused()": "5c975abb",
			"readArticle(uint256)": "5f2b4ad3",
			"redeemToken(uint256)": "013054c2",
			"renounceOwnership()": "715018a6",
			"researchById(uint256)": "c2a756ca",
			"researchOwner(uint256)": "50abac5d",
			"researchRequest(address,uint256)": "08f3e371",
			"safeBatchTransferFrom(address,address,uint256[],uint256[],bytes)": "2eb2c2d6",
			"safeTransferFrom(address,address,uint256,uint256,bytes)": "f242432a",
			"setApprovalForAll(address,bool)": "a22cb465",
			"setURI(string)": "02fe5305",
			"supportsInterface(bytes4)": "01ffc9a7",
			"transferOwnership(address)": "f2fde38b",
			"unpause()": "3f4ba83a",
			"uri(uint256)": "0e89341c"
		}
	},
	"abi": [
		{
			"inputs": [],
			"stateMutability": "nonpayable",
			"type": "constructor"
		},
		{
			"inputs": [
				{
					"internalType": "address",
					"name": "sender",
					"type": "address"
				},
				{
					"internalType": "uint256",
					"name": "balance",
					"type": "uint256"
				},
				{
					"internalType": "uint256",
					"name": "needed",
					"type": "uint256"
				},
				{
					"internalType": "uint256",
					"name": "tokenId",
					"type": "uint256"
				}
			],
			"name": "ERC1155InsufficientBalance",
			"type": "error"
		},
		{
			"inputs": [
				{
					"internalType": "address",
					"name": "approver",
					"type": "address"
				}
			],
			"name": "ERC1155InvalidApprover",
			"type": "error"
		},
		{
			"inputs": [
				{
					"internalType": "uint256",
					"name": "idsLength",
					"type": "uint256"
				},
				{
					"internalType": "uint256",
					"name": "valuesLength",
					"type": "uint256"
				}
			],
			"name": "ERC1155InvalidArrayLength",
			"type": "error"
		},
		{
			"inputs": [
				{
					"internalType": "address",
					"name": "operator",
					"type": "address"
				}
			],
			"name": "ERC1155InvalidOperator",
			"type": "error"
		},
		{
			"inputs": [
				{
					"internalType": "address",
					"name": "receiver",
					"type": "address"
				}
			],
			"name": "ERC1155InvalidReceiver",
			"type": "error"
		},
		{
			"inputs": [
				{
					"internalType": "address",
					"name": "sender",
					"type": "address"
				}
			],
			"name": "ERC1155InvalidSender",
			"type": "error"
		},
		{
			"inputs": [
				{
					"internalType": "address",
					"name": "operator",
					"type": "address"
				},
				{
					"internalType": "address",
					"name": "owner",
					"type": "address"
				}
			],
			"name": "ERC1155MissingApprovalForAll",
			"type": "error"
		},
		{
			"inputs": [],
			"name": "EnforcedPause",
			"type": "error"
		},
		{
			"inputs": [],
			"name": "ExpectedPause",
			"type": "error"
		},
		{
			"inputs": [],
			"name": "NoTokenBalance",
			"type": "error"
		},
		{
			"inputs": [],
			"name": "NotAuthenticated",
			"type": "error"
		},
		{
			"inputs": [],
			"name": "NotEnoughValue",
			"type": "error"
		},
		{
			"inputs": [],
			"name": "NotLiquidable",
			"type": "error"
		},
		{
			"inputs": [
				{
					"internalType": "address",
					"name": "owner",
					"type": "address"
				}
			],
			"name": "OwnableInvalidOwner",
			"type": "error"
		},
		{
			"inputs": [
				{
					"internalType": "address",
					"name": "account",
					"type": "address"
				}
			],
			"name": "OwnableUnauthorizedAccount",
			"type": "error"
		},
		{
			"inputs": [],
			"name": "PaymentFailed",
			"type": "error"
		},
		{
			"inputs": [],
			"name": "ResearchCap",
			"type": "error"
		},
		{
			"anonymous": false,
			"inputs": [
				{
					"indexed": true,
					"internalType": "address",
					"name": "account",
					"type": "address"
				},
				{
					"indexed": true,
					"internalType": "address",
					"name": "operator",
					"type": "address"
				},
				{
					"indexed": false,
					"internalType": "bool",
					"name": "approved",
					"type": "bool"
				}
			],
			"name": "ApprovalForAll",
			"type": "event"
		},
		{
			"anonymous": false,
			"inputs": [
				{
					"indexed": true,
					"internalType": "address",
					"name": "previousOwner",
					"type": "address"
				},
				{
					"indexed": true,
					"internalType": "address",
					"name": "newOwner",
					"type": "address"
				}
			],
			"name": "OwnershipTransferred",
			"type": "event"
		},
		{
			"anonymous": false,
			"inputs": [
				{
					"indexed": false,
					"internalType": "address",
					"name": "account",
					"type": "address"
				}
			],
			"name": "Paused",
			"type": "event"
		},
		{
			"anonymous": false,
			"inputs": [
				{
					"indexed": true,
					"internalType": "address",
					"name": "operator",
					"type": "address"
				},
				{
					"indexed": true,
					"internalType": "address",
					"name": "from",
					"type": "address"
				},
				{
					"indexed": true,
					"internalType": "address",
					"name": "to",
					"type": "address"
				},
				{
					"indexed": false,
					"internalType": "uint256[]",
					"name": "ids",
					"type": "uint256[]"
				},
				{
					"indexed": false,
					"internalType": "uint256[]",
					"name": "values",
					"type": "uint256[]"
				}
			],
			"name": "TransferBatch",
			"type": "event"
		},
		{
			"anonymous": false,
			"inputs": [
				{
					"indexed": true,
					"internalType": "address",
					"name": "operator",
					"type": "address"
				},
				{
					"indexed": true,
					"internalType": "address",
					"name": "from",
					"type": "address"
				},
				{
					"indexed": true,
					"internalType": "address",
					"name": "to",
					"type": "address"
				},
				{
					"indexed": false,
					"internalType": "uint256",
					"name": "id",
					"type": "uint256"
				},
				{
					"indexed": false,
					"internalType": "uint256",
					"name": "value",
					"type": "uint256"
				}
			],
			"name": "TransferSingle",
			"type": "event"
		},
		{
			"anonymous": false,
			"inputs": [
				{
					"indexed": false,
					"internalType": "string",
					"name": "value",
					"type": "string"
				},
				{
					"indexed": true,
					"internalType": "uint256",
					"name": "id",
					"type": "uint256"
				}
			],
			"name": "URI",
			"type": "event"
		},
		{
			"anonymous": false,
			"inputs": [
				{
					"indexed": false,
					"internalType": "address",
					"name": "account",
					"type": "address"
				}
			],
			"name": "Unpaused",
			"type": "event"
		},
		{
			"inputs": [
				{
					"internalType": "string",
					"name": "proof",
					"type": "string"
				}
			],
			"name": "authenticateUser",
			"outputs": [],
			"stateMutability": "nonpayable",
			"type": "function"
		},
		{
			"inputs": [
				{
					"internalType": "string",
					"name": "",
					"type": "string"
				}
			],
			"name": "authenticatedResearchers",
			"outputs": [
				{
					"internalType": "address",
					"name": "",
					"type": "address"
				}
			],
			"stateMutability": "view",
			"type": "function"
		},
		{
			"inputs": [
				{
					"internalType": "address",
					"name": "account",
					"type": "address"
				},
				{
					"internalType": "uint256",
					"name": "id",
					"type": "uint256"
				}
			],
			"name": "balanceOf",
			"outputs": [
				{
					"internalType": "uint256",
					"name": "",
					"type": "uint256"
				}
			],
			"stateMutability": "view",
			"type": "function"
		},
		{
			"inputs": [
				{
					"internalType": "address[]",
					"name": "accounts",
					"type": "address[]"
				},
				{
					"internalType": "uint256[]",
					"name": "ids",
					"type": "uint256[]"
				}
			],
			"name": "balanceOfBatch",
			"outputs": [
				{
					"internalType": "uint256[]",
					"name": "",
					"type": "uint256[]"
				}
			],
			"stateMutability": "view",
			"type": "function"
		},
		{
			"inputs": [
				{
					"internalType": "address",
					"name": "account",
					"type": "address"
				},
				{
					"internalType": "uint256",
					"name": "id",
					"type": "uint256"
				},
				{
					"internalType": "uint256",
					"name": "value",
					"type": "uint256"
				}
			],
			"name": "burn",
			"outputs": [],
			"stateMutability": "nonpayable",
			"type": "function"
		},
		{
			"inputs": [
				{
					"internalType": "address",
					"name": "account",
					"type": "address"
				},
				{
					"internalType": "uint256[]",
					"name": "ids",
					"type": "uint256[]"
				},
				{
					"internalType": "uint256[]",
					"name": "values",
					"type": "uint256[]"
				}
			],
			"name": "burnBatch",
			"outputs": [],
			"stateMutability": "nonpayable",
			"type": "function"
		},
		{
			"inputs": [
				{
					"internalType": "string",
					"name": "authentication",
					"type": "string"
				},
				{
					"internalType": "string",
					"name": "repo",
					"type": "string"
				},
				{
					"internalType": "uint256",
					"name": "invest",
					"type": "uint256"
				},
				{
					"internalType": "uint256",
					"name": "articlePrice",
					"type": "uint256"
				},
				{
					"internalType": "uint256",
					"name": "articlePriceIncreaseRate",
					"type": "uint256"
				}
			],
			"name": "createResearch",
			"outputs": [],
			"stateMutability": "nonpayable",
			"type": "function"
		},
		{
			"inputs": [
				{
					"internalType": "uint256",
					"name": "id",
					"type": "uint256"
				},
				{
					"internalType": "uint256",
					"name": "amount",
					"type": "uint256"
				}
			],
			"name": "fundResearch",
			"outputs": [],
			"stateMutability": "payable",
			"type": "function"
		},
		{
			"inputs": [
				{
					"internalType": "address",
					"name": "account",
					"type": "address"
				},
				{
					"internalType": "address",
					"name": "operator",
					"type": "address"
				}
			],
			"name": "isApprovedForAll",
			"outputs": [
				{
					"internalType": "bool",
					"name": "",
					"type": "bool"
				}
			],
			"stateMutability": "view",
			"type": "function"
		},
		{
			"inputs": [],
			"name": "owner",
			"outputs": [
				{
					"internalType": "address",
					"name": "",
					"type": "address"
				}
			],
			"stateMutability": "view",
			"type": "function"
		},
		{
			"inputs": [],
			"name": "pause",
			"outputs": [],
			"stateMutability": "nonpayable",
			"type": "function"
		},
		{
			"inputs": [],
			"name": "paused",
			"outputs": [
				{
					"internalType": "bool",
					"name": "",
					"type": "bool"
				}
			],
			"stateMutability": "view",
			"type": "function"
		},
		{
			"inputs": [
				{
					"internalType": "uint256",
					"name": "id",
					"type": "uint256"
				}
			],
			"name": "readArticle",
			"outputs": [
				{
					"internalType": "string",
					"name": "repo",
					"type": "string"
				}
			],
			"stateMutability": "payable",
			"type": "function"
		},
		{
			"inputs": [
				{
					"internalType": "uint256",
					"name": "id",
					"type": "uint256"
				}
			],
			"name": "redeemToken",
			"outputs": [],
			"stateMutability": "payable",
			"type": "function"
		},
		{
			"inputs": [],
			"name": "renounceOwnership",
			"outputs": [],
			"stateMutability": "nonpayable",
			"type": "function"
		},
		{
			"inputs": [
				{
					"internalType": "uint256",
					"name": "",
					"type": "uint256"
				}
			],
			"name": "researchById",
			"outputs": [
				{
					"internalType": "uint256",
					"name": "id",
					"type": "uint256"
				},
				{
					"internalType": "enum Scientify.ResearchState",
					"name": "state",
					"type": "uint8"
				},
				{
					"internalType": "uint256",
					"name": "investiment",
					"type": "uint256"
				},
				{
					"internalType": "uint256",
					"name": "articlePrice",
					"type": "uint256"
				},
				{
					"internalType": "uint256",
					"name": "sharePrice",
					"type": "uint256"
				},
				{
					"internalType": "uint256",
					"name": "articlePriceIncreaseRate",
					"type": "uint256"
				},
				{
					"internalType": "uint256",
					"name": "funding",
					"type": "uint256"
				},
				{
					"internalType": "uint256",
					"name": "profit",
					"type": "uint256"
				},
				{
					"internalType": "address",
					"name": "owner",
					"type": "address"
				}
			],
			"stateMutability": "view",
			"type": "function"
		},
		{
			"inputs": [
				{
					"internalType": "uint256",
					"name": "",
					"type": "uint256"
				}
			],
			"name": "researchOwner",
			"outputs": [
				{
					"internalType": "address",
					"name": "",
					"type": "address"
				}
			],
			"stateMutability": "view",
			"type": "function"
		},
		{
			"inputs": [
				{
					"internalType": "address",
					"name": "",
					"type": "address"
				},
				{
					"internalType": "uint256",
					"name": "",
					"type": "uint256"
				}
			],
			"name": "researchRequest",
			"outputs": [
				{
					"internalType": "uint256",
					"name": "id",
					"type": "uint256"
				},
				{
					"internalType": "enum Scientify.ResearchState",
					"name": "state",
					"type": "uint8"
				},
				{
					"internalType": "uint256",
					"name": "investiment",
					"type": "uint256"
				},
				{
					"internalType": "uint256",
					"name": "articlePrice",
					"type": "uint256"
				},
				{
					"internalType": "uint256",
					"name": "sharePrice",
					"type": "uint256"
				},
				{
					"internalType": "uint256",
					"name": "articlePriceIncreaseRate",
					"type": "uint256"
				},
				{
					"internalType": "uint256",
					"name": "funding",
					"type": "uint256"
				},
				{
					"internalType": "uint256",
					"name": "profit",
					"type": "uint256"
				},
				{
					"internalType": "address",
					"name": "owner",
					"type": "address"
				}
			],
			"stateMutability": "view",
			"type": "function"
		},
		{
			"inputs": [
				{
					"internalType": "address",
					"name": "from",
					"type": "address"
				},
				{
					"internalType": "address",
					"name": "to",
					"type": "address"
				},
				{
					"internalType": "uint256[]",
					"name": "ids",
					"type": "uint256[]"
				},
				{
					"internalType": "uint256[]",
					"name": "values",
					"type": "uint256[]"
				},
				{
					"internalType": "bytes",
					"name": "data",
					"type": "bytes"
				}
			],
			"name": "safeBatchTransferFrom",
			"outputs": [],
			"stateMutability": "nonpayable",
			"type": "function"
		},
		{
			"inputs": [
				{
					"internalType": "address",
					"name": "from",
					"type": "address"
				},
				{
					"internalType": "address",
					"name": "to",
					"type": "address"
				},
				{
					"internalType": "uint256",
					"name": "id",
					"type": "uint256"
				},
				{
					"internalType": "uint256",
					"name": "value",
					"type": "uint256"
				},
				{
					"internalType": "bytes",
					"name": "data",
					"type": "bytes"
				}
			],
			"name": "safeTransferFrom",
			"outputs": [],
			"stateMutability": "nonpayable",
			"type": "function"
		},
		{
			"inputs": [
				{
					"internalType": "address",
					"name": "operator",
					"type": "address"
				},
				{
					"internalType": "bool",
					"name": "approved",
					"type": "bool"
				}
			],
			"name": "setApprovalForAll",
			"outputs": [],
			"stateMutability": "nonpayable",
			"type": "function"
		},
		{
			"inputs": [
				{
					"internalType": "string",
					"name": "newuri",
					"type": "string"
				}
			],
			"name": "setURI",
			"outputs": [],
			"stateMutability": "nonpayable",
			"type": "function"
		},
		{
			"inputs": [
				{
					"internalType": "bytes4",
					"name": "interfaceId",
					"type": "bytes4"
				}
			],
			"name": "supportsInterface",
			"outputs": [
				{
					"internalType": "bool",
					"name": "",
					"type": "bool"
				}
			],
			"stateMutability": "view",
			"type": "function"
		},
		{
			"inputs": [
				{
					"internalType": "address",
					"name": "newOwner",
					"type": "address"
				}
			],
			"name": "transferOwnership",
			"outputs": [],
			"stateMutability": "nonpayable",
			"type": "function"
		},
		{
			"inputs": [],
			"name": "unpause",
			"outputs": [],
			"stateMutability": "nonpayable",
			"type": "function"
		},
		{
			"inputs": [
				{
					"internalType": "uint256",
					"name": "",
					"type": "uint256"
				}
			],
			"name": "uri",
			"outputs": [
				{
					"internalType": "string",
					"name": "",
					"type": "string"
				}
			],
			"stateMutability": "view",
			"type": "function"
		}
	]
}